:020000040800F2
:1000000088BB01205D3E0008D13C0008D33C0008BD
:10001000D73C0008DB3C0008DF3C00080000000083
:100020000000000000000000000000006F3E00081B
:10003000E73C000800000000733E0008E93C0008AF
:10004000773E0008773E0008773E0008773E0008BC
:10005000773E0008773E0008773E0008773E0008AC
:10006000773E0008773E0008773E0008773E00089C
:10007000773E00083F3D0008773E0008473D0008F6
:10008000773E0008773E0008773E0008773E00087C
:10009000773E0008773E0008773E0008773E00086C
:1000A000773E0008773E0008773E0008773E00085C
:1000B000773E0008773E0008773E0008773E00084C
:1000C000773E0008773E0008773E0008773E00083C
:1000D000773E0008773E0008773E0008773E00082C
:1000E000773E0008773E0008773E0008773E00081C
:1000F000773E0008773E0008773E0008773E00080C
:10010000773E0008773E0008F13C0008773E000883
:10011000773E0008773E0008773E0008773E0008EB
:10012000773E0008773E0008773E0008773E0008DB
:10013000773E0008773E0008773E0008773E0008CB
:10014000773E0008773E0008773E0008773E0008BB
:10015000773E0008773E0008773E0008773E0008AB
:10016000773E0008773E0008773E0008773E00089B
:10017000773E0008773E0008773E0008773E00088B
:10018000773E000800F002F800F080F80AA090E83E
:10019000000C82448344AAF10107DA4501D100F042
:1001A00075F8AFF2090EBAE80F0013F0010F18BF8F
:1001B000FB1A43F0010318475C1701008C1701007C
:1001C0000A444FF0000C10F8013B13F0070408BF7D
:1001D00010F8014B1D1108BF10F8015B641E05D01B
:1001E00010F8016B641E01F8016BF9D113F0080FD0
:1001F0001EBF10F8014BAD1C0C1B09D16D1E58BF62
:1002000001F801CBFAD505E014F8016B01F8016B98
:100210006D1EF9D59142D6D370470000103A24BF25
:1002200078C878C1FAD8520724BF30C830C144BF5B
:1002300004680C607047000000230024002500269D
:10024000103A28BF78C1FBD8520728BF30C148BF39
:100250000B60704764290EF0098678290EF04286FB
:1002600073290FF0A281002070471FB59DE803009D
:100270000FF0DCF80FF078FA0400002000210FF0F6
:10028000EDFA401C60601FBD10B510BD0FF047FABD
:100290001146FFF7EAFF00F0A1F80FF077FA03B478
:1002A000FFF7F2FF03BC0FF0A7FA000000B589B01A
:1002B00001200BF0ECF900BF61200BF08AF9002857
:1002C000FAD0012108200BF018FB4021A0480CF0C7
:1002D00065FC012200219E480BF0FCFE0C20ADF8CD
:1002E00014000020ADF816000120ADF818000C2015
:1002F000ADF81A000020ADF81C0005A994480CF0D8
:1003000083FA32208DF8200000208DF821008DF82E
:10031000220001208DF8230008A80AF056F90121D7
:100320008B480BF023FF00208949103108800122FF
:10033000102187480CF032FB00BF86480068022875
:10034000FBD183480BF0DCFD01A80BF00EFA8248CC
:10035000006800F4E05038B9804903980968B0FBA0
:10036000F1F0C00009B000BD039840007B49096866
:10037000B0FBF1F0C000F5E710B5FFF797FF784943
:10038000086045F255500CF00DFC03200CF00DFCFC
:1003900073480068C0F30F100CF00AFC0CF00BFC63
:1003A0000CF00EFC10BD96206E490880704710B509
:1003B0004FF47A716C4800F05FF970B169480088B9
:1003C00058B168480088401E664908800846008881
:1003D00018B90DF071FD00BFFEE710BD00206349A4
:1003E000086063490860634908604FF47A7002F05E
:1003F00013FE00F013FC4FF47A7002F00DFE00F0D3
:100400001FFC03F0DDFB00F0FFF800F0FDF800F04A
:1004100073FD00F08BFD00F0F7F800F0F5F800F048
:1004200091FA03F0C1FA02F077FF4FF47A7002F00C
:10043000F3FD00F0E9F800F0E7F803F04DFB4FF4AE
:100440007A7002F0E9FD00F0DFF800F0DDF8FFF768
:1004500093FF0DF041FD79E000F084FA02F0BBFC5F
:10046000FFF7A5FF4448007870B14FF47A71404817
:1004700000F002F918B100F0C7F800F029FD0DF006
:100480001BFD0EF061FA1CE04FF47A71384800F061
:10049000F3F808B100F0B8F841F28831354800F0BF
:1004A000EBF820B101200CF09CFC00F011FD4CF2A7
:1004B00050312E4800F0E0F808B100F011FE0DF0C8
:1004C00020FF2E480068642804DB00202B490860C8
:1004D00003F0CEFB2A480068C82804DB0220284924
:1004E000086003F0C6FB27480068B0F5FA7F04DB1C
:1004F00000202449086003F0BDFB23480068B0F5E4
:100500007A7F04DB00202049086003F0B9FB1F4814
:10051000006841F28831884202DB00201B490860F4
:100520001B48006842F21071884204DB0020184921
:10053000086003F0B3FB1748006844F62061884266
:1005400004DB00201349086003F0ACFB84E70000E3
:10055000000C004098030020083802409C03002053
:1005600094030020A0030020A8030020B40300206F
:10057000B0030020AC030020EA070020F8050020AB
:10058000FC050020000600200406002008060020CC
:100590000C0600201006002004E0002200F8012BC9
:1005A0004A1E91B20029F8DC704703E000F8011BF5
:1005B000531E9AB2002AF9DC704705E011F8013B9E
:1005C00000F8013B531E9AB2002AF7DC7047000086
:1005D0001CB501208DF8040000208DF806000320D2
:1005E0008DF8050000208DF8070004200090694672
:1005F00033480AF0F5FC042131480AF06DFD04216E
:100600002F480AF06BFD1CBD10B50CF0D4FA042184
:100610002B480AF054FDC0F10100C4B22246042167
:1006200027480AF05DFD10BD2648007848B100203B
:1006300025490860012025490880002021490870CB
:1006400006E0214800682149098808441E490860DD
:100650001F480078401C1E490870084600781D4954
:100660000978884207DB0020194908701A48007889
:10067000401C1949087070470246E1B1124B1068DE
:100680001B6898420CD91068C0F1FF300E4B1B68F4
:10069000184488420FD30C4800681060012070474E
:1006A000094B10681B68181A884204D30648006872
:1006B00010600120F3E70020F1E703490868704764
:1006C00000100240C0030020BC030020B80300203B
:1006D000C103002006070020A503002010B5044632
:1006E000012C01DB112C00DD10BD601E8D4901EBDA
:1006F00040004078C0F3001020B180218A480AF001
:10070000EBFC03E0802188480AF0E8FC601E854984
:1007100001EB40004078C0F3C00028B14FF4807175
:1007200081480AF0D9FC04E04FF480717E480AF059
:10073000D5FC601E7B4901EB40004078C0F380008F
:1007400028B14FF4007178480AF0C6FC04E04FF479
:10075000007175480AF0C2FC601E724901EB40004E
:10076000407800F0010028B14FF480616E480AF033
:10077000B3FC04E04FF480616B480AF0AFFC601EEC
:10078000684901EB40004078C0F3400028B14FF4C5
:10079000006166480AF0A2FC04E04FF4006163487F
:1007A0000AF09AFC00BF9FE710B54FF480615F48E4
:1007B0000AF094FC4FF400415B480AF08FFC10BD36
:1007C0001CB501208DF8040000208DF806000320E0
:1007D0008DF8050000208DF807004FF6807000901E
:1007E000694651480AF0FCFB4FF4406000906946AE
:1007F0004E480AF0F5FBFFF7D7FF0DF02DFB4FF445
:1008000000614A480AF06AFC1CBD2DE9F04100264F
:10081000002747490978481EC11700EB5171C910DC
:10082000A0EBC101C1F1070201219140CEB24049C4
:100830000978481EC11700EB5171C1F3C7070024A6
:100840003DE02046E21704EB5272D210D200D21DD6
:100850002146E31704EB5373DB10A4EBC303D21A56
:10086000D5B2344800EB4500C05D304028B14FF4AC
:1008700080412D480AF030FC04E04FF480412A48C2
:100880000AF02CFC2C4800EB4500C05D304028B13C
:100890004FF4805124480AF01FFC04E04FF48051CB
:1008A00021480AF01BFC4FF4806120480AF014FC38
:1008B0004FF480611D480AF011FC601CC4B2902CFA
:1008C000BFDB4FF4006119480AF008FC1B480088A0
:1008D00002F0A2FB4FF4004113480AF0FDFB4FF475
:1008E000004111480AF0FAFB11480078FFF7F6FEC4
:1008F0000F480078401C0E49087008460078102800
:1009000001DD012008700A490878C11700EB117158
:100910000911A0EB0111012902D101200849087039
:10092000BDE8F08188F80008001002400004024091
:10093000C80300202009002000080020080700202C
:10094000A403002010B50120254908600A2025498C
:10095000087003F046FA24490870012023490880F2
:1009600010BD7047704700B51D480068401C1C4909
:10097000086008460068142807D10020086001209C
:100980001B490860FFF7EDFF08E015480068B0F567
:100990007A7F03DD4FF47A701149086000BD70471B
:1009A00010B50446402C02DD4FF0FF3010BD0E495B
:1009B0000C7002F0FDFF00F012FB0020F6E710B50E
:1009C0000446B4F5803F02DD4FF0FF3010BD07490B
:1009D0000C8002F0EDFF00F0F2FA0020F6E70000D4
:1009E000D0030020CC030020CD030020CE03002044
:1009F000D403002010B50446724804600068002843
:100A000003DA00206F49086006E06E480068282875
:100A100002DD28206B4908606A49087801F0DDFF93
:100A200002F0C6FF002010BD10B5002405E0002034
:100A30006549085565490855641C012CF7DB624877
:100A400063490860614863490860002062490860A2
:100A50006249086062490860624908606248634907
:100A6000086000206249086002206249086062480C
:100A700062490860002062490860022061490860FC
:100A80000020614908600120604908600020604939
:100A900008600A204B49086001F099FF4FF47A7012
:100AA00002F0BAFA01F02CFD01F04CFD4FF47A701F
:100AB00002F0B2FA01F013FE01F033FE4FF47A7047
:100AC00002F0AAFA42F2107002F0A6FA42F2107096
:100AD00002F0A2FA03F000F842F2107002F09CFA61
:100AE00042F2107002F098FA36480068FFF782FF71
:100AF00010BD48480068002807DD0020454908600F
:100B000045480068401C4449086043480068032881
:100B100008DD41480068092804DA2D4800680021F2
:100B2000017006E03C480068802802DD80203A49D8
:100B30000860704736480068401E3549086008461E
:100B40000068002801DA00200860704710B50446EC
:100B5000224800681E490968084421780170012173
:100B60001E48006802F0A7FA1C49086000202A49C4
:100B7000086010BD10B504461A4800681549096898
:100B800008442178017001211648006802F093FAA8
:100B900014490860002010BD10B51C4800680128E9
:100BA0000ED11948006801280AD1002016490860B2
:100BB0004FF480610F48006802F07DFA0C4908602C
:100BC00010BD000028040020D8030020EC03002002
:100BD000DC030020F0030020E4030020E0030020F9
:100BE000F8030020F4030020600B00200004002024
:100BF0000804002004040020601B00200C040020D6
:100C00001404002010040020180400201C040020FC
:100C10002004002078050020E803002010B5012101
:100C20007F200AF037FE012188030AF077FE0121B8
:100C300008460AF073FE012188050AF05EFE10BD29
:100C40001CB50420009001208DF8040000208DF8D0
:100C5000060003208DF8050000208DF80700694686
:100C6000CC480AF0BDF90820009001208DF804005E
:100C700000208DF8060003208DF8050000208DF877
:100C800007006946C3480AF0ABF904220121C148B4
:100C90000AF031FA04220021BE480AF02CFA0220A0
:100CA00000908DF804008DF8050001208DF80600F5
:100CB00000208DF807006946B6480AF091F9012036
:100CC00000906946B3480AF08BF94FF40070009029
:100CD00002208DF804008DF8050000208DF8060034
:100CE0008DF807006946AC480AF07AF90522092117
:100CF000A9480AF000FA4020009002208DF8040074
:100D00008DF8050000208DF806008DF80700694673
:100D1000A1480AF065F9052206219F480AF0EBF97F
:100D20004FF48050009002208DF804008DF80500EB
:100D300000208DF806008DF80700694697480AF0F4
:100D40004FF905220C2195480AF0D5F94FF40050CF
:100D5000009002208DF804008DF8050000208DF829
:100D600006008DF8070069468C480AF039F905221B
:100D70000D218A480AF0BFF94FF40040009002208C
:100D80008DF804008DF8050000208DF806008DF820
:100D90000700694681480AF023F905220F217F48A0
:100DA0000AF0A9F98020009002208DF804008DF847
:100DB000050000208DF806008DF80700694676488A
:100DC0000AF00EF90622072173480AF094F9102060
:100DD000009002208DF804008DF8050000208DF8A9
:100DE00006008DF8070069466D480AF0F9F80622FA
:100DF00004216B480AF07FF94FF4806000900220D4
:100E00008DF804008DF8050000208DF806008DF89F
:100E10000700694660480AF0E3F806220A215E48A6
:100E20000AF069F94FF48050009002208DF8040018
:100E30008DF8050000208DF806008DF80700694642
:100E400055480AF0CDF806220C2153480AF053F910
:100E50004FF40050009001208DF8040000208DF820
:100E6000060003208DF8050000208DF80700694674
:100E70004C480AF0B5F84FF48040009001208DF8FE
:100E8000040000208DF8060003208DF805000020E6
:100E90008DF80700694643480AF0A2F81020009038
:100EA00001208DF8040000208DF8060003208DF845
:100EB000050000208DF8070069463A480AF090F8CE
:100EC000FFF786FB02F04CFFFFF77AFC1CBD704772
:100ED00010B504212F480AF0F2F8C0F10100C4B2A5
:100EE000224604212B480AF0FBF810BD10B504215E
:100EF00028480AF0F3F810BD10B5042125480AF07F
:100F0000EBF810BD10B5082122480AF0D8F8C0F15E
:100F10000100C4B2224608211E480AF0E1F810BDC3
:100F200010B508211B480AF0D9F810BD10B50821EA
:100F300018480AF0D1F810BD10B50446002C05DDA4
:100F40004FF4005117480AF0C7F804E04FF400517D
:100F500014480AF0C3F810BD10B50446002C05DD96
:100F60004FF480410F480AF0B7F804E04FF4804195
:100F70000C480AF0B3F810BD10B50446002C04DD8F
:100F8000102108480AF0A8F803E0102105480AF0EB
:100F9000A5F810BD00140240000802400004024001
:100FA000000002400010024070B5044620460EF0DA
:100FB0009AF805462946204601F04CFF70BD10B551
:100FC0004FF48071E5480EF083F9E5480288E5A109
:100FD000E2480DF0E7FEE148FFF7E6FF10BD10B56F
:100FE0004FF48071DD480EF073F9E2480278E2A117
:100FF000DA480DF0D7FED948FFF7D6FF10BD10B57F
:101000004FF48071D5480EF063F9E0480278E0A112
:10101000D2480DF0C7FED148FFF7C6FF10BD1CB582
:101020004FF48071CD480EF053F9DE48C078DD49A9
:101030008978CDE90010DB4843780278DAA1C74807
:101040000DF0B0FEC548FFF7AFFF1CBD00B59BB06B
:101050006C22DC4968460EF001F96846FFF7A4FFF0
:10106000FFF7DDFFFFF7CBFFFFF7B9FFFFF7A7FFA4
:101070001BB000BD00B58DB04FF48071B7480EF0C5
:1010800027F9D1484079D0490979CF4AD278CE4B57
:101090009B78CDE90832CDE90A10CB484178007839
:1010A000CA4AD278C94B9B78CDE90432CDE9060112
:1010B000C6484078C5490A78C549C978C44B9B7869
:1010C000CDE90031CDE90220C14843780278C14919
:1010D000A2480DF067FEA148FFF766FF0DB000BD06
:1010E00030B5B7B0C822BC4905A80EF0B7F8042542
:1010F000142168460EF00EF9002419E0681EA04283
:101100000AD1B648025DB6A168460DF04BFE6946AD
:1011100005A80EF052F809E0B048025DB1A168469A
:101120000DF040FE694605A80EF047F8601CC4B2F9
:10113000AC42E3DB05A8FFF737FFFFF770FFFFF7CF
:1011400099FFFFF75CFFFFF74AFFFFF738FF37B063
:1011500030BD30B5C3B0C8229F49C83111A80EF0C8
:101160007DF82C22A0A106A80EF078F80425142101
:1011700001A80EF0CFF8002419E0681EA0420AD1A1
:101180009648025D96A101A80DF00CFE01A911A8D8
:101190000EF013F809E09148025D92A101A80DF04C
:1011A00001FE01A911A80EF008F8601CC4B2AC42FF
:1011B000E3DB11A8FFF7F8FEFFF731FFFFF75AFF57
:1011C000FFF71DFFFFF70BFFFFF7F9FE06A8FFF77C
:1011D000EBFE43B030BDF0B5C3B004460D464FF44E
:1011E000807103A80EF096F81020034603AA294642
:1011F0000090204601F064FF86A103A80EF0B2F82B
:10120000002833D184A107A80EF0ACF870BB0BA85E
:1012100001F0C9FFC0B28DF808000FA801F0C3FFAC
:10122000C0B28DF8090013A801F0BDFFC0B28DF85F
:101230000A0017A801F0B7FFC0B28DF80B004FF4F9
:10124000807146480EF044F875A144480DF0AAFD9F
:101250004248FFF7A9FE9DF80B309DF80A209DF843
:1012600009109DF8080002F0EEF875E071A103A8DE
:101270000EF078F838B968A107A80EF073F810B925
:10128000FFF7CDFE68E06BA103A80EF06BF838B94C
:101290006AA107A80EF066F810B9FFF7B0FE5BE090
:1012A0005CA103A80EF05EF860B966A107A80EF075
:1012B00059F838B90BA801F076FF06463046FFF71B
:1012C0006FFB49E05BA103A80EF04CF838B95DA1B3
:1012D00007A80EF047F810B9FFF781FE3CE04DA1DA
:1012E00003A80EF03FF860B958A107A80EF03AF82D
:1012F00038B90BA801F057FF06463046FFF75FFBF1
:101300002AE04CA103A80EF02DF838B94FA107A888
:101310000EF028F810B9FFF752FE1DE03DA103A81A
:101320000EF020F860B94BA107A80EF01BF838B9F1
:101330000BA801F038FF06463046FFF75BFB0BE0D9
:101340004FF4807105480DF0C3FF44A103480DF030
:1013500029FD0248FFF728FE43B0F0BD602B0020B6
:10136000CE030020547261696E2049643A202564DE
:1013700020200A00CD03002044657669636520497A
:10138000643A20256420200A00000000CC030020DD
:1013900044657669636520547970653A2025642038
:1013A000200A0000B60500200A4C6F63616C2049DA
:1013B000503A2025642E25642E25642E2564202095
:1013C0000A00000074110108B0050020BE050020CD
:1013D000BA050020E0110108ACF800080008010877
:1013E0002564000025642E00706C656173652064BF
:1013F0006F776E6C6F6164206170706C696361748B
:10140000696F6E2070726F6772616D65206E6F77A5
:1014100021210A00736574006C6F63616C69700050
:101420004F6B2C20706C6561736520776169742E39
:101430002E2E0A00726561640000000064657674F7
:101440007970650064657669640000007472616992
:101450006E696400766F6C756D650000496E76612B
:101460006C696420436F6D6D616E6420210A000019
:1014700000B5AFB001214FF060600AF00BFA02F046
:101480000BFE03F0CAFA00BF03F0CEFA0128FBD02E
:10149000684602F00CFE01200090002007904FF4F7
:1014A00000700A9000200B900E90119013901490F1
:1014B000159020904FF00070219000112390002093
:1014C0002590269004202890C005299040122A904B
:1014D00080012B9040122C9040002E9001216846F4
:1014E00002F03EFE344908602FB000BD1CB501215A
:1014F00067200AF0CFF9012188030AF00FFA4FF4B0
:101500008070009003208DF8050002208DF8040003
:1015100000208DF806008DF807006946274809F07D
:101520005FFD01200AF0D5FC862000906946234823
:1015300009F056FD0B220121204809F0DCFD0B22A9
:1015400002211E4809F0D7FD0B2207211B4809F094
:10155000D2FD322000906946194809F041FD0B2266
:101560000121174809F0C7FD0B220421144809F096
:10157000C2FD0B220521124809F0BDFD4FF4D040F9
:10158000009069460F4809F02BFD0B2211460D48CB
:1015900009F0B1FD0B220D210A4809F0ACFD0B2228
:1015A0000E21084809F0A7FD1CBD10B5FFF79EFFEE
:1015B000FFF75EFF10BD0000440400200000024061
:1015C000000802400018024010B50C2003F030FD66
:1015D00004461CB1002020606060A060204610BD61
:1015E00010B50446204603F071FC10BD70B50446EA
:1015F0000E46254615B1284603F068FC70BD70B54F
:1016000005460C460021284605F056F800212846DC
:1016100005F057F80021284605F050F8002128462B
:1016200005F052F8204603F051FC284604F068FC0F
:1016300070BD2DE9F04106460C46B6F86E006168B3
:10164000884202D2B6F86E5001E0A08885B200232D
:101650002A463046216806F0EDFB07462FB9206880
:10166000284420606068401B6060BDE8F0812DE97F
:10167000F04104460E461746254615B90020BDE840
:10168000F0810020287229463046FFF7D2FF002063
:10169000F5E770B504460D461CB9284604F030FC49
:1016A00003E021462846FFF7C4FF002070BD2DE966
:1016B000F04107460C4615461E46666025602146E9
:1016C0003846FFF7B6FFBDE8F08110B5034602E0EB
:1016D0005C54491C521C1478002CF9D1084610BDEA
:1016E0002DE9F05F81460C4616469A46DDF828B093
:1016F0000025A84648460DF0F6FC07462EE0207867
:1017000099F80010884227D13A46214648460DF004
:10171000BEFC08BB3C443D4420783D281CD1641CE1
:101720006D1C0BE020783070761C641C6D1C08F179
:10173000010808F10100584500D305E0207826286B
:1017400002D020780028EDD100BF00203070CAF808
:1017500000802846BDE8F09F6D1C641C207800289E
:10176000CDD100BFF6E710B504463CB90CF074FBD0
:101770000BF0A3FD05200CF0ABFD1EE0012C07D102
:101780000CF06AFB0BF099FD02200CF0A1FD14E0B7
:10179000022C07D10CF060FB0BF08FFD04200CF045
:1017A00097FD0AE0032C07D10CF056FB0BF085FDEA
:1017B00003200CF08DFD00E010BD00BFFCE7F0B58C
:1017C00099B0074628210FA80DF0A4FD282105A8EF
:1017D0000DF0A0FDFCA2FDA10FA80DF0E3FA042678
:1017E000142168460DF096FD002519E0701EA842F0
:1017F0000AD1F748425DF7A168460DF0D3FA694671
:101800000FA80DF0DAFC09E0F148425DF2A168464C
:101810000DF0C8FA69460FA80DF0CFFC681CC5B2E0
:10182000B542E3DBED4BEE4AEEA105A80DF0BAFAA6
:10183000EE480078012804D0022804D0032806D1FD
:1018400003E0012405E0022403E0032401E0002476
:1018500000BF00BFE64850F82400E649096805AA21
:10186000CDE90214019204900FA80090E248037899
:10187000E2480278E24938460DF094FA19B0F0BD1A
:101880002DE9FF4FADF6DC0D1746DDF8DC08CDF88D
:10189000D808DDF8E80800B99FB93FB13989DDF80B
:1018A000E00804F0DAFB384603F0A6FDDDF8D818AE
:1018B000DDF8E008FFF7A3FE00200DF6EC0DBDE813
:1018C000F08F3989DDF8E00804F0C7FB3E8900BFDE
:1018D0007889B0F5806F02DB40F2FF3901E0B7F89C
:1018E0000A904FF480610DF59B600DF013FD4A46A0
:1018F0000DF59B6079680DF06CFC00200DF59B6187
:1019000001F80900384603F077FDBE480068BD497C
:10191000086006220DF59B61BBA00DF003FCA0B989
:10192000BB4A002136A8FFF7D0FE0546B94A294632
:1019300036A8FFF7CAFE0546ABB236AADDF8D818BE
:10194000DDF8E008FFF7B3FE44E30E220DF59B61DE
:10195000B1A00DF0E7FBA0B9AD4A002136A8FFF712
:10196000B4FE0546B04A294636A8FFF7AEFE054646
:10197000ABB236AADDF8D818DDF8E008FFF797FE1D
:1019800028E311220DF59B61A8A00DF0CBFBB8B99F
:101990009F4A002136A8FFF798FE0546A848FFF7A2
:1019A0000EFFA74A294636A8FFF78FFE0546ABB2C1
:1019B00036AADDF8D818DDF8E008FFF778FE09E36D
:1019C0000D220DF59B619FA00DF0ACFBA0B9904AD4
:1019D000002136A8FFF779FE05469E4A294636A81B
:1019E000FFF773FE0546ABB236AADDF8D818DDF86E
:1019F000E008FFF75CFEEDE211220DF59B6196A079
:101A00000DF090FBA0B9824A002136A8FFF75DFED9
:101A10000546964A294636A8FFF757FE0546ABB25B
:101A200036AADDF8D818DDF8E008FFF740FED1E26D
:101A300012220DF59B618EA00DF074FBA0B9744AC3
:101A4000002136A8FFF741FE05468E4A294636A8F2
:101A5000FFF73BFE0546ABB236AADDF8D818DDF835
:101A6000E008FFF724FEB5E20B220DF59B6186A08E
:101A70000DF058FB002865D14FF00B086420009052
:101A80000DF59B6000EB080103AB1DAA81A0FFF7D9
:101A900027FE061E41D008EB0604642000900DF5D9
:101AA0009B60011902AB04AA7DA0FFF719FE064650
:101AB000039805281CD17DA11DA8039A0DF0E7FA13
:101AC000B0B90298A0B9524A002136A8FFF7FDFD2F
:101AD0000546784A294636A8FFF7F7FD0546ABB21A
:101AE00036AADDF8D818DDF8E008FFF7E0FD28E0B9
:101AF000474A002136A8FFF7E8FD05466E4A294609
:101B000036A8FFF7E2FD0546ABB236AADDF8D818D5
:101B1000DDF8E008FFF7CBFD13E03D4A002136A8D1
:101B2000FFF7D3FD0546644A294636A8FFF7CDFDE9
:101B30000546ABB236AADDF8D818DDF8E008FFF7A5
:101B4000B6FD47E20D220DF59B615CA00DF0EAFAAF
:101B5000A0B92F4A002136A8FFF7B7FD0546324A43
:101B6000294636A8FFF7B1FD0546ABB236AADDF827
:101B7000D818DDF8E008FFF79AFD2BE20E220DF5EC
:101B80009B6152A00DF0CEFA002817D14FF00E083D
:101B9000642000900DF59B6000EB08011CAB1DAAB2
:101BA0004EA0FFF79DFD061E09D09DF87400312858
:101BB00006D0322805D0332804D19BE0E8E0D2E0FB
:101BC00092E094E099E000005600000025730000C8
:101BD000000801082564000025642E001008010893
:101BE0000408010825732C2025730000B507002088
:101BF0005005002064050020CD030020CC03002008
:101C0000D812010888030020474554202F200000E7
:101C10003CFA000869FA0008474554202F6C6F67AA
:101C2000696E2E68746D00003BFE00084745542025
:101C30002F72756E5F696E666F2E68746D0000009E
:101C400060300020474554202F6C6566742E687400
:101C50006D000000BFFB0008474554202F6D6F64E6
:101C6000655F73656C2E68746D000000BDFF000831
:101C7000474554202F7570646174655F73772E68D3
:101C8000746D00005C020108474554202F6C6F679B
:101C9000696E3F00757365726E616D6500000000CE
:101CA00070617373776F72640000000061646D6926
:101CB0006E000000FFFA0008B2FC000847455420FF
:101CC0002F6C6F675F6572723F00000047455420BC
:101CD0002F6D6F64655F73656C3F00006D6F6465A9
:101CE0005F726164696F000001201B9008E00220B0
:101CF0001B9005E003201B9002E000201B9000BF1A
:101D000000BF08EB0604082000900DF59B60011948
:101D10001CAB1DAAECA0FFF7E3FC06464FF0000A3F
:101D200056B11C98022807D1E9A11DA81C9A0DF0F4
:101D3000AEF908B94FF0010A9DF86C00E549097841
:101D4000884207D09DF86C00E24908709DF86C004D
:101D5000FFF709FDBAF1000F05D001221BA940F6DB
:101D600002200BF006FDDC4A002136A8FFF7ADFC8F
:101D70000546DA4A294636A8FFF7A7FC0546ABB266
:101D800036AADDF8D818DDF8E008FFF790FC21E16D
:101D90000F220DF59B61D2A00DF0C4F90028F6D1F9
:101DA0004FF00F0A10905446802000900DF59B6074
:101DB000011935AB15AACEA0FFF792FC061E01D182
:101DC0000120109034440A2000900DF59B60011909
:101DD00035AB12AAC8A0FFF783FC061E01D1012073
:101DE0001090344412A80DF045F9C0B28DF84400AB
:101DF0000A2000900DF59B60011935AB12AABFA017
:101E0000FFF76EFC061E01D101201090344412A889
:101E10000DF030F9C0B28DF845000A2000900DF5A4
:101E20009B60011935AB12AAB5A0FFF759FC061E3D
:101E300001D101201090344412A80DF01BF9C0B25A
:101E40008DF846000A2000900DF59B60011935AB16
:101E500012AAACA0FFF744FC061E01D1012010908D
:101E600012A80DF007F9C0B28DF847009DF84400A4
:101E700040B19DF8450028B19DF8460010B19DF88D
:101E8000470008B9012010903444082000900DF557
:101E90009B60011935AB12AA8BA0FFF721FC064607
:101EA0004FF0000B56B13598022807D188A112A82F
:101EB000359A0DF0ECF808B94FF0010B1098A0B16D
:101EC000854A002136A8FFF700FC05468E4A2946C0
:101ED00036A8FFF7FAFB0546ABB236AADDF8D818EC
:101EE000DDF8E008FFF7E3FB73E00CF022FDA0B1A2
:101EF000794A002136A8FFF7E8FB0546834A2946C0
:101F000036A8FFF7E2FB0546ABB236AADDF8D818D3
:101F1000DDF8E008FFF7CBFB5BE011AB7CA215A975
:101F200001200CF064FEA0B16B4A002136A8FFF737
:101F3000CCFB0546744A294636A8FFF7C6FB054682
:101F4000ABB236AADDF8D818DDF8E008FFF7AFFB32
:101F50003FE011AB6EA215A901200CF083FE5E4A92
:101F6000002136A8FFF7B1FB0546684A294636A886
:101F7000FFF7ABFB0546ABB236AADDF8D818DDF8A3
:101F8000E008FFF794FB15A80DF0ADF8801D80B2B6
:101F90000F900F980CF0B0FE80461198C8F8000022
:101FA00015A80DF0A0F888F8040015AAAFF2E431E6
:101FB00008F105000CF0F6FEBBF1000F05D041461C
:101FC00040F603200F9A0BF0D4FB40460CF0C3FE02
:101FD00000BF00BFDDF8D818DDF8E008FFF70FFB01
:101FE00000206AE42DE9F04106460D461746FFF74A
:101FF000EBFA04461CB94FF0FF30BDE8F081002039
:10200000206060602146284604F056FB424928467D
:1020100004F054FB4149284604F056FB0A2240498B
:10202000284604F056FB3F49284604F04AFB0020AE
:10203000E3E770B504F03BFB054650223A492846D9
:1020400004F00BF9044600BFFF21284604F07BF999
:1020500005462946284604F02FFB3449284604F05B
:1020600036FB70BD32490870704710B531480078B2
:1020700050B100202F490870FEF71FFB2E49086061
:102080002B4800782D4908702C4800782849097899
:10209000884207D02648007828490870FEF70DFBD3
:1020A000254908602548007860B14CF2503122483B
:1020B000FEF7E2FA30B10020204908701C49087090
:1020C0000CF03FFB10BD0000616C6C5F6465760036
:1020D0006F6E0000B50700203CFA0008BDFF000845
:1020E000474554202F7570646174655F73773F00B6
:1020F00073775F66696C65006970310069703200E2
:102100006970330069703400E6FD00081E0601089E
:102110006F6374657400000081180008ED150008F5
:10212000931600086F1600080A070108E51F00084B
:102130004C04002075050020700500207405002067
:102140001FB50020ADF804004BF6FF70ADF8060097
:10215000A020ADF808004FF48060ADF80A0000013F
:10216000ADF80C00E14800900121E14809F09DF82C
:102170006946DF4809F01DF81FBD2DE9F04104460E
:102180000D46270AE6B200BF4FF40031D84809F0E7
:10219000B2F90028F8D10121D54809F092F800BF22
:1021A000D449D34809F085F90028F9D00022A021AC
:1021B000CF4809F09EF800BFCF49CD4809F079F922
:1021C0000028F9D03946CA4809F017F900BFCB49B1
:1021D000C74809F090F90028F9D03146C44809F001
:1021E0000CF900BFC549C24809F085F90028F9D0AB
:1021F0002946BF4809F001F900BFC049BC4809F0B1
:102200007AF90028F9D000BFBB49891EB84809F007
:1022100050F90028F8D00121B54809F05EF8BDE872
:10222000F0812DE9F0410446260AE5B200BF4FF4E3
:102230000031AF4809F05FF90028F8D10121AC481E
:1022400009F03FF800BFAB49A94809F032F900286E
:10225000F9D00022A021A64809F04BF800BFA649FA
:10226000A34809F026F90028F9D03146A04809F022
:10227000C4F800BFA1499E4809F03DF90028F9D0F3
:1022800029469B4809F0B9F800BF9C49984809F0D5
:1022900032F90028F9D00121954809F012F800BF61
:1022A0009449934809F005F90028F9D00122A021AA
:1022B0008F4809F01EF800BF9049891E8C4809F02C
:1022C0001AF90028F8D00021894809F01AF888483E
:1022D000183000880121864808F0FFFF00BF8749B9
:1022E0003C31834809F007F90028F8D0804809F00C
:1022F00086F8074600BF7E48008800F4007000287A
:10230000F9D101217A4808F0FCFF3846BDE8F08198
:102310002DE9F04706460F4615464FF6FF7000EAD6
:1023200046184FEA182A08F0FF09202D00DD202565
:1023300000BF4FF400316E4809F0DDF80028F8D1F5
:1023400001216B4808F0BDFF00BF6A49684809F0E9
:10235000B0F80028F9D00022A021654808F0C9FF94
:1023600000BF6549624809F0A4F80028F9D0514639
:102370005F4809F042F800BF60495D4809F0BBF8CA
:102380000028F9D049465A4809F037F800BF5B49A0
:10239000574809F0B0F80028F9D000240BE0395D67
:1023A000534809F02AF800BF5449514809F0A3F8EE
:1023B0000028F9D0641CAC42F1DB00BF4E49891EF5
:1023C0004B4809F076F80028F8D00121484808F079
:1023D00084FFBDE8F0872DE9F04706460F46154615
:1023E0004FF6FF7000EA46184FEA182A08F0FF0976
:1023F000202D00DD202500BF4FF400313C4809F0BE
:102400007AF80028F8D10121394808F05AFF00BFB6
:102410003849374809F04DF80028F9D00022A021AA
:10242000334808F066FF00BF3349314809F041F8EE
:102430000028F9D051462E4808F0DFFF00BF2F4991
:102440002B4809F058F80028F9D04946284808F0E8
:10245000D4FF00BF2949264809F04DF80028F9D0DB
:1024600000243AE00121224808F02BFF00BF214957
:102470001F4809F01EF80028F9D00122A0211C48AD
:1024800008F037FF00BF1D49891E194809F033F8CD
:102490000028F8D00021164808F033FF14481830FF
:1024A00000880121124808F018FF00BF13493C3191
:1024B0000F4809F020F80028F8D00D4808F09FFFD9
:1024C000385500BF0A48008800F400700028F9D190
:1024D0000121074808F015FF641CAC42C2DBBDE8CF
:1024E000F08770470146002070477047A0860100C2
:1024F00000580040010003008200070004000010A3
:102500001FB50121880309F0F8F9FE4809F000FB26
:102510004AF6444002900020ADF80200ADF80400F5
:10252000ADF80C004FF40070ADF800000020ADF8DD
:1025300006006946F34809F02FFB0121F14809F034
:10254000DAFB1FBD00B591B00121480509F0A2F9E1
:102550000021ED4808F080F9EB4808F0A1F80022CE
:10256000EA49E94808F09FF90121E74808F0A7F98E
:1025700000200290E3480C300390E548049040208E
:10258000059000010690002007904FF480600890AD
:102590004000099080000A9040110B9040020C907E
:1025A00004200D9003200E9000200F90109002A99F
:1025B000D54808F017F901221021D34808F0D9F9BD
:1025C00001220821D04808F0D4F90F208DF804002A
:1025D00000208DF805008DF8060001208DF8070019
:1025E00001A807F0F2FF0121C74808F035F90122E0
:1025F0000221C44809F0EAFB11B000BD70B5C24821
:1026000008F06DF908B9C14D00E0C14DC14800683E
:10261000C149096846180121BE48006800F04BFD19
:10262000BC490860002405E036F8140005EB84017D
:102630004880641CB4F5007FF6DB70BD70B5B2480D
:1026400008F04DF908B9B14D00E0B14DB34800684C
:10265000B349096846180121B048006800F02BFD15
:10266000AE490860002405E036F81400610025F842
:102670001100641CB4F5007FF6DB70BD10B5A948ED
:102680000068A8490860A8499F4808F08FF9012808
:1026900016D1A5499C4808F0B3F9A2480068A149A1
:1026A0000860FFF7CBFFFFF7A9FF01209F490860F3
:1026B0009F480068401C9E49086001209D490860B1
:1026C0009D49914808F072F9012807D19A498E482E
:1026D00008F096F9934800689249086010BD1FB54C
:1026E0000121C80309F009F9944809F011FA4AF6E2
:1026F000444002900020ADF80200ADF80400ADF8AF
:102700000C004FF48070ADF800000020ADF806001A
:1027100069468A4809F040FA0121884809F0EBFA35
:102720001FBD00B591B00121480509F0B3F80021A3
:102730007548303808F090F87348303807F0B0FF2B
:1027400000227F497048303808F0ADF801216E480A
:10275000303808F0B4F80020029078480C3003902C
:1027600078480490002005904FF480600690002087
:1027700007904FF4806008904000099080000A9014
:1027800040110B9040020C9004200D9003200E90FD
:1027900000200F90109002A95B48303808F022F812
:1027A000012210215848303808F0E3F801220821AE
:1027B0005548303808F0DDF80D208DF80400012070
:1027C0008DF8050000208DF8060001208DF8070027
:1027D00001A807F0FAFE01214B48303808F03CF818
:1027E00001221146554809F0F1FA11B000BD70B54B
:1027F0004548303808F073F808B9514D00E0514DA4
:10280000514800685149096801EB802604214E486F
:10281000006800F050FC4C490860002405E06000AE
:1028200035F8100026F81400641CB4F5007FF6DBC0
:1028300070BD10B53B4800683A49086044493248C9
:10284000303808F0B3F801280DD141492E4830380E
:1028500008F0D6F8FFF7CBFF01203E490860314869
:102860000068304908603C492748303808F09EF835
:10287000012808D138492448303808F0C1F82948DF
:1028800000682849086010BD002000E0401C0528B1
:10289000FCDB704770B506460D462846FEF76CFB1C
:1028A0000120FEF759FB0020FEF746FBFFF7ECFF87
:1028B00000241DE046FA04F000F0010030B90020C9
:1028C000FEF73AFB0020FEF737FB05E00020FEF79D
:1028D00033FB0120FEF730FB0020FEF73DFBFFF746
:1028E000D3FF0120FEF738FBFFF7CEFF601CC4B218
:1028F000082CDFDBFFF7C8FF0120FEF73DFBFFF7E9
:10290000C3FF70BD0038004070600240603C002092
:1029100060340020F8030020F0030020E4030020CE
:10292000DC030020880300202080002078050020A0
:102930003C0400204004002010400020003C0040E7
:10294000604C0020604400200804002000040020A7
:1029500000802010180400200040101010B5002145
:102960001620FFF797FF01216020FFF793FF012159
:102970002020FFF78FFF01218320FFF78BFF10BD81
:1029800010B500211420FFF785FF01210F20FFF76C
:1029900081FF01218120FFF77DFF0121C220FFF788
:1029A00079FF0121E320FFF775FF0121C120FFF727
:1029B00071FF0121FF20FFF76DFF0121C020FFF70C
:1029C00069FF0121F020FFF765FF10BD704710B5CA
:1029D000FFF7C4FFFFF7D4FF10BD10B504464CB994
:1029E00000211420FFF756FF01210020FFF752FFBE
:1029F000002010BD3D2C0ADA00211420FFF74AFF09
:102A0000611CC8B20121FFF745FF0020F1E7642CEB
:102A100009DC00211420FFF73DFF01216F20FFF7A3
:102A200039FF0020E5E74FF0FF30E2E770B50446DC
:102A30000D46102C00DD1024062D00DD0625204655
:102A400004EBD071C1F34704284605EBD071C1F304
:102A5000470504F00F00402141EA800005F0030122
:102A600040EA010600211420FFF714FF012130463F
:102A7000FFF710FF002070BD10B5044600211420A0
:102A8000FFF708FF2D2C00DD2D246000032190FBB3
:102A9000F1F0C4B20121C020FFF7FCFE44F0E000D9
:102AA0000121FFF7F7FE002010BD000010B505F072
:102AB00099FEFA4908604CF69F72F949F748006898
:102AC00005F077FD10BD2DE9F04106460F4614468E
:102AD0009846069D6189606800F0C2FD204602F0BC
:102AE0008BFCBDE8F08110B505F07CFEED49086077
:102AF0004CF6A072EA49EB48006805F05AFD002246
:102B0000AFF23D01E748006805F04BFE10BD10B57F
:102B100005F068FEE44908604CF6B732E049E24847
:102B2000006805F046FD10BD2DE9F04106460F4650
:102B300014469846069D6189606800F08BFD20462A
:102B400002F05AFCBDE8F08110B505F04BFED74904
:102B500008604CF6B832D249D448006805F029FD27
:102B60000022AFF23B01D148006805F01AFE10BD0B
:102B700010B505F037FECE4908604CF2CF72C84957
:102B8000CB48006805F015FD10BD2DE9F041064663
:102B90000F4614469846069D6189606800F0F3FC74
:102BA000204602F029FCBDE8F08110B505F01AFEC0
:102BB000C04908604CF2D072B949BE48006805F0BF
:102BC000F8FC0022AFF23D01BA48006805F0E9FDCB
:102BD00010BD10B505F006FEB74908604CF2E732AB
:102BE000AF49B548006805F0E4FC10BD2DE9F0419F
:102BF00006460F4614469846069D6189606800F0B7
:102C00009AFC204602F0F8FBBDE8F08110B505F013
:102C1000E9FDAA4908604CF2E832A149A7480068DA
:102C200005F0C7FC0022AFF23B01A448006805F0A4
:102C3000B8FD10BD2DE9F04106460F4614469846F2
:102C4000069D61896068FEF7C6FA204602F0D4FB53
:102C5000BDE8F08110B505F0C5FD9949086043F65F
:102C600060328F499648006805F0A3FC0022AFF25D
:102C70003B019348006805F094FD10BD10B505F0C8
:102C8000B1FD9049086043F6633285498D4800687C
:102C900005F08FFC10BD2DE9F04106460F461446A5
:102CA0009846069D618960680AF0F6FC204602F0AD
:102CB000A3FBBDE8F08110B505F094FD82490860E2
:102CC00043F6623276498048006805F072FC0022C3
:102CD000AFF23D017C48006805F063FD10BD00B512
:102CE00087B002F0CBF802F031FA784909780A0689
:102CF0007649497842EA01427449897842EA0121D9
:102D0000724AD27841EA020006F05EF806907049F5
:102D100009780A066E49497842EA01426C49897885
:102D200042EA01216A4AD27841EA020006F04CF8F0
:102D30000590684909780A066649497842EA0142DD
:102D40006449897842EA0121624AD27841EA020064
:102D500006F03AF804905D4909780A065B4949781B
:102D600042EA01425949897842EA012141F0FF00D3
:102D700006F02AF85849086058485949002204AB1F
:102D8000CDE90021029005AA06A9564802F089FA69
:102D9000544802F0B7FA534802F0FCFAFFF78BFFF1
:102DA000FFF76CFFFFF756FFFFF730FFFFF711FF4C
:102DB000FFF7FBFEFFF7DCFEFFF7C6FEFFF7A7FEFF
:102DC000FFF791FEFFF772FE07B000BD10B5454852
:102DD00007F0B8FB10BD10B501F0F0FC18B1FFF71B
:102DE000F5FFFDF7E0FA10BD10B53F480068401C44
:102DF0003D49086008460068642803DD002008603B
:102E000006F059FE10BD10B5FFF7EEFF10BD70B50E
:102E100006460C4643F662322F492A48006805F000
:102E200083FCA1B20322002002F01DFB054685B100
:102E3000A2B23146284602F055FD294621480068D5
:102E400005F068FC1F48006805F09DFC284602F06C
:102E5000D3FA70BD70B506460C4643F661321E4982
:102E60001748006805F060FCA1B20322002002F0C0
:102E7000FAFA054685B1A2B23146284602F032FD83
:102E800029460F48006805F045FC0D48006805F02C
:102E90007AFC284602F0B0FA70BD0000A8050020B8
:102EA0000A070108A4050020A00500209C050020B9
:102EB0009805002094050020900500208C05002036
:102EC000880500208405002080050020B60500202C
:102ED000BE050020BA0500207C05002073A3000871
:102EE00071A5000860540020AC05002070B50646AE
:102EF0000C464CF2E83243494348006805F014FCA4
:102F0000A1B20322002002F0AEFA054685B1A2B2BA
:102F10003146284602F0E6FC29463B48006805F0A9
:102F2000F9FB3948006805F02EFC284602F064FAE7
:102F300070BD70B506460C464CF2D072314933482C
:102F4000006805F0F1FBA1B20322002002F08BFA29
:102F5000054685B1A2B23146284602F0C3FC294697
:102F60002A48006805F0D6FB2848006805F00BFCED
:102F7000284602F041FA70BD70B506460C464CF684
:102F8000B83220492248006805F0CEFBA1B20322E6
:102F9000002002F068FA054685B1A2B23146284603
:102FA00002F0A0FC29461A48006805F0B3FB184857
:102FB000006805F0E8FB284602F01EFA70BD70B507
:102FC00006460C464CF6A0720E491248006805F001
:102FD000ABFBA1B20322002002F045FA054685B101
:102FE000A2B23146284602F07DFC29460948006815
:102FF00005F090FB0748006805F0C5FB284602F085
:10300000FBF970BD7C05002090050020980500208C
:10301000A0050020A80500200146002206E00020AF
:1030200001E000BF401C1428FBDB521C8A42F6D38F
:10303000704710B5014601F0F00201F00F031211C4
:1030400002EB820403EB4404E0B210BD30B501464C
:103050000A2491FBF4F4E2B20A2491FBF4F504FB98
:103060001514E3B203EB0214E0B230BD01460A20AE
:1030700009B9012007E0012203E000EB80035800BA
:10308000521C8A42F9DB70470146102009B9012021
:1030900005E0012201E00001521C8A42FBDB70477F
:1030A00010B5002304E0401C884200DB00205B1CBC
:1030B0009342F8DB10BD401C884200DB00207047C3
:1030C0002DE9F04104460F461646069D00210020DA
:1030D00025E014F801C0BCF1000F06D14FF0000844
:1030E00000FB05FC06F80C801DE0002207E014F848
:1030F00001C000FB056808F802C0491C521C14F806
:1031000001C0BCF1200F01DDAA42F0DB32B14FF06B
:10311000000C00FB056808F802C0401C491C9842DE
:1031200001DAB942D5DB00BFBDE8F08170B50346D6
:103130000C460021002500200EE05E5CA64204D073
:103140001DB95E5C1654401C05E05E5CA64202D1CF
:10315000002616546D1C491C5E5C16B1B1F5806FDB
:10316000EBDB0026165470BD70B503460C460021FB
:10317000002500200FE05E5CA64205D0012D03D1A2
:103180005E5C1654401C05E05E5CA64202D100263F
:1031900016546D1C491C5E5C16B1B1F5806FEADBFC
:1031A0000026165470BD2DE9F04107464FF0000887
:1031B00038460BF098FF0646022E34DD387830286A
:1031C00031D17878782802D0787858282BD100250A
:1031D00025E0B81C445D302C09DB392C07DC303C81
:1031E000F11E481BFFF750FF04FB008816E0412C3E
:1031F00009DB462C07DC373CF11E481BFFF744FF78
:1032000004FB00880AE0612C08DB662C06DC573CD6
:10321000F11E481BFFF738FF04FB00886D1CB01E31
:10322000A842D6DC15E0002511E07C5D302C09DBDE
:10323000392C07DC303C711E481BFFF717FF04FBDD
:10324000008803E033480068324908606D1CB542CD
:10325000EBDB4046BDE8F0812DE9F04706468946A4
:1032600015469A46BAF1000F21D12846FFF7FEFE17
:1032700099FBF0F100FB1197002413E0691E081B75
:10328000FFF7F4FE97FBF0F000F0FF08691E081B43
:10329000FFF7ECFE97FBF0F100FB117708F130002F
:1032A0003055641CAC42E9DB0020705522E086F802
:1032B00000A0681EFFF7DAFE99FBF0F100FB119702
:1032C000012413E0691E081BFFF7D0FE97FBF0F006
:1032D00000F0FF08691E081BFFF7C8FE97FBF0F11E
:1032E00000FB117708F130003055641CAC42E9DB7B
:1032F000002070550020BDE8F08701460A781206CC
:103300004B7842EA03428B7842EA0322CB7842EAC6
:10331000030070478803002010B542F21070FFF7D9
:103320007BFEC020DE490870A820487065208870A8
:10333000DC4800788D30C87008460078DA4908709B
:10334000D74840784870D648807888700120C87087
:103350005E20D649087045204870A2208870D04869
:103360004078C870CE4880780871CD48C0784871E0
:10337000FF20CF490870487088700020C87000F0A6
:10338000ABFBCC48CC4908600120CC49086042F234
:103390001070FFF741FEFEF708F942F21070FFF7D8
:1033A0003BFE00BFFFF79BFC42F21070FFF734FEBC
:1033B00000F09AF9FEF73DFE002010BD10B5C048A0
:1033C000006801280FD1BF48BF490268BA480068A9
:1033D00000F07EFABC480168B7480068FFF7EFFDCF
:1033E0000020B7490860002010BD10B5FFF7E6FFC8
:1033F00010BD704710B5B5480068002802DDB3481D
:10340000847900E0FF2400232246AF49AA480068DF
:1034100000F014FAAC480168A7480068FFF766FDA1
:10342000002010BD10B5FFF7E5FF10BD01460A787A
:1034300012064B7842EA03428B7842EA0322CB78A9
:1034400042EA030070472DE9F04104460D46164656
:103450001F46802C03DA4FF0FF30BDE8F081F72CD7
:1034600002DD4FF0FF30F8E7FF2D02DD4FF0FF30B7
:10347000F3E7FF2E02DD4FF0FF30EEE7FF2F02DD16
:103480004FF0FF30E9E70AF017FD854804704570FA
:103490008670C7704FF47A70FFF7BEFD00F088FAAF
:1034A0004FF47A70FFF7B8FD00F086FA4FF47A70A7
:1034B000FFF7B2FD4FF47A70FFF7AEFD8448FFF7D7
:1034C000ABFD8348FFF7A8FD00BF8248006800F409
:1034D000E06081490843001D7E490860BFF34F8FBB
:1034E00000BF00BFFEE730B501460A0EC1F3074337
:1034F000C1F30724CDB2802A02DA4FF0FF3030BD8D
:10350000F72A02DD4FF0FF30F9E7FF2B02DD4FF025
:10351000FF30F4E7FF2C02DD4FF0FF30EFE7FF2D27
:1035200002DD4FF0FF30EAE75D48027043708470BF
:10353000C5700020E3E770B505460C466748056096
:10354000674804606548006800F0ECF810B14FF07F
:10355000FF3070BD614800680AF01DF80020F8E7F0
:1035600010B5504803785F4802785D4801685B48B1
:10357000006800F026F90446642C02DA2046FDF7C4
:1035800039FA002010BD2DE9F04780460F46534818
:10359000C0F8008052480760B7F5806F03DA4FF03B
:1035A000FF30BDE8F0874D48006800F0BBF810B16F
:1035B0004FF0FF30F5E74948006800F0F3F8814626
:1035C0004648006800F0E6F806464448006800F007
:1035D000E5F80546B9F1040F38D14048006800F01D
:1035E000EBF804463948006801280BDA0A2037490D
:1035F00008600846067145712078C880601CFDF798
:10360000A5FA23E020783149C98888420BDA0A20DC
:103610002E4908600846067145712078C880601CF4
:10362000FDF794FA12E020782849C98888420DD124
:1036300026480079B04209D124484079A84205D1F2
:103640000A2022490860601CFDF780FA0020A8E7E4
:103650000020704702460020704702460020704755
:103660002DE9F04105460E461C4805601C480660E1
:103670001A48006800F056F818B14FF0FF30BDE866
:10368000F0811648006800F08DF80446032C05D13F
:103690001248006800F082F8074600BF0020EEE7FD
:1036A000B6050020CD030020BA050020B00500209B
:1036B000BE05002094540020D0050020D80500202D
:1036C000400400203C040020D405002020040020F9
:1036D000A08601000CED00E00000FA05C8050020FE
:1036E000CC050020CC03002010B5A8480078A849DC
:1036F0008870A8480078C870A74800880880A74844
:10370000FFF794FEA2494860FF20A5498870C87061
:103710004FF6FF7008809E48406840F0FF00486008
:10372000002010BD70B505462C4620787E2802D0BA
:103730004FF0FF3070BDE07894490978884205D099
:10374000E078FF2802D04FF0FF30F3E7207991496D
:103750000978884205D02079FF2802D04FF0FF3049
:10376000E8E78E48FFF762FED4F8051088420FD0D4
:10377000D4F80500401C58B18848FFF757FE40F0C8
:10378000FF01D4F80500814202D04FF0FF30D1E7AD
:103790000020CFE701460A46D07A704701460A4624
:1037A000107B704701460A46B2F811007047014687
:1037B0000A46B2F81300704701460A4602F11500A6
:1037C00070472DE9F04104468C46274607F1150560
:1037D0002E460B2A07D1581E06F1050818F80010CE
:1037E0000846BDE8F081FF20FBE717B585B0044629
:1037F000664800786649887066480078C8706648F0
:10380000008808806548FFF711FE614948607E2006
:103810008DF800000698CDF801000798CDF8050056
:1038200008460168CDF809104068CDF80D00112256
:10383000694620460BF0CDFC08B010BD2DE9F043E1
:1038400087B004460E46174698462546544903C994
:103850000A46CDE90001014602A8FFF7C6FF112282
:1038600002A928460BF0B5FC0120A5F811000220A2
:10387000A5F8130005F1150989F8007089F8018091
:10388000B5F8130015303060002007B0BDE8F083B4
:1038900030B503460C4619460420A1F8130001F187
:1038A00015052A60B1F8130015302060002030BDE6
:1038B00030B503460C4619460120A1F8130001F16A
:1038C00015052A70B1F8130015302060002030BDB6
:1038D0002DE9F04188B004460E461746254630498A
:1038E00003C90A46CDE90101014603A8FFF77DFFA0
:1038F000112203A928460BF06CFC0320A5F8110047
:103900000420A5F8130005F11508C8F80070B5F8F3
:10391000130015303060002008B0BDE8F08130B5EC
:1039200003460C4619460220A1F8130001F11505C3
:103930006A70B1F8130015302060002030BD2DE909
:10394000F04704460F4690461D46264640F2034087
:10395000A6F8130006F115092A46414609F10300AD
:103960000BF037FC09F1030000EB050A0D48006875
:10397000CAF800000B480068401C0A490860B6F805
:103980001300193038600020BDE8F087CC03002018
:10399000E0050020CD030020CE030020B605002066
:1039A000E8050020F005002010B5FEF7C9FB10BDAA
:1039B00001207B490860704770B57948006801288C
:1039C00075D10020764908607648007876490870FD
:1039D0007448407848707348807888700120C870B7
:1039E0005E207249087045204870A22088706D489A
:1039F0004078C8706B48807808716A48C078487110
:103A0000A5206B4908706748007848706548417880
:103A100067488170634881786548C1706148C178A2
:103A20006348017160480078614948715E48417897
:103A30005F4881715C4881785D48C1715A48C1789E
:103A40005B4801725B48007859494872594841788F
:103A500057488172574881785548C1725548C17896
:103A60005348017351480078514948734F48417891
:103A70004F4881734D4881784D48C1734B48C17898
:103A80004B48017449480179494841744748417994
:103A900047488174484800784549C87447480088B9
:103AA00088825A20887500250E46002405E012E021
:103AB000305D2844C5B2601C84B2172CF8D3C5F120
:103AC00055003B49C87518220820FEF721FC4FF429
:103AD0007A70FFF7A1FA70BD70B51822344908203A
:103AE000FEF779FC4FF47A70FFF796FA0025304E16
:103AF000002404E0305D2844C5B2601C84B2182C58
:103B0000F8D3552D00D070BD29480078A52845D19F
:103B10002748807D5A2841D125484078214908709E
:103B20002348807848702248C078887020480079FF
:103B3000C8701F4840791C4908701D48807948703A
:103B40001B48C07988701A48007AC8701848407AB3
:103B5000184908701648807A48701548C07A8870ED
:103B60001348007BC8701248407B10490870104809
:103B7000807B48700E48C07B88700D48007CC87000
:103B80000B48407C08710A48807C48710848C07C1A
:103B9000094908600648808A0849088000BFB2E7E2
:103BA000F4050020B6050020BA050020B00500206D
:103BB00094590020BE05002028040020CE030020D8
:103BC0007FB5042006F04EFD684607F0CEFD42F2B8
:103BD00010720198B0FBF2F1B1F1807F00D31DE0CB
:103BE00021F07F40401E4FF0E022506150170F221D
:103BF000002807DA13071D0E2B4B00F00F04241FBB
:103C00001D5503E013071C0E284B1C5400BF002059
:103C10004FF0E02290610720106100BF7FBD10B51A
:103C200023480068401C2249086022480068401C64
:103C30002049086020480068401C1F4908601F4850
:103C40000068401C1D4908601D480068401C1C4954
:103C500008601C480068401C1A4908601A4800683F
:103C6000401C19490860FCF7DFFC10BD7047704725
:103C70007047704710B5FFF7BCFBFFF7C4F810BDE5
:103C800010B5FFF799FE10BD10B510480068012867
:103C900001DAFDF71DF9FFF7C5FB10BD10B5FCF704
:103CA0007EFE10BD7047000018ED00E000E400E06B
:103CB000F8050020FC050020000600200406002076
:103CC000080600200C06002010060020200400201A
:103CD000704700BFFEE700BFFEE700BFFEE70AF047
:103CE000EBF800BFFEE7704710B5FFF798FF10BD77
:103CF00010B51021164808F068FEF8B1144808F015
:103D00000AFE81B213480468601C124A106012480F
:103D100020F8141010210E4808F068FE0D480068C5
:103D200002280BD30C4800884FF6FF71081A0A4985
:103D300049880844401C80B20849086010BD10B58D
:103D4000FEF777FD10BD10B5FEF798FC10BD000022
:103D5000000C004098030020140600209C03002063
:103D60001CB500208DF8040001208DF8060003200A
:103D70008DF8050000208DF80700FF2000906946AF
:103D8000344807F02DF91CBD70B50646F6B234462E
:103D900006F0C000C02803D104F03F00451C1DE020
:103DA00004F00F00092803DC0920B0EB241F04DA1B
:103DB000FF252E2008F016FF0FE004F00F00211160
:103DC00001EB810100EB4100C5B2012D01DB022DA9
:103DD00003DD2F2008F006FFFF2500BF00BF2846A7
:103DE00070BDF8B5002000904FF6FF750024002646
:103DF00016E001E0FCF708FC4FF47A716846FCF726
:103E00003BFC0028F6D0134807F055F90546AC42B4
:103E100004D1701CC6B2052E02DB02E000262C463F
:103E2000E7E700BFE4B22046FFF7AEFF074638469B
:103E3000F8BD10B508480078012803DB0648007873
:103E4000022804DD2F2008F0CDFE012010BD002047
:103E5000FCE7000000180240CD030020094880471D
:103E600009480047FEE7FEE7FEE7FEE7FEE7FEE75C
:103E7000FEE7FEE7FEE7FEE704480549054A064B74
:103E8000704700005D3F000885010008887301202D
:103E900088BB0120887B0120887B01200CB5002095
:103EA000019000906B48006840F4803069490860D8
:103EB00000BF6848006800F4003000900198401C82
:103EC0000190009818B90198B0F5A06FF1D1614840
:103ED000006800F4003010B10120009001E00020E3
:103EE00000900098012838D15A4808300068594994
:103EF000083108600846006840F400400860084641
:103F0000006840F4A05008605348091F0860081F6B
:103F1000006840F08070091F086000BF4D480068CD
:103F200000F000700028F9D040F203704B4908609F
:103F300048480830006820F003004649083108600E
:103F40000846006840F00200086000BF41480830A1
:103F5000006800F00C000828F8D10CBD10B53D48F1
:103F6000006840F001003B490860002039490831F1
:103F70000860384800683A490840364908603948BE
:103F8000091D0860081F006820F48020091F0860D0
:103F9000002030490C310860FFF780FF4FF00060CF
:103FA0003149086010BD70B50020002202230024B2
:103FB0000221284D08352D6805F00C0020B1042899
:103FC00006D0082834D107E0284D294E356033E06B
:103FD000284D274E35602FE01E4D2D1D2D68C5F351
:103FE00080541C4D2D1D2D6805F03F0154B1214D0D
:103FF000B5FBF1F5174E361D3668C6F3881605FB7E
:1040000006F209E0194DB5FBF1F5124E361D366882
:10401000C6F3881605FB06F20E4D2D1D2D68C5F35F
:1040200001456D1C6B00B2FBF3F5114E356003E0EA
:104030000E4D0F4E356000BF00BF064D08352D6890
:10404000C5F303150C4E705D094D2D68C540084E33
:10405000356070BD00380240193C4005003C02400C
:10406000FFFFF6FE1030002408ED00E00024F4000D
:104070001806002040787D011C06002001B581B0A3
:10408000002000900198009002E00098401E0090EF
:1040900000980028F9D10CBD10B50121480607F0A1
:1040A0004EFC00214FF0007007F049FC10BD0121CB
:1040B0000160002141608160C16001614FF4804175
:1040C000416100218161C1614FF400610162002101
:1040D00041628162C162016341638163C1634021C6
:1040E00001642021416400218164C164016541654E
:1040F0008165C16501668021416600218166C166D6
:10410000016741678167C1674FF08061C0F8801027
:104110004910C0F884100021C0F888104FF4001135
:10412000C0F88C100021C0F89010C0F89410C0F8AE
:104130009810C0F89C10C0F8A0104FF00071C0F8A3
:10414000A4104912C0F8A8108901C0F8AC10491297
:10415000C0F8B0100021C0F8B410C0F8B810704713
:104160002DE9F04186B0044688460027002500204E
:104170000590F74E0090F748056925F01C0501A849
:1041800007F0F3FA029EF448864205D3F3488642CC
:1041900002D245F0080511E0F048864205D3EC480C
:1041A000864202D245F00C0508E0E948864203D376
:1041B000EB48864200D201E045F00405E548056180
:1041C000E848FFF75BFF2068B8B1E74900988842EC
:1041D00003D1002006B0BDE8F08100200090E24944
:1041E0000098884201D10020F4E7002000904FF4AD
:1041F00000602062C000606103E06FF07F40FFF765
:104200003DFFD4480568D9480540D4E90101084379
:10421000E16808432169084361690843A1690843CB
:10422000E1690843216A0843616A0843A16A0843B7
:10423000E16A0843216B0843616B08430543C548A5
:104240000560D4E90E010843216C0843616C084302
:10425000A16C0843E16C0843216D0843616D08437C
:10426000BC494860A06D8860E06DC86008468569FB
:104270004FF641700540B4F86010606E40EA0140AE
:10428000A16E0843E16E0843216F0843616F084344
:104290000543B0488561D4E91E010843AD49C861B2
:1042A000B3488569B3480540D4E920010843D4F8F0
:1042B00088100843D4F88C100843D4F890100843B1
:1042C000D4F894100843D4F898100843D4F89C10FC
:1042D0000843D4F8A01008430543A5488561D4E9F4
:1042E00029010843D4F8AC100843D4F8B0100843AF
:1042F000D4F8B41040EA8100D4F8B810084340F470
:1043000000009B4908600846006840F08000086093
:1043100001205FE730B19649896941F00201944A72
:10432000916105E09249896921F00201904A916109
:10433000704730B18E49896941F400518C4A9161CE
:1043400005E08B49896921F40051894A91617047E0
:1043500030B18049096841F004017E4A116005E0EE
:104360007C49096821F004017A4A1160704780484D
:10437000806940F480107E498861704730B175498A
:10438000096841F00801734A116005E07149096844
:1043900021F008016F4A1160704700B50120FFF756
:1043A000EDFFFFF7E4FF0120FFF7D2FF0120FFF749
:1043B000C0FF0120FFF7AEFF00BD002065498969FD
:1043C00001F0010109B1012000E0002070476148BF
:1043D000806940F001005F498861704730B15D49F4
:1043E000896941F001015B4A916105E05949896998
:1043F00021F00101574A9161704701460020554A5A
:10440000926B0A400AB1012000E00020704701468B
:104410000020504A926B0A400AB1012000E00020BF
:10442000704729B14B4AD26B82434A4BDA6304E0AE
:10443000484AD26B0243474BDA63704710B50B7999
:104440004C7943EA0422434B03441A64CB781B069D
:104450008C7843EA04434C7843EA04230C7843EA1B
:1044600004023C4B03445A6410BD0246394B1344CA
:10447000186C030A4B710871364B1344586C030EC9
:10448000CB70030C8B70030A4B700870704741B1FE
:10449000304A0244126C42F000422E4B03441A642C
:1044A00007E02C4A0244126C22F00042294B0344DC
:1044B0001A647047082908D0264A0244126C42F058
:1044C0008042244B03441A6407E0224A0244126CDF
:1044D00022F080421F4B03441A6470471D4A024475
:1044E000126C22F07C521B4B03441A64194A02449A
:1044F000126C0A43174B03441A6470471EB500211F
:1045000000220092019202921B4A12681268C2F3C2
:104510000D42111F0091194A12689268012A05D9AB
:10452000164A126812689268019203E0124A1268F1
:1045300092680192104A126802920F4A1268D26879
:104540000D4B1A609DE81C0080E81C001EBD000099
:104550000087930300800240002D3101C00E160237
:1045600000E1F505FFFF0F00FFFF04000F8120FFB2
:1045700000900240233FDEF8300600203406002081
:104580000FB5002101910291039100916FE0009914
:10459000491C0091F9490968096801F40071A1B149
:1045A000F6490968096801F4807171B9F34909682D
:1045B000F34A126811600121F14A12689160EF49D3
:1045C0000968C968ED4A116051E0EC490968096859
:1045D00001F4807191B9E9490968096801F4007131
:1045E00061B9E74909688968491CE54A1268916020
:1045F000E2490968C968E14A116038E0DF490968A1
:10460000DF4A12685160DE4909688968491CDC4A42
:1046100012689160DA4909688968012904D1D7498B
:104620000968D74A12681160D44909680968C1F35A
:104630000D41091F0191D24909688968012905D9ED
:10464000CF49096809688968029103E0CB49096884
:1046500089680291C94909680391C8490968C9680C
:10466000C64A116001A90EC980E80E000FBDC349FA
:104670000968096801F0004111B90099052986D33C
:1046800001A90EC980E80E0000BFEFE770B5024631
:10469000002300250024BB480068006800F00040AB
:1046A00008B1002070BDB748016840F2F450824262
:1046B00008DD92FBF0F392FBF0F600FB162010B140
:1046C0005B1C00E00123012B1AD1AE480068006892
:1046D00040F04050AB4E36683060C2F30C00A94E3B
:1046E00036687060A7480068006840F00040A54E3A
:1046F00036683060A3480068C068A24E306028E089
:10470000002422E03CB99F480068006840F08050D7
:104710009C4E3668306040F2F4504860581EA0420B
:104720000DD1086840F000500860581EC0EBC01062
:1047300000EB4000A2EB8005C5F30C004860086860
:1047400040F000400860C968641C9C42DAD38D4880
:1047500001608D48406900F0040020B104208A4EB9
:1047600070610020706001209CE770B50C46134614
:104770000021824D286000BF18E000EB41124FF08D
:104780000045156044F2F4555560C1EBC11505EBC9
:10479000450504EB850595605D1E8D4204D900EB4F
:1047A00041152035D56000E0D060491C9942E4D322
:1047B000754DE860754D724E356070BD6F4800688C
:1047C000006800F0004098B96C480068006800F488
:1047D000807068B16948006869490968486068483C
:1047E00000688068401C664909688860012070473D
:1047F00062480068006800F00040F0B95F48006857
:10480000006800F40070C0B15C480068006800F403
:10481000807090B9594800685949096808600020BB
:10482000574909684860012055490968886053481C
:104830000068C068514908601DE050480068006881
:1048400000F00040B8B94D480068006800F40070FE
:1048500088B94A480068006800F4807058B9484830
:1048600000688068401C46490968886043480068C1
:10487000C068424908600020B9E730B50C461346CD
:104880000021404D286000BF15E000EB41124FF4BD
:1048900080151560C1EBC11505EB450504EB8505D9
:1048A00095605D1E8D4204D900EB41152035D56021
:1048B00000E0D060491C9942E7D3334D286130BDF8
:1048C0000246002013680B400BB1012000E00020DD
:1048D000704701460868C0F3C3007047016841F0A3
:1048E00000410160704721B1026842F080420260DD
:1048F00003E0026822F080420260704702680A43C7
:104900000260704702680A430260704721B1026882
:1049100022F00062026003E0026842F0006202607E
:10492000704721B1026842F48012026003E002681D
:1049300022F480120260704721B1026822F0806286
:10494000026003E0026842F080620260704710B5C6
:1049500041EA024443682343436010BD02460020FD
:1049600013680B400BB1012000E0002070470246A5
:10497000002013690B405BB101200AE030060020E3
:10498000340600202C06002000900240749600207F
:1049900000207047016841F0004101607047014606
:1049A0000868C0F30D40704721B1426822F0004210
:1049B000426003E0426842F00042426070470246B3
:1049C00019B15068C0F30C4070479088C0F30C00D8
:1049D000FAE700B502460023106800F0004058B91D
:1049E000106800F4004038B9106800F4807018B105
:1049F0001046FFF7D4FF0346184600BD30B1F84912
:104A0000096841F08001F64A116005E0F44909683F
:104A100021F08001F24A11607047F148006840F0CF
:104A20000100EF49086070470020ED49096801F076
:104A3000010109B1012000E000207047014600207B
:104A4000E74A52690A400AB1012000E0002070479D
:104A5000E3494861704729B1E14AD2690243E04B1A
:104A6000DA6104E0DE4AD2698243DD4BDA617047E5
:104A700001460020DA4A52690A400AB1012000E0EA
:104A800000207047D64948617047D548406900F01A
:104A900001007047D248406900F040007047002094
:104AA000CF49896901F4801109B1012000E000209B
:104AB000704701460020CA4A126A0A400AB1012022
:104AC00000E000207047C648006AC0F34A407047C3
:104AD000C348006A80B27047C148806C7047C048C4
:104AE000C06C7047BE48006D7047BD48406D704750
:104AF0000020BB49486070470020B9498860704772
:104B0000B7494862704718B502460B46002100209D
:104B10000090B448016901F01C014FF4784000EAAC
:104B2000C22001434FF4F86000EA8310014321F0F2
:104B3000020141F00101AB48016100BF0098401C37
:104B40000090A848016901F0010018B1A64C009836
:104B5000A042F3D3A44C0098A04201D1002018BD7C
:104B6000A048406980B2FAE738B503460C460021F8
:104B7000002000909B48016901F01C014FF478402F
:104B800000EAC32001434FF4F86000EA84100143B7
:104B900041F0020141F0010192484261016100BF10
:104BA0000098401C00908F48016901F0010018B185
:104BB0008D4D0098A842F3D38B4D0098A84201D1A7
:104BC000002038BD0120FCE770B506460D460024E4
:104BD00000213046FFF797FF044615B144F48044A6
:104BE00002E04BF6FF700440224600213046FFF7FA
:104BF000BBFF08B1012070BD0020FCE77948C06A06
:104C000040F000407749C86270470146002000BF6D
:104C100004E051F82020734B9A62401C0828F8D316
:104C2000704730B16F49C96A41F400716D4AD16271
:104C300005E06C49C96A21F400716A4AD162704783
:104C400001460020674AD26A0A400AB1012000E00A
:104C50000020704730B16349C96A41F00401614ADC
:104C6000D16205E05F49C96A21F004015D4AD16261
:104C7000704730B15B49C96A41F00201594AD162BB
:104C800005E05849C96A21F00201564AD1627047CD
:104C900030B15449C96A41F00101524AD16205E07C
:104CA0005049C96A21F001014E4AD16270474F480C
:104CB000006840F030004B49C1F8000170474B4894
:104CC000006820F020004749C1F800010846D0F8EC
:104CD000000140F01000C1F80001704738B14349AD
:104CE000096841F008013F4AC2F8001106E03F4957
:104CF000096821F008013B4AC2F80011704738B139
:104D00003A49096841F00401364AC2F8001106E048
:104D10003649096821F00401324AC2F8001170478F
:104D200038B13249096821F002012E4AC2F8001157
:104D300006E02E49096841F002012A4AC2F8001132
:104D400070472A48006840F001002649C1F8000178
:104D5000704700F0805292B120F0805039B1234A60
:104D60000C32126882431F4BC3F80C2117E01F4A14
:104D70000C32126802431B4BC3F80C210FE039B10F
:104D80001A4A103212688243164BC3F8102106E00B
:104D9000164A103212680243124BC3F810217047B2
:104DA0000146002001F080526AB1104A121D1268BB
:104DB0000A4032B10D4A0C3212680A400AB9012089
:104DC00017E0002015E0094A083212680A407AB15B
:104DD000064A0C3212680A4052B9012009E000006C
:104DE0000090024000800240FFFF0400008102406A
:104DF0000020704701460148085870470080024073
:104E000030B500BF00BF00BF00BF00BF00BF00BF84
:104E100000BF0388C84C24681919884215D00B7943
:104E20009BB9C64B1B6899420FD0C54B1B688B4280
:104E300001D1C34B18600B880380BF4B1B88C31A7A
:104E40000C88BD4D2D682C4463804388BA4C24687F
:104E50001A19824211D013797BB9B94B1B6883426E
:104E600001D1B74B1A6003881380B34B1B88D31A48
:104E70000488B14D2D682C44638030BD00BF00BF55
:104E8000B04921F00301AC4A1160114608684FF4A3
:104E9000205101800021418001711146096801F50E
:104EA0002051A64A11600121126811714FF420515E
:104EB000A24A12681180A14A126851800121A24AB7
:104EC00011709D4909689E4A1160704770B505468A
:104ED00005B970BD00BF00BF00BF00BF96480068A5
:104EE000854203D395480068854200D3F1E7A5F1D8
:104EF000080400BF00BF0020207191480068844270
:104F000001D28F4804602046FFF77AFF00BFE0E738
:104F10002DE9F04106460A46D01C20F0030082B27B
:104F20000C2A00DA0C22B2F5205F02DD0020BDE879
:104F3000F08100BF00BF80480068864203D37F48ED
:104F40000068864201D33046F1E7A6F108047A48AA
:104F50000088201A85B22088401B083887B200BF1D
:104F600000BFBA4201DD0020E1E7BA4201D130467C
:104F7000DDE72088DFF8C0C1DCF800C000EB0C01E1
:104F8000087980BB088805F1080C94441FFA8CF35B
:104F9000DFF8ACC1DCF800C08C4508D1DFF898C15F
:104FA000DCF800C09C44DFF89881C8F800C0DFF846
:104FB00088C1DCF800C00CEB03014FF0000C81F855
:104FC00004C008804D802380B1F800C0BCF5205F8C
:104FD00008D0B1F800C0DFF86081D8F80080C44480
:104FE000ACF8023022E0FFE702F11400B8421DD80D
:104FF00005F10800104483B24F480068C1185048BA
:105000000068814201D24E4801600020087120886A
:1050100008804D8023800888B0F5205F06D008887E
:10502000DFF814C1DCF800C06044438030467EE7FE
:1050300070B502460AB9002070BDD01C20F00300F4
:1050400082B20C2A00DA0C22B2F5205F01DD0020CA
:10505000F2E73B480088384E3688801B83B253E025
:1050600035480068C118087900284AD10E8803F134
:105070000800301A904244D30E8803F10800361A13
:1050800002F11400864218D303F10800104485B2DF
:105090002948006844190020207108882080638016
:1050A0000D80012008712088B0F5205F07D020888E
:1050B000214E36683044458001E0012008712048C7
:1050C0000068814214D107E01D48006800881A4E2C
:1050D000366830441A4E306019480068007928B1AB
:1050E00017480068154E3668B042EDD100BF00BFCA
:1050F00000BF00BF00BF00BF00BF00BF01F108003C
:105100009AE70D480068C35AC2F520509842A7DCC0
:10511000002091E770B504460D4604FB05F188B206
:10512000FFF786FF064626B104FB05F130460AF07C
:10513000CFF8304670BD00003C060020400600203D
:1051400044060020839600204806002010B5002069
:1051500001E0431C98B20928FBDB224B23F003013A
:10516000002019E00023204C44F8203000220CE0FD
:105170001D4B53F820300B601B4B43F820101B4B8A
:1051800033F810301944531C9AB2194B33F81030CD
:105190009342EDDC431C98B20928E3DB10BD0246C4
:1051A00000BF092A01DB0020704700BF0E4850F8FD
:1051B000221031B10C4B086843F8220000BF00BF39
:1051C00000BF0846F0E701B9704700BF00BF0A46BC
:1051D000054B53F820301360034B43F8202000BFE9
:1051E000F2E70000BBBE002094BE0020D2060108FA
:1051F000E406010809B9002200E00A68C2607047AD
:1052000009B9002200E00A68826070472DE9F04188
:1052100007460D4628687968884201D1012000E0E0
:10522000002018BB6F4806680CE030687968884237
:1052300007D1D6F80C800121304600F090FF464699
:1052400000E0F668002EF0D1674804680CE054B125
:10525000206840B120687968884204D10DB90020E7
:1052600000E028682060E468002CF0D10DB900202F
:1052700000E028687860BDE8F0812DE9F04106463D
:105280000F4614461D4639463046FFF7BFFF2146FC
:105290003046FFF7B5FF29463046FFF7ABFFBDE8C4
:1052A000F0812DE9F04704460D4616461F46DDE91C
:1052B00009A9DDF8208000206060A060E06084F82B
:1052C0002D002062C4F81C804848007884F8300023
:1052D00046480078401C45490870C4F810903B4689
:1052E000324629462046FFF7C8FF2046D04710B176
:1052F0000020BDE8F0873E48006820603C4804601C
:105300002046F6E73B490860704700B5024602B9FF
:1053100000BD37480068904203D1354910680860E5
:105320000FE03349086806E00168914202D1116834
:10533000016002E000680028F6D100BF00B9E7E78D
:1053400000BF2C480068904202D10020FFF7DAFF2E
:1053500000BFDDE710B502460AB9002010BD907805
:105360003038C3B22248016810E091F8300098420A
:105370000BD1107891F82E40A04206D154782F20FE
:10538000405C844201D10846E8E709680029ECD175
:105390000020E3E710B5044694F82D0000F001006A
:1053A00068B914F82D0F40F00100207014F82D0991
:1053B00000F0200018B1211D204604F0A8FE10BD09
:1053C00090F82D1001F0010129B190F82D1021F075
:1053D000010180F82D107047014691F82D0000F072
:1053E000010070479406002090060020540600201B
:1053F0004C060020500600202DE9F041044624B957
:1054000000BF00BF0020BDE8F08100BF00BF002644
:1054100025E000BF00BFE089401E1FFA80F8A4F815
:105420000E80B8F1000F18D12768257B032D04D119
:1054300021460820FFF7C7FE0BE0012D01D0022D09
:1054400004D121460720FFF7BEFE02E02046FFF709
:105450003DFD701CC6B23C4600E0002400BF002C9D
:10546000D7D13046CFE72DE9F05F83460F4690460F
:105470000026BBF1000F09D0BBF1010F0AD0BBF130
:10548000020F0BD0BBF1030F0DD10BE006F114009E
:1054900086B200BF06F1140086B200BF06F10E000E
:1054A00086B205E004E000BF00BF0020BDE8F09F29
:1054B00000BFB8F1000F68D0B8F1010F74D0B8F197
:1054C000020F72D0B8F1030F70D10820FFF767FE0A
:1054D00004460CB90020E9E784F80C800020206025
:1054E00006F110002044C01C20F00300606000BFE3
:1054F00000BF2781F01C20F00300C0F58C60B8428B
:1055000001DD384604E0F01C20F00300C0F58C609B
:10551000608100BF00BF00BF00BF0120E081A24644
:105520006089A7EB00092CE00820FFF738FE05464C
:1055300025B92046FFF760FF0020B7E785F80C800B
:10554000002068732860CAF8005000BF00BFA5F8AB
:1055500008901FFA89F0B0F58C6F02DA1FFA89F013
:1055600001E04FF48C60688105F11000686000BFB5
:1055700000BF00BF00BF0120E8816889A9EB0009D6
:10558000AA46B9F1000FCFDC35E006F1130121F096
:105590000302F91C21F00301114488B2FFF748FD12
:1055A000044624B9002081E711E011E01FE004F176
:1055B00010003044C01C20F0030060602781678128
:1055C0000020206084F80C8000BF00BF13E000BF03
:1055D0000720FFF7E4FD04460CB9002066E7002031
:1055E000606027816781206084F80C8003E000BF41
:1055F00000BF00205AE700BF0120E0810020607357
:10560000204653E72DE9F04106460F4600BF00BF94
:1056100000BF00BF3089B84201DCBDE8F0813089AD
:10562000A7EB00083D4634460AE06089281A85B297
:1056300000BF00BF208940442081246800BF00BF14
:105640006089A842F1DB207B60B96089A84209D05B
:10565000A088001B284481B22046FFF759FC04466D
:1056600000BF00BF658160892081206810B120687B
:10567000FFF7C2FE0020206000BFCEE770B50246F3
:1056800000BF00BF01B10AB9002070BD002908DACF
:10569000484284B200BF5089A04201DA0120F4E7F9
:1056A00000E08CB2137B55680BB1032B0AD1506814
:1056B000401A506002F110005668864215D25560BB
:1056C0000120E2E7022B01D0012B0AD1002906DAE2
:1056D0005089A04203DB5068401A506005E0012069
:1056E000D3E700BF00BF0120CFE7508908445081B5
:1056F0001089084410810020C7E70146002002E01D
:10570000421CD0B209680029FAD1704710B1C18992
:10571000491CC181704710B5024600BF02B101B9F2
:1057200010BD00BF104604E003890C8923440381A7
:1057300000680368002BF7D100BF00BF00BF00BFA7
:1057400003890C8923440381016000BFE8E730B579
:1057500005460C4621462846FFF7DDFF2046FFF7A9
:10576000D5FF30BD70B504460126256875B100BF70
:1057700000BF20896189401A28810020206060894B
:1057800020812846FFF738FE064600BF00BF00BF55
:10579000002E01DD002070BD2846FCE72DE9F04118
:1057A00005460C460026002700BF25B11CB12889FC
:1057B0002189884203DA6FF00900BDE8F08100BF5B
:1057C00000BF00BF00BF6889801B6189C91B884278
:1057D00004DB6089C01B1FFA80F803E06889801B26
:1057E0001FFA80F86268D1196A689019424609F078
:1057F000F0FC06EB080086B207EB080087B200BF9A
:1058000000BF6889B04201D100262D6800BF00BFEB
:105810006089B84201DC0027246854B1608921897D
:10582000884206D100BF206810B16FF00800C4E7BD
:1058300000BF55B168892989884206D100BF286810
:1058400010B16FF00800B8E700BF002CB9D10020FC
:10585000B3E72DE9F05F8046894616461D464FF0B6
:10586000000B00BFB8F1000F02D10020BDE8F09F8F
:1058700000BF00BFB9F1000F01D10020F6E700BF63
:105880004FF0000AB8F1000F02D0B9F1000F01D1BA
:105890000020EBE7444620E035B16089A84203DCF4
:1058A0006089281A85B217E06089401B87B2B74229
:1058B00000DD37466268511909EB0A003A4609F0E3
:1058C00088FC0BEB07001FFA80FB0AEB07001FFAAE
:1058D00080FAF01B86B2002524680EB1002CDBD1C3
:1058E0005846C3E72DE9F04704460E469146C846A0
:1058F0004FF0000A00BF14B90020BDE8F08700BFD8
:1059000000BF0EB90020F8E700BF1CB116B1208916
:10591000484502DA6FF00900EFE7254615E000BFC1
:1059200000BF47466889B84200DA6F8906EB0A0172
:105930003A46686809F04DFCA8EB07001FFA80F8AA
:105940000AEB07001FFA80FA2D68B8F1000FE6D1C4
:1059500000BF00BF0020D0E72DE9F04104460E460D
:10596000206810B92046BDE8F08121890022304628
:10597000FFF779FD05460DB92046F4E72146284694
:10598000FFF70CFF074600BF00BF2046FFF734FDBE
:105990002846E8E72DE9F04705468A464FF000081B
:1059A0006F68388903F00FFB00F0FF09002660489C
:1059B000046819E0207C484514D1606990B107F172
:1059C0000C032A462146D4E905C0E04750B1002522
:1059D0004FF0010836B1E068F06055480068E060BB
:1059E000534804602646E468B8F1000F01D1002C4A
:1059F000E0D14046BDE8F087024609B9002000E04A
:105A00000868106000207047024609B9002000E0D5
:105A100008685060002070474161826170472DE93D
:105A2000FE4F04460E46914614213046FFF726FEEF
:105A300078B1002211460120FFF715FD05461DB97A
:105A40004FF0FF30BDE8FE8F31462846FFF77FFE5E
:105A50000BE035466FF013012846FFF70FFE20B12B
:105A600000BF00BF4FF0FF30ECE7484603F066FB95
:105A7000071E07D1B54202D02846FFF7BDFC6FF0E4
:105A80000300DFE70CB1206810B907F1040800E05B
:105A9000A046207CA17ACDE901070091E37A4A462D
:105AA0004146284603F034FC8246B54202D02846DF
:105AB000FFF7A2FC5046C5E770B504460D46221D0F
:105AC00029462046FFF7ABFF70BD70B50546184864
:105AD0000068A84205D116480068C06814490860EB
