:020000040800F2
:100000006064012059850008692000086B20000801
:100010006F2000087320000877200008000000000F
:100020000000000000000000000000006B850008D8
:100030007B200008000000006F8500087D2000087C
:1000400073850008738500087385000873850008B0
:1000500073850008738500087385000873850008A0
:100060007385000873850008738500087385000890
:100070007385000885200008738500088D2000081E
:100080007385000873850008738500087385000870
:100090007385000873850008738500087385000860
:1000A0007385000873850008738500087385000850
:1000B0007385000873850008738500087385000840
:1000C0007385000873850008738500087385000830
:1000D0007385000873850008738500087385000820
:1000E0007385000873850008738500087385000810
:1000F0007385000873850008738500087385000800
:1001000073850008738500087385000873850008EF
:1001100073850008738500087385000873850008DF
:1001200073850008738500087385000873850008CF
:1001300073850008738500087385000873850008BF
:1001400073850008738500087385000873850008AF
:10015000738500087385000873850008738500089F
:10016000738500087385000873850008738500088F
:10017000738500087385000873850008738500087F
:1001800073850008DFF80CD00FF0BCFA0048004778
:1001900099010008606401204FF47A7001F050F971
:1001A0004FF47A7001F04CF900F0A2FC4FF47A7031
:1001B00001F046F900F0AAFC4FF47A7001F040F922
:1001C00000F0C6FF00F0E0FF01F024F9534801F011
:1001D00037F9524801F034F901F01CF94F4801F0A9
:1001E0002FF94E4801F02CF901F014F901F052FFFB
:1001F0004B4801F025F900F0B1FF00F0CCFF01F011
:1002000009F9474801F01CF900F0A2FF00F0BCFF1B
:1002100001F000F942F2107001F012F900F096F8C6
:1002200004F014FF01F0D2FA4FF47A7001F008F9EB
:1002300003F0B3FC01F0EEF842F2107001F000F9A7
:1002400042F2107001F0FCF842F2107001F0F8F880
:1002500004F065FF01F0DEF842F2107001F0F0F8F2
:10026000304800783049087057E000F0D9F802F0C3
:100270006AF901F05FFB03F0F4FD2C4800680128E7
:1002800005DB4FF000002949086001F06FFF2848A6
:100290000068022805DB4FF002002549086001F0E4
:1002A0006FFF24480068052805DB4FF00000214956
:1002B000086001F066FF204800680A2805DB4FF05F
:1002C00000001D49086001F062FF1C480068142806
:1002D00005DB4FF000001949086001F06EFF184877
:1002E0000068322805DB4FF000001549086001F076
:1002F00068FF14480068642805DB4FF000001149CE
:10030000086001F070FF10480068C82805DB4FF056
:1003100000000D49086001F06AFFA6E720A1070070
:10032000A086010014000020090000206C000020BD
:100330007000002074000020780000207C00002065
:1003400080000020840000208800002010B54FF0BD
:100350000100FC490870FC4908604FF00B00FB49A4
:1003600008704FF00100FA490870FA49088000F05F
:1003700089FFF949087008460078F549087005F0CA
:10038000BDFC05F0D3FD06F0FBF810BD10B504F080
:1003900087FF10BD10B5F1480068F149096888422F
:1003A00002DD00F02FFF01E000F033FFEB48406872
:1003B000EB490968884202DD00F032FF01E000F0FD
:1003C00035FFE6488068E6490968884202DD00F0AA
:1003D00033FF01E000F036FFE048C068E0490968FB
:1003E000884202DD00F034FF01E000F037FFDB4817
:1003F0000069DB490968884202DD00F035FF01E051
:1004000000F039FFD648006800F10100D4490860C7
:10041000084600680A2802DB4FF00000086010BDA3
:1004200010B5D048006801280ED1CF480068A0F16F
:100430000100CD4908600846006803F073FB4FF0E7
:100440000000C849086011E0C648006802280DD1C4
:10045000C548006800F10100C3490860084600680B
:1004600003F060FB4FF00000BE490860FFF792FF09
:1004700010BD7047BD48006830B9BD48007820F015
:100480000300BB49087029E0B848006801280BD177
:10049000B748007820F00300B54908700846007896
:1004A00040F00100087019E0B048006802280BD144
:1004B000AF48007820F00300AD4908700846007886
:1004C00040F00200087009E0A8480068032805D140
:1004D000A748007820F00300A5490870A5480068E7
:1004E00030B9A348007820F00C00A14908701EE044
:1004F000A048006802280BD19D48007820F00C002D
:100500009B4908700846007840F0040008700EE02F
:100510009848006801280AD19548007820F00C001E
:10052000934908700846007840F008000870924827
:10053000006830B98E48007820F010008C490870AF
:1005400005E08B48007840F01000894908708B481E
:10055000006830B98648007820F02000844908708F
:1005600005E08348007840F0200081490870844805
:10057000006830B97E48007820F0C0007C490870DF
:100580002EE07F48006801280BD17948007820F0E0
:10059000C000774908700846007840F040000870B5
:1005A0001EE07748006802280BD17148007820F0DF
:1005B000C0006F4908700846007840F0800008705D
:1005C0000EE06F48006803280AD16948007820F0DF
:1005D000C000674908700846007840F0C000087005
:1005E000704710B500F0FAFE002808DD00F004FFA7
:1005F000002804DD4FF000006149086021E000F0B0
:10060000EDFE40B900F0F8FE002804DD4FF00100D7
:100610005B49086015E000F0E1FE002807DD00F00E
:10062000EBFE20B94FF002005549086009E000F0E8
:10063000D5FE30B900F0E0FE18B94FF00300504984
:10064000086010BD10B500F09EFE002804DD4FF0DC
:1006500000004949086003E04FF001004649086086
:1006600000F09FFE002804DD4FF0000043490860C1
:1006700003E04FF001004149086010BD2DE9F04151
:1006800000F047FE074600F053FE054600F06CFE02
:10069000064657B915B94FF0010410E016B94FF0EE
:1006A00002040CE04FF0030409E015B94FF0040414
:1006B00005E016B94FF0040401E04FF000042046B5
:1006C000BDE8F081254A42F82010704701462348D2
:1006D00050F82100704700B523480068A0B90A21EE
:1006E0000020FFF7EFFF00210120FFF7EBFF0021C3
:1006F0000220FFF7E7FF00210320FFF7E3FF0021BF
:100700000420FFF7DFFFA8E017480068002839DD64
:1007100015480068032835DC00210846FFF7D2FFA2
:100720000A210120FFF7CEFF00210220FFF7CAFFB8
:1007300000210320FFF7C6FF00210420FFF7C2FFBE
:100740008BE00000290000200C00002008000020A1
:10075000090000200A00002014000020B40400203A
:1007600004000020B802002028010020180000200A
:10077000280000205C0100201C0000202000002038
:1007800024000020D3480068032818DDD148006801
:10079000062814DC00210846FFF794FF0021012001
:1007A000FFF790FF0A210220FFF78CFF00210320B2
:1007B000FFF788FF00210420FFF784FF4DE0C548C4
:1007C0000068062818DDC3480068092814DC0021E9
:1007D0000846FFF777FF00210120FFF773FF002194
:1007E0000220FFF76FFF0A210320FFF76BFF0021B4
:1007F0000420FFF767FF30E0B6480068092818DDDD
:10080000B44800680C2814DC00210846FFF75AFFA2
:1008100000210120FFF756FF00210220FFF752FFC1
:1008200000210320FFF74EFF0A210420FFF74AFFB3
:1008300013E000210846FFF745FF00210120FFF7E4
:1008400041FF00210220FFF73DFF00210320FFF7B9
:1008500039FF00210420FFF735FF9F48006848BB9F
:100860000020FFF733FF18B901210020FFF72AFF0E
:100870000120FFF72BFF18B900210120FFF722FF0D
:100880000220FFF723FF18B900210220FFF71AFF0B
:100890000320FFF71BFF18B900210320FFF712FF09
:1008A0000420FFF713FF002803D100210420FFF7E5
:1008B00009FFC4E08848006800282DDD86480068EC
:1008C000032829DC0020FFF701FF18B900210846A2
:1008D000FFF7F8FE0120FFF7F9FE18B901210846DD
:1008E000FFF7F0FE0220FFF7F1FE18B90021022009
:1008F000FFF7E8FE0320FFF7E9FE18B90021032007
:10090000FFF7E0FE0420FFF7E1FE0028D1D100212F
:100910000420FFF7D7FE92E06F48006803282DDD22
:100920006D480068062829DC0020FFF7CFFE18B9C3
:1009300000210846FFF7C6FE0120FFF7C7FE18B9E1
:1009400000210120FFF7BEFE0220FFF7BFFE18B90D
:1009500001210220FFF7B6FE0320FFF7B7FE18B90A
:1009600000210320FFF7AEFE0420FFF7AFFE0028B2
:1009700065D100210420FFF7A5FE60E0564800681D
:1009800006282CDD54480068092828DC0020FFF7E1
:100990009DFE18B900210846FFF794FE0120FFF7DD
:1009A00095FE18B900210120FFF78CFE0220FFF709
:1009B0008DFE18B900210220FFF784FE0320FFF707
:1009C00085FE18B901210320FFF77CFE0420FFF704
:1009D0007DFEA0BB00210420FFF774FE2FE03E48FF
:1009E000006809282BDD3C4800680C2827DC002023
:1009F000FFF76CFE18B900210846FFF763FE0120DF
:100A0000FFF764FE18B900210120FFF75BFE02200A
:100A1000FFF75CFE18B900210220FFF753FE032008
:100A2000FFF754FE18B900210320FFF74BFE042006
:100A3000FFF74CFE18B901210420FFF743FE00BD6B
:100A400010B500F0E7FC2548006800F101002349DB
:100A5000086008460068142806D14FF001002049BC
:100A60000860FFF793FC08E01C480068B0F57A7F47
:100A700003DD4FF47A7019490860FFF72CFEFFF789
:100A8000FDFD18490860FFF7DDFDFFF7AAFDFFF740
:100A9000F1FC10BD704710B50446402C02DD4FF04C
:100AA000FF3010BD10490C7004F0D4FA04F0C1FB03
:100AB0000020F6E710B50446B4F5803F02DD4FF0A4
:100AC000FF3010BD09490C8004F0C4FA04F0A1FB0A
:100AD0000020F6E728010020800100200C00002003
:100AE0001000002018000020090000200A0000204B
:100AF00010B501217F2006F00FFF0121880306F0C9
:100B000047FF0121880506F034FF10BD1CB54FF0EA
:100B1000040000904FF001008DF804004FF0000039
:100B20008DF806004FF003008DF805004FF000002F
:100B30008DF807006946FE4806F030FA4FF48060F1
:100B400000904FF001008DF804004FF000008DF888
:100B500006004FF003008DF805004FF000008DF8FF
:100B600007006946F34806F019FA04220121F0480B
:100B700006F0BDFA04220021ED4806F0B8FA4FF065
:100B8000020000908DF804008DF805004FF0010080
:100B90008DF806004FF000008DF807006946E44824
:100BA00006F0FCF94FF0010000906946E04806F0BD
:100BB000F5F94FF4007000904FF002008DF804003A
:100BC0008DF805004FF000008DF806008DF8070045
:100BD0006946D94806F0E2F905220921D64806F00F
:100BE00086FA4FF0400000904FF002008DF80400AC
:100BF0008DF805004FF000008DF806008DF8070015
:100C00006946CD4806F0CAF905220621CA4806F011
:100C10006EFA4FF4805000904FF002008DF80400FF
:100C20008DF805004FF000008DF806008DF80700E4
:100C30006946C24806F0B2F905220C21BF4806F009
:100C400056FA4FF4005000904FF002008DF8040067
:100C50008DF805004FF000008DF806008DF80700B4
:100C60006946B64806F09AF905220D21B34806F008
:100C70003EFA4FF4004000904FF002008DF804005F
:100C80008DF805004FF000008DF806008DF8070084
:100C90006946AA4806F082F905220F21A74806F006
:100CA00026FA4FF0800000904FF002008DF804000B
:100CB0008DF805004FF000008DF806008DF8070054
:100CC00069469D4806F06AF9062207219A4806F00F
:100CD0000EFA4FF0100000904FF002008DF8040063
:100CE0008DF805004FF000008DF806008DF8070024
:100CF0006946934806F052F906220421904806F00E
:100D0000F6F94FF4806000904FF002008DF8040077
:100D10008DF805004FF000008DF806008DF80700F3
:100D20006946854806F03AF906220A21824806F00B
:100D3000DEF94FF4805000904FF002008DF804006F
:100D40008DF805004FF000008DF806008DF80700C3
:100D50006946794806F022F906220C21764806F009
:100D6000C6F94FF4005000904FF001008DF80400D8
:100D70004FF000008DF806004FF003008DF80500DD
:100D80004FF000008DF8070069466A4806F006F942
:100D90004FF4804000904FF001008DF804004FF0B8
:100DA00000008DF806004FF003008DF805004FF0AD
:100DB00000008DF8070069465E4806F0EFF84FF432
:100DC000004000904FF001008DF804004FF000004B
:100DD0008DF806004FF003008DF805004FF000007D
:100DE0008DF807006946534806F0D8F84FF40040E4
:100DF00000904FF001008DF804004FF000008DF8D6
:100E000006004FF003008DF805004FF000008DF84C
:100E100007006946464806F0C1F84FF0010000900F
:100E20008DF804004FF000008DF806004FF003002D
:100E30008DF805004FF000008DF807006946414825
:100E400006F0ACF84FF0020000904FF001008DF872
:100E500004004FF000008DF806004FF003008DF8FD
:100E600005004FF000008DF807006946354806F090
:100E700095F84FF0800000904FF001008DF80400CD
:100E80004FF000008DF806004FF003008DF80500CC
:100E90004FF000008DF807006946264806F07EF8FE
:100EA0004FF4807000904FF001008DF804004FF077
:100EB00000008DF806004FF003008DF805004FF09C
:100EC00000008DF8070069461A4806F067F84FF4ED
:100ED000006000904FF000008DF804004FF0030018
:100EE0008DF805004FF001008DF8070069461248A3
:100EF00006F054F84FF0020000904FF000008DF81B
:100F000004004FF003008DF805004FF001008DF84C
:100F1000070069460C4806F041F84FF001000090C8
:100F20004FF000008DF804004FF003000EE00000C9
:100F30000014024000100240000802400004024079
:100F40000000024000180240000C02408DF805002D
:100F50004FF001008DF807006946FB4806F01EF8C7
:100F60004FF0040000904FF000008DF804004FF0A7
:100F700003008DF805004FF001008DF80700694669
:100F8000F14806F00BF84FF4006000904FF00000BD
:100F90008DF804004FF003008DF805004FF00100BC
:100FA0008DF807006946E94805F0F8FF4FF4007036
:100FB00000904FF000008DF804004FF003008DF812
:100FC00005004FF001008DF807006946DF4805F085
:100FD000E5FF4FF4006000904FF000008DF8040032
:100FE0004FF003008DF805004FF001008DF8070069
:100FF0006946D74805F0D2FF4FF4805000904FF07B
:1010000000008DF804004FF003008DF805004FF04C
:1010100001008DF807006946CD4805F0BFFF4FF489
:10102000005000904FF000008DF804004FF00300D6
:101030008DF805004FF001008DF807006946C4489F
:1010400005F0ACFF4FF0100000904FF000008DF85D
:1010500004004FF003008DF805004FF001008DF8FB
:1010600007006946B84805F099FF4FF00800009066
:101070004FF000008DF804004FF003008DF80500DC
:101080004FF001008DF807006946AF4805F086FF74
:101090004FF4804000904FF000008DF804004FF0B6
:1010A00003008DF805004FF001008DF80700694638
:1010B000A74805F073FF4FF0200000904FF00000AC
:1010C0008DF804004FF003008DF805004FF001008B
:1010D0008DF8070069469F4805F060FF4FF0080053
:1010E00000904FF000008DF804004FF003008DF8E1
:1010F00005004FF001008DF807006946954805F09E
:101100004DFF4FF0040000904FF001008DF80400F7
:101110004FF000008DF806004FF003008DF8050039
:101120004FF000008DF807006946884805F036FF4B
:101130001CBD704710B50421854805F0B8FFC0F10B
:101140000100C4B222460421814805F0C4FF10BD4D
:1011500010B504217E4805F0BCFF10BD10B5042178
:101160007B4805F0B4FF10BD10B54FF4806177489F
:1011700005F09DFFC0F10100C4B222464FF480612A
:10118000724805F0A8FF10BD10B54FF480616F489C
:1011900005F09FFF10BD10B54FF480616B4805F05E
:1011A00096FF10BD10B50446002C05DD4FF400512C
:1011B000664805F08CFF04E04FF40051634805F0E9
:1011C00088FF10BD10B50446002C05DD4FF48041AA
:1011D0005E4805F07CFF04E04FF480415B4805F079
:1011E00078FF10BD10B50446002C05DD4FF400411A
:1011F000564805F06CFF04E04FF40041534805F0F9
:1012000068FF10BD10B54FF40041514805F061FF73
:1012100010BD10B54FF400414D4805F058FF10BD0A
:1012200010B501214C4805F054FF10BD10B5012147
:10123000494805F04CFF10BD10B50221464805F0A5
:1012400048FF10BD10B50221434805F040FF10BD16
:1012500010B580213D4805F03CFF10BD10B5802140
:101260003A4805F034FF10BD10B54FF4807137488F
:1012700005F02FFF10BD10B54FF48071334805F015
:1012800026FF10BD70B54FF000054FF400613348E4
:1012900005F0FDFE044605EB0400C5B24FF0020167
:1012A000294805F0F4FE044605EB4400C5B24FF0B2
:1012B0000101254805F0EBFE044605EB8400C5B2AC
:1012C0004FF00401204805F0E2FE044605EBC4009F
:1012D000C5B2284670BD70B54FF400611B4805F0DB
:1012E000D6FE054615B94FF0000401E04FF00104A9
:1012F000204670BD70B54FF40071144805F0C7FE6C
:10130000054615B94FF0000401E04FF001042046F6
:1013100070BD70B54FF400610D4805F0B8FE05468C
:1013200015B94FF0000401E04FF00104204670BDF4
:1013300070B54FF48051064805F0A9FE05467DB909
:101340004FF000040EE00000000C024000100240CC
:101350000014024000000240001802400008024051
:101360004FF00104204670BD70B54FF40051304875
:1013700005F08DFE054615B94FF0000401E04FF071
:101380000104204670BD70B510212A4805F07FFE8B
:10139000054615B94FF0000401E04FF00104204666
:1013A00070BD70B50821234805F071FE054615B9DA
:1013B0004FF0000401E04FF00104204670BD70B50D
:1013C0004FF480411A4805F062FE054615B94FF00A
:1013D000000401E04FF00104204670BD70B52021EB
:1013E000154805F054FE054615B94FF0000401E01C
:1013F0004FF00104204670BD70B508210E4805F07D
:1014000046FE054615B94FF0000401E04FF0010417
:10141000204670BD10B50421084805F048FEC0F113
:101420000100C4B222460421044805F054FE10BD58
:1014300000140240000C0240000002400010024074
:1014400001464FF0000209E04FF0000002E000BF4B
:1014500000F101001428FADB02F101028A42F3D301
:10146000704710B5014601F0F00201F00F034FEA9A
:10147000221202EB820403EB4404E0B210BD30B54B
:1014800001464FF00A0491FBF4F4E2B24FF00A0473
:1014900091FBF4F504FB1514E3B203EB0214E0B284
:1014A00030BD01464FF00A0011B94FF001000AE0CB
:1014B0004FF0010205E000EB80034FEA430002F128
:1014C00001028A42F7DB704701464FF0100011B964
:1014D0004FF0010008E04FF0010203E04FEA001076
:1014E00002F101028A42F9DB704710B54FF00003A8
:1014F00007E000F10100884201DB4FF0000003F13A
:1015000001039342F5DB10BD00F10100884201DBCD
:101510004FF0000070472DE9F04104460F46164693
:10152000069D4FF0000108462AE014F801C0BCF106
:10153000000F06D14FF0000800FB05FC06F80C80F8
:1015400022E04FF0000209E014F801C000FB05683A
:1015500008F802C001F1010102F1010214F801C012
:10156000BCF1200F01DDAA42EEDB3AB14FF0000CD6
:1015700000FB056808F802C000F1010001F101015B
:10158000984201DAB942D0DB00BFBDE8F08170B506
:1015900003460C464FF000010D46084612E05E5C23
:1015A000A64205D025B95E5C165400F1010007E0A3
:1015B0005E5CA64204D14FF00006165405F1010509
:1015C00001F101015E5C16B1B1F5806FE7DB4FF010
:1015D0000006165470BD70B503460C464FF000016E
:1015E0000D46084613E05E5CA64206D0012D04D1EC
:1015F0005E5C165400F1010007E05E5CA64204D177
:101600004FF00006165405F1010501F101015E5C81
:1016100016B1B1F5806FE6DB4FF00006165470BDD1
:101620002DE9F04107464FF0000838460DF0E7FD80
:101630000646022E40DD387830283DD1787878286B
:1016400002D07878582837D14FF0000530E007F104
:101650000200445D302C0CDB392C0ADCA4F1300490
:10166000A6F10301A1EB0500FFF72EFF04FB0088A4
:101670001CE0412C0CDB462C0ADCA4F13704A6F15B
:101680000301A1EB0500FFF71FFF04FB00880DE03D
:10169000612C0BDB662C09DCA4F15704A6F10301D5
:1016A000A1EB0500FFF710FF04FB008805F1010521
:1016B000B01EA842CBDC1AE04FF0000515E07C5DBF
:1016C000302C0CDB392C0ADCA4F13004A6F101012A
:1016D000A1EB0500FFF7E5FE04FB008803E03A48B4
:1016E00000683949086005F10105B542E7DB40466D
:1016F000BDE8F0812DE9F0470646894615469A4631
:10170000BAF1000F26D12846FFF7CBFE99FBF0F186
:1017100000FB11974FF0000416E0691E081BFFF74D
:10172000C0FE97FBF0F000F0FF08A5F10101A1EB6E
:101730000400FFF7B6FE97FBF0F100FB117708F10C
:101740003000305504F10104AC42E6DB4FF00000FC
:10175000705527E086F800A0681EFFF7A2FE99FBEF
:10176000F0F100FB11974FF0010416E0691E081B11
:10177000FFF797FE97FBF0F000F0FF08A5F10101DD
:10178000A1EB0400FFF78DFE97FBF0F100FB117752
:1017900008F13000305504F10104AC42E6DB4FF0B3
:1017A000000070550020BDE8F08701460A784FEA36
:1017B00002624B7842EA03428B7842EA0322CB78FA
:1017C00042EA0300704700000000002010B542F21A
:1017D0001070FFF735FE4FF05E00F94908704FF0CA
:1017E000450048704FF0A20088704FF0A800C87004
:1017F0004FF0650008714FF0640048714FF0C00071
:10180000F04908704FF0A80048704FF065008870EC
:101810004FF06400C8704FF0C000EB4908704FF003
:10182000A80048704FF0650088704FF00100C87044
:101830004FF0FF00E5490870487088704FF00000D5
:10184000C8704FF0C000E24908704FF0A80048701F
:101850004FF0650088704FF08F00C870FFF712FDE1
:10186000DC49087008460078DB490870D8480078E1
:10187000D4490870D64840784870D5488078887038
:10188000D348C078D44909780844CE49C87008467E
:10189000C07810B94FF0FF00C870CA484078C849F6
:1018A000C870C84880780871C648C0784871C54873
:1018B0000078CA490870C34840784870C1488078A9
:1018C00088704FF0FF00C870C548C64908604FF0E7
:1018D0000100C549086042F21070FFF7B1FD00F049
:1018E000B5FB42F21070FFF7ABFD00BF00F0ABFD9F
:1018F00042F21070FFF7A4FD02F0A0FF03F059FBC5
:10190000002010BD10B5B9480068012810D1B848B2
:10191000B8490268B348006803F098F8B548016810
:10192000B048006800F020FF4FF00000AF490860A9
:10193000002010BD10B5FFF7E5FF10BD70471CB5C6
:10194000AD480068002803DDAB480089C4B201E05F
:101950004FF0FF04A9480178A9480068C0B2CDE95A
:101960000001A84803782246A2499E48006803F077
:1019700013F8A04801689B48006800F08CFE002026
:101980001CBD10B5FFF7DBFF10BD01460A784FEA1A
:1019900002624B7842EA03428B7842EA0322CB7818
:1019A00042EA030070472DE9F04104460D46164611
:1019B0001F46802C03DA4FF0FF30BDE8F081F72D91
:1019C00002DD4FF0FF30F8E7FF2E02DD4FF0FF3071
:1019D000F3E7FF2F02DD4FF0FF30EEE779480470A8
:1019E00045708670C7707A48047045708670C770FD
:1019F0004FF47A70FFF724FD03F02CFB4FF47A705C
:101A0000FFF71EFD03F02BFB4FF47A70FFF718FD74
:101A10004FF47A70FFF714FD7B48FFF711FD7A4809
:101A2000FFF70EFD0020C8E730B501464FEA11620E
:101A3000C1F30743C1F30724CDB2802A02DA4FF085
:101A4000FF3030BDF72A02DD4FF0FF30F9E7FF2B02
:101A500002DD4FF0FF30F4E7FF2C02DD4FF0FF30E6
:101A6000EFE7FF2D02DD4FF0FF30EAE75548027047
:101A700043708470C5700020E3E770B50546002D03
:101A800002DA4FF0020401E04FF001042246594906
:101A90005448006803F0E3F856480168514800686C
:101AA00000F0F9FD002070BD2DE9F04157480068B5
:101AB00002F02DFF04462578667847480078854275
:101AC00007D1012E05D104F06CFD07463846FFF71B
:101AD000D4FF0020BDE8F0812DE9F84F04464FEA1D
:101AE0001467C4F30748C4F30729E5B2802F03DA6B
:101AF0004FF0FF30BDE8F88FB8F1F70F02DD4FF07F
:101B0000FF30F7E7B9F1FF0F02DD4FF0FF30F1E7EB
:101B10005A2D02DD4FF0FF30ECE72A4890F800A084
:101B200090F801B080780090394800780B2809D1EE
:101B30002448C07828490978A0EB0100A0F18E0064
:101B4000C6B21AE032480078022809D11D48C07890
:101B500021490978A0EB0100A0F10200C6B20CE017
:101B60002B480078082808D11648C0781A49097807
:101B7000A0EB0100A0F15C00C6B2574508D1D845E2
:101B800006D10098814503D1B54201D10120B1E7CA
:101B90000F48077080F8018080F802901C48007898
:101BA0000B2804D105F18E000949C8703AE01848A5
:101BB000007802282ED105F102000549C87031E0F5
:101BC0002C00002032000020360000203A000020C7
:101BD0005C000020140000200900002060000020AC
:101BE000C80400204C0000205400002040010020C8
:101BF0003C010020500000203C7A002029000020F9
:101C00002801002028000020A086010044000020B8
:101C100008000020AD480078082803D105F15C00D9
:101C2000AB49C87003F016FA002063E770B5A94805
:101C3000066806F10904A078012807D1E078012898
:101C400005D165682846FFF747FF00E000BF002088
:101C500070BD10B5A04803789C4802789F48016881
:101C60009C48006802F058FE0446642C02DA2046C4
:101C700001F058FF002010BD70B505460E4695488E
:101C80000560964806609348006802F0F6FD10B1C2
:101C90004FF0FF3070BD8F48006802F02EFE044602
:101CA000012C09D0022C04D0A4F50C50113809D114
:101CB00005E0FFF7CEFF06E0FFF7B8FF03E0FFF710
:101CC000F3FE00E000BF00BF0020E3E710B5844949
:101CD0008448006802F0F2FF81480168814800688A
:101CE00000F0D9FC002010BD2DE9F04780460F46DA
:101CF0007848C0F8008079480760B7F5806F03DA4C
:101D00004FF0FF30BDE8F0877248006802F0B5FD83
:101D100010B14FF0FF30F5E76E48006802F0EDFDBE
:101D200081466C48006802F0E0FD0646694800689C
:101D300002F0DFFD0546B9F1040F42D165480068A5
:101D400002F0E5FD04466848006801280FDA4FF00C
:101D50000A00654908600846067145716078088187
:101D60002078887104F1020001F0CCFF29E060784E
:101D70005D49098988420FDA4FF00A005A49086024
:101D8000084606714571607808812078887104F1F1
:101D9000020001F0B7FF14E06078534909898842D6
:101DA0000FD151480079B0420BD14F484079A84239
:101DB00007D14FF00A004C49086004F1020001F01D
:101DC000A1FF00209EE70020704702464FF0000070
:101DD000704702464FF00000704770B504460D464C
:101DE0002B4622463E493F48006802F0CBFE3C4865
:101DF00001683C48006800F094FC002070BD70B59C
:101E000004460D462B46224635493648006802F006
:101E1000E8FE334801683348006800F082FC002087
:101E200070BD2DE9F04106460F462A4806602B4852
:101E300007602848006802F020FD18B14FF0FF301D
:101E4000BDE8F0812348006802F057FD0446032CEA
:101E500015D12048006802F04CFD05461E48007868
:101E600085420CDA2148006800F101001F49086032
:101E700008460068482802DD4FF04800086000204E
:101E8000DEE710B503F04BF911480078802803DA3B
:101E90004FF0C0000E4908700D484078F72803DD68
:101EA0004FF0A8000A49087009488078FF2803DD30
:101EB0004FF06500064988700548C078022803DAAB
:101EC0004FF064000249C870002010BD08000020D7
:101ED0005C00002044000020090000204800002091
:101EE000500000204C0000203C7A002048010020D7
:101EF00000B5AFB001214FF0606005F00DFD06F0B8
:101F000032FC07F061F900BF07F065F90128FBD04A
:101F1000684606F033FC4FF0010000904FF00000DF
:101F200007904FF400700A904FF000000B900E9055
:101F3000119013901490159020904FF00070219004
:101F40004FF4001023904FF00000259026904FF0A2
:101F5000040028904FF0007029904FF480302A90B0
:101F60004FF480002B904FF400502C904FF48040A1
:101F70002E904FF00101684606F069FC3649086072
:101F80002FB000BD1CB50121672005F0C5FC012163
:101F9000880305F0FDFC4FF4807000904FF00300C3
:101FA0008DF805004FF002008DF804004FF000009E
:101FB0008DF806008DF807006946284804F0EEFF0A
:101FC000012006F029F84FF086000090694623486A
:101FD00004F0E4FF0B220121204805F088F80B22D1
:101FE00002211E4805F083F80B2207211B4805F04B
:101FF0007EF84FF0320000906946194804F0CEFF99
:102000000B220121164805F072F80B220421144816
:1020100005F06DF80B220521114805F068F84FF422
:10202000D040009069460F4804F0B8FF0B221146DB
:102030000C4805F05CF80B220D210A4805F057F812
:102040000B220E21074805F052F81CBD10B5FFF712
:1020500099FFFFF74DFF10BD640000200000024013
:102060000008024000180240704700BFFEE700BFB2
:10207000FEE700BFFEE700BFFEE7704710B500F0C7
:1020800042F810BD10B501F005FC10BD10B501F00F
:10209000A8FA10BD7FB5042004F003FD684605F0E2
:1020A000A8FB4FF064020198B0FBF2F1B1F1807F20
:1020B00000D327E021F07F40A0F101004FF0E022A3
:1020C00050614FF0FF304FF00F0200280ADA4FEA5C
:1020D00002734FEA1365464B00F00F04A4F10404A9
:1020E0001D5505E04FEA02734FEA1364414B1C543F
:1020F00000BF4FF000004FF0E02290614FF007006A
:10210000106100BF7FBD3C48006800F101003A4902
:1021100008603A48006800F1010038490860384812
:10212000006800F10100364908603648006800F197
:102130000100344908603448006800F10100324968
:1021400008603248006800F10100304908603048FA
:10215000006800F101002E4908602E48006800F177
:1021600001002C49086070477047704710B503F0B4
:1021700007FF03F0E7FF01F0A3FFFEF77AF910BDB8
:10218000704710B5FFF7DAFB00F0F5F910BD10B598
:10219000FEF756FC02F099F81F480068002803DD9E
:1021A000FEF7C8FFFEF7E0FF02F059FF03F080FFE3
:1021B00004F015FA04F05BF810BD10B502F0BAF89F
:1021C00010BD10B514480068012803DAFEF7B2FF0D
:1021D000FEF7CAFFFFF7D5FB02F0E0F803F0B1F815
:1021E00004F0F7FB10BD10B5FEF754FC10BD7047AE
:1021F00018ED00E000E400E06C000020700000201A
:1022000074000020780000207C0000208000002066
:1022100084000020880000203C7A002010B50BF0DC
:102220000AF8F74908604CF69F72F649F4480068CE
:102230000AF0DEFE10BD2DE9F04106460F461446B9
:102240009846069D61896068FFF7EBFD204607F020
:10225000EFFCBDE8F08110B50AF0EDFFEA49086037
:102260004CF6A072E749E84800680AF0C1FE002277
:10227000AFF23D01E44800680AF0BCFF10BD10B5A4
:102280000AF0D9FFE14908604CF6B732DD49DF4872
:1022900000680AF0ADFE10BD2DE9F04106460F467C
:1022A00014469846069D61896068FFF78EFD2046BA
:1022B00007F0BEFCBDE8F08110B50AF0BCFFD449C0
:1022C00008604CF6B832CF49D14800680AF090FE59
:1022D0000022AFF23B01CE4800680AF08BFF10BD30
:1022E00010B50AF0A8FFCB4908604CF2CF72C5497F
:1022F000C84800680AF07CFE10BD2DE9F041064692
:102300000F4614469846069D61896068FFF7ECFC0D
:10231000204607F08DFCBDE8F08110B50AF08BFF78
:10232000BD4908604CF2D072B649BB4800680AF05B
:102330005FFE0022AFF23D01B74800680AF05AFF85
:1023400010BD10B50AF077FFB44908604CF2E732CF
:10235000AC49B24800680AF04BFE10BD2DE9F041CF
:1023600006460F4614469846069D61896068FFF749
:1023700083FC204607F05CFCBDE8F08110B50AF054
:102380005AFFA74908604CF2E8329E49A448006809
:102390000AF02EFE0022AFF23B01A14800680AF0CD
:1023A00029FF10BD2DE9F04106460F461446984618
:1023B000069D6189606803F041F8204607F038FC0B
:1023C000BDE8F08110B50AF036FF9649086043F683
:1023D00060328C49934800680AF00AFE0022AFF28E
:1023E0003B01904800680AF005FF10BD2DE9F0415F
:1023F00080460D4614461E46069F43F6623231461D
:1024000028460AF0B7FE214628460AF0A8FE2846CC
:102410000AF0E0FE204607F00BFCBDE8F08110B5A5
:102420000AF009FF8049086043F6623275497E4828
:1024300000680AF0DDFD0022AFF24F017A48006823
:102440000AF0D8FE10BD00B587B007F013F907F009
:102450008BFA764909780A067449497842EA0142BA
:102460007249897842EA0121704AD27841EA020031
:102470000BF014FA06906E4909780A066C494978FF
:1024800042EA01426A49897842EA0121684AD278DF
:1024900041EA02000BF002FA0590664909780A0643
:1024A0006449497842EA01426249897842EA012155
:1024B000604AD27841EA02000BF0F0F904904FF044
:1024C000FF300BF0EBF95C490860584909780A06BF
:1024D0005649497842EA01425449897842EA012141
:1024E00041F0FF000BF0DAF95449086054485549AF
:1024F000002204ABCDE90021029005AA06A95248AA
:1025000007F0E7FA504807F017FB4F4807F05DFB6C
:10251000FFF785FFFFF756FFFFF730FFFFF711FFCB
:10252000FFF7FBFEFFF7DCFEFFF7C6FEFFF7A7FE97
:10253000FFF791FEFFF772FE07B000BD10B54248ED
:102540000CF0F7FD10BD10B506F0F6FC08B1FFF772
:10255000F5FF10BD10B53D48006800F101003B4992
:10256000086008460068642804DD4FF00000086039
:102570000CF04FF810BD10B5FFF7ECFF10BD1CB507
:102580004FF020008DF800004FF021008DF8010081
:102590004FF022008DF802004FF023008DF8030069
:1025A0004FF024008DF804004FF025008DF8050051
:1025B0004FF026008DF806004FF027008DF8070039
:1025C00043F662321D49184800680AF0D3FD032221
:1025D0000821002007F067FB044684B10822694601
:1025E000204607F0C2FD21460F4800680AF0B7FDFB
:1025F0000D4800680AF0EEFD204607F019FB1CBDEF
:10260000BC000020D6260108B8000020B40000203D
:10261000B0000020AC000020A8000020A400002092
:10262000A00000209C000020980000203200002024
:102630003A00002036000020900000209400002086
:1026400039EF000861F10008C80900208C00002063
:1026500070B506460C4643F6613255495548006848
:102660000AF088FD0322A1B2002007F01CFB0546FA
:1026700085B1A2B23146284607F077FD29464D487C
:1026800000680AF06CFD4B4800680AF0A3FD28467C
:1026900007F0CEFA70BD70B506460C464CF2E83233
:1026A0004349454800680AF065FD0322A1B20020B5
:1026B00007F0F9FA054685B1A2B23146284607F07F
:1026C00054FD29463C4800680AF049FD3A48006834
:1026D0000AF080FD284607F0ABFA70BD70B50646DB
:1026E0000C464CF2D0723249344800680AF042FD80
:1026F0000322A1B2002007F0D6FA054685B1A2B2A6
:102700003146284607F031FD29462C4800680AF07A
:1027100026FD2A4800680AF05DFD284607F088FA81
:1027200070BD70B506460C464CF6B83220492448B8
:1027300000680AF01FFD0322A1B2002007F0B3FADF
:10274000054685B1A2B23146284607F00EFD29465E
:102750001B4800680AF003FD194800680AF03AFDBA
:10276000284607F065FA70BD70B506460C464CF673
:10277000A0720F49134800680AF0FCFC0322A1B2C2
:10278000002007F090FA054685B1A2B231462846EE
:1027900007F0EBFC29460B4800680AF0E0FC09480A
:1027A00000680AF017FD284607F042FA70BD0000E5
:1027B000940000209C000020A4000020AC00002019
:1027C000B4000020BC0000201FB54FF00000ADF8A1
:1027D00004004BF6FF70ADF806004FF0A000ADF816
:1027E00008004FF48060ADF80A004FF48040ADF867
:1027F0000C00F84800904FF00101F74804F06DFD1F
:102800006946F54804F0DDFC1FBD2DE9F0410446A2
:102810000D464FEA1427E6B24FF00000EF4908607A
:10282000EF49086010E0ED48006800F10100EB4955
:10283000086008460068B0F57A2F05DD4FF001000A
:10284000E7490860BDE8F0814FF40031E24804F048
:1028500093FE0028E7D10121DF4804F04BFD4FF043
:102860000000DE490860DE4908600FE0DB480068D0
:1028700000F10100D949086008460068B0F57A2FD8
:1028800004DD4FF00200D6490860DBE7D549D248A5
:1028900004F03DFE0028E9D00022A021CE4804F03B
:1028A00043FD4FF00000CD490860CD4908600FE0BE
:1028B000CA48006800F10100C8490860084600687D
:1028C000B0F57A2F04DD4FF00300C5490860B9E781
:1028D000C549C14804F01BFE0028E9D03946BE486E
:1028E00004F0B1FD4FF00000BC490860BC4908602D
:1028F0000FE0BA48006800F10100B84908600846D6
:102900000068B0F57A2F04DD4FF00400B449086088
:1029100098E7B649B04804F02FFE0028E9D03146C8
:10292000AD4804F090FD4FF00000AC490860AC49A0
:1029300008600FE0A948006800F10100A74908609D
:1029400008460068B0F57A2F04DD4FF00500A44971
:10295000086077E7A549A04804F00EFE0028E9D0FA
:1029600029469D4804F06FFD4FF000009B49086028
:102970009B4908600FE09948006800F10100974901
:10298000086008460068B0F57A2F04DD4FF00600B5
:102990009349086056E795498F4804F0EDFD0028FB
:1029A000E9D04FF000008D4908608D4908600FE0C4
:1029B0008A48006800F101008849086008460068FC
:1029C000B0F57A2F04DD4FF007008549086039E73C
:1029D0008549891E804804F09AFD0028E8D001212D
:1029E0007D4804F094FC00BF2CE72DE9F04104463B
:1029F0004FEA1426E5B24FF00000784908607849A4
:102A0000086012E07548006800F101007349086031
:102A100008460068B0F57A2F07DD4FF008007049CE
:102A200008604FF0FF00BDE8F0814FF400316A48C4
:102A300004F0A2FD0028E5D10121674804F05AFC0A
:102A40004FF00000654908606549086011E063487F
:102A5000006800F101006149086008460068B0F5AF
:102A60007A2F06DD4FF009005D4908604FF0FF0046
:102A7000D9E75C49584804F04AFD0028E7D0002215
:102A8000A021554804F050FC4FF000005349086065
:102A90005349086011E05148006800F101004F49B6
:102AA000086008460068B0F57A2F06DD4FF00A008E
:102AB0004B4908604FF0FF00B5E74B49464804F02A
:102AC00026FD0028E7D03146434804F0BCFC4FF017
:102AD0000000424908604249086011E03F48006830
:102AE00000F101003D49086008460068B0F57A2F02
:102AF00006DD4FF00B003A4908604FF0FF0092E707
:102B00003A49354804F038FD0028E7D029463248D4
:102B100004F099FC4FF0000030490860304908602B
:102B200011E02E48006800F101002C4908600846B9
:102B30000068B0F57A2F06DD4FF00B0028490860D9
:102B40004FF0FF006FE72949234804F015FD0028E6
:102B5000E7D00121204804F0CDFB4FF000001F49D1
:102B600008601F49086011E01C48006800F101007E
:102B70001A49086008460068B0F57A2F06DD4FF064
:102B80000C00174908604FF0FF004CE71549124848
:102B900004F0BDFC0028E7D00122A0210E4804F07B
:102BA000C3FB4FF000000D4908600D4908601FE0AD
:102BB0000A48006800F101000849086008460068FA
:102BC000B0F57A2F14DD4FF00D00054908604FF085
:102BD000FF0028E7A086010000580040C000002048
:102BE000C400002001000300820007000400001060
:102BF000FD49FE4804F0C0FC0028D9D00021FB4864
:102C000004F09AFBFA4800884FF00101F74804F0FD
:102C10007EFB4FF00000F7490860F749086011E0BB
:102C2000F448006800F10100F249086008460068B5
:102C3000B0F57A2F06DD4FF00E00EF4908604FF037
:102C4000FF00F0E6E8493E31E84804F095FC002832
:102C5000E6D0E64804F0F9FB07464FF00000E549EE
:102C60000860E549086011E0E248006800F10100F1
:102C7000E049086008460068B0F57A2F06DD4FF09D
:102C80000F00DD4908604FF0FF00CCE6D748008810
:102C900010F4007FE8D10121D44804F04DFB384600
:102CA000C1E62DE9F04705460F4616464FEA455066
:102CB0004FEA10484FEA182A08F0FF09202E01DDDC
:102CC0004FF020064FF00000CA490860CA4908606A
:102CD00010E0C848006800F10100C64908600846D5
:102CE0000068B0F57A2F05DD4FF01000C24908608A
:102CF000BDE8F0874FF40031BC4804F03DFC0028EB
:102D0000E7D10121B94804F0F5FA4FF00000B949C4
:102D10000860B94908600FE0B648006800F101009A
:102D2000B449086008460068B0F57A2F04DD4FF01A
:102D30001100B1490860DBE7B049AC4804F0E7FB9B
:102D40000028E9D00022A021A84804F0EDFA4FF0B5
:102D50000000A8490860A84908600FE0A54800687D
:102D600000F10100A349086008460068B0F57A2F19
:102D700004DD4FF01200A0490860B9E7A0499B4864
:102D800004F0C5FB0028E9D05146984804F05BFBED
:102D90004FF0000097490860974908600FE0954898
:102DA000006800F101009349086008460068B0F52A
:102DB0007A2F04DD4FF013008F49086098E78A49A5
:102DC000891C8A4804F0D8FB0028E8D04946874887
:102DD00004F039FB4FF0000086490860864908601E
:102DE0000FE08448006800F101008249086008464D
:102DF0000068B0F57A2F04DD4FF014007E490860BA
:102E000076E77949891C794804F0B6FB0028E8D0B8
:102E10004FF0000423E0395D744804F014FB4FF0D8
:102E2000000074490860744908600FE07148006848
:102E300000F101006F49086008460068B0F57A2F7C
:102E400004DD4FF015006C49086051E76649891CA4
:102E5000664804F091FB0028E8D004F10104B44274
:102E6000D9DB4FF0000063490860634908600FE058
:102E70006048006800F101005E490860084600688B
:102E8000B0F57A2F04DD4FF016005B4908602FE79C
:102E90005B49891E554804F03AFB0028E8D001211F
:102EA000524804F034FA00BF22E72DE9F047054606
:102EB0000F4616464FEA45504FEA10484FEA182A87
:102EC00008F0FF09202E01DD4FF020064FF0000032
:102ED000484908604849086010E04648006800F129
:102EE00001004449086008460068B0F57A2F05DD06
:102EF0004FF0170040490860BDE8F0874FF40031FB
:102F00003A4804F039FB0028E7D10121374804F0A2
:102F1000F1F94FF0000037490860374908600FE0C9
:102F20003448006800F10100324908600846006832
:102F3000B0F57A2F04DD4FF018002F490860DBE769
:102F40002E492A4804F0E3FA0028E9D00022A02103
:102F5000264804F0E9F94FF00000264908602649A8
:102F600008600FE02348006800F101002149086073
:102F700008460068B0F57A2F04DD4FF019001E49AD
:102F80000860B9E71E49194804F0C1FA0028E9D0E1
:102F90005146164804F057FA4FF0000015490860F2
:102FA000154908600FE01348006800F1010011495D
:102FB000086008460068B0F57A2F04DD4FF01A006B
:102FC0000D49086098E70849891C084804F0D4FABC
:102FD0000028E8D04946054804F035FA4FF00000D3
:102FE0000449086004490DE0020000100058004048
:102FF00018580040C0000020C40000200100030059
:103000008200070008600FE0E648006800F1010058
:10301000E449086008460068B0F57A2F04DD4FF0F7
:103020001B00E149086067E7E049E14804F0A4FAC1
:103030000028E9D04FF0000492E00121DC4804F0C0
:1030400059F94FF00000D7490860D74908600FE0F0
:10305000D448006800F10100D249086008460068C1
:10306000B0F57A2F04DD4FF01C00CF49086043E72C
:10307000D049CF4804F04BFA0028E9D00122A02122
:10308000CB4804F051F94FF00000C6490860C6492A
:1030900008600FE0C348006800F10100C149086002
:1030A00008460068B0F57A2F04DD4FF01D00BE49D8
:1030B000086021E7BD49891EBD4804F05DFA00287B
:1030C000E8D00021BA4804F037F9BB4800884FF037
:1030D0000101B74804F01BF94FF00000B149086046
:1030E000B14908600FE0AF48006800F10100AD4948
:1030F000086008460068B0F57A2F04DD4FF01E0026
:10310000A9490860F8E6A9493C31A94804F034FA15
:103110000028E8D0A64804F098F938554FF0000090
:10312000A0490860A04908600FE09E48006800F1CF
:1031300001009C49086008460068B0F57A2F04DD5C
:103140004FF01F0098490860D6E69948008810F4AF
:10315000007FEAD10121964804F0EEF804F1010461
:10316000B442FFF66AAF00BFC6E61FB54FF00000DD
:10317000ADF804004BF6FF70ADF806004FF0880084
:10318000ADF808004FF48060ADF80A004FF48040BD
:10319000ADF80C00894800904FF00101844804F01C
:1031A0009CF86946824804F00CF81FBD2DE9F047F1
:1031B00081460C464F2C02DD4FF04F0403E0002CFB
:1031C00001DA4FF000044FF00A0094FBF0F0C7B2B0
:1031D0004FF00A0094FBF0F100FB114000F0FF08F3
:1031E000B9F1010F04D147F0B00548F0A0060BE09B
:1031F000B9F1020F04D147F0300548F0200603E092
:1032000047F0E00548F0D0064FF00000654908603F
:103210006549086010E06348006800F101006149F9
:10322000086008460068B0F57A2F05DD4FF06500AC
:103230005D490860BDE8F0874FF400315C4804F058
:103240009BF90028E7D10121594804F053F84FF0C9
:10325000000054490860544908600FE05148006874
:1032600000F101004F49086008460068B0F57A2F68
:1032700004DD4FF066004C490860DBE74D494C48DF
:1032800004F045F90028E9D000228821484804F0DC
:103290004BF84FF0000043490860434908600FE0D5
:1032A0004048006800F101003E4908600846006897
:1032B000B0F57A2F04DD4FF067003B490860B9E7AD
:1032C0003F493B4804F023F90028E9D02946384813
:1032D00004F0B9F84FF00000324908603249086044
:1032E0000FE03048006800F101002E4908600846F0
:1032F0000068B0F57A2F04DD4FF068002A490860B5
:1033000098E72A492A4804F037F90028E9D03146DD
:10331000274804F098F84FF000002249086022493D
:1033200008600FE01F48006800F101001D490860B7
:1033300008460068B0F57A2F04DD4FF069001A499D
:10334000086077E719491A4804F016F90028E9D00F
:103350004FF0000013490860134908600FE011485E
:10336000006800F101000F49086008460068B0F5E8
:103370007A2F04DD4FF06A000B4908605AE71049C4
:10338000891E0B4804F0C3F80028E8D00121084842
:1033900003F0BDFF00BF4DE7704701464FF000004E
:1033A00070477047C0000020C400002004000010D7
:1033B000005800400100030018580040A08601009A
:1033C000820007001FB50121880304F0D2FAF848F3
:1033D00004F0FCFB4AF6444002904FF00000ADF8C8
:1033E0000200ADF80400ADF80C004FF40070ADF829
:1033F00000004FF00000ADF806006946EC4804F00C
:1034000033FC0121EA4804F0E9FC1FBD10B500219E
:10341000E74804F0E3FC0021E64803F044FC002206
:103420000221E34804F04EFD10BD10B50121E04833
:1034300004F0D4FC0121DF4803F035FC0122022115
:10344000DB4804F03FFD10BD00B591B001214805F7
:1034500004F062FA0021D74803F025FCD54803F0B8
:1034600043FB0022D449D34803F044FC0121D14856
:1034700003F04CFC4FF000000290D0480390D0487D
:1034800004904FF0400005904FF4806006904FF09C
:10349000000007904FF4806008904FF4006009909E
:1034A0004FF400500A904FF480700B904FF40030AE
:1034B0000C904FF004000D904FF003000E904FF071
:1034C00000000F90109002A9BA4803F0A3FB01225C
:1034D0001021B84803F07CFC01220821B54803F014
:1034E00077FC4FF00F008DF804004FF000008DF8CE
:1034F00005008DF806004FF001008DF8070001A8C7
:1035000003F074FA0121AB4803F0CDFB0122022144
:10351000A74804F0D7FC11B000BD70B5A54803F072
:1035200005FC08B9A44D00E0A54DA6480068A649D1
:10353000096801EB80264FF00801A2480068FDF7FA
:10354000E3FFA04908604FF0000406E036F81400DD
:1035500005EB8401488004F10104B4F5007FF5DB3C
:1035600070BD70B5934803F0E1FB08B9924D00E0DF
:10357000934D964800689649096801EB80264FF004
:10358000080192480068FDF7BFFF904908604FF0BE
:10359000000407E036F814004FEA440125F8110052
:1035A00004F10104B4F5007FF4DB8A480068A0F55B
:1035B00080608849086008460068002802DA4FF0F9
:1035C000000008608448006800F580608249086057
:1035D00008460068B0F5005F02DD4FF40050086057
:1035E00070BD10B57D4800687C4908607C49714811
:1035F00003F00DFC012811D179496E4803F033FC2A
:103600007648006875490860FFF7ABFFFFF785FF54
:103610004FF001007349086001F0A8F8724965484D
:1036200003F0F5FB012807D16F49624803F01BFC4A
:103630006A4800686949086010BD1FB50121C803C8
:1036400004F097F9694804F0C1FA4AF64440029040
:103650004FF00000ADF80200ADF80400ADF80C002A
:103660004FF48070ADF800004FF00000ADF8060098
:1036700069465E4804F0F8FA01215C4804F0AEFBAC
:103680001FBD10B50021594804F0A8FB002149488E
:10369000303803F008FB00220121544804F012FCEA
:1036A00010BD10B50121514804F098FB012141489B
:1036B000303803F0F8FA012211464C4804F002FCBD
:1036C00010BD00B591B00121480504F025F9002195
:1036D0003848303803F0E7FA3648303803F004FA57
:1036E000002243493348303803F004FB01213148BC
:1036F000303803F00BFB4FF0000002903D48039080
:103700003D4804904FF0000005904FF48060069013
:103710004FF0000007904FF4806008904FF4006075
:1037200009904FF400500A904FF480700B904FF4C2
:1037300000300C904FF004000D904FF003000E90FD
:103740004FF000000F90109002A92C4803F062FA8D
:1037500001221021294803F03BFB012208212748C0
:1037600003F036FB4FF00D008DF804004FF0010020
:103770008DF805004FF000008DF806004FF00100B5
:103780008DF8070001A803F031F901211B4803F06F
:103790008AFA01221146154804F094FB11B000BDCD
:1037A00070B5164803F0C2FA08B9114D29E027E0B8
:1037B0000038004070600240FC1100200C380040CE
:1037C000FC090020F8000020F0000020D8000020B4
:1037D000D0000020EC000020E800002000000020C5
:1037E00020800020C800002010400020003C004045
:1037F000FC2100200C3C0040FC19002040600240ED
:10380000BC4DBD480068BD49096801EB80264FF0FA
:103810000201B9480068FDF777FEB74908604FF02C
:10382000000406E005EB8400408826F8140004F14B
:103830000104B4F5007FF5DB4FF00100B0490860EA
:1038400070BD70B5AF4803F071FA08B9AE4D00E035
:10385000A84DAE480068AE49096801EB80264FF0DC
:103860000201AA480068FDF74FFEA84908604FF022
:10387000000407E04FEA440035F8100026F8140071
:1038800004F10104B4F5007FF4DB4FF00100A1491D
:10389000086070BD10B5A04800689F4908609F4946
:1038A000984803F0B4FA01280BD19C49954803F0DD
:1038B000DAFAFFF7C6FFFFF773FF974800689649EB
:1038C000086097498F4803F0A2FA012807D194496C
:1038D0008C4803F0C8FA904800688F49086010BD12
:1038E0004FF0000001E000F101000528FBDB70470C
:1038F00070B506460D462846FDF774FC0120FDF71D
:1039000061FC0020FDF74EFCFFF7EAFF4FF00004DA
:103910001EE046FA04F010F0010F06D10020FDF77A
:1039200041FC0020FDF73EFC05E00020FDF73AFCDD
:103930000120FDF737FC0020FDF744FCFFF7D0FF26
:103940000120FDF73FFCFFF7CBFF04F10100C4B2FB
:10395000082CDEDBFFF7C4FF0120FDF743FCFFF777
:10396000BFFF70BD10B500211620FFF7C1FF012178
:103970006020FFF7BDFF01212020FFF7B9FF0121E3
:103980008320FFF7B5FF10BD10B500211620FFF70B
:10399000AFFF01218020FFF7ABFF10BD10B5002164
:1039A0001620FFF7A5FF01218320FFF7A1FF10BD1F
:1039B00010B500211420FFF79BFF01210F20FFF716
:1039C00097FF01218120FFF793FF0121C220FFF71C
:1039D0008FFF0121E320FFF78BFF0121C120FFF7BB
:1039E00087FF0121FF20FFF783FF0121C020FFF7A0
:1039F0007FFF0121F020FFF77BFF10BD704710B55E
:103A0000FFF7B0FFFFF7D4FF10BD10B504464CB967
:103A100000211420FFF76CFF01210020FFF768FF51
:103A2000002010BD3D2C0ADA00211420FFF760FFB2
:103A30000121601CC0B2FFF75BFF0020F1E7642C9E
:103A400009DC00211420FFF753FF01216F20FFF74D
:103A50004FFF0020E5E74FF0FF30E2E770B5044686
:103A60000D46102C01DD4FF01004062D01DD4FF046
:103A70000605204604EBD0714FEA6104284605EBA9
:103A8000D0714FEA610504F00F004FF0400141EAA8
:103A9000800005F0030140EA01064FF000014FF0FD
:103AA0001400FFF725FF01213046FFF721FF00201A
:103AB00070BD10B504464FF000014FF01400FFF741
:103AC00017FF2D2C01DD4FF02D044FEA44004FF07D
:103AD000030190FBF1F0C4B24FF001014FF0C000C0
:103AE000FFF706FF44F0E0000121FFF701FF00208F
:103AF00010BD0000FC190020100100200C01002066
:103B00002001002040600240FC2100200401002030
:103B1000000100201801002000000020008020107B
:103B20000040101010B50446F948046000680028F1
:103B300004DA4FF00000F649086007E0F448006836
:103B4000282803DD4FF02800F1490860F04800689C
:103B5000F0490968C1F100010844EF4908600846CE
:103B60000068002803DA4FF00000086007E0EA4828
:103B70000068282803DD4FF02800E7490860E64880
:103B80000068C0B2FFF741FF01F064FA002010BDE9
:103B90004FF00000E1490860704710B54FF0000495
:103BA00007E04FF00000DE490855DE49085504F1F2
:103BB0000104B4F5005FF4DBD948DB490860D9485B
:103BC000DA4908604FF00000D94908604FF004005E
:103BD000D84908604FF48050D74908604FF0000082
:103BE000D64908604FF48050D5490860D54908602F
:103BF0004FF00000D44908604FF00400D34908603A
:103C0000D348D44908604FF00000D34908604FF012
:103C10000100D24908604FF00000D14908604FF020
:103C20000100D0490860D048D04908604FF000003A
:103C3000CF4908604FF00100CE4908604FF0000006
:103C4000CD4908604FF00100CC4908604FF00000FA
:103C5000CB4908604FF00A00AD490860084600688B
:103C6000AD4908604FF00000C6490860C6490860C9
:103C7000A9490860FFF7C3FE4FF47A70FDF7E0FB37
:103C80001A20FFF716FF4FF47A70FDF7D9FBFFF704
:103C900099FBFFF7D9FB4FF47A70FDF7D1FBFFF7E3
:103CA000CCFCFFF70EFD4FF47A70FDF7C9FBFFF770
:103CB0006FFF42F21070FDF7C3FB42F21070FDF788
:103CC000BFFB01F02CFA42F21070FDF7B9FB42F293
:103CD0001070FDF7B5FB8E480068FFF723FF4FF02B
:103CE0000000AA490860AA490860AA49086010BDF6
:103CF00010B5FFF79AFBFFF7D4FC4FF0010087499E
:103D0000086010BD10B504468A490968864A1268E1
:103D100002EB81204FF4806221460BF04BFA082120
:103D200084480068FDF7F0FB824908604FF000000E
:103D30009949086010BD70B505464FF0000414E0C5
:103D400094480068285C954908559248006800F13D
:103D500001009049086008460068B0F55C7F02DB0E
:103D60004FF00000086004F10104B4F5806FE7DB58
:103D70008A48FFF7C7FF002070BD10B58048006873
:103D8000002800DD10BD86480068002867D0844800
:103D90000068012863D183480068642803D1824801
:103DA000FFF7C9FF5BE07F480068C82803D17F4860
:103DB000FFF7C1FF53E07B480068B0F5FA7F03D1FD
:103DC0007B48FFF7B8FF4AE076480068B0F5487FC7
:103DD00003D17848FFF7AFFF41E072480068B0F5C3
:103DE0007A7F03D17448FFF7A6FF38E06D4800687A
:103DF000B0F5FA6F03D17148FFF79DFF2FE06948D6
:103E00000068A0F59851883903D16D48FFF793FFFA
:103E100025E064480068B0F5FA5F03D16948FFF710
:103E20008AFF1CE05F480068A0F51C51103903D1DF
:103E30006548FFF780FF12E05A480068A0F5685116
:103E4000983903D16148FFF776FF08E055480068CC
:103E5000A0F59C41203902D15D48FFF76CFF00BFFF
:103E600090E710B55B480068002811DD4FF00000B6
:103E7000584908604848006800F101004649086058
:103E80005548006800F1010053490860FFF775FFCD
:103E90004148006808280ADD3F480068102806DA13
:103EA0004FF40051204800680BF09DF907E03A48B4
:103EB0000068802803DD4FF08000374908604648DD
:103EC000006808280ADD44480068102806DA4FF424
:103ED0000051164800680BF086F907E03E4800687C
:103EE000802803DD4FF080003B49086010BD2DE9BC
:103EF000F047022119480068FDF706FB0746154800
:103F0000006800EB872A4FF00008C146444670E085
:103F10002801002074010020800100207001002091
:103F20003C2A00203C4A0020D0000020F000002065
:103F3000D8000020D4000020E0000020E400002091
:103F4000E8000020EC000020F8000020F400002031
:103F50003C6A00200001002008010020040100202C
:103F6000180100201C0100203C7200200C010020E0
:103F70001401002010010020200100202401002055
:103F80003C7A0020780100207C01002054010020B0
:103F9000680100208C010020DC000020887A0020CD
:103FA00084010020880100200CFF00087E02010827
:103FB000F005010862090108D40C01084610010847
:103FC000B81301082A1701089C1A01080E1E0108DF
:103FD00080210108C8000020FC0000203AF914509C
:103FE000454501DDA84602E04D4500DAA94604F149
:103FF0000104B4F5007FF1DBA8EB0900F649F74AAC
:10400000126841F822004FF00201F5480068FDF700
:104010007BFA0746F348006800EB872A4FF0000858
:10402000C14644460AE03AF91450454501DDA84628
:1040300002E04D4500DAA94604F10104B4F5007F21
:10404000F1DBA8EB0900E849E44A126841F82200D4
:10405000E248006800F10100E04908600846006895
:1040600008282BDB4FF0000008600646044605E0F8
:10407000D94850F82400064404F10104082CF7DB69
:1040800030464FEAE67106EB51714FEAE101D74A3B
:1040900011604FF00006344605E0D34850F8240084
:1040A000064404F10104082CF7DB30464FEAE671C0
:1040B00006EB51714FEAE101CD4A1160BDE8F0878E
:1040C00010B5FFF714FF10BD2DE9F04703461F465A
:1040D000884601EBD8794FEA690C4FF00004254679
:1040E0004FF0080620460BE037F9102012F13C0F84
:1040F00005DB04EB020808F13C0405F1010530443E
:104100006045F1DB94FBF5F8DFF8E892DFF8E8A210
:10411000DAF800A049F82A80BDE8F0872DE9F047D9
:1041200003461F46884601EBD8794FEA690C4FF0E9
:10413000000425464FF0080620460BE037F9102012
:1041400012F1140F05DB04EB020808F1140405F169
:10415000010530446045F1DB94FBF5F8DFF89C92F3
:10416000DFF894A2DAF800A049F82A80BDE8F087C9
:1041700070B5A3480068012833D1A248006801281F
:104180002FD14FF000009E4908604FF002019E4879
:104190000068FDF7B9F99D49086009689C4A1268F2
:1041A00002EB81204FF48061FFF7B8FF4FF0000071
:1041B000944908604FF0020189480068FDF7A4F9AE
:1041C000944908600968874A126802EB81204FF41D
:1041D0008061FFF779FF8848006800F10100864997
:1041E00008608548006808286EDB4FF000008249AF
:1041F00008600546044605E0804850F82400054460
:1042000004F10104082CF7DB4FEAE57105EB51716D
:104210004FEAE10101EB81014FEA41017E4A116061
:104220004FF000052C4605E0724850F82400054484
:1042300004F10104082CF7DB28464FEAE57105EB91
:1042400051714FEAE101754A1160734800686428B2
:104250000ADA104600680A2806DA4FF000007049B2
:104260000860704908602FE06B480068142804DA81
:104270004FF001006B49086026E06848006802289A
:1042800004DA4FF00200674908601DE062480068E8
:104290006249096890FBF1F06149086008460068CE
:1042A000C82804DD4FF002005E4908600CE05C485D
:1042B00000680A2804DA4FF001005A49086003E058
:1042C0004FF000005749086070BD10B556480068AF
:1042D000A0F101005449086008460068002804DA8B
:1042E0004FF000000860FFF753FC504800680028BA
:1042F00001DDFFF73DFF4E480068A0F104004C4986
:10430000086008460068002802DA4FF000000860E4
:1043100048480078C0F1400045490968884204DAFD
:104320004FF000004449086003E04FF001004249AB
:10433000086010BD704710B540480068002806DDD1
:104340003E480068A0F101003C49086003E04FF0DE
:1043500000003B4908603B480068394909688842C9
:104360000ADD38480068A0F1010036490860364887
:104370000068FFF7D7FB0FE0324800683049096852
:10438000884209DA2F48006800F101002D490860D1
:104390002D480068FFF7C6FB002010BD10B5FFF7E1
:1043A000CAFF10BD10B5044628490968284A12689A
:1043B00002EB81204FF4806221460AF0FBFE0821C7
:1043C00022480068FDF7A0F8204908604FF000007F
:1043D0002049086010BD0000FC290020CC0000200E
:1043E000100100200C0100201C2A00209001002058
:1043F00094010020687A002054010020487A0020AF
:1044000018010020200100200401002008010020E4
:1044100000010020140100204C0100205001002068
:10442000580100205C0100203C7A00201000002090
:1044300048010020090000204401002078010020EC
:104440007C0100207401002028010020F4000020DD
:10445000F0000020FC00002030B50346DA48046874
:1044600001F58060844232DB4FF0000214E09C5C76
:10447000D648D74D2D684455D548006800F1010055
:10448000D34C206020460068B0F5005F02DB4FF09F
:104490000000206002F101028A42E8DBCA4800689D
:1044A000A0EB0100C84C2060CA4800680844C94C11
:1044B000206020460068B0F5005F02DD4FF4005038
:1044C00020604FF00000C44C2060084630BD4FF023
:1044D000FF30FBE702464FF0FF3070470246BF480F
:1044E0000068002802DD4FF0FF30704732B94FF00E
:1044F0000000BB4B1860BB4B1860F6E7012A4BD19C
:104500001046B74B1860642902D1B748016041E0FA
:10451000C82902D1B44801603CE0B1F5FA7F02D16C
:10452000B148016036E0B1F5487F02D1AE48016084
:1045300030E0B1F57A7F02D1AB4801602AE0B1F5F5
:10454000FA6F02D1A848016024E0A1F5985088389C
:1045500002D1A54801601DE0B1F5FA5F02D1A24881
:10456000016017E0A1F51C50103802D19E4801608F
:1045700010E0A1F56850983802D19B48016009E02D
:10458000A1F59C40203802D19748016002E06FF00D
:104590000100AAE70020A8E74FF0FF30A5E710B51B
:1045A00092480068012818D191480068012814D168
:1045B0004FF000008E4908604FF002018D480068FE
:1045C000FCF7A2FF8C49086009688C4A126802EB6C
:1045D00081204FF48061FDF700FC894800680128C4
:1045E00018D188480068012814D14FF0000085498F
:1045F00008604FF0020184480068FCF785FF83499A
:1046000008600968824A126802EB81204FF48061D9
:10461000FDF7F5FB10BD4FF001007E4908607E48B4
:1046200000687E490860704710B57D480068012821
:1046300015D178480068002810DD4FF47A70FCF737
:10464000FFFE764801680020FEF7B0FD4FF47A7057
:10465000FCF7F6FE4FF000006E49086010BD71488F
:10466000006840B94FF04F006C4908604FF00A00F5
:104670006C4908606CE06B480068012808D1664806
:104680000068664908604FF00B00664908605FE00B
:10469000644800680A2815D14FF47A70FCF7D0FE00
:1046A0005E4801680020FEF781FD4FF47A70FCF748
:1046B000C7FE4FF00000574908604FF014005949F9
:1046C000086045E0574800680B2811D14FF47A7014
:1046D000FCF7B6FE514801680020FEF767FD4FF475
:1046E0007A70FCF7ADFE4FF015004E4908602FE0E0
:1046F0004C48006814280BD14FF000004549086071
:10470000FCF75DFE20BB4FF00100464908601FE04A
:104710004448006815281BD13E480068002810DD79
:104720004FF47A70FCF78CFE3C4801680020FEF7DD
:104730003DFD4FF47A70FCF783FE4FF000003549E1
:104740000860FCF73CFE18B14FF0000035490860E6
:1047500000BF83E7002804DD4FF00101304A1160FB
:1047600003E04FF000012E4A116070472E480068A8
:1047700000F101002C4908602C480068012801D193
:104780002B490860002070470146642901DC3C2960
:1047900002DA4FF0FF307047552902DD4FF0550126
:1047A00003E0492901DA4FF049010C48006801286B
:1047B00003DAA1F14F001F4A10604FF010001E4AAB
:1047C00010604FF00000E6E7E80000203C2A0020DF
:1047D000E0000020EC000020DC0000203C7A0020FB
:1047E000840100208C010020880100201C01002091
:1047F0001801002004010020080100200001002011
:1048000024010020200100201001002014010020BC
:104810000C0100206401002028010020600100201C
:104820006C010020680100203C01002044010020B0
:10483000400100207C0100207801002010B5FE48D6
:104840000078FE498870FE480078C870FD480088EE
:104850000880FD48FDF799F8F84948604FF0FF00DF
:10486000FA498870C8704FF6FF700880F848FDF765
:104870008CF8F6494860002010BD70B505462C46FE
:1048800020787E2802D04FF0FF3070BDE078EA49F2
:104890000978884205D0E078FF2802D04FF0FF3039
:1048A000F3E72079E6490978884205D02079FF2886
:1048B00002D04FF0FF30E8E7E348FDF766F8D4F8A0
:1048C000051088420FD0D4F80500401C0BD0DE48FC
:1048D000FDF75BF840F0FF01D4F80500814202D0FB
:1048E0004FF0FF30D1E70020CFE701460A46D07AEB
:1048F000704701460A46107B704701460A46B2F8E7
:104900001100704701460A46B2F81300704701468D
:104910000A4602F1150070472DE9F04104468C4625
:10492000274607F115052E460B2A08D1A3F10100F1
:1049300006F1050818F800100846BDE8F081FF20D0
:10494000FBE717B585B00446BB480078BB498870C3
:10495000BB480078C870BB4800880880BA48FDF79B
:1049600014F8B64948604FF07E008DF800000698B4
:10497000CDF801000798CDF8050008460168CDF88C
:1049800009104068CDF80D004FF01102694620462D
:104990000AF010FC08B010BD2DE9F04F87B00446B6
:1049A0000F4690469946DDE910AB2546A7480168B9
:1049B000009140680246019002A8FFF7C2FF112251
:1049C00002A928460AF0F6FB4FF00100A5F81100F5
:1049D0004FF00400A5F8130005F1150686F80080D5
:1049E00086F8019086F802A086F803B0B5F81300A7
:1049F00000F1150038604FF0000007B0BDE8F08FFF
:104A000030B503460C4619464FF00400A1F81300D8
:104A100001F115052A60B1F8130000F115002060BE
:104A20004FF0000030BD30B503460C4619464FF03C
:104A30000100A1F8130001F115052A70B1F8130067
:104A400000F1150020604FF0000030BD2DE9F0416D
:104A500088B004460E46174625467C4801680191F9
:104A600040680246029003A8FFF76BFF112203A9DA
:104A700028460AF09FFB4FF00300A5F811004FF005
:104A80000400A5F8130005F11508C8F80070B5F882
:104A9000130000F1150030604FF0000008B0BDE8D1
:104AA000F08130B503460C4619464FF00200A1F8DC
:104AB000130001F115056A70B1F8130000F115003B
:104AC00020604FF0000030BD2DE9F04387B0044670
:104AD0000E461746984625465C4801680091406896
:104AE0000246019002A8FFF72CFF112202A92846D6
:104AF0000AF060FB4FF00600A5F811004FF480604B
:104B0000A5F8130005F115094246394648460AF052
:104B100051FBB5F8130000F1150030604FF00000B4
:104B200007B0BDE8F0832DE9F04387B004460E4698
:104B30001746984625464548016800914068024658
:104B4000019002A8FFF7FDFE112202A928460AF0F3
:104B500031FB4FF00500A5F811004FF48060A5F877
:104B6000130005F115094246394648460AF022FB72
:104B7000B5F8130000F1150030604FF0000007B0E9
:104B8000BDE8F0832DE9F04387B004460E46174692
:104B9000984625462D4801680091406802460190DC
:104BA00002A8FFF7CEFE112202A928460AF002FB56
:104BB00042F20130A5F811004FF48060A5F813000F
:104BC00005F115094246394648460AF0F3FAB5F8A8
:104BD000130000F1150030604FF0000007B0BDE891
:104BE000F0832DE9F04387B004460E4617469846F9
:104BF000254616480168009140680246019002A8C7
:104C0000FFF79FFE112202A928460AF0D3FA42F2CA
:104C10000230A5F811004FF48060A5F8130005F1EB
:104C200015094246394648460AF0C4FAB5F8130059
:104C300000F1150030600DE0080000209801002010
:104C4000090000200A00002032000020A0010020FE
:104C5000600000204FF0000007B0BDE8F0832DE9B0
:104C6000F04188B004460E46174625463D48016887
:104C7000019140680246029003A8FFF762FE1122EC
:104C800003A928460AF096FA42F21230A5F811005C
:104C90004FF00200A5F8130005F11508324800781E
:104CA00088F8000088F80170B5F8130000F11500CD
:104CB00030604FF0000008B0BDE8F0812DE9F04110
:104CC00088B0054688462F4626480168019140680D
:104CD0000246029003A8FFF734FE112203A93846CA
:104CE0000AF068FA42F21330A7F811004FF02500DD
:104CF000A7F81300B7F8130000F11500C8F800007A
:104D000007F115041848007820704FF0010060701A
:104D100016480068A07016480068E07015480068E2
:104D200020714FF0000616E0134850F836004FF09F
:104D3000640190FBF1F0C1B204F1050000F8161017
:104D40000D4800EBC6004068C1B204F1060000F84F
:104D5000161006F10106102EE6DB002008B0BDE8B3
:104D6000F0810000A001002009000020C8030020FD
:104D7000CC030020D0030020E08B002010B50C20D5
:104D800004F05DFD044624B14FF000002060606037
:104D9000A060204610BD10B50446204604F095FCE6
:104DA00010BD70B504460E46254615B1284604F0E0
:104DB0008CFC70BD70B505460C464FF000012846CE
:104DC00006F008F90021284606F009F900212846D6
:104DD00006F002F90021284606F004F9204604F006
:104DE00074FC284605F0F6FC70BD2DE9F04106463E
:104DF0000C46B6F86E006168884202D2B6F86E5072
:104E000001E0606885B200232A463046216807F039
:104E1000FDFC074637B92068284420606068A0EB95
:104E200005006060BDE8F0812DE9F04104460E46C2
:104E30001746254615B90020BDE8F0814FF0000067
:104E4000287229463046FFF7D0FF0020F4E770B5FE
:104E500004460D461CB9284605F0BCFC03E021467B
:104E60002846FFF7C2FF002070BD2DE9F043A1B036
:104E700006460F46144698463546B8F1000F00D155
:104E80007CB934B12189384605F05DFD204604F037
:104E9000CFFE29463846FFF78DFF002021B0BDE840
:104EA000F0832189384605F04EFDB4F8089000BF24
:104EB000802201A861680AF07DF94B4800684A49E0
:104EC0000860052249A101A80AF0BCF9002842D1D6
:104ED000112248A101A80AF0B5F900283BD0082208
:104EE00049A101A80AF0AEF960B94A4828600AF061
:104EF00086F96860204604F09BFE29463846FFF795
:104F000074FF28E0082244A101A80AF09BF960B9C7
:104F1000444828600AF073F96860204604F088FE6F
:104F200029463846FFF761FF15E04FF480613E489F
:104F30000AF059F93DA23E493B480AF059FC3A486B
:104F400028600AF05CF96860204604F071FE29468A
:104F50003846FFF74AFF29463846FFF72BFF002067
:104F60009CE72DE9F04106460D461746FFF706FF80
:104F700004461CB94FF0FF30BDE8F0814FF000004F
:104F8000206060602146284606F024F8294928461A
:104F900006F022F82849284606F024F80A22274974
:104FA000284606F024F82649284606F018F800207E
:104FB000E2E770B506F009F805464FF050022149C6
:104FC000284605F0C2FD044600BF4FF0FF01284609
:104FD00005F031FE05462946284605F0FBFF1A4933
:104FE000284606F002F870BD000000204745542016
:104FF0002F000000474554202F72657365746D6360
:10500000752E636769000000474554202F414141D8
:1050100000000000A8010020474554202F424242D2
:105020000000000028020020887E002061626300EA
:10503000F42401086B4E0008A34D00084F4E0008F1
:10504000294E0008D6260108634F000810B5FDF769
:10505000BBFB10BD4FF0010052490860704710B50E
:1050600050480068012859D14F480068002855D1A0
:105070004C4908604FF023004C4908704C480078B8
:1050800048704B4841784948817049488178474881
:10509000C1704748C1784548017146480078434986
:1050A00048714448417841488171424881783F487D
:1050B000C1714048C1783D4801723F4800783B4982
:1050C00048723D484178394881723B488178374879
:1050D000C1723948C178354801733848008833496E
:1050E000C8813748006808743648007848743548E5
:1050F00041782E488174334881782C48C1743148F6
:10510000C1782A4801754FF0170201464FF0080098
:10511000FDF7C7FD4FF47A70FCF792F910BD10B59A
:10512000172222490820FDF7C0FE4FF47A70FCF7E1
:1051300087F91E480078232832D11C4840791D4940
:1051400008701A48807948701848C07988701748E4
:10515000007AC8701548407A174908701348807A59
:1051600048701248C07A88701048007BC8700F4899
:10517000407B154908700D48C089104908800B48CC
:10518000007C0F4908600948407C0E4908700748B8
:10519000807C48700548C07C88700448007DC870D9
:1051A00010BD0000A80200206401002088820020B9
:1051B00032000020360000203A0000200A000020C3
:1051C000280100205C0000200900002070B5044682
:1051D00020460AF014F8054629462046FDF738FA1D
:1051E00070BD10B54FF48071FA4809F0FCFFFA4821
:1051F000006820B9F9A1F7480AF0FAFA05E0F64884
:10520000F9A10268F3480AF0F3FAF248FFF7DEFF6B
:1052100010BD10B54FF48071EE4809F0E4FFF74877
:105220000288F7A1EB480AF0E3FAEA48FFF7CEFF5D
:1052300010BD10B54FF48071E64809F0D4FFF44872
:105240000278F4A1E3480AF0D3FAE248FFF7BEFF80
:1052500010BD10B54FF48071DE4809F0C4FFF2486C
:105260000278F2A1DB480AF0C3FADA48FFF7AEFF92
:1052700010BD1CB54FF48071D64809F0B4FFF0485A
:10528000C078EF498978CDE90010ED48437802787D
:10529000ECA1D0480AF0ACFACE48FFF797FF1CBD4E
:1052A00000B599B04FF06402ED49684609F082FFFD
:1052B0006846FFF78BFFFFF7DCFFFFF7CAFFFFF73A
:1052C000B8FFFFF7A6FFFFF78CFF19B000BDF8B5D8
:1052D00004460D4616464FF48071BE4809F083FF20
:1052E0002B462246DFA1BB4800960AF081FAB94856
:1052F000FFF76CFFF8BDF8B504460D4616464FF4AF
:105300008071B44809F06FFF2B462246E2A1B148F4
:1053100000960AF06DFAAF48FFF758FFF8BD70B578
:1053200004460D464FF48071AA4809F05CFF2B46F5
:105330002246E4A1A7480AF05BFAA648FFF746FF19
:1053400070BD70B5E8480068002824DDE7480068B3
:10535000002808DD00F070FD044600F06AFD0546F7
:105360002146FFF7DCFFE2480068002807DDE1483E
:105370000268E1480168E1480068FFF7BCFFE048C7
:105380000068002807DDDF480268DF480168DF4861
:105390000068FFF79CFF70BD10B54FF480718D4819
:1053A00009F021FFDA48DBA102688A480AF020FAF6
:1053B0008848FFF70BFF10BD10B54FF4807185488A
:1053C00009F011FFD8480368D848D9A1026881487C
:1053D0000AF00EFA7F48FFF7F9FE10BD10B54FF442
:1053E00080717C4809F0FFFEDB48DCA10268794847
:1053F0000AF0FEF97748FFF7E9FE10BD10B54FF44B
:105400008071744809F0EFFED948DAA1026871484A
:105410000AF0EEF96F48FFF7D9FE10BD10B54FF452
:1054200080716C4809F0DFFED6480278D6A1694841
:105430000AF0DEF96748FFF7C9FE10BDF0B5C3B04A
:1054400004460D464FF4807103A809F0CCFE1020ED
:10545000034603AA294600902046FCF75CF8CEA13B
:1054600003A809F0D4FE002834D1CCA107A809F084
:10547000CEFE70BB0BA8FCF7D3F8C0B28DF80800C5
:105480000FA8FCF7CDF8C0B28DF8090013A8FCF7FF
:10549000C7F8C0B28DF80A0017A8FCF7C1F8C0B26F
:1054A0008DF80B004FF480714A4809F09CFEBDA1B5
:1054B00048480AF09DF94748FFF788FE9DF80B30F1
:1054C0009DF80A209DF809109DF80800FCF76BFA7A
:1054D00073E2FFE7B8A103A809F099FE38B9AFA1BC
:1054E00007A809F094FE10B9FFF7C3FE65E2B2A168
:1054F00003A809F08CFE38B9B1A107A809F087FE0E
:1055000010B9FFF7A6FE58E2A3A103A809F07FFE99
:1055100060B9ADA107A809F07AFE38B90BA8FCF76D
:105520007FF806463046FBF7B6FA46E2A2A103A88A
:1055300009F06DFE38B9A4A107A809F068FE10B9FA
:10554000FFF777FE39E294A103A809F060FE60B985
:105550009FA107A809F05BFE38B90BA8FCF760F81B
:1055600006463046FBF7A6FA27E293A103A809F006
:105570004EFE38B996A107A809F049FE10B9FFF709
:1055800048FE1AE284A103A809F041FE60B992A185
:1055900007A809F03CFE38B90BA8FCF741F806460D
:1055A0003046FEF7BFFA08E283A103A809F02FFEF8
:1055B00070B98BA107A809F02AFE48B989A10BA8E8
:1055C00009F025FE28B94FF0010048490860F4E1D0
:1055D00015E10BE19F820020C400002049324320E6
:1055E0004F4B2120200A0000493243204572726F40
:1055F000723A20256420200A000000000A000020E2
:10560000547261696E2049643A20256420200A00A2
:10561000090000204465766963652049643A2025C5
:105620006420200A0000000008000020446576691C
:10563000636520547970653A20256420200A0000B3
:10564000320000204C6F63616C2049503A20256481
:105650002E25642E25642E256420200A00000000DB
:105660003C2601084E6F697365312064423A20255B
:105670006420200A4E6F697365322064423A202507
:105680006420200A4E6F6973652064423A202564C5
:105690002020200A0A00000053616D706C65563AA4
:1056A00020256420200A53616D706C65493A2025DD
:1056B000642020200A53616D706C65523A20256485
:1056C000200A0A004164632056616C7565313A20F6
:1056D000256420200A4164632056616C7565323A66
:1056E00020256420200A0A0010000020AC020020BF
:1056F000B002002058010020500100204C01002081
:10570000B4020020800300207C03002078030020E6
:105710006C010020456D6554657374466C61673A91
:1057200020256420200A0000200000201C0000200A
:1057300044433234563153746174653A20256420F1
:10574000200A44433234563253746174653A20253A
:105750006420200A0A0000005C010020537065618B
:105760006B657253746174653A20256420200A00C9
:1057700018000020416D7053746174653A202564EF
:1057800020200A0014000020416464726573733A9B
:1057900020256420200A0000736574006C6F63612B
:1057A0006C6970004F6B2C20706C6561736520779D
:1057B0006169742E2E2E0A0072656164000000007B
:1057C00064657674797065006465766964000000CC
:1057D000747261696E696400766F6C756D65000046
:1057E000616463007374617274000000D6A10BA839
:1057F00009F00DFD002801D1D5490860DDE0AFF2C8
:10580000480103A809F003FD38B9D2A107A809F09F
:10581000FEFC10B9FFF702FECFE0AFF2640103A86F
:1058200009F0F5FC38B9CDA107A809F0F0FC10B9D2
:10583000FFF7E4FDC1E0AFF2800103A809F0E7FC47
:10584000C0B9C9A107A809F0E2FC98B9AFF26C0190
:105850000BA809F0DCFC20B94FF00100C449086036
:10586000ABE0B9A10BA809F0D2FC0028C6D1C04911
:105870000860A2E0AFF2C00103A809F0C8FC38B983
:10588000BCA107A809F0C3FC10B9FFF7A7FD94E07D
:10589000AFF2DC0103A809F0BAFC38B9B9A107A836
:1058A00009F0B5FC10B9FFF787FD86E0AFF2F8010B
:1058B00003A809F0ACFCC0B9B4A107A809F0A7FC83
:1058C00098B9AFF2E0010BA809F0A1FC20B94FF0A4
:1058D0000100B049086070E09BA10BA809F097FC9B
:1058E00000286AD1AB49086067E0AFF2541103A801
:1058F00009F08DFC60B9A8A107A809F088FC38B9A7
:105900000BA8FBF78DFE06463046FEF723FF54E05A
:10591000AFF25C1103A809F07AFC38B99EA107A880
:1059200009F075FC10B9FFF737FD46E0AFF24C11F6
:1059300003A809F06CFC68B999A107A809F067FCF5
:1059400040B90BA8FBF76CFE074639460120FEF76D
:10595000C5FD32E07CA103A809F059FC48B990A12B
:1059600007A809F054FC20B900210846FEF7B6FD4F
:1059700023E0AFF2901103A809F049FC38B98AA1DD
:1059800007A809F044FC10B900F00BFE15E06EA169
:1059900003A809F03CFC20B983A107A809F037FC53
:1059A00058B14FF48071834809F01DFC82A18148F1
:1059B00009F01EFF7F48FFF709FC43B0F0BD10B5AA
:1059C00004464FF480717B4809F00DFC22467FA10C
:1059D000784809F00DFF7748FFF7F8FB10BD10B5C8
:1059E00004464FF48071734809F0FDFB22467CA108
:1059F000704809F0FDFE6F48FFF7E8FB10BD70B579
:105A000004460D464FF480716A4809F0ECFB2246CB
:105A100079A1684809F0ECFE6648FFF7D7FB2A46F3
:105A20007CA1644809F0E4FE6248FFF7CFFB70BD3B
:105A300010B54FF480715F4809F0D5FB7C487DA11B
:105A400002685C4809F0D4FE5A48FFF7BFFB10BD5E
:105A500010B54FF48071574809F0C5FB4FF00004B2
:105A600005E04FF023005349085504F10104704844
:105A700000684FF4C87190FBF1F0A042F1DC4D4892
:105A8000FFF7A4FB5BA0FFF7A1FB10BD10B54FF41F
:105A90008071484809F0A7FB6DA1464809F0A8FEAF
:105AA0004448FFF793FB6F486FA10268414809F033
:105AB0009FFE4048FFF78AFB704871A102683D488D
:105AC00009F096FE3B48FFF781FB724872A102681D
:105AD000384809F08DFE3748FFF778FB744875A108
