:020000040800F2
:10000000909501202DFB00087D7200087F7200088A
:1000100085720008897200088D72000800000000D7
:100020000000000000000000000000003FFB00088E
:10003000917200080000000043FB00089372000862
:1000400047FB000847FB000847FB000847FB000888
:1000500047FB000847FB000847FB000847FB000878
:1000600047FB000847FB000847FB000847FB000868
:1000700047FB00089B72000847FB0008A3720008BA
:1000800047FB000847FB000847FB000847FB000848
:1000900047FB000847FB000847FB000847FB000838
:1000A00047FB000847FB000847FB000847FB000828
:1000B00047FB000847FB000847FB000847FB000818
:1000C00047FB000847FB000847FB000847FB000808
:1000D00047FB000847FB000847FB000847FB0008F8
:1000E00047FB000847FB000847FB000847FB0008E8
:1000F00047FB000847FB000847FB000847FB0008D8
:1001000047FB000847FB000847FB000847FB0008C7
:1001100047FB000847FB000847FB000847FB0008B7
:1001200047FB000847FB000847FB000847FB0008A7
:1001300047FB000847FB000847FB000847FB000897
:1001400047FB000847FB000847FB000847FB000887
:1001500047FB000847FB000847FB000847FB000877
:1001600047FB000847FB000847FB000847FB000867
:1001700047FB000847FB000847FB000847FB000857
:1001800047FB0008DFF80CD010F0ACF8004800473F
:10019000990100089095012006F088FF00BF7B4878
:1001A000006841F288318842F9DD01F0C5FC4FF466
:1001B0007A7004F0BBFF01F0CDFC4FF47A7004F0CC
:1001C000B5FF01F06EFF01F088FF02F0A6F84CF2D7
:1001D000503004F0ABFF4CF2503004F0A7FF02F0B7
:1001E0009CF84CF2503004F0A1FF4CF2503004F077
:1001F0009DFF02F092F842F2107004F097FF01F0B8
:1002000056FF01F071FF02F088F8614804F08EFF9C
:1002100001F047FF01F061FF02F07FF842F2107039
:1002200004F084FF00F058FA06F008FD05F00CF920
:100230004FF47A7004F07AFF06F094FE4FF47A706F
:1002400004F074FF00F093FE4FF47A7004F06EFF38
:1002500002F063F842F2107004F068FF42F210708E
:1002600004F064FF42F2107004F060FF06F04BFDF2
:1002700002F053F842F2107004F058FF454800783D
:1002800045490870454803F03CF845490860084670
:100290000068401C08B102F0BFFF75E000F0C5FA2D
:1002A00004F0E1FD05F076F900F0BAFF3D48006882
:1002B0000A2804DB00203B49086006F06AFF3A4840
:1002C0000068142804DB00203749086006F06BFF43
:1002D00036480068192804DB00203449086006F01D
:1002E00054FF33480068322804DB0020304908609E
:1002F00006F05AFF2F480068642804DB00202D49CF
:10030000086006F057FF2C480068C82804DB00206E
:100310002949086006F066FF28480068B0F5FA7FB2
:1003200010DB00202549086006F060FF0FF000FD9B
:1003300040F2F31190FBF1F201FB1200401C204946
:1003400008800DE01D4800681D490988884207D1D2
:100350004FF6FF701A49088005F030FB05F0A0F950
:1003600018480068B0F57A7F04DB00201549086062
:1003700006F04EFF14480068B0F5FA6F04DB002069
:100380001149086006F058FF88E70000A406002025
:10039000A08601009C0200209102002000000208BB
:1003A00070020020800600208406002088060020BD
:1003B0008C0600209006002094060020980600205D
:1003C000680200209C060020A006002000B59BB01B
:1003D0000121B4480DF0B4FC012188020DF0F4FCB9
:1003E0004FF080600290B0480390B0480490002025
:1003F00005904FF4FA600690002007904FF480605B
:1004000008904000099080000A9040110B90400233
:100410000C9000200D9001200E9000200F90109065
:1004200002A9A3480CF034FC0121A1480CF06AFC9D
:100430000820009003208DF8040000208DF80700AC
:1004400069469C480DF022F81020009003208DF89A
:10045000040000208DF80700694696480DF016F854
:10046000002011904FF440301290002013904FF470
:100470007060149011A80DF0D3FF0020159001209A
:100480008DF858008DF85900002017901890199099
:1004900002208DF8680015A983484C380DF091FFB3
:1004A00001231A46092180484C380EF010F8012328
:1004B00002220E217C484C380EF009F801217A48BE
:1004C0004C380EF0AFF8012177484C380EF09FF809
:1004D000012175484C380DF0BAFF73484C380EF0C6
:1004E00052F81BB000BD7448008880B27047734852
:1004F000008880B2704770B5022500236FF0004479
:10050000002209E0694E36F81210994200DD0B46D0
:10051000A14200DA0C462A44B2F5FA6FF2DB181B4E
:10052000654E306070BDF0B5022500236FF00044C9
:1005300000220AE05D4F561C37F81610994200DD84
:100540000B46A14200DA0C462A44B2F5FA6FF1DB01
:100550001E1B06EBD6777810584E3060F0BD70B594
:1005600000234FF48054022500220AE04F4E36F853
:100570001210994201DD0B4602E0A14200DA0C465E
:100580002A44FA2AF2DB181B70BDF0B500234FF4A1
:100590008054022500220BE0444F561C37F81610F9
:1005A000994201DD0B4602E0A14200DA0C462A44E2
:1005B000FF2AF1DB181BF0BD30B500221CE0002142
:1005C00015E03F4850F821400546481C55F82000EA
:1005D00084420BD9284650F821300446481C54F870
:1005E000200044F82100481C44F82030491CC2F186
:1005F0000F008842E5DC521C0F2AE0DB3048006A1D
:100600002F4C646A2044430898B230BD30B50022B4
:100610001CE0002115E02B4850F821400546481CFD
:1006200055F8200084420BD9284650F82130044662
:10063000481C54F8200044F82100481C44F820309D
:10064000491CC2F10F008842E5DC521C0F2AE0DB96
:100650001C48006A1B4C646A2044430898B230BDB1
:1006600010B5194800681949096808441649086016
:1006700017480068401C16490860084600680428AE
:100680000FDB0120086010480068032190FBF1F0A7
:10069000104908600846006801F006FA00200A497F
:1006A000086010BD200040004C2201409C07002043
:1006B00010640240001402408402002088020020DE
:1006C000309E0020949E002074020020A806002086
:1006D000780200208002002010B50520F64908703D
:1006E0000120F64908701620F54908700F20F549D9
:1006F00008700120F44908600B20F44908700120BB
:10070000F3490870F34908801AE001F064FDF249EA
:10071000087008460078F1490988884207D0EE48F9
:100720000078EE4908800020ED49087004E0EC48AC
:100730000078401CEA4908704CF2503004F0F6FC96
:10074000E74800780328E0DBE3480078E0490870D8
:10075000FFF73CFE04F0E0F806F066F80FF017FE35
:1007600010BD10B542F2107004F0E0FC04F0BCF8CB
:1007700001F0F9FD42F2107004F0D8FC04F067FBC0
:1007800001F0F1FD42F2107004F0D0FC06F0F5FC2F
:1007900042F2107004F0CAFC10BD10B501F05AFE10
:1007A00010BD10B5CF480068CF490968884202DD06
:1007B00001F0D1FC01E001F0D5FCCA484068CA490B
:1007C0000968884202DD01F0D4FC01E001F0D7FCA9
:1007D000C4488068C4490968884202DD01F0D5FC3C
:1007E00001E001F0D8FCBF48C068BF4909688842F1
:1007F00002DD01F0D6FC01E001F0D9FCB948006946
:10080000B9490968884202DD01F0D7FC01E001F036
:10081000DBFCB5480068401CB34908600846006826
:100820000A2801DB0020086010BD10B5AF48006841
:1008300001280CD1AE480068401EAD49086008464A
:10084000006800F055FB0020A84908600FE0A748A9
:10085000006802280BD1A6480068401CA449086023
:100860000846006800F044FB0020A0490860FFF73C
:1008700098FF10BD10B501F076FD10BD9D480068D1
:1008800030B99D48007820F003009B49087029E0AA
:100890009848006801280BD19748007820F00300A1
:1008A000954908700846007840F00100087019E08A
:1008B0009048006802280BD18F48007820F0030090
:1008C0008D4908700846007840F00200087009E081
:1008D00088480068032805D18748007820F0030085
:1008E000854908708548006830B98348007820F051
:1008F0000C00814908701EE08048006802280BD176
:100900007D48007820F00C007B490870084600788C
:1009100040F0040008700EE07848006801280AD111
:100920007548007820F00C0073490870084600787C
:1009300040F0080008707248006830B96E480078CE
:1009400020F010006C49087005E06B48007840F01A
:100950001000694908706B48006830B96648007833
:1009600020F020006449087005E06348007840F0FA
:100970002000614908706448006830B95E4800781A
:1009800020F0C0005C4908702EE05F480068012834
:100990000BD15948007820F0C0005749087008462C
:1009A000007840F0400008701EE0574800680228B8
:1009B0000BD15148007820F0C0004F49087008461C
:1009C000007840F0800008700EE04F48006803286F
:1009D0000AD14948007820F0C0004749087008460D
:1009E000007840F0C0000870704710B501F07DFC41
:1009F000002807DD01F085FC002803DD00204249C6
:100A000008601EE001F071FC38B901F07AFC0028A2
:100A100003DD01203C49086013E001F066FC00287A
:100A200006DD01F06EFC18B902203749086008E0C5
:100A300001F05BFC28B901F064FC10B903203249D5
:100A4000086010BD10B501F02BFC002803DD00206C
:100A50002B49086002E001202949086001F02CFCC4
:100A6000002803DD00202749086002E00120254915
:100A7000086010BD2DE9F04101F0EBFB074601F0E5
:100A8000F5FB054601F0FFFB06463FB90DB9012411
:100A90000BE00EB9022408E0032406E00DB904249B
:100AA00003E00EB9042400E000242046BDE8F081F4
:100AB0000C4A42F820107047B1020020B202002018
:100AC000B3020020B4020020940200209002002013
:100AD00091020020920200209C020020B602002019
:100AE000B80200203C170020BC020020B403002004
:100AF00018030020A0020020B00200204C030020B8
:100B0000A4020020A8020020AC0200200146F04808
:100B100050F82100704700B5EE480068A0B90A21DE
:100B20000020FFF7C5FF00210120FFF7C1FF0021D2
:100B30000220FFF7BDFF00210320FFF7B9FF0021CE
:100B40000420FFF7B5FF87E0E2480068002818DDC1
:100B5000E0480068032814DC00210846FFF7A8FFDE
:100B60000A210120FFF7A4FF00210220FFF7A0FFC8
:100B700000210320FFF79CFF00210420FFF798FFCE
:100B80006AE0D4480068032818DDD24800680628C7
:100B900014DC00210846FFF78BFF00210120FFF73E
:100BA00087FF0A210220FFF783FF00210320FFF7C0
:100BB0007FFF00210420FFF77BFF4DE0C548006860
:100BC000062818DDC3480068092814DC00210846FF
:100BD000FFF76EFF00210120FFF76AFF00210220CE
:100BE000FFF766FF0A210320FFF762FF00210420C0
:100BF000FFF75EFF30E0B7480068092818DDB54808
:100C000000680C2814DC00210846FFF751FF002182
:100C10000120FFF74DFF00210220FFF749FF0021CF
:100C20000320FFF745FF0A210420FFF741FF13E0EF
:100C300000210846FFF73CFF00210120FFF738FFA5
:100C400000210220FFF734FF00210320FFF730FFCF
:100C500000210420FFF72CFF9F48006848BB0020BC
:100C6000FFF754FF18B901210020FFF721FF0120F1
:100C7000FFF74CFF18B900210120FFF719FF0220F0
:100C8000FFF744FF18B900210220FFF711FF0320EE
:100C9000FFF73CFF18B900210320FFF709FF0420EC
:100CA000FFF734FF002803D100210420FFF700FFE5
:100CB000C4E08948006800282DDD874800680328C3
:100CC00029DC0020FFF722FF18B900210846FFF7B2
:100CD000EFFE0120FFF71AFF18B901210846FFF7C0
:100CE000E7FE0220FFF712FF18B900210220FFF7EC
:100CF000DFFE0320FFF70AFF18B900210320FFF7EA
:100D0000D7FE0420FFF702FF0028D1D100210420E4
:100D1000FFF7CEFE92E07048006803282DDD6E4894
:100D20000068062829DC0020FFF7F0FE18B9002132
:100D30000846FFF7BDFE0120FFF7E8FE18B90021C5
:100D40000120FFF7B5FE0220FFF7E0FE18B90121F0
:100D50000220FFF7ADFE0320FFF7D8FE18B90021EF
:100D60000320FFF7A5FE0420FFF7D0FE002865D181
:100D700000210420FFF79CFE60E057480068062829
:100D80002CDD55480068092828DC0020FFF7BEFE4E
:100D900018B900210846FFF78BFE0120FFF7B6FEC9
:100DA00018B900210120FFF783FE0220FFF7AEFEF5
:100DB00018B900210220FFF77BFE0320FFF7A6FEF3
:100DC00018B901210320FFF773FE0420FFF79EFEF0
:100DD000A0BB00210420FFF76BFE2FE03E48006817
:100DE00009282BDD3C4800680C2827DC0020FFF791
:100DF0008DFE18B900210846FFF75AFE0120FFF7C3
:100E000085FE18B900210120FFF752FE0220FFF7EE
:100E10007DFE18B900210220FFF74AFE0320FFF7EC
:100E200075FE18B900210320FFF742FE0420FFF7EA
:100E30006DFE18B901210420FFF73AFE00BD10B580
:100E400001F06BFA25480068401C244908600846F8
:100E50000068142805D1012021490860FFF79DFC96
:100E600008E01E480068B0F57A7F03DD4FF47A7021
:100E70001A490860FFF74FFEFFF7FCFD19490860AB
:100E8000FFF7E0FDFFF7B1FDFFF7F8FC10BD70477D
:100E900010B50446402C02DD4FF0FF3010BD124962
:100EA0000C7005F0CFFE01F09EFA0020F6E710B5B9
:100EB0000446B4F5803F02DD4FF0FF3010BD0B4912
:100EC0000C8005F0BFFE01F07EFA0020F6E700007E
:100ED0003C17002018030020740300209402002017
:100EE00098020020A002002091020020920200201F
:100EF00010B50446FE4804600068002803DA0020AC
:100F0000FB49086006E0FA480068282802DD28202E
:100F1000F7490860F7480068012815D1F4480068CF
:100F2000F5490968401AF549086008460068002834
:100F300002DA002008600EE0F048006828280ADD88
:100F40002820EE49086006E0EA48006818B9E84839
:100F50000068EA490860E94908780EF0D7FD05F015
:100F600071FE002010BD0020E5490860704710B5F3
:100F7000002405E00020E3490855E3490855641CB6
:100F8000B4F5005FF6DBDF48E0490860DE48E04981
:100F900008600020DF4908600420DF490860800203
:100FA000DE4908600020DE4908604FF48050DD49CA
:100FB0000860DD4908600020DC4908600420DC4945
:100FC0000860DC48DC4908600020DC49086001203A
:100FD000DB4908600020DB4908600120DA4908602D
:100FE000DA48DB4908600020DA4908600120DA4964
:100FF00008600020D94908600120D9490860002014
:10100000D8490860BA490860D7490860BA490860F9
:10101000BA4908600120B74908600EF050FD4FF44E
:101020007A7004F083F808200EF063FD4FF47A70B4
:1010300004F07CF803F0E8F903F016FB03F027FA5C
:1010400003F054FB4FF47A7004F070F8FFF78BFF55
:1010500042F2107004F06AF842F2107004F066F880
:1010600005F051FE42F2107004F060F842F2107088
:1010700004F05CF89E480068FFF73AFF0020BB4987
:101080000860BB490860BB49086010BD10B503F09B
:10109000EFF903F01BFB01209949086010BD10B562
:1010A00004469D4800689B490968884208D0082189
:1010B0009848006804F089F897490968884207D180
:1010C000052208219348006804F074F892490860EA
:1010D000914909688D4A126802EB81204FF48062C1
:1010E00021460EF037FE08218B48006804F06DF8A9
:1010F000894908600020A049086010BD70B5054608
:10110000002411E09B480068285C9C4908559948D8
:101110000068401C9749086008460068B0F55C7F8D
:1011200001DB00200860641CB4F5806FEADB9348A3
:10113000FFF7B5FF002070BD10B58A480068002891
:1011400000DD10BD8E480068002867D08C4800681C
:10115000012863D18B480068642803D18A48FFF7CF
:10116000CDFF5BE087480068C82803D18748FFF7B8
:10117000C5FF53E083480068B0F5FA7F03D1844887
:10118000FFF7BCFF4AE07F480068B0F5487F03D115
:101190008048FFF7B3FF41E07A480068B0F57A7FF6
:1011A00003D17D48FFF7AAFF38E076480068B0F524
:1011B000FA6F03D17948FFF7A1FF2FE0714800686B
:1011C00041F28831884203D17548FFF797FF25E047
:1011D0006C480068B0F5FA5F03D17248FFF78EFFE4
:1011E0001CE06848006842F21071884203D16E48E2
:1011F000FFF784FF12E06348006843F698218842B5
:1012000003D16A48FFF77AFF08E05E48006844F6B9
:101210002061884202D16648FFF770FF00BF90E767
:1012200010B56448006800280EDD002061490860A0
:1012300051480068401C504908605F480068401CE5
:101240005D490860FFF778FF4B48006808280ADD11
:1012500049480068102806DA4FF400512B4800680E
:101260000EF091FD06E044480068802802DD8020F1
:10127000414908605048006808280ADD4E48006867
:10128000102806DA4FF40051214800680EF07BFD6B
:1012900006E049480068802802DD80204649086051
:1012A00010BD2DE9F04702212548006803F08DFFAD
:1012B00007462148006800EB872A4FF00008C14626
:1012C000002409E03AF91450454501DDA84602E042
:1012D0004D4500DAA946641CB4F5007FF2DBA8EBAB
:1012E00009003649364A126841F82200022169E0B5
:1012F00018030020C80500206C03002074030020A0
:10130000600300205017002050370020C00200204A
:10131000E0020020C8020020C4020020D002002009
:10132000D4020020D8020020DC020020E8020020C5
:10133000E402002050570020F0020020F8020020B4
:10134000F4020020080300200C030020505F00205E
:10135000FC020020040300200003002010030020F2
:10136000140300205067002068030020440300207D
:101370005803002080030020CC0200209C6700203E
:10138000780300207C030020C80A01083A0E0108F7
:10139000AC1101081E15010890180108021C010873
:1013A000741F0108E622010858260108CA2901080D
:1013B0003C2D0108B0030020EC0200209C6B0020B3
:1013C0008C030020FA48006803F0FFFE0746F94846
:1013D000006800EB872A4FF00008C146002409E0AE
:1013E0003AF91450454501DDA84602E04D4500DAC2
:1013F000A946641CB4F5007FF2DBA8EB0900EE49B6
:10140000EE4A126841F82200EC480068401CEB49A3
:10141000086008460068082823DB002008600026D2
:10142000002404E0E64850F824000644641C082C1C
:10143000F8DB3046F11706EB5171C910E14A116033
:101440000026002404E0DC4850F824000644641C14
:10145000082CF8DB3046F11706EB5171C910DA4A57
:101460001160BDE8F08710B5FFF71BFF10BD2DE937
:10147000F04704462746884601EBD8794FEA690CC5
:1014800000250023082600200AE037F9102012F179
:101490003C0F04DB05EB020808F13C055B1C304403
:1014A0006045F2DB03B9012395FBF3F8DFF81C93E9
:1014B000DFF81CA3DAF800A049F82A80BDE8F0871D
:1014C0002DE9F04704462746884601EBD8794FEAD4
:1014D000690C00250023082600200AE037F91020B7
:1014E00012F1140F04DB05EB020808F114055B1C74
:1014F00030446045F2DB03B9012395FBF3F8DFF8D4
:10150000D492DFF8CCA2DAF800A049F82A80BDE82E
:10151000F08770B5B048006801282ED1AF48006848
:1015200001282AD10020AC4908600221AC4800689B
:1015300003F04BFEAB4908600968AB4A126802EB46
:1015400081204FF48061FFF7BBFF0020A3490860B2
:1015500002219748006803F038FEA4490860096832
:10156000944A126802EB81204FF48061FFF77FFFFD
:1015700097480068401C964908609548006808280C
:101580005FDB0020924908600025002404E09148B8
:1015900050F824000544641C082CF8DBE91705EB1F
:1015A0005171C91001EB81014900914A1160002578
:1015B000002404E0854850F824000544641C082CED
:1015C000F8DB2846E91705EB5171C910894A11600B
:1015D00087480068642809DA104600680A2805DA96
:1015E000002085490860854908602AE08048006835
:1015F000142803DA01208149086022E07D48006850
:10160000022803DA02207D4908601AE07848006861
:101610007849096890FBF1F077490860084600684E
:10162000C82803DD0220754908600AE07248006896
:101630000A2803DA01207149086002E000206F499E
:10164000086070BD10B56E480068401E6C490860A7
:1016500008460068002803DA00200860FFF783FCD2
:1016600068480068002801DDFFF753FF66480068FE
:10167000801E6549086008460068002801DA0020DD
:10168000086062480078C0F140005F4909688842FC
:1016900003DA00205E49086002E001205C4908602E
:1016A00010BD704710B55B480068002805DD59483B
:1016B0000068401E5749086002E000205649086053
:1016C00056480068FFF714FC002010BD10B5FFF766
:1016D000E9FF10BD10B5044651490968514A126826
:1016E00002EB81204FF4806221460EF033FB08218B
:1016F0004B48006803F069FD4949086000204A49E9
:10170000086010BD30B503464848046801F58060A4
:1017100084422CDB002211E09C5C4548454D2D683D
:10172000445544480068401C424C206020460068F4
:10173000B0F5005F01DB00202060521C8A42EBDB29
:101740003A480068401A394C20603B480068084419
:10175000394C206020460068B0F5005F02DD4FF490
:10176000005020600020354C2060084630BD4FF00E
:10177000FF30FBE702464FF0FF307047024620483B
:101780000068002802DD4FF0FF3070472AB90020C2
:101790002B4B18602B4B1860F7E7012A73D10120FF
:1017A000274B1860642951D12748016091E000005F
:1017B00000030020FC020020BC6B00208C030020F2
:1017C0009C6B002084030020880300207C6700209D
:1017D000440300205C670020080300201003002061
:1017E000F4020020F8020020F00200200403002090
:1017F0003C03002040030020480300204C0300204D
:101800005067002098020020380300209102002039
:1018100034030020680300206C030020180300201C
:10182000E4020020E0020020EC020020D8020020A8
:1018300050170020D0020020DC020020CC02002043
:1018400078030020800300207C030020C82902D1F7
:10185000A24801603DE0B1F5FA7F02D19F480160E6
:1018600037E0B1F5487F02D19C48016031E0B1F525
:101870007A7F02D1994801602BE0B1F5FA6F03D16C
:101880009648016025E026E041F28830814202D18D
:10189000924801601DE0B1F5FA5F02D18F48016006
:1018A00017E042F21070814202D18C48016010E0D2
:1018B00043F69820814202D18848016009E044F64D
:1018C0002060814202D18548016002E06FF0010092
:1018D0005BE7002059E74FF0FF3056E710B580482E
:1018E0000068012816D17F480068012812D1002025
:1018F0007C49086002217C48006803F066FC7B4953
:10190000086009687A4A126802EB81204FF480610E
:1019100004F029F977480068012816D17648006854
:10192000012812D100207449086002217348006820
:1019300003F04BFC724908600968724A126802EBB6
:1019400081204FF4806104F020F910BD01206E4920
:1019500008606E4800686E490860704710B56D48B1
:101960000068012814D16848006800280FDD4FF492
:101970007A7003F0DBFB66480168002002F044FC4B
:101980004FF47A7003F0D2FB00205F49086010BD6D
:101990006148006830B94F205D4908600A205E49FF
:1019A000086064E05C480068012807D15748006877
:1019B000574908600B205849086058E056480068AD
:1019C0000A2813D14FF47A7003F0B0FB5048016835
:1019D000002002F019FC4FF47A7003F0A7FB0020FE
:1019E0004949086014204C49086040E04A480068B2
:1019F0000B2810D14FF47A7003F098FB444801682B
:101A0000002002F001FC4FF47A7003F08FFB1520E8
:101A1000414908602BE040480068142809D10020A3
:101A20003949086000F054FC08BB01203A490860BD
:101A30001DE039480068152819D13348006800288E
:101A40000FDD4FF47A7003F071FB3148016800201C
:101A500002F0DAFB4FF47A7003F068FB00202A49A9
:101A6000086000F035FC10B100202B49086000BF71
:101A70008DE7002803DD0121264A116002E00021E4
:101A8000244A116070472548006800280ADD244870
:101A90000068401C2249086022480068012801D1E2
:101AA00021490860002070470146642901DD642156
:101AB00002E0362900DA36211C480068012803DBE1
:101AC0001A488079092803D1A1F13C00184A106016
:101AD0001020184A10600020704700007C0300208E
:101AE0000C03002008030020F4020020F80200206C
:101AF000F002002014030020100300200003002047
:101B000004030020FC0200205403002018030020DE
:101B1000500300205C03002058030020980200209E
:101B20002C030020340300203003002050670020E5
:101B30006C0300206803002010B501217F200CF009
:101B4000FFF8012188030CF03FF9012188050CF012
:101B50002AF910BD1CB50420009001208DF8040066
:101B600000208DF8060003208DF8050000208DF878
:101B700007006946FE480BF089FC4FF48060009036
:101B800001208DF8040000208DF8060003208DF858
:101B9000050000208DF807006946F6480BF076FC3A
:101BA00004220121F2480BF0FCFC04220021F04841
:101BB0000BF0F7FC022000908DF804008DF8050072
:101BC00001208DF8060000208DF807006946E848DE
:101BD0000BF05CFC012000906946E5480BF056FCD8
:101BE0004FF40070009002208DF804008DF805007D
:101BF00000208DF806008DF807006946DE480BF0DE
:101C000045FC05220921DC480BF0CBFC402000906C
:101C100002208DF804008DF8050000208DF80600E4
:101C20008DF807006946D4480BF030FC05220621E8
:101C3000D1480BF0B6FC4FF48050009002208DF894
:101C400004008DF8050000208DF806008DF80700CF
:101C50006946CA480BF01AFC05220C21C7480BF054
:101C6000A0FC4FF40050009002208DF804008DF885
:101C7000050000208DF806008DF807006946BF4872
:101C80000BF004FC05220D21BC480BF08AFC4FF43C
:101C90000040009002208DF804008DF8050000201F
:101CA0008DF806008DF807006946B4480BF0EEFB8E
:101CB00005220F21B1480BF074FC80200090022017
:101CC0008DF804008DF8050000208DF806008DF8D1
:101CD00007006946A8480BF0D9FB06220721A64851
:101CE0000BF05FFC1020009002208DF804008DF8AE
:101CF000050000208DF806008DF807006946A04811
:101D00000BF0C4FB062204219D480BF04AFC4FF463
:101D10008060009002208DF804008DF805000020FE
:101D20008DF806008DF80700694693480BF0AEFB6E
:101D300006220A2190480BF034FC4FF480500090AA
:101D400002208DF804008DF8050000208DF80600B3
:101D50008DF80700694688480BF098FB06220C2195
:101D600085480BF01EFC4FF40050009001208DF8C8
:101D7000040000208DF8060003208DF805000020E7
:101D80008DF8070069467B480BF080FB4FF48040DC
:101D9000009001208DF8040000208DF8060003203B
:101DA0008DF8050000208DF80700694671480BF09A
:101DB0006DFB4FF40040009001208DF804000020DE
:101DC0008DF8060003208DF8050000208DF807002F
:101DD000694668480BF05AFB4FF400400090012020
:101DE0008DF8040000208DF8060003208DF8050012
:101DF00000208DF8070069465D480BF047FB012085
:101E000000908DF8040000208DF8060003208DF866
:101E1000050000208DF8070069465A480BF036FB94
:101E20000220009001208DF8040000208DF80600AB
:101E300003208DF8050000208DF807006946514801
:101E40000BF024FB8020009001208DF8040000207E
:101E50008DF8060003208DF8050000208DF807009E
:101E6000694644480BF012FB4FF48070009001204B
:101E70008DF8040000208DF8060003208DF8050081
:101E800000208DF8070069463A480BF0FFFA4FF43E
:101E90000060009000208DF8040003208DF80500FC
:101EA00001208DF80700694633480BF0EFFA022055
:101EB000009000208DF8040003208DF8050001201B
:101EC0008DF80700694630480BF0E0FA01200090D9
:101ED00000208DF8040003208DF8050001208DF806
:101EE0000700694628480BF0D1FA04200090002032
:101EF0008DF8040003208DF8050001208DF80700FF
:101F0000694621480BF0C2FA4FF4006000900020AF
:101F10008DF8040003208DF8050001208DF80700DE
:101F2000694614480BF0B2FA4FF40070009000209C
:101F30008DF8040003208DF8050001208DF80700BE
:101F400069460C480BF0A2FA4FF4006000900020A4
:101F50008DF8040003208DF8050001208DF807009E
:101F6000694603480BF092FA4FF4805000900DE060
:101F70000014024000100240000802400004024029
:101F80000000024000180240000C024000208DF8C2
:101F9000040003208DF8050001208DF80700694634
:101FA000F1480BF073FA4FF40050009000208DF8C8
:101FB000040003208DF8050001208DF80700694614
:101FC000E9480BF063FA1020009000208DF804001F
:101FD00003208DF8050001208DF807006946E348CD
:101FE0000BF054FA0820009000208DF80400032024
:101FF0008DF8050001208DF807006946DB480BF0DD
:1020000045FA4FF48040009000208DF80400032032
:102010008DF8050001208DF807006946D2480BF0C5
:1020200035FA2020009000208DF8040003208DF860
:10203000050001208DF807006946CD480BF026FA0F
:102040000820009000208DF8040003208DF8050082
:1020500001208DF807006946C5480BF017FA0420E7
:10206000009001208DF8040000208DF80600032068
:102070008DF8050000208DF807006946BD480BF07B
:1020800005FA1CBD704710B50421B7480BF06DFA76
:10209000C0F10100C4B222460421B3480BF076FA25
:1020A00010BD10B50421B0480BF06EFA10BD10B58C
:1020B0000421AD480BF066FA10BD10B54FF48061F5
:1020C000AC480BF052FAC0F10100C4B222464FF402
:1020D0008061A8480BF05AFA10BD10B54FF480612A
:1020E000A4480BF051FA10BD10B54FF48061A1481F
:1020F0000BF048FA10BD10B50446002C05DD4FF476
:1021000000519C480BF03EFA04E04FF4005199480E
:102110000BF03AFA10BD10B50446002C05DD4FF463
:10212000804194480BF02EFA04E04FF4804191482E
:102130000BF02AFA10BD10B50446002C05DD4FF453
:1021400000418C480BF01EFA04E04FF4004189482E
:102150000BF01AFA10BD10B54FF4004182480BF095
:1021600013FA10BD10B54FF400417F480BF00AFA86
:1021700010BD10B5012180480BF006FA10BD10B556
:1021800001217D480BF0FEF910BD10B502217A48FF
:102190000BF0FAF910BD10B5022177480BF0F2F9F7
:1021A00010BD10B5802173480BF0EEF910BD10B5CD
:1021B000802170480BF0E6F910BD10B54FF4807126
:1021C0006C480BF0E1F910BD10B54FF4807169480F
:1021D0000BF0D8F910BD70B500254FF400616748C9
:1021E0000BF0B6F904462819C5B202215F480BF07E
:1021F000AFF9044605EB4400C5B201215B480BF082
:10220000A7F9044605EB8400C5B2042157480BF03A
:102210009FF9044605EBC400C5B2284670BD70B5F1
:102220004FF4006153480BF093F905460DB90024B3
:1022300000E00124204670BD70B54FF400714D4898
:102240000BF086F905460DB9002400E00124204674
:1022500070BD70B54FF4006143480BF079F9054645
:102260000DB9002400E00124204670BD70B54FF484
:1022700080513D480BF06CF905460DB9002400E093
:102280000124204670BD70B54FF4005136480BF064
:102290005FF905460DB9002400E00124204670BD19
:1022A00070B5102131480BF053F905460DB90024E3
:1022B00000E00124204670BD70B508212B480BF0CA
:1022C00047F905460DB9002400E00124204670BD01
:1022D00070B54FF4804124480BF03AF905460DB92A
:1022E000002400E00124204670BD70B52021204864
:1022F0000BF02EF905460DB9002400E0012420461C
:1023000070BD70B508211A480BF022F905460DB9C9
:10231000002400E00124204670BD10B504211548BA
:102320000BF023F9C0F10100C4B222460421114888
:102330000BF02CF910BD10B57E200BF0A0FB08B1FE
:102340000BF021FE0CF064FA0121C8020BF02BFD0A
:102350004FF4C0700CF067FA50200CF06DFA7F203B
:102360000CF085FA10BD704700140240000C0240CA
:102370000000024000100240001802400008024025
:1023800070B5044620460DF009FD05462946204655
:1023900002F0E9FD70BD10B54FF40071FB480DF07F
:1023A000F2FCFB48006820B9FAA1F8480DF0FAFFEA
:1023B00005E0F748FAA10268F4480DF0F3FFF3488E
:1023C000FFF7DEFF10BD10B54FF40071EF480DF0C0
:1023D000DAFCF8480288F8A1EC480DF0E3FFEB487E
:1023E000FFF7CEFF10BD10B54FF40071E7480DF0B8
:1023F000CAFCF5480278F5A1E4480DF0D3FFE348A4
:10240000FFF7BEFF10BD10B54FF40071DF480DF0AF
:10241000BAFCF3480278F3A1DC480DF0C3FFDB48B7
:10242000FFF7AEFF10BD1CB54FF40071D7480DF09B
:10243000AAFCF148C078F0498978CDE90010EE484F
:1024400043780278EDA1D1480DF0ACFFCF48FFF7FB
:1024500097FF1CBD00B59BB06822EF4901A80DF0A5
:1024600079FC01A8FFF78CFFFFF7DDFFFFF7CBFF3B
:10247000FFF7B9FFFFF7A7FFFFF78DFF1BB000BD08
:10248000F8B504460D4616464FF40071BF480DF0EE
:102490007AFC2B462246E1A1BC4800960DF082FF53
:1024A000BA48FFF76DFFF8BDF8B504460D4616466D
:1024B0004FF40071B5480DF066FC2B462246E7A1AB
:1024C000B24800960DF06EFFB048FFF759FFF8BD17
:1024D000F8B504460D4616464FF40071AB480DF0B2
:1024E00052FC2B462246ECA1A84800960DF05AFF5C
:1024F000A648FFF745FFF8BDF8B504460D46164659
:102500004FF40071A1480DF03EFC2B462246F1A18C
:102510009E4800960DF046FF9C48FFF731FFF8BD3E
:10252000F8B504460D4616464FF4007197480DF075
:102530002AFC2B462246F4A1944800960DF032FF67
:102540009248FFF71DFFF8BD70B504460D464FF4E5
:1025500000718E480DF017FC2B462246F5A18B48E2
:102560000DF020FF8948FFF70BFF70BD70B5FB48E9
:10257000006800283EDDFA480068002808DDFDF705
:10258000B6FF0446FDF7AFFF05462146FFF7DCFF27
:10259000F4480068002807DDF3480268F348016842
:1025A000F3480068FFF7BCFFF2480068002821DD0F
:1025B00042F21072F0480168F0480068FFF79CFF93
:1025C000FFF79FFE0446FFF790FE0546EC4A2146C2
:1025D000FFF77EFFEB480268EB480168EB480068B4
:1025E000FFF762FFEA480268EA480168EA480068C3
:1025F000FFF746FF70BD30B5C021A8226523BB247C
:102600000D0645EA024545EA032545EA040000BFF8
:1026100030BD10B54FF400715C480DF0B4FBDF48DD
:10262000DFA1026859480DF0BDFE5848FFF7A8FE2B
:1026300010BD10B54FF4007154480DF0A4FBDD48F7
:102640000368DD48DDA1026850480DF0ABFE4F483D
:10265000FFF796FE10BD10B54FF400714B480DF01A
:1026600092FBE048E0A1026848480DF09BFE474815
:10267000FFF786FE10BD10B54FF4007143480DF012
:1026800082FBDE48DEA1026840480DF08BFE3F4829
:10269000FFF776FE10BD10B54FF400713B480DF00A
:1026A00072FBDB480278DBA138480DF07BFE37482F
:1026B000FFF766FE10BDF0B5C3B004460D464FF4FB
:1026C000807103A80DF05FFB00208DF80C00102036
:1026D000034603AA29460090204602F07BFDD1A1C3
:1026E00003A80DF062FB002834D1CFA107A80DF09C
:1026F0005CFB70BB0BA802F0EDFDC0B28DF80800CA
:102700000FA802F0E7FDC0B28DF8090013A802F08F
:10271000E1FDC0B28DF80A0017A802F0DBFDC0B2DF
:102720008DF80B004FF4007118480DF02CFBC0A180
:1027300016480DF037FE1548FFF722FE9DF80B30C6
:102740009DF80A209DF809109DF8080002F03FFF4F
:10275000D7E2FFE7BBA103A80DF027FB38B9B2A170
:1027600007A80DF022FB10B9FFF75DFEC9E2B5A185
:1027700003A80DF01AFB38B9B4A107A80DF015FB9A
:1027800010B9FFF740FEBCE264E10000DC6B002002
:10279000AC030020493243204F4B2120200A000087
:1027A000493243204572726F723A20256420200A14
:1027B0000A0A000092020020547261696E20496486
:1027C0003A20256420200A009102002044657669A1
:1027D00063652049643A20256420200A0000000037
:1027E0009002002044657669636520547970653AEB
:1027F00020256420200A0000120400204C6F636131
:102800006C2049503A2025642E25642E25642E25FF
:102810006420200A00000000F03C0108566F6C752F
:102820006D652064423A20256420200A4E6F69734A
:10283000654F66667365742064423A2025642020E3
:102840000A4E6F697365566F6C756D652064423A08
:102850002025642020200A0A000000004E6F6973C2
:102860006556312064423A20256420200A4E6F6963
:10287000736556322064423A20256420200A4E6F48
:102880006973654F666665722064423A202564204C
:1028900020200A0A000000004E6F69736531204352
:1028A0006F6E6E6563743A202564090A4E6F697312
:1028B000653220436F6E6E6563743A202564202074
:1028C0000A4E6F6973652064423A202564202020F7
:1028D0000A0A00004E6F697365312064423A202570
:1028E0006420200A4E6F697365322064423A2025C5
:1028F0006420200A4E6F6973652064423A20256483
:102900002020200A0A00000053616D706C65563A61
:1029100020256420200A53616D706C65493A20259A
:10292000642020200A53616D706C65523A20256442
:10293000200A0A004164632056616C7565313A20B3
:10294000256420200A4164632056616C7565323A23
:1029500020256420200A0A200000000098020020A0
:10296000900300209403002048030020400300202F
:102970003C03002098030020D8050020D405002047
:1029800007B2010080020020E4050020DC050020E1
:10299000740300206C030020180300205C03002057
:1029A000456D6554657374466C61673A20256420F3
:1029B000200A0000A8020020A40200204443323470
:1029C000563153746174653A20256420200A4443CB
:1029D0003234563253746174653A20256420200ADB
:1029E0000A0000004C030020537065616B65725350
:1029F000746174653A20256420200A00A00200203A
:102A0000416D7053746174653A20256420200A007A
:102A10009C020020416464726573733A202564202F
:102A2000200A0000736574006C6F63616C6970004C
:102A30004F6B2C20706C6561736520776169742E13
:102A40002E2E0A00726561640000000064657674D1
:102A500079706500AFF2340103A80DF0A6F960B9F2
:102A6000F8A107A80DF0A1F938B90BA802F032FCC3
:102A700006463046FEF70CFA43E1AFF2380103A8F0
:102A80000DF093F938B9EFA107A80DF08EF910B940
:102A9000FFF7A9FC35E1AFF2740103A80DF085F949
:102AA00060B9EAA107A80DF080F938B90BA802F0C7
:102AB00011FC06463046FEF7FAF922E1AFF27C013E
:102AC00003A80DF072F938B9E0A107A80DF06DF96F
:102AD00010B9FFF778FC14E1AFF2B80103A80DF0CC
:102AE00064F960B9DBA107A80DF05FF938B90BA84C
:102AF00002F0F0FB06463046FEF7FAF901E1AFF2CC
:102B0000BC0103A80DF051F9B0B9D4A107A80DF08C
:102B10004CF988B9D2A10BA80DF047F918B90120DA
:102B2000D1490860EDE0D1A10BA80DF03EF90028D5
:102B3000A2D1CD490860E4E0AFF2F80103A80DF09E
:102B400034F938B9CBA107A80DF02FF910B9FFF768
:102B5000A2FDD6E0AFF2141103A80DF026F938B9A2
:102B6000C6A107A80DF021F910B9FFF784FDC8E050
:102B7000AFF2301103A80DF018F9B0B9C2A107A83F
:102B80000DF013F988B9B6A10BA80DF00EF918B91C
:102B90000120BF490860B4E0B4A10BA80DF005F90D
:102BA00000288AD1BA490860ABE0AFF2681103A8E7
:102BB0000DF0FBF838B9B7A107A80DF0F6F810B979
:102BC000FFF749FD9DE0AFF2841103A80DF0EDF889
:102BD00038B9B4A107A80DF0E8F810B9FFF729FD3E
:102BE0008FE0AFF2A01103A80DF0DFF8B0B9AFA1EC
:102BF00007A80DF0DAF888B999A10BA80DF0D5F85F
:102C000018B90120AB4908607BE098A10BA80DF032
:102C1000CCF8002875D1A749086072E0AFF2FC112A
:102C200003A80DF0C2F860B9A3A107A80DF0BDF884
:102C300038B90BA802F04EFB06463046FEF719FFE6
:102C40005FE0AFF2002103A80DF0AFF838B99AA108
:102C500007A80DF0AAF810B9FFF7DBFC51E080A13E
:102C600003A80DF0A2F868B995A107A80DF09DF88A
:102C700040B90BA802F02EFB074639460120FEF7AB
:102C80007DFD3EE079A103A80DF08FF848B98CA135
:102C900007A80DF08AF820B900210846FEF76EFD5E
:102CA0002FE06FA103A80DF080F838B986A107A81E
:102CB0000DF07BF810B903F0C5FD22E06BA103A86D
:102CC0000DF073F820B980A107A80DF06EF8C0B11F
:102CD00080A103A80DF069F838B980A107A80DF00C
:102CE00064F810B9FFF787FC0BE04FF400717D48E2
:102CF0000DF049F87CA17B480DF054FB7948FFF7B3
:102D00003FFB43B0F0BD10B504464FF40071754869
:102D10000DF039F8224679A172480DF043FB714855
:102D2000FFF72EFB10BD10B504464FF400716D483F
:102D30000DF029F8224676A16A480DF033FB694868
:102D4000FFF71EFB10BD70B504460D464FF4007131
:102D500064480DF018F8224673A162480DF022FB7A
:102D60006048FFF70DFB2A4676A15E480DF01AFB7E
:102D70005C48FFF705FB70BD10B54FF40071594872
:102D80000DF001F8764877A1026856480DF00AFB6D
:102D90005448FFF7F5FA10BD10B54FF400715148D3
:102DA0000CF0F1FF002403E023204E490855641C79
:102DB0006B4800684FF4C87190FBF1F0A042F3DC5F
:102DC0004848FFF7DDFA57A0FFF7DAFA10BD10B553
:102DD0004FF4007143480CF0D6FF69A141480DF053
:102DE000E1FA4048FFF7CCFA6A486BA102683D4817
:102DF0000DF0D8FA3B48FFF7C3FA6C486CA10268A3
:102E000038480DF0CFFA3748FFF7BAFA6D486EA18F
:102E1000026834480DF0C6FA3248FFF7B1FA70483C
:102E200070A102682F480DF0BDFA2E48FFF7A8FAEE
:102E30000024E7E06E4800EBC40043686C4850F89B
:102E40003420D7E0646576696400000074726169BB
:102E50006E696400766F6C756D6500006164630077
:102E600073746172740000009003002073746F70BB
:102E7000000000006164647200000000616D707306
:102E8000746174650000000073616D706C65000012
:102E900094030020737065616B657273746174656F
:102EA0000000000064633234760000006E6F6973C6
:102EB0006500000098030020656D657465737400FB
:102EC00073696E746573740073656C66746573748E
:102ED00000000000757064617465000070726F67B7
:102EE00072616D00DC6B0020496E76616C69642054
:102EF000436F6D6D616E6420210A00004D79204E94
:102F00006F6973652064423A20256420200A00001E
:102F10004D79204E6F69736520286E6577293A20B8
:102F2000256420200A00000053656E736F72312003
:102F30004E6F697365202874656D70293A20256489
:102F400020200A0053656E736F7232204E6F6973D2
:102F500065202874656D70293A20256420200A00B8
:102F600084030020417564696F496E707574536104
:102F70006D706C65563A20256420200A0000000020
:102F800053656C6654657374205265706F72743A41
:102F900020200A003C060020314B2056436F756EFE
:102FA000743A20256420200A000000004406002016
:102FB000314B2049436F756E743A20256420200AF6
:102FC000000000004C060020416D706C696669636A
:102FD0006174696F6E3A20256420200A00000000A9
:102FE00050060020534E523A20256420200A00004B
:102FF000F89E00201AA122480DF0D4F92048FFF7CE
:10300000BFF9641C102CFFF615AF1E481EA1026804
:103010001B480DF0C7F91A48FFF7B2F917A1184875
:103020000DF0C0F91648FFF7ABF914A114480DF0E4
:10303000B9F91348FFF7A4F910BD70B504460D4661
:103040004FF400710E480CF09EFE23462A4613A151
:103050000B480DF0A7F90A48FFF792F970BD000080
:103060004672657175656E637920526573706F6E17
:1030700073653A20256420202020256420200A0042
:10308000DC6B0020540600204F757470757420505E
:103090006F7765723A20256420200A006C656E20E7
:1030A0003D2025643B203E3E20257320200A0A0057
:1030B00000B5AFB001214FF060600AF041FE0BF0A7
:1030C000FDFB0CF0BCF800BF0CF0C0F80128FBD0F1
:1030D00068460BF0FEFB01200090002007904FF4A3
:1030E00000700A9000200B900E9011901390149095
:1030F00015904FF480600990002020904FF00070F0
:1031000021900011239000202590269004202890E3
:10311000C005299040122A9080012B9040122C90DB
:1031200040002E90012168460BF02CFC36490860C7
:103130002FB000BD1CB5012167200AF001FE01215E
:1031400088030AF041FE4FF48070009003208DF850
:10315000050002208DF8040000208DF806008DF88F
:103160000700694629480AF091F901200BF007F998
:1031700086200090694625480AF088F90B22012133
:1031800022480AF00EFA0B22022120480AF009FA1E
:103190000B2207211D480AF004FA322000906946EC
:1031A0001B480AF073F90B22012119480AF0F9F9BA
:1031B0000B22042116480AF0F4F90B2205211448C9
:1031C0000AF0EFF94FF4D0400090694611480AF038
:1031D0005DF90B2211460F480AF0E3F90B220D218D
:1031E0000C480AF0DEF90B220E210A480AF0D9F940
:1031F0001CBD10B5FFF79EFFFFF75AFF10BD10B5BD
:103200000BF05CFB10BD00009C030020000002409E
:10321000000802400018024010B509F0A9FEF32092
:103220000AF0BFF80221282009F0EEFE082805D098
:1032300003E0404800683F490860FAE709F0A5FE4E
:1032400010BD10B509F094FE10BD10B509F09DFE3B
:1032500010BD2DE9F04104460E46174609F088FEE0
:1032600000250FE056F82510334AA01809F075FF25
:10327000082805D003E02F4800682E490860FAE7C7
:10328000241D6D1CBD42EDDB09F07FFEBDE8F08121
:103290002DE9F04105460E46174609F069FEF32078
:1032A0000AF07FF80221282009F0AEFE082805D098
:1032B00003E0204800681F490860FAE700240EE098
:1032C000315D1D4A2A44101909F099FF082805D0DC
:1032D00003E01848006817490860FAE7641CBC421C
:1032E000EEDB09F052FEBDE8F08110B50346002088
:1032F00004E0114C1C44245C0C54401C9042F8DB4C
:1033000010BD01460868704710B50446FDF729FA5C
:10331000FFF729F8FFF701F84FF47A7001F006FF84
:10332000FEF7FBFF4FF47A7001F000FF20460DF02E
:1033300033F810BDA40300200000020810B50C20D3
:1033400004F0CCF804461CB1002020606060A0604E
:10335000204610BD70B504460E46254615B12846D8
:1033600004F00AF870BD70B505460C4600212846E9
:1033700005F0F8FB0021284605F0F9FB002128465E
:1033800005F0F2FB0021284605F0F4FB204603F08F
:10339000F3FF284605F00AF870BD2DE9F041064616
:1033A0000C46B6F86E006168884202D2B6F86E50DC
:1033B00001E0A08885B200232A463046216806F045
:1033C0008FFF07462FB92068284420606068401BA3
:1033D0006060BDE8F0812DE9F04104460E461746D5
:1033E000254615B90020BDE8F08100202872294645
:1033F0003046FFF7D2FF0020F5E770B504460D46D2
:103400001CB9284604F0D2FF03E021462846FFF706
:10341000C4FF002070BD70B505460C461646FA493B
:10342000FA480CF0BFFFF94820600CF0B7FC606070
:1034300021462846FFF7B1FF70BD2DE9F05F8146B8
:103440000C4616469A46DDF828B0002548460CF092
:10345000A5FC0746A84633E0207899F8001088427A
:103460002CD13A46214648460CF0ADFC30BB3C44DA
:103470003D4420783D2821D1641C6D1C0BE0207850
:103480003070761C641C6D1C08F1010808F1010005
:10349000584500DB0AE02078262807D0207828B19C
:1034A00020780A2802D020780D28E8D100BF00201B
:1034B0003070CAF800802846BDE8F09F6D1C641C7F
:1034C000207828B120780A2802D020780D28C3D18E
:1034D0004FF0FF30F0E770B505460C461646CC4974
:1034E000CA480CF05FFFC94820600CF057FC6060D0
:1034F00021462846FFF751FF70BD70B5ACB00446B9
:103500000E46154680210CA80CF03DFC202102A897
:103510000CF039FC0020019080200BAB0CAA29464E
:103520000090BCA0FFF789FF002806DC2A46314640
:103530002046FFF7D0FF2CB070BD60680A902020B5
:1035400001AB02AA29460090B5A0FFF776FF03223F
:10355000B5A102A80CF037FC20B90CA9DDE90A02DC
:1035600002F059FA2A4631462046FFF754FF0CA9CB
:103570000A9803F03DFD00BFDDE770B505460C4637
:103580001646AA49A1480CF00DFFA04820600CF097
:1035900005FC606021462846FFF7FFFE70BDFEB5C2
:1035A00005460C461646A2480078A2490978A24A68
:1035B0001278CDE900210290A0480378A048027853
:1035C000A04992480CF0EEFE904820600CF0E6FB1B
:1035D000606021462846FFF7E0FEFEBD70B5054657
:1035E0000C461646984989480CF0DCFE8748206056
:1035F0000CF0D4FB606021462846FFF7CEFE70BD7C
:1036000070B505460C461646904980480CF0CAFE37
:103610007E4820600CF0C2FB606021462846FFF720
:10362000BCFE70BD70B505460C4616468849774805
:103630000CF0B8FE754820600CF0B0FB60602146CD
:103640002846FFF7AAFE70BD70B505460C46164623
:1036500080496E480CF0A6FE6C4820600CF09EFB82
:10366000606021462846FFF798FE70BD70B594B0A3
:1036700005460E46144620210CA80CF084FB2021A0
:1036800004A80CF080FB202003AB0CAA214600907C
:1036900071A0FFF7D2FE00281FDD202002AB04AA94
:1036A000214600906FA0FFF7C8FE042270A10CA86D
:1036B0000CF089FB58B906226FA104A80CF083FB1B
:1036C00028B9224631462846FFF7BEFF0AE02246C7
:1036D00031462846FFF7A6FF04E022463146284639
:1036E000FFF7A0FF14B070BD2DE9F043A1B006466E
:1036F0000F4614469846B146B8F1000F00D17CB988
:1037000034B12189384604F0FEFE204604F0CAF8A0
:1037100049463846FFF727FE002021B0BDE8F08378
:103720002189384604F0EFFE258900BF802201A8D8
:1037300061680CF00FFB204604F0B4F8002D02DCA9
:103740004FF0FF30E9E7294601A8FFF776FC4C4827
:1037500000684B49086006224AA101A80CF040FB12
:1037600028B901AA49463846FFF74AFF46E0122227
:1037700046A101A80CF034FB28B901AA49463846F5
:10378000FFF774FF3AE0142245A101A80CF028FBD2
:1037900028B901AA49463846FFF732FF2EE0142225
:1037A00045A101A80CF01CFB28B901AA49463846DE
:1037B000FFF714FF22E00F2245A101A80CF010FB37
:1037C00028B901AA49463846FFF7E9FE16E00F225C
:1037D00043A101A80CF004FB28B901AA49463846C8
:1037E000FFF7CBFE0AE00F2241A101A80CF0F8FA86
:1037F00020B901AA49463846FFF77FFE49463846B8
:10380000FFF7B1FD002088E76A3B0108DC7100206A
:10381000CF3A010866696C656E616D650000000055
:10382000616C6C5F646576006F6E0000EA370108BA
:10383000B4020020B3020020B2020020B102002036
:10384000910200205A36010865350108AE300108A2
:103850002D330108C0340108757365726E616D65A2
:103860000000000070617373776F726400000000E5
:10387000726F6F7400000000626569686169000022
:103880006C020020474554202F200000474554205B
:103890002F6C6F67696E5F7375626D69743F0000AE
:1038A000474554202F6C6F675F6572725F73756256
:1038B0006D69743F00000000474554202F66726117
:1038C0006D655F696E6465782E68746D0000000038
:1038D000474554202F6672616D65312E68746D0006
:1038E000474554202F6672616D65322E68746D00F5
:1038F000474554202F7570646174655F66773F009B
:103900002DE9F04106460D461746FFF717FD044620
:103910001CB94FF0FF30BDE8F081002020606060EE
:103920002146284605F01EF92B49284605F01CF9CA
:103930002A49284605F01EF90A222949284605F099
:103940001EF92849284605F012F90020E3E770B572
:1039500005F003F9054650222349284604F0D3FE1A
:10396000044600BFFF21284604F043FF05462946D0
:10397000284605F0F7F81D49284605F0FEF870BD09
:10398000F8B505460C4616461948007800901948C7
:10399000037819480278194919480CF003FD1848B2
:1039A00020600CF0FBF9606021462846FFF7F5FC2B
:1039B000F8BD70B505460C461646124910480CF085
:1039C000F1FC0F4820600CF0E9F9606021462846C0
:1039D000FFF7E3FC70BD0000E9360008553300082E
:1039E000FB330008D73300089C3C0108013900086C
:1039F000B2020020B1020020910200207E320108B4
:103A0000DC710020673701081FB50020ADF8040005
:103A10004BF6FF70ADF80600A020ADF808004FF49B
:103A20008060ADF80A000001ADF80C0047F230509C
:103A300000900121F84809F08EFE6946F64809F029
:103A40000EFE1FBD2DE9F04104460D46270AE6B2E1
:103A50000020F2490860F24908600EE0EF48006873
:103A6000401CEE49086008460068B0F57A2F04DD76
:103A70000120EB490860BDE8F0814FF40031E648D1
:103A800009F08FFF0028E9D10121E34809F06FFE1A
:103A90000020E2490860E24908600DE0DF48006864
:103AA000401CDE49086008460068B0F57A2F03DD47
:103AB0000220DB490860DEE7DA49D74809F04FFF0A
:103AC0000028EBD00022A021D34809F068FE002096
:103AD000D2490860D24908600DE0D0480068401C17
:103AE000CE49086008460068B0F57A2F03DD032050
:103AF000CB490860BFE7CC49C74809F030FF002830
:103B0000EBD03946C44809F0CEFE0020C349086016
:103B1000C34908600DE0C1480068401CBF49086007
:103B200008460068B0F57A2F03DD0420BC49086020
:103B3000A1E7BE49B84809F034FF0028EBD0314670
:103B4000B54809F0B0FE0020B4490860B4490860E7
:103B50000DE0B2480068401CB049086008460068A3
:103B6000B0F57A2F03DD0520AD49086083E7AF4942
:103B7000A94809F016FF0028EBD02946A64809F00D
:103B800092FE0020A5490860A54908600DE0A34801
:103B90000068401CA149086008460068B0F57A2F0B
:103BA00003DD06209E49086065E7A0499A4809F0B0
:103BB000F8FE0028EBD0002098490860984908607A
:103BC0000DE096480068401C94490860084600686B
:103BD000B0F57A2F03DD0720914908604BE7924941
:103BE000891E8D4809F0BBFE0028EAD001218A48D1
:103BF00009F0C9FD00BF3EE72DE9F0410446260A61
:103C0000E5B2002085490860854908600FE08348D7
:103C10000068401C8149086008460068B0F57A2FAA
:103C200005DD08207E490860FF20BDE8F0814FF4E3
:103C30000031794809F0B5FE0028E8D10121764825
:103C400009F095FD002075490860754908600EE08F
:103C500072480068401C7149086008460068B0F569
:103C60007A2F04DD09206E490860FF20DDE76D49E9
:103C7000694809F074FE0028EAD00022A0216648B5
:103C800009F08DFD002065490860654908600EE077
:103C900062480068401C6149086008460068B0F549
:103CA0007A2F04DD0A205E490860FF20BDE75E49E7
:103CB000594809F054FE0028EAD03146564809F028
:103CC000F2FD002055490860554908600EE0534850
:103CD0000068401C5149086008460068B0F57A2F1A
:103CE00004DD0B204E490860FF209EE74F494A48FB
:103CF00009F057FE0028EAD02946474809F0D3FDCD
:103D0000002046490860464908600EE043480068C4
:103D1000401C4249086008460068B0F57A2F04DD6F
:103D20000B203F490860FF207FE740493A4809F0EF
:103D300038FE0028EAD00121374809F018FD00209C
:103D400036490860364908600EE034480068401C77
:103D50003249086008460068B0F57A2F04DD0C206F
:103D60002F490860FF2060E72E492B4809F0F7FD36
:103D70000028EAD00122A021274809F010FD0020E8
:103D800026490860264908600EE024480068401C67
:103D90002249086008460068B0F57A2F04DD0D203E
:103DA0001F490860FF2040E72049891E1A4809F092
:103DB000F8FD0028E9D00021174809F0F8FC164862
:103DC000183000880121144809F0DDFC0020134957
:103DD0000860134908600EE010480068401C0F4955
:103DE000086008460068B0F57A2F04DD0E200C4903
:103DF0000860FF2019E70D493C31074809F0D1FD63
:103E00000028E9D0044809F050FD07460020034986
:103E10000860034908601AE000580040A803002029
:103E2000AC03002001000300820007000400001022
:103E3000F9480068401CF849086008460068B0F579
:103E40007A2F04DD0F20F5490860FF20EDE6F448E5
:103E5000008800F400700028EAD10121F04809F040
:103E6000A6FC3846E1E62DE9F04706460F46154622
:103E70004FF6FF7000EA46184FEA182A08F0FF09CB
:103E8000202D00DD20250020E3490860E34908607B
:103E900000BF4FF40031E24809F083FD0028F8D15B
:103EA0000121DF4809F063FC0020DB490860DB49A1
:103EB000086000BFDB49DA4809F051FD0028F9D05D
:103EC0000022A021D64809F06AFC0020D2490860EF
:103ED000D249086000BFD449D14809F040FD00280C
:103EE000F9D05146CE4809F0DEFC0020CA490860EE
:103EF000CA49086000BFCC49891CC94809F02FFD98
:103F00000028F8D04946C64809F0CDFC0020C24937
:103F10000860C249086000BFC349891CC04809F055
:103F20001EFD0028F8D0002411E0395DBC4809F0DE
:103F3000BAFC0020B8490860B849086000BFBA4917
:103F4000891CB74809F00BFD0028F8D0641CAC426E
:103F5000EBDB0020B0490860B04908600121B0489F
:103F600009F011FCBDE8F0872DE9F04706460F4641
:103F700015464FF6FF7000EA46184FEA182A08F077
:103F8000FF09202D00DD20250020A3490860A3495A
:103F900008600EE0A0480068401C9F490860084681
:103FA0000068B0F57A2F04DD17209C490860BDE851
:103FB000F0874FF400319A4809F0F3FC0028E9D16A
:103FC0000121974809F0D3FB0020934908609349E9
:103FD00008600DE090480068401C8F490860084662
:103FE0000068B0F57A2F03DD18208C490860DEE701
:103FF0008C498B4809F0B3FC0028EBD00022A021AB
:10400000874809F0CCFB0020834908608349086099
:104010000DE081480068401C7F4908600846006840
:10402000B0F57A2F03DD19207C490860BFE77E498F
:104030007B4809F094FC0028EBD05146784809F001
:1040400032FC002074490860744908600DE0724831
:104050000068401C7049086008460068B0F57A2F77
:1040600003DD1A206D490860A1E770496C4809F02A
:1040700098FC0028EBD04946694809F014FC002060
:1040800065490860654908600DE063480068401CA8
:104090006149086008460068B0F57A2F03DD1B20EF
:1040A0005E49086083E761495D4809F07AFC0028B1
:1040B000EBD0002486E00121594809F058FB00208C
:1040C00055490860554908600DE053480068401C98
:1040D0005149086008460068B0F57A2F03DD1C20BE
:1040E0004E49086063E74F494D4809F038FC002805
:1040F000EBD00122A0214A4809F051FB002046499B
:104100000860464908600DE043480068401C424989
:10411000086008460068B0F57A2F03DD1D203F498E
:10412000086044E74149891E3D4809F03AFC0028EF
:10413000EAD000213A4809F03AFB394818300088A3
:104140000121374809F01FFB00203349086033493B
:1041500008600DE030480068401C2F4908600846A0
:104160000068B0F57A2F03DD1E202C4908601EE799
:104170002E493C312A4809F014FC0028EAD028488E
:1041800009F093FB38550020234908602349086053
:104190000DE021480068401C1F490860084600687F
:1041A000B0F57A2F03DD1F201C490860FFE61C488C
:1041B000008800F400700028EBD10121184809F0B4
:1041C000F6FA641CAC42FFF676AF00BFEFE61FB50F
:1041D0000020ADF804004BF6FF70ADF80600882013
:1041E000ADF808004FF48060ADF80A000001ADF8AA
:1041F0000C000F4800900121094809F0ACFA69460B
:10420000074809F02CFA1FBD2DE9F04781460C46FE
:104210004F2C0FDD4F2410E0A8030020AC0300203A
:104220000058004001000300820007000400001055
:10423000A0860100002C00DA00240A2094FBF0F094
:10424000C7B20A2094FBF0F100FB114000F0FF0818
:10425000B9F1010F04D147F0B00548F0A0060BE01A
:10426000B9F1020F04D147F0300548F0200603E011
:1042700047F0E00548F0D00600205D4908605D4940
:1042800008600EE05A480068401C5949086008461A
:104290000068B0F57A2F04DD652056490860BDE856
:1042A000F0874FF40031544809F07BFB0028E9D136
:1042B0000121514809F05BFA00204D4908604D4941
:1042C00008600DE04A480068401C494908600846FB
:1042D0000068B0F57A2F03DD662046490860DEE706
:1042E0004649454809F03BFB0028EBD000228821D5
:1042F000414809F054FA00203D4908603D490860F2
:104300000DE03B480068401C3949086008460068D9
:10431000B0F57A2F03DD672036490860BFE73849DA
:10432000354809F01CFB0028EBD02946324809F03B
:10433000BAFA00202E4908602E4908600DE02C488A
:104340000068401C2A49086008460068B0F57A2FCA
:1043500003DD682027490860A1E72A49264809F0BB
:1043600020FB0028EBD03146234809F09CFA0020BE
:104370001F4908601F4908600DE01D480068401C87
:104380001B49086008460068B0F57A2F03DD6920F4
:104390001849086083E71B49174809F002FB002809
:1043A000EBD0002012490860124908600DE0104867
:1043B0000068401C0E49086008460068B0F57A2F76
:1043C00003DD6A200B49086069E70D49891E0A4828
:1043D00009F0C5FA0028EAD00121074809F0D3F90D
:1043E00000BF5CE77047014600207047704700003F
:1043F000A8030020AC030020005800400100030087
:1044000082000700040000101FB5012009F095FC90
:104410000121880309F0C7FCFA4809F0CFFD4AF6EC
:10442000444002900020ADF80200ADF80400ADF861
:104430000C004FF40070ADF800000020ADF806004D
:104440006946F04809F0FEFD0121EE4809F0A9FE99
:104450001FBD10B50021EB4809F0A3FE0021EA487A
:1044600008F050FC00220221E64809F005FF10BDCB
:1044700010B50121E34809F094FE0121E24808F05B
:1044800041FC01220221DF4809F0F6FE10BD00B513
:1044900091B00121480509F053FC0021DA4808F0E9
:1044A00031FCD94808F052FB0022D849D64808F020
:1044B00050FC0121D44808F058FC00200290D1485B
:1044C0000C300390D24804904020059000010690E3
:1044D000002007904FF48060089040000990800011
:1044E0000A9040110B9040020C9004200D90032084
:1044F0000E9000200F90109002A9C34808F0C8FB4E
:1045000001221021C04808F08AFC01220821BE487F
:1045100008F085FC0F208DF8040000208DF80500C0
:104520008DF8060001208DF8070001A808F0A3FA15
:104530000121B54808F0E6FB01220221B14809F04B
:104540009BFE11B000BD70B5AF4808F01EFC08B965
:10455000AE4D00E0AE4DAF480068AF49096801EBD1
:1045600080260821AB48006800F02FFEA9490860AA
:10457000002405E036F8140005EB84014880641C33
:10458000B4F5007FF6DB70BD70B59F4808F0FDFB09
:1045900008B99E4D00E09E4DA0480068A0490968FA
:1045A00001EB8026002405E036F81400610025F8B0
:1045B0001100641CB4F5007FF6DB9A480068A0F592
:1045C00080609849086008460068002801DA0020E9
:1045D00008609548006800F58060934908600846C7
:1045E0000068B0F5005F02DD4FF4005008608B49B1
:1045F00009688B4A126802EB81204FF480610BF04E
:10460000C2FB08218548006800F0DFFD834908608F
:1046100070BD10B5854800688449086084497A48AF
:1046200008F01AFC012810D18149774808F03EFCB7
:104630007E4800687D490860FFF7A6FFFFF783FF0B
:1046400001207C490860FDF71EFA7B496E4808F09E
:1046500003FC012807D178496B4808F027FC734810
:1046600000687249086010BD1FB50121C80309F038
:104670009AFB724809F0A2FC4AF6444002900020DE
:10468000ADF80200ADF80400ADF80C004FF48070F6
:10469000ADF800000020ADF806006946674809F053
:1046A000D1FC0121654809F07CFD1FBD10B500213A
:1046B000624809F076FD00215348303808F022FBAB
:1046C000002201215D4809F0D7FD10BD10B5012180
:1046D0005A4809F066FD01214B48303808F012FBBA
:1046E00001221146554809F0C7FD10BD00B591B033
:1046F0000121480509F024FB00214348303808F027
:1047000001FB4148303808F021FA00224C493E486C
:10471000303808F01EFB01213B48303808F025FBFB
:104720000020029045480C30039046480490002039
:1047300005904FF480600690002007904FF4806051
:1047400008904000099080000A9040110B904002B0
:104750000C9004200D9003200E9000200F901090DC
:1047600002A92948303808F093FA0122102126487E
:10477000303808F054FB012208212348303808F073
:104780004EFB0D208DF8040001208DF8050000205F
:104790008DF8060001208DF8070001A808F06BF9DC
:1047A00001211948303808F0ADFA0122114623489A
:1047B00009F062FD11B000BD70B51348303808F043
:1047C000E4FA08B91E4D00E01E4D1F4800681F495D
:1047D000096801EB802602211B48006800F0F5FC07
:1047E00019490860002405E005EB8400408826F89C
:1047F0001400641CB4F5007FF6DB01201449086046
:1048000070BD00000038004070600240DC7D002078
:10481000DC750020E8020020E0020020C802002031
:10482000C0020020DC020020D80200206C02002020
:1048300020800020B003002010400020003C0040F9
:10484000DC8D0020DC85002000030020FC0200201D
:104850001003002070B5274808F097FA08B9264DD4
:1048600000E0264D264800682649096801EB8026AD
:1048700002212348006800F0A8FC214908600024B8
:1048800005E0600035F8100026F81400641CB4F54B
:10489000007FF6DB01201C49086070BD10B51B4885
:1048A00000681A4908601A49124808F0D5FA012828
:1048B0000BD117490F4808F0F9FAFFF7CBFFFFF7C4
:1048C0007BFF12480068114908601249094808F046
:1048D000C3FA012807D10F49064808F0E7FA0B4848
:1048E00000680A49086010BD10B5FFF7B2FDFFF778
:1048F000DDFE10BD40600240DC8D0020DC85002024
:10490000F4020020F0020020080300206C020020C6
:10491000008020100040101010B500206149086090
:10492000614908606149086061490860614908603F
:104930006149086061490860FDF771FC20B9604871
:1049400000685F49086003E05D4800685C490860F2
:10495000FDF772FC20B95A4800685949086003E025
:10496000574800685649086010BD10B5FDF757FC60
:1049700068BB4E48006828B94C480068401C4B4949
:10498000086027E049480068022805DA47480068BF
:10499000401C464908601DE044480068022808D1D0
:1049A00042480068401C4149086001203E490860B7
:1049B00010E03E480068642805DA3C480068401C66
:1049C0003A49086006E001203949086002E0002009
:1049D00036490860FDF730FC68BB3748006828B9E5
:1049E00035480068401C3449086027E032480068B8
:1049F000022805DA30480068401C2F4908601DE095
:104A00002D480068022808D12B480068401C2A491C
:104A1000086001202749086010E0274800686428E2
:104A200005DA25480068401C2349086006E001209B
:104A30002249086002E000201F4908601A48006807
:104A4000002806DD0020184908600120154908608B
:104A50000DE018480068002806DD002015490860B0
:104A600002201049086002E000200E49086010BDD5
:104A70000F480068002806DD00200D49086001206D
:104A8000084908600DE00D480068002806DD002098
:104A90000A49086002200349086002E00020014939
:104AA00008607047B4030020B8030020BC03002056
:104AB000C0030020C4030020C8030020CC03002052
:104AC0006C02002010B506F0E3F8FE4908604DF6D0
:104AD0001952FD49FB48006805F0C1FF10BD2DE9E2
:104AE000F04106460F4614469846069D6189606867
:104AF00001F00EF9204602F0D5FEBDE8F08110B5B8
:104B000006F0C6F8F14908604DF61852EE49EF4834
:104B1000006805F0A4FF0022AFF23D01EB480068F9
:104B200006F095F810BD10B506F0B2F8E849086037
:104B30004CF69F72E449E648006805F090FF10BD0E
:104B40002DE9F04106460F4614469846069D6189B8
:104B5000606801F02CF8204602F0A4FEBDE8F08168
:104B600010B506F095F8DB4908604CF6A072D649FE
:104B7000D848006805F073FF0022AFF23B01D5482A
:104B8000006806F064F810BD10B506F081F8D2494F
:104B900008604CF6B732CC49CF48006805F05FFF9B
:104BA00010BD2DE9F04106460F4614469846069D75
:104BB0006189606800F0D1FF204602F073FEBDE815
:104BC000F08110B506F064F8C44908604CF6B832BC
:104BD000BD49C248006805F042FF0022AFF23D0126
:104BE000BE48006806F033F810BD10B506F050F866
:104BF000BB4908604CF2CF72B349B948006805F070
:104C00002EFF10BD2DE9F04106460F46144698468A
:104C1000069D6189606800F035FF204602F042FE83
:104C2000BDE8F08110B506F033F8AE4908604CF2EB
:104C3000D072A549AB48006805F011FF0022AFF221
:104C40003B01A848006806F002F810BD10B506F058
:104C50001FF8A54908604CF2E7329B49A24800685A
:104C600005F0FDFE10BD2DE9F04106460F46144645
:104C70009846069D6189606800F05EFE204602F05D
:104C800011FEBDE8F08110B506F002F89749086002
:104C90004CF2E8328C499548006805F0E0FE0022AD
:104CA000AFF23D019148006805F0D1FF10BD2DE93C
:104CB000F04106460F4614469846069D6189606895
:104CC000FDF7F9FC204602F0EDFDBDE8F08110B5DE
:104CD00005F0DEFF8649086043F660327A49844871
:104CE000006805F0BCFE0022AFF23D01804800687C
:104CF00005F0ADFF10BD2DE9F04180460D4614468C
:104D00001E46069F43F662323146284605F062FF92
:104D10002146284605F054FF284605F08AFF204624
:104D200002F0C0FDBDE8F08110B505F0B1FF71499A
:104D3000086043F6623264496E48006805F08FFEF1
:104D40000022AFF24D016B48006805F080FF10BDF6
:104D500000B587B002F0E8FA02F04EFC6649097827
:104D60000A066549497842EA01426349897842EA7C
:104D70000121614AD27841EA020006F07BFA0690EE
:104D80005E4909780A065D49497842EA01425B4971
:104D9000897842EA0121594AD27841EA020006F0B4
:104DA00069FA0590564909780A065549497842EA50
:104DB00001425349897842EA0121514AD27841EAB5
:104DC000020006F057FA04904FF0FF3006F052FA56
:104DD0004C490860484909780A064749497842EA37
:104DE00001424549897842EA012141F0FF0006F07D
:104DF00041FA4549086045484549002204ABCDE9E0
:104E00000021029005AA06A9424802F0A0FC4148F0
:104E100002F0CEFC3F4802F013FDFFF785FFFFF7DD
:104E200056FFFFF730FFFFF711FFFFF7FBFEFFF71D
:104E3000DCFEFFF7C6FEFFF7A7FEFFF791FEFFF7C8
:104E400072FEFFF75CFEFFF73DFE07B000BD10B538
:104E5000304802F0B0FCFEF7D2F910BD10B52D4875
:104E600007F0C6FD10BD10B50AF0BAF808B1FFF79B
:104E7000F5FF10BD10B528480068401C26490860A1
:104E800008460068642803DD0020086007F069F820
:104E900010BD10B5FFF7EEFF10BD1CB520208DF83A
:104EA000000021208DF8010022208DF8020023202F
:104EB0008DF8030024208DF8040025208DF80500CE
:104EC00026202BE0040400209C3C01080004002064
:104ED000FC030020F8030020F4030020F00300206E
:104EE000EC030020E8030020E4030020E00300209E
:104EF000DC030020D8030020120400201A04002044
:104F000016040020D0030020D40300201FC800088E
:104F10001DCA0008DC950020080400208DF806005A
:104F200027208DF8070043F66232784978480068F8
:104F300005F050FE03220821002002F0EAFC04469E
:104F400084B108226946204602F022FF21467048BB
:104F5000006805F035FE6E48006805F06AFE2046E0
:104F600002F0A0FC1CBD70B506460C4643F661324B
:104F700066496848006805F02DFEA1B203220020B2
:104F800002F0C7FC054685B1A2B23146284602F0C0
:104F9000FFFE29465F48006805F012FE5D48006884
:104FA00005F047FE284602F07DFC70BD70B5064650
:104FB0000C464CF2E83255495748006805F00AFEA5
:104FC000A1B20322002002F0A4FC054685B1A2B2E2
:104FD0003146284602F0DCFE29464F48006805F0BD
:104FE000EFFD4D48006805F024FE284602F05AFC0B
:104FF00070BD70B506460C464CF2D0724349474826
:10500000006805F0E7FDA1B20322002002F081FC58
:10501000054685B1A2B23146284602F0B9FE2946BE
:105020003E48006805F0CCFD3C48006805F001FEF4
:10503000284602F037FC70BD70B506460C464CF6AB
:10504000B83232493648006805F0C4FDA1B20322E7
:10505000002002F05EFC054685B1A2B2314628462A
:1050600002F096FE29462E48006805F0A9FD2C485E
:10507000006805F0DEFD284602F014FC70BD70B536
:1050800006460C464CF6A07220492648006805F0FA
:10509000A1FDA1B20322002002F03BFC054685B130
:1050A000A2B23146284602F073FE29461D48006828
:1050B00005F086FD1B48006805F0BBFD284602F0A0
:1050C000F1FB70BD70B506460C464DF618520F49FF
:1050D0001548006805F07EFDA1B20322002002F011
:1050E00018FC054685B1A2B23146284602F050FEB2
:1050F00029460D48006805F063FD0B48006805F07F
:1051000098FD284602F0CEFB70BD0000D4030020BD
:10511000D8030020DC030020E4030020EC0300207F
:10512000F4030020FC0300200404002001460022B8
:1051300006E0002001E000BF401C1428FBDB521CED
:105140008A42F6D3704710B5014601F0F00201F033
:105150000F03121102EB820403EB4404E0B210BD12
:1051600030B501460A2491FBF4F4E2B20A2491FB23
:10517000F4F504FB1514E3B203EB0214E0B230BD06
:1051800001460A2009B9012007E0012203E000EBF3
:1051900080035800521C8A42F9DB704701461020F8
:1051A00009B9012005E0012201E00001521C8A42F8
:1051B000FBDB704710B5002304E0401C884200DB95
:1051C00000205B1C9342F8DB10BD401C884200DBD2
:1051D000002070472DE9F04105460F461646069C13
:1051E0000021002032E015F801C0BCF1000F06D10B
:1051F0004FF0000800FB04FC06F80C802AE00022B7
:1052000007E015F801C000FB046808F802C0491C5B
:10521000521C15F801C0BCF1200F01DDA242F0DBE9
:1052200015F801C0BCF1200F00DC491CA24201D1DD
:10523000401C0BE052B1A4F1010C944506DB4FF089
:10524000000C00FB046808F802C0401C984201DA18
:10525000B942C8DB00BFBDE8F08170B503460C461B
:105260000021002500200EE05E5CA64204D01DB99E
:105270005E5C1654401C05E05E5CA64202D100262E
:1052800016546D1C491C5E5C16B1B1F5806FEBDBEA
:105290000026165470BD70B503460C46002100254B
:1052A00000200FE05E5CA64205D0012D03D15E5CBC
:1052B0001654401C05E05E5CA64202D1002616543E
:1052C0006D1C491C5E5C16B1B1F5806FEADB0026EF
:1052D000165470BD2DE9F04107464FF000083846DE
:1052E0000AF05CFD0646022E34DD3878302831D1D4
:1052F0007878782802D0787858282BD1002525E0B6
:10530000B81C445D302C09DB392C07DC303CF11E25
:10531000481BFFF743FF04FB008816E0412C09DB24
:10532000462C07DC373CF11E481BFFF737FF04FB18
:1053300000880AE0612C08DB662C06DC573CF11E75
:10534000481BFFF72BFF04FB00886D1CB01EA84212
:10535000D6DC15E0002511E07C5D302C09DB392C12
:1053600007DC303C711E481BFFF70AFF04FB008876
:1053700003E034480068334908606D1CB542EBDB3C
:105380004046BDE8F0812DE9F047064689461546BE
:105390009A46BAF1000F21D12846FFF7F1FE99FB9A
:1053A000F0F100FB1197002413E0691E081BFFF7C2
:1053B000E7FE97FBF0F000F0FF08691E081BFFF7FF
:1053C000DFFE97FBF0F100FB117708F1300030555C
:1053D000641CAC42E9DB0020705522E086F800A096
:1053E000681EFFF7CDFE99FBF0F100FB1197012439
:1053F00013E0691E081BFFF7C3FE97FBF0F000F0F7
:10540000FF08691E081BFFF7BBFE97FBF0F100FBCE
:10541000117708F130003055641CAC42E9DB002004
:1054200070550020BDE8F08701460A7812064B78D7
:1054300042EA03428B7842EA0322CB7842EA030035
:10544000704700006C02002010B542F21070FFF7A8
:105450006DFE5E20F749087045204870A2208870D4
:10546000A820C8706520087164204871C020F249E6
:105470000870A8204870652088706420C870C0201B
:10548000EE490870A8204870652088700120C87017
:10549000FF20EB490870487088700020C870C02059
:1054A000E8490870A8204870652088708F20C8706F
:1054B000FCF791FEE449087008460078E34908705B
:1054C000E0480078DC490870DE4840784870DD48E4
:1054D00080788870DB48C078DC4909780844D64970
:1054E000C8700846C07808B9FF20C870D248407814
:1054F000D049C870D04880780871CF48C0784871CA
:10550000CD480078D2490870CB4840784870CA48E6
:1055100080788870FF20C870CE48CF49086001208D
:10552000CE490860C9480078CD49097800EB0120D0
:1055300084B220460AF006FC42F21070FFF7F6FD36
:10554000FDF757FE42F21070FFF7F0FD00BFFFF7C6
:10555000FFFB42F21070FFF7E9FD00F08FFEFEF74F
:10556000F6F9002010BD10B5BE48006801280FD123
:10557000BD48BE490268B848006800F0AAFFBB48B1
:105580000168B5480068FFF77AFD0020B54908605A
:10559000002010BD10B5FFF7E6FF10BD7047704743
:1055A0000246080E1070080C5070080A9070D170F6
:1055B0000020704701460A7812064B7842EA0342FF
:1055C0008B7842EA0322CB7842EA030070472DE948
:1055D000F04104460D4616461F46802C03DA4FF074
:1055E000FF30BDE8F081F72D02DD4FF0FF30F8E726
:1055F000FF2E02DD4FF0FF30F3E7FF2F02DD4FF00B
:10560000FF30EEE78C48047045708670C7708D4897
:10561000047045708670C7704FF47A70FFF786FD8E
:1056200001F010FB4FF47A70FFF780FD01F00EFBE4
:105630004FF47A70FFF77AFD4FF47A70FFF776FD3A
:105640008B48FFF773FD8A48FFF770FD0020C8E71D
:1056500030B501460A0EC1F30743C1F30724CDB2AA
:10566000802A02DA4FF0FF3030BDF72A02DD4FF01A
:10567000FF30F9E7FF2B02DD4FF0FF30F4E7FF2C9E
:1056800002DD4FF0FF30EFE7FF2D02DD4FF0FF307E
:10569000EAE76948027043708470C5700020E3E750
:1056A00010B57448027871496B48006800F069FED3
:1056B0006E48016868480068FFF778FC002010BD5C
:1056C00070B56D48006800F092FE05462C782CB944
:1056D000002068490860FFF7E3FF06E0012C04D1D1
:1056E000012064490860FFF7DBFF002070BD2DE951
:1056F000F041A2B06048076807F1090898F8020075
:1057000057490978884204D04FF0FF3022B0BDE8F5
:10571000F0815948006800F06AFE04465648006867
:10572000B0F81350E1780A06A17842EA01426178A4
:1057300042EA0121227841EA020005F09BFD219016
:105740002E1F3246211D01A80AF004FB01A9219851
:1057500001F04EFC0020D9E770B50546002D01DAB6
:10576000022400E00124224640493B48006800F042
:10577000AEFF3E48016838480068FFF717FC00207C
:1057800070BD2DE9F0413C48006800F030FE044651
:10579000257866782D480078854207D1012E05D1FD
:1057A00001F050F807463846FFF7D6FF0020BDE865
:1057B000F0812DE9F84F044600200090260EC4F336
:1057C0000747C4F30728E5B2802E02DA401EBDE881
:1057D000F88FF72F02DD4FF0FF30F8E7B8F1FF0F39
:1057E00002DD4FF0FF30F2E75A2D02DD4FF0FF30BF
:1057F000EDE7114890F8009090F801A090F802B001
:10580000174800780B2808D10B48C0780F49097851
:10581000401A8E38C0B200903CE01148007802284F
:105820002CD10548C07809490978401A801EC0B2B9
:1058300000902FE00C040020120400201604002029
:105840001A0400203C0400209C0200209102002049
:1058500040040020109600202C0400203404002076
:1058600090020020300300202C0300203004002090
:10587000A0860100C805002024040020FE4800780E
:10588000082807D1FD48C078FD490978401A5C38DE
:10589000C0B200904E4508D1574506D1D84504D135
:1058A0000098854201D1012091E7F64806704770C3
:1058B00080F80280F04800780B2804D105F18E00B2
:1058C000F049C8700FE0EC480078022803D1A81C0A
:1058D000EC49C87007E0E8480078082803D105F1D2
:1058E0005C00E849C87001F0ADF900206FE770B5C1
:1058F000E548066806F10904A078012807D1E07898
:10590000012805D165682846FFF753FF00E000BF76
:10591000002070BD10B5DA480378D7480278DB481C
:105920000168D948006800F067FD0446642C01DA7C
:10593000D7480470002010BD2DE9F04105460E4601
:10594000D1480560D1480660CF48006800F0B4FC3B
:1059500018B14FF0FF30BDE8F081CB48006800F08F
:105960003CFD0746C848006800F0DEFC044640F2F3
:105970000741781A8F4218D004DC012F0CD0022F77
:1059800018D106E0A0F5F8500A3840B1102811D11E
:1059900008E0FFF7BFFF0EE0FFF7A9FF0BE0FFF7FE
:1059A000F0FE08E0FFF7A3FE05E00F2C01D1FFF7A2
:1059B00087FE00BF00BF00BF0020CCE71CB5B54884
:1059C0000068002802DDB348047A00E0FF24B248F2
:1059D0000178B2480078CDE90001B1480378224649
:1059E000B049B148006800F01BFDAE480168AE4800
:1059F0000068FFF7DBFA00201CBD10B5A949AA48D2
:105A0000006800F090FEA7480168A7480068FFF70B
:105A1000CDFA002010BD2DE9F743C2B00D46144663
:105A200042F221360DF58479D9F80080414601A86B
:105A3000FFF7B6FD9DF804008DF808009DF80500FD
:105A40008DF809009DF806008DF80A009DF8070002
:105A50008DF80B00621C294603A80AF07BF9671D2C
:105A600002AB32468F4990480097006800F0A4FED0
:105A70008C4801688C480068FFF798FA002045B010
:105A8000BDE8F0832DE9F04780460F467E48C0F818
:105A900000807E480760B7F5806F03DA4FF0FF3073
:105AA000BDE8F0877848006800F006FC10B14FF0C0
:105AB000FF30F5E77448006800F08FFC81467248BB
:105AC000006800F031FC06466F48006800F081FC79
:105AD0000546B9F1040F3CD16B48006800F087FC23
