:020000040800F2
:10000000D8950120950A0108ED790008EF790008DC
:10001000F5790008F9790008FD7900080000000072
:10002000000000000000000000000000A70A010816
:10003000017A000800000000AB0A0108037A0008FA
:10004000AF0A0108AF0A0108AF0A0108AF0A0108A8
:10005000AF0A0108AF0A0108AF0A0108AF0A010898
:10006000AF0A0108AF0A0108AF0A0108AF0A010888
:10007000AF0A01080B7A0008AF0A0108137A0008DA
:10008000AF0A0108AF0A0108AF0A0108AF0A010868
:10009000AF0A0108AF0A0108AF0A0108AF0A010858
:1000A000AF0A0108AF0A0108AF0A0108AF0A010848
:1000B000AF0A0108AF0A0108AF0A0108AF0A010838
:1000C000AF0A0108AF0A0108AF0A0108AF0A010828
:1000D000AF0A0108AF0A0108AF0A0108AF0A010818
:1000E000AF0A0108AF0A0108AF0A0108AF0A010808
:1000F000AF0A0108AF0A0108AF0A0108AF0A0108F8
:10010000AF0A0108AF0A0108AF0A0108AF0A0108E7
:10011000AF0A0108AF0A0108AF0A0108AF0A0108D7
:10012000AF0A0108AF0A0108AF0A0108AF0A0108C7
:10013000AF0A0108AF0A0108AF0A0108AF0A0108B7
:10014000AF0A0108AF0A0108AF0A0108AF0A0108A7
:10015000AF0A0108AF0A0108AF0A0108AF0A010897
:10016000AF0A0108AF0A0108AF0A0108AF0A010887
:10017000AF0A0108AF0A0108AF0A0108AF0A010877
:10018000AF0A0108DFF80CD011F05EF80048004714
:1001900099010008D895012007F02CFB00BF80488A
:1001A000006841F288318842F9DD01F091FD4FF499
:1001B0007A7005F045FA01F099FD4FF47A7005F078
:1001C0003FFA02F0B5F802F0CFF802F013FA4CF261
:1001D000503005F035FA4CF2503005F031FA02F0AB
:1001E00009FA4CF2503005F02BFA4CF2503005F081
:1001F00027FA02F0FFF942F2107005F021FA02F03E
:100200009DF802F0B8F802F0F5F9664805F018FA22
:1002100002F08EF802F0A8F802F0ECF942F2107049
:1002200005F00EFA00F094FA07F08EF805F0DCFB0A
:100230004FF47A7005F004FA07F02FFA4FF47A7051
:1002400005F0FEF900F0F6FE4FF47A7005F0F8F9CB
:1002500002F0D0F942F2107005F0F2F942F210709B
:1002600005F0EEF942F2107005F0EAF907F0D5F862
:1002700002F0C0F942F2107005F0E2F94A48007845
:100280004A4908704A4803F0CFF94A4908600846CD
:100290000068401C01D003F04BF97FE000F00CFB3C
:1002A00005F061F805F05EFC01F037F8424800689F
:1002B0000A2805DB4FF000003F49086007F022FBE9
:1002C0003E480068142805DB4FF000003B490860F9
:1002D00007F022FB3A480068192805DB4FF00000C0
:1002E0003749086007F00AFB36480068322805DB0A
:1002F0004FF000003349086007F00FFB32480068F8
:10030000642805DB4FF000002F49086007F00BFB65
:100310002E480068C82805DB4FF000002B49086014
:1003200007F019FB2A480068B0F5FA7F12DB4FF09E
:1003300000002749086007F012FB10F0A9FC40F20A
:10034000F31190FBF1F201FB120000F101002149D1
:1003500008800DE01E4800681E490988884207D1C0
:100360004FF6FF701B49088005F028FE05F086FC5B
:1003700019480068B0F57A7F05DB4FF00000164998
:10038000086007F0FEFA15480068B0F5FA6F05DB63
:100390004FF000001149086007F007FB7EE70000FE
:1003A000E8060020A0860100E8020020DD0200200F
:1003B00000000208B4020020C4060020C806002085
:1003C000CC060020D0060020D4060020D80600204D
:1003D000DC060020AC020020E0060020E40600203D
:1003E00000B59BB00121CC480EF0FCFA0121880237
:1003F0000EF034FB4FF080600290C8480390C8486C
:1004000004904FF0000005904FF4FA6006904FF012
:10041000000007904FF4806008904FF4006009904E
:100420004FF400500A904FF480700B904FF400305E
:100430000C904FF000000D904FF001000E904FF027
:1004400000000F90109002A9B6480DF0E3F90121C9
:10045000B4480DF028FA4FF0080000904FF0030068
:100460008DF804004FF000008DF807006946AE4893
:100470000DF0FAFD4FF0100000904FF003008DF8E2
:1004800004004FF000008DF807006946A6480DF003
:10049000EBFD4FF0000011904FF4403012904FF000
:1004A000000013904FF47060149011A80EF07DFEC0
:1004B0004FF0000015904FF001008DF858008DF8B6
:1004C00059004FF000001790189019904FF002005B
:1004D0008DF8680015A995480EF02DFE01231A46E7
:1004E000092192480EF0C4FE012302220E218F48FA
:1004F0000EF0BEFE01218D480EF07DFF01218B48DC
:100500000EF06EFF012189480EF06DFE87480EF057
:100510001FFF1BB000BD8648006880B27047854849
:10052000006880B2704770B54FF002054FF00003CD
:100530006FF000441A4609E0794E36F812109942DD
:1005400000DD0B46A14200DA0C462A44B2F5FA6FF0
:10055000F2DBA3EB0400764E306070BDF0B54FF0D7
:1005600002054FF000036FF000441A460BE06C4F99
:1005700002F1010637F81610994200DD0B46A14240
:1005800000DA0C462A44B2F5FA6FF0DBA3EB04065E
:1005900006EBD6774FEA6700664E3060F0BD70B567
:1005A0004FF000034FF480544FF002051A460AE062
:1005B0005B4E36F81210994201DD0B4602E0A14273
:1005C00000DA0C462A44FA2AF2DBA3EB040070BDE1
:1005D000F0B54FF000034FF480544FF002051A4677
:1005E0000CE04F4F02F1010637F81610994201DD79
:1005F0000B4602E0A14200DA0C462A44FF2AF0DB57
:10060000A3EB0400F0BD30B54FF0000221E04FF045
:10061000000118E0484850F821400546481C55F8AC
:10062000200084420DD9284650F82130044601F1BB
:10063000010054F8200044F8210001F1010044F8C1
:10064000203001F10101C2F10F008842E2DC02F129
:1006500001020F2ADBDB3848006A374C646A204409
:100660004FEA500398B230BD30B54FF0000221E0A0
:100670004FF0000118E0314850F821400546481C71
:1006800055F8200084420DD9284650F82130044600
:1006900001F1010054F8200044F8210001F10100AB
:1006A00044F8203001F10101C2F10F008842E2DC80
:1006B00002F101020F2ADBDB2048006A1F4C646A4A
:1006C00020444FEA500398B230BD10B51C48006872
:1006D0001C49096808441A4908601B48006800F171
:1006E00001001949086008460068042812DB4FF031
:1006F00001000860124800684FF0030190FBF1F020
:10070000124908600846006801F087FA4FF00000BF
:100710000B49086010BD0000200040004C22014041
:10072000E007002010640240001402400022014053
:10073000C8020020CC020020749E0020D89E002019
:10074000C0020020EC060020B8020020C4020020F5
:1007500010B54FF00500F94908704FF00100F84955
:1007600008704FF01600F74908704FF00D00F64979
:1007700008704FF00100F54908604FF00B00F44994
:1007800008704FF00100F3490870F34908801CE03D
:1007900001F068FEF149087008460078F0490988C0
:1007A000884208D0ED480078ED4908804FF00000FD
:1007B000EC49087005E0EB48007800F10100E949D8
:1007C00008704CF2503004F03BFFE64800780328F4
:1007D000DEDBE2480078DF490870FFF701FE04F035
:1007E000FFFA06F085FB10F083FD10BD10B542F254
:1007F000107004F025FF04F0D4FA01F021FF42F25A
:10080000107004F01DFF04F0A2FD01F019FF42F288
:10081000107004F015FF07F069F842F2107004F050
:100820000FFF10BD10B501F07FFF10BD10B5CE4811
:100830000068CE490968884202DD01F0D3FD01E07D
:1008400001F0D7FDC8484068C8490968884202DD00
:1008500001F0D6FD01E001F0D9FDC3488068C3492D
:100860000968884202DD01F0D7FD01E001F0DAFD00
:10087000BD48C068BD490968884202DD01F0D8FD65
:1008800001E001F0DBFDB8480069B8490968884219
:1008900002DD01F0D9FD01E001F0DDFDB3480068A3
:1008A00000F10100B1490860084600680A2802DB2F
:1008B0004FF00000086010BD10B5AD480068012879
:1008C0000ED1AC480068A0F10100AA4908600846B2
:1008D000006800F069FB4FF00000A549086011E0D6
:1008E000A348006802280DD1A248006800F1010069
:1008F000A04908600846006800F056FB4FF0000071
:100900009B490860FFF792FF10BD10B501F098FEFB
:1009100010BD9948006830B99848007820F003006D
:100920009649087029E09448006801280BD1934843
:10093000007820F00300914908700846007840F0E4
:100940000100087019E08C48006802280BD18B4820
:10095000007820F00300894908700846007840F0CC
:100960000200087009E084480068032805D1834824
:10097000007820F00300814908708148006830B990
:100980007E48007820F00C007C4908701EE07C480E
:10099000006802280BD17948007820F00C007749D4
:1009A00008700846007840F0040008700EE07448B3
:1009B000006801280AD17148007820F00C006F49C6
:1009C00008700846007840F0080008706D4800681C
:1009D00030B96A48007820F010006849087005E0D6
:1009E0006648007840F01000644908706648006866
:1009F00030B96248007820F020006049087005E0B6
:100A00005E48007840F020005C4908705F4800684C
:100A100030B95A48007820F0C000584908702EE0DC
:100A20005A48006801280BD15448007820F0C000D3
:100A3000524908700846007840F0400008701EE0F7
:100A40005248006802280BD14C48007820F0C000C2
:100A50004A4908700846007840F0800008700EE0AF
:100A60004A48006803280AD14448007820F0C000B2
:100A7000424908700846007840F0C000087070478E
:100A800010B501F09BFD002808DD01F0A5FD002850
:100A900004DD4FF000003D49086021E001F08EFDCB
:100AA00040B901F099FD002804DD4FF001003749FD
:100AB000086015E001F082FD002807DD01F08CFDE3
:100AC00020B94FF002003149086009E001F076FDDD
:100AD00030B901F081FD18B94FF003002B490860CF
:100AE00010BD10B501F03FFD002804DD4FF00000FF
:100AF0002449086003E04FF001002249086001F03A
:100B000040FD002804DD4FF000001F49086003E0AD
:100B10004FF001001C49086010BD2DE9F04101F0C3
:100B2000E8FC074601F0F4FC054601F00DFD064621
:100B30001FB96DBB4FF001043CE031E0FD02002025
:100B4000FE020020FF02002000030020E00200203F
:100B5000DC020020DD020020DE020020E80200208E
:100B6000D4020020D602002080170020D8020020E6
:100B7000F803002060030020EC020020FC020020AB
:100B800094030020F0020020F4020020F80200206C
:100B9000FFE716B94FF002040CE04FF0030409E040
:100BA00015B94FF0040405E016B94FF0040401E054
:100BB0004FF000042046BDE8F081F34A42F82010CF
:100BC00070470146F04850F82100704700B5EF48E3
:100BD0000068A0B90A210020FFF7EFFF00210120E3
:100BE000FFF7EBFF00210220FFF7E7FF00210320C2
:100BF000FFF7E3FF00210420FFF7DFFF87E0E34872
:100C00000068002818DDE1480068032814DC002192
:100C10000846FFF7D2FF0A210120FFF7CEFF00218F
:100C20000220FFF7CAFF00210320FFF7C6FF0021C3
:100C30000420FFF7C2FF6AE0D4480068032818DDEB
:100C4000D2480068062814DC00210846FFF7B5FFEB
:100C500000210120FFF7B1FF0A210220FFF7ADFFBD
:100C600000210320FFF7A9FF00210420FFF7A5FFC3
:100C70004DE0C6480068062818DDC4480068092809
:100C800014DC00210846FFF798FF00210120FFF740
:100C900094FF00210220FFF790FF0A210320FFF7B5
:100CA0008CFF00210420FFF788FF30E0B748006880
:100CB000092818DDB54800680C2814DC0021084616
:100CC000FFF77BFF00210120FFF777FF00210220C3
:100CD000FFF773FF00210320FFF76FFF0A210420B5
:100CE000FFF76BFF13E000210846FFF766FF0021C6
:100CF0000120FFF762FF00210220FFF75EFF0021C5
:100D00000320FFF75AFF00210420FFF756FFA048F9
:100D1000006848BB0020FFF754FF18B901210020EC
:100D2000FFF74BFF0120FFF74CFF18B9002101200E
:100D3000FFF743FF0220FFF744FF18B9002102200C
:100D4000FFF73BFF0320FFF73CFF18B9002103200A
:100D5000FFF733FF0420FFF734FF002803D1002101
:100D60000420FFF72AFFC4E08948006800282DDD31
:100D700087480068032829DC0020FFF722FF18B904
:100D800000210846FFF719FF0120FFF71AFF18B9E5
:100D900001210846FFF711FF0220FFF712FF18B9E3
:100DA00000210220FFF709FF0320FFF70AFF18B90F
:100DB00000210320FFF701FF0420FFF702FF0028B6
:100DC000D1D100210420FFF7F8FE92E070480068BE
:100DD00003282DDD6E480068062829DC0020FFF777
:100DE000F0FE18B900210846FFF7E7FE0120FFF7E3
:100DF000E8FE18B900210120FFF7DFFE0220FFF70F
:100E0000E0FE18B901210220FFF7D7FE0320FFF70B
:100E1000D8FE18B900210320FFF7CFFE0420FFF70A
:100E2000D0FE002865D100210420FFF7C6FE60E057
:100E30005748006806282CDD55480068092828DC3A
:100E40000020FFF7BEFE18B900210846FFF7B5FEE7
:100E50000120FFF7B6FE18B900210120FFF7ADFE13
:100E60000220FFF7AEFE18B900210220FFF7A5FE11
:100E70000320FFF7A6FE18B901210320FFF79DFE0E
:100E80000420FFF79EFEA0BB00210420FFF795FE83
:100E90002FE03F48006809282BDD3D4800680C28FA
:100EA00027DC0020FFF78DFE18B900210846FFF768
:100EB00084FE0120FFF785FE18B900210120FFF70D
:100EC0007CFE0220FFF77DFE18B900210220FFF70B
:100ED00074FE0320FFF775FE18B900210320FFF709
:100EE0006CFE0420FFF76DFE18B901210420FFF706
:100EF00064FE00BD10B501F07DFB2648006800F1DE
:100F000001002449086008460068142806D14FF003
:100F1000010021490860FFF785FC08E01D480068D2
:100F2000B0F57A7F03DD4FF47A701A490860FFF755
:100F30004DFEFFF7F2FD19490860FFF7D2FDFFF7FC
:100F40009FFDFFF7E6FC10BD704710B50446402C2E
:100F500002DD4FF0FF3010BD11490C7006F0F8F9BA
:100F600001F0ABFB0020F6E710B50446B4F5803F76
:100F700002DD4FF0FF3010BD0A490C8006F0E8F9A1
:100F800001F08BFB0020F6E78017002060030020B3
:100F9000BC030020E0020020E4020020EC0200205C
:100FA000DD020020DE02002010B50446F94804608E
:100FB0000068002804DA4FF00000F649086007E0F6
:100FC000F4480068282803DD4FF02800F149086044
:100FD000F1480068012818D1EE480068EF49096817
:100FE000A0EB0100EE49086008460068002803DA1B
:100FF0004FF0000008600FE0E948006828280BDD8A
:101000004FF02800E649086006E0E348006818B998
:10101000E0480068E2490860E1480068C0B20FF0AB
:1010200029FD06F095F9002010BD4FF00000DD49C4
:101030000860704710B54FF0000407E04FF0000063
:10104000D9490855D949085504F10104B4F5005FA0
:10105000F4DBD548D6490860D448D64908604FF03B
:101060000000D54908604FF00400D44908604FF4EF
:101070008050D34908604FF00000D24908604FF417
:101080008050D1490860D14908604FF00000D04934
:1010900008604FF00400CF490860CF48CF4908608E
:1010A0004FF00000CE4908604FF00100CD490860C4
:1010B0004FF00000CC4908604FF00100CB490860B8
:1010C000CB48CC4908604FF00000CB4908604FF096
:1010D0000100CA4908604FF00000C94908604FF09C
:1010E0000100C84908604FF00000C7490860A949DD
:1010F0000860C6490860A9490860A94908604FF01E
:101100000100A54908600FF08CFC4FF47A7004F0E0
:1011100097FA08200FF0A1FC4FF47A7004F090FACF
:1011200003F0A6FB03F0EBFC03F0E7FB03F02BFD61
:101130004FF47A7004F084FAFFF777FF42F21070F0
:1011400004F07EFA42F2107004F07AFA06F065F9C3
:1011500042F2107004F074FA42F2107004F070FA67
:101160008C480068FFF720FF4FF00000A849086096
:10117000A8490860A849086010BD10B503F0AEFB8F
:1011800003F0F1FC4FF001008649086010BD10B576
:1011900004468A48006888490968884208D00821BE
:1011A0008548006804F0B0FA84490968884207D18C
:1011B000052208218048006804F097FA7F490860FA
:1011C0007E4909687A4A126802EB81204FF48062F6
:1011D00021460FF06FFD08217848006804F094FA6A
:1011E000764908604FF000008C49086010BD70B56A
:1011F00005464FF0000414E087480068285C8849E1
:1012000008558548006800F10100834908600846D8
:101210000068B0F55C7F02DB4FF00000086004F16D
:101220000104B4F5806FE7DB7D48FFF7B0FF0020D5
:1012300070BD10B574480068002800DD10BD794805
:101240000068002867D077480068012863D1764895
:101250000068642803D17548FFF7C9FF5BE0724856
:101260000068C82803D17248FFF7C1FF53E06E48F9
:101270000068B0F5FA7F03D16E48FFF7B8FF4AE087
:1012800069480068B0F5487F03D16B48FFF7AFFFAE
:1012900041E065480068B0F57A7F03D16748FFF701
:1012A000A6FF38E060480068B0F5FA6F03D16448E3
:1012B000FFF79DFF2FE05C480068A0F59851883942
:1012C00003D16048FFF793FF25E057480068B0F569
:1012D000FA5F03D15C48FFF78AFF1CE052480068C0
:1012E000A0F51C51103903D15848FFF780FF12E0D8
:1012F0004D480068A0F56851983903D15448FFF76C
:1013000076FF08E048480068A0F59C41203902D1EA
:101310005048FFF76CFF00BF90E710B54E480068DB
:10132000002811DD4FF000004B4908603B48006881
:1013300000F10100394908604848006800F10100E7
:1013400046490860FFF775FF3448006808280ADD41
:1013500032480068102806DA4FF40051144800683B
:101360000FF0C1FC07E02D480068802803DD4FF036
:1013700080002A49086039480068082871DD37482C
:10138000006810286DDA4FF400510A4800680FF029
:10139000AAFC6EE06003002010060020B4030020C9
:1013A000BC030020A8030020D4170020D43700205D
:1013B0000803002028030020100300200C03002055
:1013C000180300201C030020200300202403002019
:1013D000300300202C030020D457002038030020C5
:1013E000400300203C030020500300205403002051
:1013F000D45F0020440300204C0300204803002059
:10140000580300205C030020D4670020B0030020B4
:101410008C030020A0030020C80300201403002038
:1014200020680020C0030020C4030020201A010807
:10143000921D01080421010876240108E82701080B
:101440005A2B0108CC2E01083E320108B0350108A4
:1014500022390108943C0108F403002034030020E1
:10146000FFE7FE480068802803DD4FF08000FB495D
:10147000086010BD2DE9F0470221F948006804F02A
:1014800043F90746F748006800EB872A4FF0000849
:10149000C14644460AE03AF91450454501DDA846E4
:1014A00002E04D4500DAA94604F10104B4F5007FDD
:1014B000F1DBA8EB0900EC49EC4A126841F8220084
:1014C0004FF00201EA48006804F01EF90746E948B7
:1014D000006800EB872A4FF00008C14644460AE046
:1014E0003AF91450454501DDA84602E04D4500DAC1
:1014F000A94604F10104B4F5007FF1DBA8EB090073
:10150000DD49DA4A126841F82200D848006800F143
:101510000100D64908600846006808282BDB4FF018
:10152000000008600646044605E0CF4850F8240055
:10153000064404F10104082CF7DB30464FEAE6715B
:1015400006EB51714FEAE101CC4A11604FF0000601
:10155000344605E0C84850F82400064404F101046C
:10156000082CF7DB30464FEAE67106EB51714FEA83
:10157000E101C34A1160BDE8F08710B5FFF77AFFBB
:1015800010BD2DE9F04704462746884601EBD8797F
:101590004FEA690C4FF000052B464FF0080618463D
:1015A0000BE037F9102012F13C0F05DB05EB0208C8
:1015B00008F13C0503F1010330446045F1DB0BB950
:1015C0004FF0010395FBF3F8DFF8B892DFF8B8A20B
:1015D000DAF800A049F82A80BDE8F0872DE9F04745
:1015E00004462746884601EBD8794FEA690C4FF04C
:1015F00000052B464FF0080618460BE037F910207F
:1016000012F1140F05DB05EB020808F1140503F1D4
:10161000010330446045F1DB0BB94FF0010395FB4A
:10162000F3F8DFF86892DFF860A2DAF800A049F872
:101630002A80BDE8F08770B595480068012833D14D
:101640009448006801282FD14FF0000090490860AD
:101650004FF002018248006804F056F88E49086095
:101660000968804A126802EB81204FF48061FFF71D
:10167000B5FF4FF00000874908604FF002017C4839
:10168000006804F041F8854908600968794A1268E1
:1016900002EB81204FF48061FFF773FF7A48006806
:1016A00000F10100784908607748006808286EDB7F
:1016B0004FF00000744908600546044605E0734891
:1016C00050F82400054404F10104082CF7DB4FEA2C
:1016D000E57105EB51714FEAE10101EB81014FEA40
:1016E00041016F4A11604FF000052C4605E0654846
:1016F00050F82400054404F10104082CF7DB2846C7
:101700004FEAE57105EB51714FEAE101654A11605D
:101710006348006864280ADA104600680A2806DA76
:101720004FF0000060490860604908602FE05C48A5
:101730000068142804DA4FF001005C49086026E0D4
:1017400058480068022804DA4FF002005749086040
:101750001DE0534800685349096890FBF1F0524975
:10176000086008460068C82804DD4FF002004F49B1
:1017700008600CE04C4800680A2804DA4FF00100C9
:101780004A49086003E04FF000004849086070BD16
:1017900010B547480068A0F10100454908600846B7
:1017A0000068002804DA4FF000000860FFF73DFCF5
:1017B00040480068002801DDFFF73DFF3E48006813
:1017C000A0F102003C49086008460068002802DADF
:1017D0004FF00000086039480078C0F140003649F9
:1017E0000968884204DA4FF000003549086003E0D8
:1017F0004FF001003249086010BD704710B5314804
:101800000068002806DD2F480068A0F101002D497E
:10181000086003E04FF000002B4908602B48006887
:10182000FFF7C2FB002010BD10B5FFF7E7FF10BDAA
:1018300010B5044626490968264A126802EB812041
:101840004FF4806221460FF035FA082120480068E5
:1018500003F05AFF1E4908603EE0000034030020F8
:101860003C030020380300209417002004030020CC
:101870004803002044030020B4170020CC030020BC
:10188000D0030020006800208C030020E0670020C7
:101890005003002058030020400300204C03002088
:1018A000840300208803002090030020940300207C
:1018B000D4670020E402002080030020DD02002025
:1018C0007C030020B0030020B4030020600300204C
:1018D0002C030020280300204FF00000DD490860A1
:1018E00010BD30B50346DC48046801F580608442D1
:1018F00032DB4FF0000214E09C5CD848D84D2D68D4
:101900004455D748006800F10100D54C20602046BE
:101910000068B0F5005F02DB4FF00000206002F1CC
:1019200001028A42E8DBCC480068A0EB0100CA4C07
:101930002060CC4800680844CA4C206020460068FB
:10194000B0F5005F02DD4FF4005020604FF0000062
:10195000C54C2060084630BD4FF0FF30FBE7024623
:101960004FF0FF3070470246C0480068002802DD93
:101970004FF0FF30704732B94FF00000BC4B186099
:10198000BC4B1860F6E7012A4BD11046B84B1860E3
:10199000642902D1B848016041E0C82902D1B648A3
:1019A00001603CE0B1F5FA7F02D1B348016036E056
:1019B000B1F5487F02D1B048016030E0B1F57A7FDF
:1019C00002D1AD4801602AE0B1F5FA6F02D1AA4810
:1019D000016024E0A1F59850883802D1A648016042
:1019E0001DE0B1F5FA5F02D1A348016017E0A1F54F
:1019F0001C50103802D1A048016010E0A1F56850D9
:101A0000983802D19C48016009E0A1F59C4020383B
:101A100002D19948016002E06FF00100AAE70020BE
:101A2000A8E74FF0FF30A5E710B5944800680128FB
:101A300018D193480068012814D14FF00000904954
:101A400008604FF002018F48006803F05DFE8E4988
:101A5000086009688D4A126802EB81204FF48061AA
:101A600004F08DFB8A480068012818D18948006875
:101A7000012814D14FF00000864908604FF00201A0
:101A80008548006803F040FE844908600968844A7C
:101A9000126802EB81204FF4806104F082FB10BDDC
:101AA0004FF001007F4908607F4800687F49086067
:101AB000704710B57E480068012815D17948006844
:101AC000002810DD4FF47A7003F0BAFD7748016802
:101AD000002002F0C1FD4FF47A7003F0B1FD4FF029
:101AE00000007049086010BD7248006840B94FF0AE
:101AF0004F006E4908604FF00A006E4908606CE0C4
:101B00006C480068012808D1674800686749086088
:101B10004FF00B00674908605FE0664800680A28DC
:101B200015D14FF47A7003F08BFD604801680020F6
:101B300002F092FD4FF47A7003F082FD4FF0000046
:101B4000584908604FF014005A49086045E0594868
:101B500000680B2811D14FF47A7003F071FD5348DF
:101B60000168002002F078FD4FF47A7003F068FD00
:101B70004FF015004F4908602FE04E4800681428C8
:101B80000BD14FF000004749086000F008FD20BB72
:101B90004FF00100474908601FE0464800681528DB
:101BA0001BD140480068002810DD4FF47A7003F024
:101BB00047FD3E480168002002F04EFD4FF47A7068
:101BC00003F03EFD4FF000003649086000F0E7FCEE
:101BD00018B14FF000003749086000BF83E70028C4
:101BE00004DD4FF00101324A116003E04FF00001C3
:101BF0002F4A116070473048006800280BDD2F48DD
:101C0000006800F101002D4908602D480068012896
:101C100001D12C490860002070470146642902DD8B
:101C20004FF0640103E0362901DA4FF036010F4826
:101C30000068012803DB0D488079092803D1A1F150
:101C40003C00214A10604FF01000204A10604FF015
:101C5000000070473403002020030020D417002028
:101C6000180300202403002014030020D467002060
:101C7000C0030020C8030020C40300205403002038
:101C8000500300203C0300204003002038030020C4
:101C90005C03002058030020480300204C03002070
:101CA000440300209C0300206003002098030020D0
:101CB000A4030020A0030020E402002074030020FD
:101CC0007C03002078030020B4030020B003002030
:101CD00010B501217F200CF085FE012188030CF056
:101CE000BDFE012188050CF0AAFE10BD1CB54FF009
:101CF000040000904FF001008DF804004FF0000048
:101D00008DF806004FF003008DF805004FF000003D
:101D10008DF807006946FE480CF0A6F94FF4806084
:101D200000904FF001008DF804004FF000008DF896
:101D300006004FF003008DF805004FF000008DF80D
:101D400007006946F3480CF08FF904220121F0489E
:101D50000CF033FA04220021ED480CF02EFA4FF07B
:101D6000020000908DF804008DF805004FF001008E
:101D70008DF806004FF000008DF807006946E44832
:101D80000CF072F94FF0010000906946E0480CF049
:101D90006BF94FF4007000904FF002008DF80400D2
:101DA0008DF805004FF000008DF806008DF8070053
:101DB0006946D9480CF058F905220921D6480CF09B
:101DC000FCF94FF0400000904FF002008DF8040045
:101DD0008DF805004FF000008DF806008DF8070023
:101DE0006946CD480CF040F905220621CA480CF09E
:101DF000E4F94FF4805000904FF002008DF8040099
:101E00008DF805004FF000008DF806008DF80700F2
:101E10006946C2480CF028F905220C21BF480CF095
:101E2000CCF94FF4005000904FF002008DF8040000
:101E30008DF805004FF000008DF806008DF80700C2
:101E40006946B6480CF010F905220D21B3480CF094
:101E5000B4F94FF4004000904FF002008DF80400F8
:101E60008DF805004FF000008DF806008DF8070092
:101E70006946AA480CF0F8F805220F21A7480CF093
:101E80009CF94FF0800000904FF002008DF80400A4
:101E90008DF805004FF000008DF806008DF8070062
:101EA00069469D480CF0E0F8062207219A480CF09C
:101EB00084F94FF0100000904FF002008DF80400FC
:101EC0008DF805004FF000008DF806008DF8070032
:101ED000694693480CF0C8F80622042190480CF09B
:101EE0006CF94FF4806000904FF002008DF8040010
:101EF0008DF805004FF000008DF806008DF8070002
:101F0000694685480CF0B0F806220A2182480CF098
:101F100054F94FF4805000904FF002008DF8040007
:101F20008DF805004FF000008DF806008DF80700D1
:101F3000694679480CF098F806220C2176480CF096
:101F40003CF94FF4005000904FF001008DF8040070
:101F50004FF000008DF806004FF003008DF80500EB
:101F60004FF000008DF8070069466A480CF07CF8D5
:101F70004FF4804000904FF001008DF804004FF0C6
:101F800000008DF806004FF003008DF805004FF0BB
:101F900000008DF8070069465E480CF065F84FF4C4
:101FA000004000904FF001008DF804004FF0000059
:101FB0008DF806004FF003008DF805004FF000008B
:101FC0008DF80700694653480CF04EF84FF4004076
:101FD00000904FF001008DF804004FF000008DF8E4
:101FE00006004FF003008DF805004FF000008DF85B
:101FF0000700694646480CF037F84FF001000090A2
:102000008DF804004FF000008DF806004FF003003B
:102010008DF805004FF000008DF807006946414833
:102020000CF022F84FF0020000904FF001008DF804
:1020300004004FF000008DF806004FF003008DF80B
:1020400005004FF000008DF80700694635480CF098
:102050000BF84FF0800000904FF001008DF8040065
:102060004FF000008DF806004FF003008DF80500DA
:102070004FF000008DF80700694626480BF0F4FF8A
:102080004FF4807000904FF001008DF804004FF085
:1020900000008DF806004FF003008DF805004FF0AA
:1020A00000008DF8070069461A480BF0DDFF4FF479
:1020B000006000904FF000008DF804004FF0030026
:1020C0008DF805004FF001008DF8070069461248B1
:1020D0000BF0CAFF4FF0020000904FF000008DF8A7
:1020E00004004FF003008DF805004FF001008DF85B
:1020F000070069460C480BF0B7FF4FF00100009055
:102100004FF000008DF804004FF003000EE00000D7
:102110000014024000100240000802400004024087
:102120000000024000180240000C02408DF805003B
:102130004FF001008DF807006946FB480BF094FF53
:102140004FF0040000904FF000008DF804004FF0B5
:1021500003008DF805004FF001008DF80700694677
:10216000F1480BF081FF4FF4006000904FF0000049
:102170008DF804004FF003008DF805004FF00100CA
:102180008DF807006946E9480BF06EFF4FF40070C8
:1021900000904FF000008DF804004FF003008DF820
:1021A00005004FF001008DF807006946DF480BF08D
:1021B0005BFF4FF4006000904FF000008DF80400CA
:1021C0004FF003008DF805004FF001008DF8070077
:1021D0006946D7480BF048FF4FF4805000904FF00D
:1021E00000008DF804004FF003008DF805004FF05B
:1021F00001008DF807006946CD480BF035FF4FF41C
:10220000005000904FF000008DF804004FF00300E4
:102210008DF805004FF001008DF807006946C448AD
:102220000BF022FF4FF0100000904FF000008DF8EF
:1022300004004FF003008DF805004FF001008DF809
:1022400007006946B8480BF00FFF4FF008000090F8
:102250004FF000008DF804004FF003008DF80500EA
:102260004FF001008DF807006946AF480BF0FCFE07
:102270004FF4804000904FF000008DF804004FF0C4
:1022800003008DF805004FF001008DF80700694646
:10229000A7480BF0E9FE4FF0200000904FF000003F
:1022A0008DF804004FF003008DF805004FF0010099
:1022B0008DF8070069469F480BF0D6FE4FF00800E6
:1022C00000904FF000008DF804004FF003008DF8EF
:1022D00005004FF001008DF80700694695480BF0A6
:1022E000C3FE4FF0040000904FF001008DF8040091
:1022F0004FF000008DF806004FF003008DF8050048
:102300004FF000008DF80700694688480BF0ACFEDE
:102310001CBD704710B5042185480BF02EFFC0F19D
:102320000100C4B22246042181480BF03AFF10BDDF
:1023300010B504217E480BF032FF10BD10B504210A
:102340007B480BF02AFF10BD10B54FF48061774831
:102350000BF013FFC0F10100C4B222464FF48061BC
:1023600072480BF01EFF10BD10B54FF480616F482E
:102370000BF015FF10BD10B54FF480616B480BF0EA
:102380000CFF10BD10B50446002C05DD4FF40051C4
:1023900066480BF002FF04E04FF4005163480BF075
:1023A000FEFE10BD10B50446002C05DD4FF4804143
:1023B0005E480BF0F2FE04E04FF480415B480BF006
:1023C000EEFE10BD10B50446002C05DD4FF40041B3
:1023D00056480BF0E2FE04E04FF4004153480BF086
:1023E000DEFE10BD10B54FF4004151480BF0D7FE92
:1023F00010BD10B54FF400414D480BF0CEFE10BD9E
:1024000010B501214C480BF0CAFE10BD10B50121DA
:1024100049480BF0C2FE10BD10B5022146480BF032
:10242000BEFE10BD10B5022143480BF0B6FE10BD34
:1024300010B580213D480BF0B2FE10BD10B58021D3
:102440003A480BF0AAFE10BD10B54FF48071374822
:102450000BF0A5FE10BD10B54FF4807133480BF0A2
:102460009CFE10BD70B54FF000054FF4006133487D
:102470000BF073FE044605EB0400C5B24FF00201F9
:1024800029480BF06AFE044605EB4400C5B24FF044
:10249000010125480BF061FE044605EB8400C5B23E
:1024A0004FF0040120480BF058FE044605EBC40031
:1024B000C5B2284670BD70B54FF400611B480BF0E3
:1024C0004CFE054615B94FF0000401E04FF0010441
:1024D000204670BD70B54FF4007114480BF03DFEFE
:1024E000054615B94FF0000401E04FF00104204605
:1024F00070BD70B54FF400610D480BF02EFE05461F
:1025000015B94FF0000401E04FF00104204670BD02
:1025100070B54FF4805106480BF01FFE05467DB99B
:102520004FF000040EE00000000C024000100240DA
:10253000001402400000024000180240000802405F
:102540004FF00104204670BD70B54FF400513D4876
:102550000BF003FE054615B94FF0000401E04FF003
:102560000104204670BD70B5102137480BF0F5FD11
:10257000054615B94FF0000401E04FF00104204674
:1025800070BD70B5082130480BF0E7FD054615B960
:102590004FF0000401E04FF00104204670BD70B51B
:1025A0004FF4804127480BF0D8FD054615B94FF090
:1025B000000401E04FF00104204670BD70B52021F9
:1025C00022480BF0CAFD054615B94FF0000401E0A2
:1025D0004FF00104204670BD70B508211B480BF078
:1025E000BCFD054615B94FF0000401E04FF00104B1
:1025F000204670BD10B5042115480BF0BEFDC0F19A
:102600000100C4B22246042111480BF0CAFD10BDDE
:1026100010B57E200CF07FF808B10CF00BFB0DF02C
:1026200001F80121C8020CF00AFA4FF4C0700DF055
:1026300004F850200DF00CF87F200DF020F810BDAC
:102640007047000000140240000C024000000240ED
:102650000010024070B5044620460EF050FB0546BF
:102660002946204602F00AFF70BD10B54FF40071F4
:10267000F8480EF038FBF848006820B9F7A1F54893
:102680000EF040FE05E0F448F7A10268F1480EF0B4
:1026900039FEF048FFF7DEFF10BD10B54FF40071B2
:1026A000EC480EF020FBF5480288F5A1E9480EF051
:1026B00029FEE848FFF7CEFF10BD10B54FF40071BA
:1026C000E4480EF010FBF2480278F2A1E1480EF067
:1026D00019FEE048FFF7BEFF10BD10B54FF40071C2
:1026E000DC480EF000FBF0480278F0A1D9480EF06B
:1026F00009FED848FFF7AEFF10BD1CB54FF40071BE
:10270000D4480EF0F0FAEE48C078ED498978CDE96A
:102710000010EB4843780278EAA1CE480EF0F2FDB3
:10272000CC48FFF797FF1CBD00B59BB04FF0680287
:10273000EB4901A80EF0BEFA01A8FFF78BFFFFF7E7
:10274000DCFFFFF7CAFFFFF7B8FFFFF7A6FFFFF7B1
:102750008CFF1BB000BDF8B504460D4616464FF47D
:102760000071BC480EF0BFFA2B462246DDA1B948E5
:1027700000960EF0C7FDB748FFF76CFFF8BDF8B53F
:1027800004460D4616464FF40071B2480EF0ABFAFF
:102790002B462246E3A1AF4800960EF0B3FDAD48AC
:1027A000FFF758FFF8BDF8B504460D4616464FF43E
:1027B0000071A8480EF097FA2B462246E8A1A548DA
:1027C00000960EF09FFDA348FFF744FFF8BDF8B553
:1027D00004460D4616464FF400719E480EF083FAEB
:1027E0002B462246EDA19B4800960EF08BFD9948A2
:1027F000FFF730FFF8BDF8B504460D4616464FF416
:10280000007194480EF06FFA2B462246F0A19148D1
:1028100000960EF077FD8F48FFF71CFFF8BD70B5EE
:1028200004460D464FF400718A480EF05CFA2B46C0
:102830002246F2A187480EF065FD8648FFF70AFFA1
:1028400070BD70B5F748006800283EDDF6480068A6
:10285000002808DDFDF763FE0446FDF75CFE054633
:102860002146FFF7DCFFF1480068002807DDF0484B
:102870000268F0480168F0480068FFF7BCFFEF48C5
:102880000068002821DD42F21072ED480168ED4831
:102890000068FFF79CFFFFF79FFE0446FFF78EFEE0
:1028A0000546E94A2146FFF77EFFE8480268E84806
:1028B0000168E8480068FFF762FFE7480268E748F8
:1028C0000168E7480068FFF746FF70BD30B54FF07C
:1028D000C0014FF0A8024FF065034FF0BB044FEA70
:1028E000016545EA024545EA032545EA040000BFC3
:1028F00030BD10B54FF4007156480EF0F4F9D948C8
:10290000D9A1026853480EF0FDFC5248FFF7A2FE21
:1029100010BD10B54FF400714E480EF0E4F9D748E1
:102920000368D748D7A102684A480EF0EBFC494833
:10293000FFF790FE10BD10B54FF4007145480EF042
:10294000D2F9DA48DAA1026842480EF0DBFC4148CD
:10295000FFF780FE10BD10B54FF400713D480EF03A
:10296000C2F9D848D8A102683A480EF0CBFC3948E1
:10297000FFF770FE10BD10B54FF4007135480EF032
:10298000B2F9D5480278D5A132480EF0BBFC3148E7
:10299000FFF760FE10BDF0B5C3B004460D464FF41E
:1029A000807103A80EF09FF94FF000008DF80C0025
:1029B0004FF01000034603AA29460090204602F07B
:1029C000AAFECAA103A80EF0A2F9002834D1C8A11A
:1029D00007A80EF09CF970BB0BA802F02FFFC0B245
:1029E0008DF808000FA802F029FFC0B28DF8090089
:1029F00013A802F023FFC0B28DF80A0017A802F056
:102A00001DFFC0B28DF80B004FF4007111480EF09D
:102A10006AF9B9A10F480EF075FC0E48FFF71AFECF
:102A20009DF80B309DF80A209DF809109DF80800CC
:102A300003F0BAF8D6E2FFE7B4A103A80EF067F9F5
:102A400038B9ABA107A80EF062F910B9FFF755FE2F
:102A5000C8E25FE1206C0020F003002049324320EF
:102A60004F4B2120200A0000493243204572726FEB
:102A7000723A20256420200A0A0A0000DE020020A3
:102A8000547261696E2049643A20256420200A004E
:102A9000DD0200204465766963652049643A20259B
:102AA0006420200A00000000DC02002044657669F2
:102AB000636520547970653A20256420200A00005F
:102AC000570400204C6F63616C2049503A20256404
:102AD0002E25642E25642E256420200A0000000087
:102AE00008400108566F6C756D652064423A2025D8
:102AF0006420200A4E6F6973654F666673657420A3
:102B000064423A20256420200A4E6F697365566F2F
:102B10006C756D652064423A2025642020200A0AE5
:102B2000000000004E6F69736556312064423A2000
:102B3000256420200A4E6F69736556322064423A3C
:102B400020256420200A4E6F6973654F66666572A2
:102B50002064423A2025642020200A0A0000000058
:102B60004E6F6973653120436F6E6E6563743A20F2
:102B70002564090A4E6F6973653220436F6E6E6576
:102B800063743A20256420200A4E6F6973652064BF
:102B9000423A2025642020200A0A00004E6F697303
:102BA00065312064423A20256420200A4E6F697303
:102BB00065322064423A20256420200A4E6F6973F2
:102BC000652064423A2025642020200A0A00000083
:102BD00053616D706C65563A20256420200A53615C
:102BE0006D706C65493A2025642020200A53616D80
:102BF000706C65523A202564200A0A004164632003
:102C000056616C7565313A20256420200A41646361
:102C10002056616C7565323A20256420200A0A200E
:102C200000000000E4020020D4030020D8030020AC
:102C3000900300208803002084030020DC03002090
:102C4000200600201C06002007B20100C40200205C
:102C50002C06002024060020BC030020B403002022
:102C600060030020A4030020456D6554657374461D
:102C70006C61673A20256420200A0000F4020020DD
:102C8000F002002044433234563153746174653A83
:102C900020256420200A4443323456325374617430
:102CA000653A20256420200A0A00000094030020D1
:102CB000537065616B657253746174653A20256465
:102CC00020200A00EC020020416D7053746174658D
:102CD0003A20256420200A00E80200204164647242
:102CE0006573733A20256420200A00007365740020
:102CF0006C6F63616C6970004F6B2C20706C656148
:102D0000736520776169742E2E2E0A0072656164E6
:102D100000000000AFF20C0103A80DF0F8FF38B975
:102D2000FEA107A80DF0F3FF10B9FFF7D6FC59E19B
:102D3000AFF2480103A80DF0EAFF60B9F9A107A8B6
:102D40000DF0E5FF38B90BA802F078FD06463046D5
:102D5000FEF7FBF846E1AFF24C0103A80DF0D7FFF8
:102D600038B9F0A107A80DF0D2FF10B9FFF7A5FC04
:102D700038E1AFF2880103A80DF0C9FF60B9EBA1FB
:102D800007A80DF0C4FF38B90BA802F057FD06469E
:102D90003046FEF7E9F825E1AFF2900103A80DF007
:102DA000B6FF38B9E1A107A80DF0B1FF10B9FFF7E0
:102DB00074FC17E1AFF2CC0103A80DF0A8FF60B9D5
:102DC000DCA107A80DF0A3FF38B90BA802F036FD6F
:102DD00006463046FEF7E8F804E1AFF2D00103A85A
:102DE0000DF095FFB8B9D5A107A80DF090FF90B9E7
:102DF000D3A10BA80DF08BFF20B94FF00100D249F1
:102E00000860EFE0D1A10BA80DF081FF00288ED162
:102E1000CD490860E6E0AFF20C1103A80DF077FF92
:102E200038B9CCA107A80DF072FF10B9FFF7A3FDC8
:102E3000D8E0AFF2281103A80DF069FF38B9C7A197
:102E400007A80DF064FF10B9FFF785FDCAE0AFF2E7
:102E5000441103A80DF05BFFB8B9C3A107A80DF09A
:102E600056FF90B9B6A10BA80DF051FF20B94FF055
:102E70000100BF490860B5E0B4A10BA80DF047FF01
:102E8000002888D1BA490860ACE0AFF2801103A8ED
:102E90000DF03DFF38B9B7A107A80DF038FF10B904
:102EA000FFF749FD9EE0AFF29C1103A80DF02FFF44
:102EB00038B9B4A107A80DF02AFF10B9FFF729FD12
:102EC00090E0AFF2B81103A80DF021FFB8B9AFA19F
:102ED00007A80DF01CFF90B999A10BA80DF017FFE2
:102EE00020B94FF00100AB4908607BE097A10BA827
:102EF0000DF00DFF002875D1A649086072E0AFF211
:102F0000142103A80DF003FF60B9A3A107A80DF0D9
:102F1000FEFE38B90BA802F091FC06463046FEF7DB
:102F20005EFE5FE0AFF21C2103A80DF0F0FE38B9A1
:102F300099A107A80DF0EBFE10B9FFF7DAFC51E0FC
:102F40007FA103A80DF0E3FE68B995A107A80DF0D5
:102F5000DEFE40B90BA802F071FC0746394601209D
:102F6000FEF701FD3EE079A103A80DF0D0FE48B9BF
:102F70008BA107A80DF0CBFE20B900210846FEF773
:102F8000F2FC2FE06EA103A80DF0C1FE38B986A1B6
:102F900007A80DF0BCFE10B903F0BBFF22E06BA147
:102FA00003A80DF0B4FE20B97FA107A80DF0AFFE75
:102FB000C0B180A103A80DF0AAFE38B97FA107A86F
:102FC0000DF0A5FE10B9FFF781FC0BE04FF4007186
:102FD0007C480DF088FE7CA17A480EF093F9794880
:102FE000FFF738FB43B0F0BD10B504464FF4007155
:102FF00074480DF078FE224678A172480EF082F9EE
:103000007048FFF727FB10BD10B504464FF4007160
:103010006C480DF068FE224675A16A480EF072F900
:103020006848FFF717FB10BD70B504460D464FF416
:10303000007164480DF057FE224673A161480EF0FE
:1030400061F96048FFF706FB2A4676A15D480EF05D
:1030500059F95C48FFF7FEFA70BD10B54FF40071E6
:1030600058480DF040FE764876A1026855480EF0AB
:1030700049F95448FFF7EEFA10BD10B54FF400714E
:1030800050480DF030FE4FF0000405E04FF02300F3
:103090004C49085504F10104694800684FF4C871AF
:1030A00090FBF1F0A042F1DC4648FFF7D3FA55A0BF
:1030B000FFF7D0FA10BD10B54FF4007141480DF084
:1030C00012FE67A13F480EF01DF93E48FFF7C2FA15
:1030D000684869A102683B480EF014F93948FFF7C7
:1030E000B9FA6A486AA1026836480EF00BF9354809
:1030F000FFF7B0FA6B486CA1026832480EF002F993
:103100003048FFF7A7FA6E486EA102682D480EF00E
:10311000F9F82C48FFF79EFADAE00000646576744F
:103120007970650064657669640000007472616995
:103130006E696400766F6C756D6500006164630094
:103140007374617274000000D403002073746F7094
:10315000000000006164647200000000616D707323
:10316000746174650000000073616D706C6500002F
:10317000D8030020737065616B6572737461746548
:103180000000000064633234760000006E6F6973E3
:1031900065000000DC030020656D657465737400D4
:1031A00073696E746573740073656C6674657374AB
:1031B00000000000757064617465000070726F67D4
:1031C00072616D00206C0020496E76616C6964202C
:1031D000436F6D6D616E6420210A00004D79204EB1
:1031E0006F6973652064423A20256420200A00003C
:1031F0004D79204E6F69736520286E6577293A20D6
:10320000256420200A00000053656E736F72312020
:103210004E6F697365202874656D70293A202564A6
:1032200020200A0053656E736F7232204E6F6973EF
:1032300065202874656D70293A20256420200A00D5
:10324000CC030020417564696F496E7075745361D9
:103250006D706C65563A20256420200A000000003D
:1032600053656C6654657374205265706F72743A5E
:1032700020200A007C060020314B2056436F756EDB
:10328000743A20256420200A0000000084060020F3
:10329000314B2049436F756E743A20256420200A13
:1032A000000000008C060020416D706C6966696347
:1032B0006174696F6E3A20256420200A00000000C6
:1032C00090060020534E523A20256420200A000028
:1032D0004FF000040FE01E4800EBC40043681C4898
:1032E00050F834201BA123480EF00CF82148FFF7BA
:1032F000B1F904F10104102CEDDB1F481FA1026895
:103300001C480DF0FFFF1B48FFF7A4F918A119484E
:103310000DF0F8FF1748FFF79DF915A115480DF0BE
:10332000F1FF1448FFF796F910BD70B504460D463D
:103330004FF400710F480DF0D6FC23462A4614A125
:103340000C480DF0DFFF0B48FFF784F970BD00005B
:103350003C9F00204672657175656E6379205265E9
:1033600073706F6E73653A202564202020202564D9
:1033700020200A00206C0020940600204F757470F5
:10338000757420506F7765723A20256420200A00FA
:103390006C656E203D2025643B203E3E2025732039
:1033A000200A0A0000B5AFB001214FF060600BF0B9
:1033B00019FB0CF08AF90CF0B9FE00BF0CF0BDFE51
:1033C0000128FBD068460CF08BF94FF0010000900B
:1033D0004FF0000007904FF400700A904FF000008B
:1033E0000B900E9011901390149015904FF48060F4
:1033F00009904FF0000020904FF0007021904FF4A2
:10340000001023904FF00000259026904FF004000C
:1034100028904FF0007029904FF480302A904FF49C
:1034200080002B904FF400502C904FF480402E9051
:103430004FF0010168460CF0BCF9394908602FB023
:1034400000BD1CB5012167200BF0CCFA01218803D7
:103450000BF004FB4FF4807000904FF003008DF8E8
:1034600005004FF002008DF804004FF000008DF8C9
:1034700006008DF8070069462A480AF0F5FD01208C
:103480000BF030FE4FF086000090694625480AF0A8
:10349000EBFD0B22012123480AF08FFE0B220221B3
:1034A00020480AF08AFE0B2207211E480AF085FEFA
:1034B0004FF03200009069461B480AF0D5FD0B2200
:1034C000012119480AF079FE0B22042116480AF05E
:1034D00074FE0B22052114480AF06FFE4FF4D04011
:1034E0000090694611480AF0BFFD0B2211460F48B3
:1034F0000AF063FE0B220D210C480AF05EFE0B223F
:103500000E210A480AF059FE1CBD10B5FFF799FFBD
:10351000FFF748FF10BD10B50CF0D7F810BD000044
:10352000E0030020000002400008024000180240B2
:1035300010B50AF003FBF3200AF01CFD022128203D
:103540000AF044FB082805D003E0444800684349DA
:103550000860FAE70AF0FEFA10BD10B50AF0EEFABC
:1035600010BD10B50AF0F6FA10BD2DE9F041044681
:103570000E4617460AF0E2FA4FF0000511E056F841
:103580002510374AA0180AF0C9FB082805D003E027
:103590003248006831490860FAE704F1040405F193
:1035A0000105BD42EBDB0AF0D5FABDE8F0812DE95B
:1035B000F04105460E4617460AF0C0FAF3200AF01D
:1035C000D9FC022128200AF001FB082805D003E0DD
:1035D0002248006821490860FAE74FF000040FE034
:1035E000315D1F4A2A4410190AF0E4FB082805D06F
:1035F00003E01A48006819490860FAE704F1010479
:10360000BC42EDDB0AF0A6FABDE8F08110B5034636
:103610004FF0000005E0124C1C44245C0C5400F1F7
:1036200001009042F7DB10BD01460868704710B5F5
:103630000446FDF7DBF8FFF703F8FEF7DBFF4FF476
:103640007A7001F0FDFFFEF7D5FF4FF47A7001F0BC
:10365000F7FF20460DF051FE10BD0000E8030020EA
:103660000000020810B50C2004F0FFFA044624B153
:103670004FF0000020606060A060204610BD70B573
:1036800004460E46254615B1284604F034FA70BDAE
:1036900070B505460C464FF00001284605F0B0FE17
:1036A0000021284605F0B1FE0021284605F0AAFEBB
:1036B0000021284605F0ACFE204604F01CFA2846FE
:1036C00005F09EFA70BD2DE9F04106460C46B6F8AD
:1036D0006E006168884202D2B6F86E5001E0606800
:1036E00085B200232A463046216807F0A5FA07462E
:1036F00037B92068284420606068A0EB050060604E
:10370000BDE8F0812DE9F04104460E4617462546F6
:1037100015B90020BDE8F0814FF00000287229465D
:103720003046FFF7D0FF0020F4E770B504460D46A1
:103730001CB9284605F064FA03E021462846FFF745
:10374000C2FF002070BD70B505460C461646FA490A
:10375000FA480DF0D7FDF94820600DF0D0FA60600E
:1037600021462846FFF7AFFF70BD2DE9F05F814687
:103770000C4616469A46DDF828B04FF0000548463C
:103780000DF0BDFA0746A8463BE0207899F80010F6
:10379000884232D13A46214648460DF0C6FA60BB0F
:1037A0003C443D4420783D2827D104F1010405F133
:1037B00001050EE02078307006F1010604F10104E5
:1037C00005F1010508F1010808F10100584500DB89
:1037D0000AE02078262807D0207828B120780A2807
:1037E00002D020780D28E5D100BF4FF000003070E6
:1037F000CAF800802846BDE8F09F05F1010504F1F4
:103800000104207828B120780A2802D020780D28D9
:10381000BBD14FF0FF30EEE770B505460C461646BB
:10382000C749C6480DF06EFDC44820600DF067FA28
:10383000606021462846FFF746FF70BD70B5ACB00A
:1038400004460E4615464FF080010CA80DF04BFAC9
:103850004FF0200102A80DF046FA4FF00000019051
:103860004FF080000BAB0CAA29460090B5A0FFF7E3
:103870007CFF002806DC2A4631462046FFF7CCFFB5
:103880002CB070BD60680A90202001AB02AA2946C6
:103890000090AFA0FFF769FF0322AFA102A80DF0CF
:1038A00044FA20B90CA9DDE90A0202F0B7FB2A4666
:1038B00031462046FFF747FF0CA90A9803F037FF6F
:1038C00000BFDDE770B505460C461646A3499B4888
:1038D0000DF018FD994820600DF011FA6060214646
:1038E0002846FFF7F0FE70BDFEB505460C461646AD
:1038F0009B4800789B4909789B4A1278CDE90021C2
:1039000002909A4803789A4802789A498B480DF0B9
:10391000F9FC8A4820600DF0F2F9606021462846E3
:10392000FFF7D1FEFEBD70B505460C46164692491E
:1039300082480DF0E7FC814820600DF0E0F96060FE
:1039400021462846FFF7BFFE70BD70B505460C4600
:1039500016468A4979480DF0D5FC784820600DF06C
:10396000CEF9606021462846FFF7ADFE70BD70B508
:1039700005460C461646824970480DF0C3FC6F4858
:1039800020600DF0BCF9606021462846FFF79BFEE1
:1039900070BD70B505460C4616467A4967480DF06D
:1039A000B1FC664820600DF0AAF960602146284607
:1039B000FFF789FE70BD70B594B005460E461446FB
:1039C0004FF020010CA80DF08EF94FF0200104A853
:1039D0000DF089F9202003AB0CAA214600906AA0C3
:1039E000FFF7C3FE00281FDD202002AB04AA2146FA
:1039F000009068A0FFF7B9FE042269A10CA80DF0A1
:103A000094F958B9062268A104A80DF08EF928B9D6
:103A1000224631462846FFF7BCFF0AE022463146DF
:103A20002846FFF7A4FF04E0224631462846FFF768
:103A30009EFF14B070BD2DE9F043A1B006460F46BD
:103A400014469846B146B8F1000F00D17CB934B1A4
:103A50002189384605F08DF9204604F0FFFA4946E1
:103A60003846FFF715FE002021B0BDE8F08321891C
:103A7000384605F07EF9258900BF802201A86168DB
:103A80000DF018F9204604F0E9FA002D02DC4FF0A1
:103A9000FF30E9E7294601A8FFF747FC44480068E2
:103AA00043490860062243A101A80DF04BF928B94B
:103AB00001AA49463846FFF748FFBCE012223FA161
:103AC00001A80DF03FF928B901AA49463846FFF789
:103AD00072FFB0E014223EA101A80DF033F928B91D
:103AE00001AA49463846FFF730FFA4E014223EA160
:103AF00001A80DF027F928B901AA49463846FFF771
:103B000012FF98E00F223EA101A80DF01BF928B981
:103B100001AA49463846FFF7E7FE8CE00F223CA198
:103B200001A80DF00FF928B901AA49463846FFF758
:103B3000C9FE80E074E00000294B010820720020DB
:103B40008E4A010866696C656E616D650000000053
:103B5000616C6C5F646576006F6E0000A9470108B8
:103B600000030020FF020020FE020020FD020020D2
:103B7000DD02002019460108244501086D400108B6
:103B8000EC4201087F440108757365726E616D65D2
:103B90000000000070617373776F726400000000B2
:103BA000726F6F74000000006265696861690000EF
:103BB000B0020020474554202F20000047455420E4
:103BC0002F6C6F67696E5F7375626D69743F00007B
:103BD000474554202F6C6F675F6572725F73756223
:103BE0006D69743F00000000474554202F667261E4
:103BF0006D655F696E6465782E68746D0000000005
:103C0000474554202F6672616D65312E68746D00D2
:103C1000474554202F6672616D65322E68746D00C1
:103C20000F223FA101A80DF08DF820B901AA494645
:103C30003846FFF703FE49463846FFF729FD0020C6
:103C400012E72DE9F04106460D461746FFF70AFD3B
:103C500004461CB94FF0FF30BDE8F0814FF0000082
:103C6000206060602146284605F0CAFB304928469E
:103C700005F0C8FB2F49284605F0CAFB0A222E4949
:103C8000284605F0CAFB2D49284605F0BEFB00205A
:103C9000E2E770B505F0AFFB05464FF0500228494A
:103CA000284605F068F9044600BF4FF0FF0128469A
:103CB00005F0D7F905462946284605F0A1FB21491C
:103CC000284605F0A8FB70BDF8B505460C4616461B
:103CD0001D48007800901D4803781D4802781D4952
:103CE0001D480DF00FFB1C4820600DF008F86060C7
:103CF00021462846FFF7E7FCF8BD70B505460C469F
:103D00001646164914480DF0FDFA134820600CF0D1
:103D1000F6FF606021462846FFF7D5FC70BD000025
:103D2000474554202F7570646174655F66773F0066
:103D3000373A00087F3600082B370008053700089F
:103D40005C4C0108433C0008FE020020FD020020FC
:103D5000DD0200203D4201082072002026470108B4
:103D60001FB54FF00000ADF804004BF6FF70ADF842
:103D700006004FF0A000ADF808004FF48060ADF8E9
:103D80000A004FF48040ADF80C0047F2305000902C
:103D90004FF00101FE480AF006FB6946FC480AF0B4
:103DA00076FA1FBD2DE9F04104460D464FEA14276F
:103DB000E6B24FF00000F7490860F749086010E0EC
:103DC000F448006800F10100F24908600846006804
:103DD000B0F57A2F05DD4FF00100EF490860BDE82E
:103DE000F0814FF40031EA480AF02CFC0028E7D1BA
:103DF0000121E7480AF0E4FA4FF00000E5490860C5
:103E0000E54908600FE0E348006800F10100E1497E
:103E1000086008460068B0F57A2F04DD4FF0020014
:103E2000DD490860DBE7DD49D9480AF0D6FB002808
:103E3000E9D00022A021D6480AF0DCFA4FF00000B9
:103E4000D4490860D44908600FE0D248006800F106
:103E50000100D049086008460068B0F57A2F04DDFB
:103E60004FF00300CC490860B9E7CD49C8480AF0D3
:103E7000B4FB0028E9D03946C5480AF04AFB4FF0A8
:103E80000000C4490860C44908600FE0C1480068E8
:103E900000F10100BF49086008460068B0F57A2FBC
:103EA00004DD4FF00400BC49086098E7BD49B848FC
:103EB0000AF0C8FB0028E9D03146B5480AF029FBD2
:103EC0004FF00000B3490860B34908600FE0B14803
:103ED000006800F10100AF49086008460068B0F5CD
:103EE0007A2F04DD4FF00500AB49086077E7AD4954
:103EF000A7480AF0A7FB0028E9D02946A4480AF001
:103F000008FB4FF00000A3490860A34908600FE0D8
:103F1000A048006800F101009E490860084600685A
:103F2000B0F57A2F04DD4FF006009B49086056E794
:103F30009C4997480AF086FB0028E9D04FF0000022
:103F400094490860944908600FE09248006800F1C5
:103F500001009049086008460068B0F57A2F04DD3A
:103F60004FF007008C49086039E78D49891E884861
:103F70000AF033FB0028E8D0012185480AF02DFA29
:103F800000BF2CE72DE9F04104464FEA1426E5B2C4
:103F90004FF000007F4908607F49086012E07D48CB
:103FA000006800F101007B49086008460068B0F530
:103FB0007A2F07DD4FF00800774908604FF0FF00C7
:103FC000BDE8F0814FF4003171480AF03BFB002856
:103FD000E5D101216E480AF0F3F94FF000006D4978
:103FE00008606D49086011E06A48006800F101004E
:103FF0006849086008460068B0F57A2F06DD4FF082
:104000000900654908604FF0FF00D9E7634960483F
:104010000AF0E3FA0028E7D00022A0215C480AF069
:10402000E9F94FF000005B4908605B49086011E066
:104030005848006800F101005649086008460068C9
:10404000B0F57A2F06DD4FF00A00534908604FF0B3
:10405000FF00B5E752494E480AF0BFFA0028E7D002
:1040600031464B480AF055FA4FF0000049490860C4
:104070004949086011E04748006800F101004549DE
:10408000086008460068B0F57A2F06DD4FF00B0097
:10409000414908604FF0FF0092E742493C480AF06E
:1040A000D1FA0028E7D0294639480AF032FA4FF011
:1040B0000000384908603849086011E03548006858
:1040C00000F101003349086008460068B0F57A2F16
:1040D00006DD4FF00B00304908604FF0FF006FE73E
:1040E00030492B480AF0AEFA0028E7D001212848D1
:1040F0000AF066F94FF0000026490860264908607A
:1041000011E02448006800F10100224908600846D7
:104110000068B0F57A2F06DD4FF00C001E490860EC
:104120004FF0FF004CE71D4919480AF056FA0028E5
:10413000E7D00122A02116480AF05CF94FF00000F8
:10414000144908601449086011E01248006800F141
:1041500001001049086008460068B0F57A2F06DDB6
:104160004FF00D000C4908604FF0FF0028E70D49A3
:10417000891E07480AF066FA0028E6D000210448A4
:104180000AF040F9084800884FF0010100480DE0AE
:1041900000580040EC030020F00300200100030061
:1041A0008200070004000010185800400AF015F9BA
:1041B0004FF00000F8490860F849086011E0F6483F
:1041C000006800F10100F449086008460068B0F595
:1041D0007A2F06DD4FF00E00F04908604FF0FF0027
:1041E000EEE6EF49EF480AF02DFA0028E7D0ED4857
:1041F0000AF091F907464FF00000E7490860E749E7
:10420000086011E0E448006800F10100E24908603C
:1042100008460068B0F57A2F06DD4FF00F00DF4941
:1042200008604FF0FF00CBE6DE48008810F4007F06
:10423000E8D10121DB480AF0E5F83846C0E62DE96F
:10424000F04705460F4616464FEA45504FEA1048DC
:104250004FEA182A08F0FF09202E01DD4FF0200652
:104260004FF00000CC490860CC49086000BF4FF413
:104270000031CC480AF0E6F90028F8D10121C948FC
:104280000AF09EF84FF00000C3490860C349086077
:1042900000BFC549C3480AF0A0F90028F9D00022A0
:1042A000A021C0480AF0A6F84FF00000BA49086003
:1042B000BA49086000BFBD49BA480AF08EF9002823
:1042C000F9D05146B7480AF024F94FF00000B2493E
:1042D0000860B249086000BFB449891CB1480AF0BF
:1042E0007CF90028F8D04946AE480AF012F94FF0A0
:1042F0000000A9490860A949086000BFAB49891CB2
:10430000A8480AF06AF90028F8D04FF0000413E03A
:10431000395DA4480AF0FDF84FF000009E4908609E
:104320009E49086000BFA149891C9E480AF055F9C2
:104330000028F8D004F10104B442E9DB4FF000009A
:1043400095490860954908604FF0010195480AF0C9
:1043500044F8BDE8F0872DE9F04705460F461646BC
:104360004FEA45504FEA10484FEA182A08F0FF0973
:10437000202E01DD4FF020064FF000008649086036
:104380008649086010E08448006800F10100824915
:10439000086008460068B0F57A2F05DD4FF0170079
:1043A0007E490860BDE8F0874FF400317D480AF08F
:1043B00049F90028E7D101217A480AF001F84FF0C5
:1043C000000075490860754908600FE07248006890
:1043D00000F101007049086008460068B0F57A2FC6
:1043E00004DD4FF018006D490860DBE76E496D4849
:1043F0000AF0F3F80028E9D00022A021694809F06A
:10440000F9FF4FF0000064490860644908600FE05C
:104410006148006800F101005F49086008460068D3
:10442000B0F57A2F04DD4FF019005C490860B9E758
:104430005E495C480AF0D1F80028E9D05146594855
:104440000AF067F84FF000005349086053490860CC
:104450000FE05148006800F101004F49086008462C
:104460000068B0F57A2F04DD4FF01A004B49086060
:1044700098E74B493C394B480AF0E4F80028E8D06B
:10448000494648480AF045F84FF0000042490860A4
:10449000424908600FE04048006800F101003E49D1
:1044A000086008460068B0F57A2F04DD4FF01B0065
:1044B0003A49086076E73A493C393A480AF0C2F886
:1044C0000028E8D04FF00004A0E00121354809F0B1
:1044D00077FF4FF0000030490860304908600FE076
:1044E0002D48006800F101002B490860084600686B
:1044F000B0F57A2F04DD4FF01C002849086051E721
:10450000294928480AF069F80028E9D00122A021A9
:10451000244809F06FFF4FF000001F4908601F4951
:1045200008600FE01C48006800F101001A490860AB
:1045300008460068B0F57A2F04DD4FF01D001749DA
:1045400008602FE716493E3916480AF07BF8002824
:10455000E8D00021134809F055FF154800884FF0B6
:104560000101104809F039FF4FF000000A490860C6
:104570000A4908601EE00848006800F10100064989
:10458000086008460068B0F57A2F13DD4FF01E0072
:104590000249086006E70000EC030020F003002059
:1045A0004000001000580040010003008200070096
:1045B00018580040A749A8480AF044F80028DAD063
:1045C000A54809F0A8FF38554FF00000A34908603E
:1045D000A34908600FE0A148006800F101009F496D
:1045E000086008460068B0F57A2F04DD4FF01F0020
:1045F0009B490860D6E69848008810F4007FEAD10D
:104600000121954809F0FEFE04F10104B442FFF6D1
:104610005CAF00BFC6E61FB54FF00000ADF8040068
:104620004BF6FF70ADF806004FF08800ADF80800BB
:104630004FF48060ADF80A004FF48040ADF80C00F4
:10464000884800904FF00101834809F0ACFE6946AC
:10465000814809F01CFE1FBD2DE9F04781460C463C
:104660004F2C02DD4FF04F0403E0002C01DA4FF035
:1046700000044FF00A0094FBF0F0C7B24FF00A00BC
:1046800094FBF0F100FB114000F0FF08B9F1010FBD
:1046900004D147F0B00548F0A0060BE0B9F1020FD5
:1046A00004D147F0300548F0200603E047F0E0056C
:1046B00048F0D0064FF0000068490860684908607B
:1046C00010E06648006800F101006449086008468F
:1046D0000068B0F57A2F05DD4FF06500604908608D
:1046E000BDE8F0874FF400315B4809F0ABFF0028CC
:1046F000E7D10121584809F063FE4FF00000574907
:104700000860574908600FE05448006800F1010054
:104710005249086008460068B0F57A2F04DD4FF072
:1047200066004F490860DBE74F494B4809F055FFE9
:104730000028E9D000228821474809F05BFE4FF0AD
:10474000000046490860464908600FE04348006899
:1047500000F101004149086008460068B0F57A2F71
:1047600004DD4FF067003E490860B9E73F493A4829
:1047700009F033FF0028E9D02946374809F0C9FE7F
:104780004FF0000035490860354908600FE03348B4
:10479000006800F101003149086008460068B0F582
:1047A0007A2F04DD4FF068002D49086098E7294909
:1047B0003C39294809F046FF0028E8D03146264810
:1047C00009F0A7FE4FF00000244908602449086062
:1047D0000FE02248006800F1010020490860084607
:1047E0000068B0F57A2F04DD4FF069001C490860BD
:1047F00076E718493C39184809F024FF0028E8D02A
:104800004FF0000015490860154908600FE0134893
:10481000006800F101001149086008460068B0F521
:104820007A2F04DD4FF06A000D49086058E70F4900
:10483000891E094809F0D1FE0028E8D00121064868
:1048400009F0CBFD00BF4BE7704701464FF0000079
:10485000704770474000001000580040EC030020F3
:10486000F0030020A0860100010003008200070081
:104870001FB501200AF0B3F8012188030AF0DFF820
:10488000F8480AF009FA4AF6444002904FF0000056
:10489000ADF80200ADF80400ADF80C004FF4007064
:1048A000ADF800004FF00000ADF806006946ED4895
:1048B0000AF040FA0121EB480AF0F6FA1FBD10B5E4
:1048C0000021E8480AF0F0FA0021E74808F0EBFF81
:1048D00000220221E3480AF05BFB10BD10B5012164
:1048E000E0480AF0E1FA0121DF4808F0DCFF01228C
:1048F0000221DC480AF04CFB10BD00B591B001214B
:1049000048050AF06FF80021D74808F0CCFFD648D8
:1049100008F0EAFE0022D549D34808F0EBFF012158
:10492000D14808F0F3FF4FF000000290D048039008
:10493000D04804904FF0400005904FF480600690FE
:104940004FF0000007904FF4806008904FF4006033
:1049500009904FF400500A904FF480700B904FF480
:1049600000300C904FF004000D904FF003000E90BB
:104970004FF000000F90109002A9BB4808F04AFFCA
:1049800001221021B84809F023F801220821B64875
:1049900009F01EF84FF00F008DF804004FF00000F2
:1049A0008DF805008DF806004FF001008DF8070026
:1049B00001A808F01BFE0121AB4808F074FF01229A
:1049C0000221A8480AF0E4FA11B000BD70B5A6486B
:1049D00008F0ACFF08B9A54D00E0A64DA648006858
:1049E000A649096801EB80264FF00801A24800683B
:1049F00000F08AFEA04908604FF0000406E036F897
:104A0000140005EB8401488004F10104B4F5007F33
:104A1000F5DB70BD70B5944808F088FF08B9934D78
:104A200000E0944D964800689649096801EB80269D
:104A30004FF0000407E036F814004FEA440125F86F
:104A4000110004F10104B4F5007FF4DB8E48006826
:104A5000A0F580608C49086008460068002802DAEA
:104A60004FF0000008608948006800F580608749C1
:104A7000086008460068B0F5005F02DD4FF40050A2
:104A800008607F4909687F4A126802EB81204FF471
:104A900080610CF028F908217948006800F034FEA4
:104AA0007749086070BD10B579480068784908609A
:104AB00078496D4808F0ABFF012811D175496A4863
:104AC00008F0D1FF7248006871490860FFF7A2FF43
:104AD000FFF77CFF4FF001006F490860FDF78BF88E
:104AE0006E49614808F093FF012807D16B495E4881
:104AF00008F0B9FF664800686549086010BD1FB539
:104B00000121C80309F09BFF65480AF0C5F84AF681
:104B1000444002904FF00000ADF80200ADF80400F0
:104B2000ADF80C004FF48070ADF800004FF00000BD
:104B3000ADF8060069465A480AF0FCF801215848C9
:104B40000AF0B2F91FBD10B5002155480AF0ACF9C2
:104B500000214548303808F0A6FE002201215048C7
:104B60000AF016FA10BD10B501214D480AF09CF963
:104B700001213D48303808F096FE01221146484890
:104B80000AF006FA10BD00B591B00121480509F000
:104B900029FF00213448303808F085FE324830388B
:104BA00008F0A2FD00223F492F48303808F0A2FE4D
:104BB00001212D48303808F0A9FE4FF00000029086
:104BC00039480390394804904FF0000005904FF4A5
:104BD000806006904FF0000007904FF480600890CE
:104BE0004FF4006009904FF400500A904FF4807029
:104BF0000B904FF400300C904FF004000D904FF0EC
:104C000003000E904FF000000F90109002A928486A
:104C100008F000FE01221021254808F0D9FE0122EB
:104C20000821234808F0D4FE4FF00D008DF8040051
:104C30004FF001008DF805004FF000008DF80600E0
:104C40004FF001008DF8070001A808F0CFFC01210A
:104C5000174808F028FE0122114611480AF098F979
:104C600011B000BD0038004070600240207E00207E
:104C70000C3800402076002030030020280300205C
:104C8000100300200803002024030020200300203C
:104C9000B002002020800020F403002010400020FB
:104CA000003C0040208E00200C3C0040208600206C
:104CB0004060024070B53E4808F038FE08B93D4DEE
:104CC00000E03D4D3D4800683D49096801EB802604
:104CD0004FF002013948006800F016FD37490860BE
:104CE0004FF0000406E005EB8400408826F814002D
:104CF00004F10104B4F5007FF5DB4FF00100314908
:104D0000086070BD70B52A4808F010FE08B9294D3A
:104D100000E0294D2C4800682C49096801EB8026E9
:104D20004FF002012848006800F0EEFC26490860B8
:104D30004FF0000407E04FEA440035F8100026F871
:104D4000140004F10104B4F5007FF4DB4FF001001E
:104D50001F49086070BD10B51E4800681D490860F5
:104D60001D49134808F053FE01280BD11A49104879
:104D700008F079FEFFF7C6FFFFF79CFF15480068B3
:104D80001449086015490A4808F041FE012807D176
:104D90001249074808F067FE0E4800680D49086090
:104DA00010BD10B5FFF78BFDFFF7CDFE10BD000065
:104DB00040600240208E0020208600204803002012
:104DC00044030020580300203C0300203803002047
:104DD00050030020B002002000802010004010107E
:104DE00010B54FF000006F4908606F4908606F49C7
:104DF00008606F4908606F4908606F4908606F4933
:104E00000860FDF758FB20B96D4800686C490860E0
:104E100003E06B4800686A490860FDF75BFB20B956
:104E2000674800686649086003E0654800686449AF
:104E3000086010BD10B5FDF73EFB70BB5B48006815
:104E400030B95A48006800F10100584908602EE066
:104E500056480068022806DA5448006800F101004C
:104E60005249086023E05148006802280AD14F489F
:104E7000006800F101004D4908604FF001004A4907
:104E8000086014E049480068642807DA4748006869
:104E900000F101004549086009E004E04FF001001D
:104EA0004349086003E04FF0000040490860FDF707
:104EB00011FB70BB4048006830B93F48006800F102
:104EC00001003D4908602EE03B480068022806DAF0
:104ED0003948006800F101003749086023E036488E
:104EE000006802280AD13448006800F10100324904
:104EF00008604FF001002F49086014E02E48006858
:104F0000642807DA2C48006800F101002A4908608B
:104F100009E004E04FF001002849086003E04FF089
:104F200000002549086020480068002808DD4FF08F
:104F300000001D4908604FF001001A49086010E0A8
:104F40001C480068002808DD4FF00000194908607F
:104F50004FF002001349086003E04FF000001149D0
:104F6000086010BD12480068002808DD4FF00000FE
:104F70000F4908604FF001000A49086010E00F482F
:104F80000068002808DD4FF000000C4908604FF071
:104F900002000449086003E04FF000000149086086
:104FA00070470000F8030020FC03002000040020EC
:104FB00004040020080400200C0400201004002039
:104FC000B002002010B506F04CFBFE4908604DF61B
:104FD0001952FD49FB48006806F020FA10BD2DE982
:104FE000F04106460F4614469846069D6189606862
:104FF00001F0A5F9204603F031F8BDE8F08110B5C5
:1050000006F02FFBF14908604DF61852EE49EF48C3
:10501000006806F003FA0022AFF23D01EB48006899
:1050200006F0FEFA10BD10B506F01BFBE84908605B
:105030004CF69F72E449E648006806F0EFF910BDAF
:105040002DE9F04106460F4614469846069D6189B3
:10505000606801F0B8F8204603F000F8BDE8F08180
:1050600010B506F0FEFADB4908604CF6A072D6498E
:10507000D848006806F0D2F90022AFF23B01D548CB
:10508000006806F0CDFA10BD10B506F0EAFAD24974
:1050900008604CF6B732CC49CF48006806F0BEF93C
:1050A00010BD2DE9F04106460F4614469846069D70
:1050B0006189606801F05BF8204602F0CFFFBDE82F
:1050C000F08110B506F0CDFAC44908604CF6B8324C
:1050D000BD49C248006806F0A1F90022AFF23D01C7
:1050E000BE48006806F09CFA10BD10B506F0B9FA8B
:1050F000BB4908604CF2CF72B349B948006806F06A
:105100008DF910BD2DE9F04106460F46144698462C
:10511000069D6189606800F0B9FF204602F09EFF9D
:10512000BDE8F08110B506F09CFAAE4908604CF27B
:10513000D072A549AB48006806F070F90022AFF2C2
:105140003B01A848006806F06BFA10BD10B506F0E8
:1051500088FAA54908604CF2E7329B49A2480068EA
:1051600006F05CF910BD2DE9F04106460F461446E5
:105170009846069D6189606800F0DDFE204602F0D9
:105180006DFFBDE8F08110B506F06BFA9749086035
:105190004CF2E8328C499548006806F03FF900224D
:1051A000AFF23D019148006806F03AFA10BD2DE9D2
:1051B000F04106460F4614469846069D6189606890
:1051C000FDF7E9FB204602F049FFBDE8F08110B58C
:1051D00006F047FA8649086043F660327A49844807
:1051E000006806F01BF90022AFF23D01804800681C
:1051F00006F016FA10BD2DE9F04180460D46144622
:105200001E46069F43F662323146284606F0C8F92C
:105210002146284606F0B9F9284606F0F1F920465D
:1052200002F01CFFBDE8F08110B506F01AFA7149D2
:10523000086043F6623264496E48006806F0EEF892
:105240000022AFF24D016B48006806F0E9F910BD8D
:1052500000B587B002F024FC02F09CFD6649097895
:105260000A066549497842EA01426349897842EA77
:105270000121614AD27841EA020006F025FD06903C
:105280005E4909780A065D49497842EA01425B496C
:10529000897842EA0121594AD27841EA020006F0AF
:1052A00013FD0590564909780A065549497842EA9E
:1052B00001425349897842EA0121514AD27841EAB0
:1052C000020006F001FD04904FF0FF3006F0FCFCF8
:1052D0004C490860484909780A064749497842EA32
:1052E00001424549897842EA012141F0FF0006F078
:1052F000EBFC4549086045484549002204ABCDE92F
:105300000021029005AA06A9424802F0F8FD414892
:1053100002F028FE3F4802F06EFEFFF785FFFFF720
:1053200056FFFFF730FFFFF711FFFFF7FBFEFFF718
:10533000DCFEFFF7C6FEFFF7A7FEFFF791FEFFF7C3
:1053400072FEFFF75CFEFFF73DFE07B000BD10B533
:10535000304802F00AFEFEF7DEF810BD10B52D4809
:1053600008F0FDF810BD10B50AF098FD08B1FFF780
:10537000F5FF10BD10B52848006800F1010026496E
:10538000086008460068642804DD4FF000000860EB
:1053900007F055FB10BD10B5FFF7ECFF10BD1CB5B5
:1053A0004FF020008DF800004FF021008DF8010033
:1053B0004FF022008DF802004FF023008DF803001B
:1053C0002CE000004C0400205C4C01084804002044
:1053D00044040020400400203C0400203804002045
:1053E00034040020300400202C0400202804002075
:1053F0002404002020040020570400205F04002023
:105400005B040020180400201C04002065D3000861
:105410008DD5000820960020140400204FF02400B1
:105420008DF804004FF025008DF805004FF02600A0
:105430008DF806004FF027008DF8070043F6623222
:1054400077497848006806F0ABF80322082100206D
:1054500002F03FFE044684B108226946204603F06C
:105460009AF821466F48006806F08FF86D4800688A
:1054700006F0C6F8204602F0F1FD1CBD70B50646E8
:105480000C4643F6613266496748006806F088F8C2
:105490000322A1B2002002F01CFE054685B1A2B293
:1054A0003146284603F077F829465F48006806F041
:1054B0006CF85D48006806F0A3F8284602F0CEFDBF
:1054C00070BD70B506460C464CF2E8325449574858
:1054D000006806F065F80322A1B2002002F0F9FD91
:1054E000054685B1A2B23146284603F054F8294654
:1054F0004E48006806F049F84C48006806F080F80D
:10550000284602F0ABFD70BD70B506460C464CF265
:10551000D07243494648006806F042F80322A1B21F
:10552000002002F0D6FD054685B1A2B231462846DC
:1055300003F031F829463E48006806F026F83C485A
:10554000006806F05DF8284602F088FD70BD70B571
:1055500006460C464CF6B83231493648006806F02B
:105560001FF80322A1B2002002F0B3FD054685B169
:10557000A2B23146284603F00EF829462D480068AD
:1055800006F003F82B48006806F03AF8284602F0C7
:1055900065FD70BD70B506460C464CF6A0722049FC
:1055A0002548006805F0FCFF0322A1B2002002F0AC
:1055B00090FD054685B1A2B23146284602F0EBFFC8
:1055C00029461D48006805F0E0FF1B48006806F00A
:1055D00017F8284602F042FD70BD70B506460C462D
:1055E0004DF618520E491548006805F0D9FF032200
:1055F000A1B2002002F06DFD054685B1A2B2314690
:10560000284602F0C8FF29460C48006805F0BDFF97
:105610000A48006805F0F4FF284602F01FFD70BD3F
:105620001C04002020040020240400202C0400205E
:10563000340400203C040020440400204C040020DA
:1056400001464FF0000209E04FF0000002E000BF09
:1056500000F101001428FADB02F101028A42F3D3BF
:10566000704710B5014601F0F00201F00F034FEA58
:10567000221202EB820403EB4404E0B210BD30B509
:1056800001464FF00A0491FBF4F4E2B24FF00A0431
:1056900091FBF4F504FB1514E3B203EB0214E0B242
:1056A00030BD01464FF00A0011B94FF001000AE089
:1056B0004FF0010205E000EB80034FEA430002F1E6
:1056C00001028A42F7DB704701464FF0100011B922
:1056D0004FF0010008E04FF0010203E04FEA001034
:1056E00002F101028A42F9DB704710B54FF0000366
:1056F00007E000F10100884201DB4FF0000003F1F8
:1057000001039342F5DB10BD00F10100884201DB8B
:105710004FF0000070472DE9F04105460F46164650
:10572000069C4FF00001084638E015F801C0BCF1B6
:10573000000F06D14FF0000800FB04FC06F80C80B7
:1057400030E04FF0000209E015F801C000FB0468EA
:1057500008F802C001F1010102F1010215F801C0CF
:10576000BCF1200F01DDA242EEDB15F801C0BCF157
:10577000200F01DC01F10101A24202D100F1010080
:105780000CE05AB1A4F1010C944507DB4FF0000C7A
:1057900000FB046808F802C000F10100984201DA39
:1057A000B942C2DB00BFBDE8F08170B503460C46CC
:1057B0004FF000010D46084612E05E5CA64205D09F
:1057C00025B95E5C165400F1010007E05E5CA6425C
:1057D00004D14FF00006165405F1010501F1010155
:1057E0005E5C16B1B1F5806FE7DB4FF00006165432
:1057F00070BD70B503460C464FF000010D460846DB
:1058000013E05E5CA64206D0012D04D15E5C165406
:1058100000F1010007E05E5CA64204D14FF00006F3
:10582000165405F1010501F101015E5C16B1B1F5F7
:10583000806FE6DB4FF00006165470BD2DE9F04195
:1058400007464FF0000838460BF059FA0646022E7C
:1058500040DD387830283DD17878782802D07878C3
:10586000582837D14FF0000530E007F10200445DC1
:10587000302C0CDB392C0ADCA4F13004A6F1030136
:10588000A1EB0500FFF720FF04FB00881CE0412C82
:105890000CDB462C0ADCA4F13704A6F10301A1EBD2
:1058A0000500FFF711FF04FB00880DE0612C0BDB06
:1058B000662C09DCA4F15704A6F10301A1EB050055
:1058C000FFF702FF04FB008805F10105B01EA842A6
:1058D000CBDC1AE04FF0000515E07C5D302C0CDBD2
:1058E000392C0ADCA4F13004A6F10101A1EB05007A
:1058F000FFF7D7FE04FB008803E03A480068394907
:10590000086005F10105B542E7DB4046BDE8F081DE
:105910002DE9F0470646894615469A46BAF1000F2A
:1059200026D12846FFF7BDFE99FBF0F100FB119749
:105930004FF0000416E0691E081BFFF7B2FE97FB4C
:10594000F0F000F0FF08A5F10101A1EB0400FFF762
:10595000A8FE97FBF0F100FB117708F130003055FD
:1059600004F10104AC42E6DB4FF00000705527E083
:1059700086F800A0681EFFF794FE99FBF0F100FB8B
:1059800011974FF0010416E0691E081BFFF789FE0E
:1059900097FBF0F000F0FF08A5F10101A1EB040076
:1059A000FFF77FFE97FBF0F100FB117708F1300065
:1059B000305504F10104AC42E6DB4FF000007055B5
:1059C0000020BDE8F08701460A784FEA02624B7872
:1059D00042EA03428B7842EA0322CB7842EA030090
:1059E00070470000B002002010B542F21070FFF7BF
:1059F00027FE4FF05E00F84908704FF045004870F0
:105A00004FF0A20088704FF0A800C8704FF06500FA
:105A100008714FF0640048714FF0C000EF49087002
:105A20004FF0A80048704FF0650088704FF0640098
:105A3000C8704FF0C000EA4908704FF0A8004870E5
:105A40004FF0650088704FF00100C8704FF0FF0004
:105A5000E4490870487088704FF00000C8704FF03B
:105A6000C000E14908704FF0A80048704FF0650091
:105A700088704FF08F00C870FCF7F4FCDB490870A9
:105A800008460078DA490870D7480078D34908708A
:105A9000D54840784870D44880788870D248C0781B
:105AA000D34909780844CD49C8700846C07810B970
:105AB0004FF0FF00C870C9484078C749C870C74850
:105AC00080780871C548C0784871C4480078C949D1
:105AD0000870C24840784870C048807888704FF09D
