:020000040800F2
:10000000F0AC01200D18000815B9000817B9000858
:100010001BB900081FB9000823B900080000000040
:100020000000000000000000000000001F18000891
:1000300027B90008000000002318000829B90008AB
:100040002718000827180008271800082718000894
:100050002718000827180008271800082718000884
:100060002718000827180008271800082718000874
:100070002718000831B900082718000839B9000806
:100080002718000827180008271800082718000854
:100090002718000827180008271800082718000844
:1000A0002718000827180008271800082718000834
:1000B0002718000827180008271800082718000824
:1000C0002718000827180008271800082718000814
:1000D0002718000827180008271800082718000804
:1000E00027180008271800082718000827180008F4
:1000F00027180008271800082718000827180008E4
:1001000027180008271800082718000827180008D3
:1001100027180008271800082718000827180008C3
:1001200027180008271800082718000827180008B3
:1001300027180008271800082718000827180008A3
:100140002718000827180008271800082718000893
:100150002718000827180008271800082718000883
:100160002718000827180008271800082718000873
:100170002718000827180008271800082718000863
:1001800027180008DFF80CD00BF0AAFC0048004745
:10019000D5860008F0AC01203A4940EA01013A4A0C
:1001A0001160704770B54FF000010B464FF00F0221
:1001B000C4786CB3344C246804F4E064C4F5E0649F
:1001C000C4F30721C1F10404E3B242FA01F2447816
:1001D00004FA03F4E1B2847804EA020444EA010177
:1001E0004FEA01744FEA1461284C05786155047890
:1001F00004F01F054FF0010404FA05F405784FEAF6
:1002000065154FF0E02606EB8505C5F800410CE0CA
:10021000047804F01F054FF0010404FA05F41C4DA6
:1002200006784FEA661645F8264070BD194A01EA7D
:10023000020242EA0002184B1A60704731B1174AB5
:10024000126842EA0002154B1A6005E0134A126870
:1002500022EA0002114B1A607047042808D14FF0BF
:10026000E021096941F004014FF0E022116107E04B
:100270004FF0E021096921F004014FF0E022116103
:10028000704700000000FA050CED00E000E400E01B
:1002900080E100E080FFFF1F08ED00E010ED00E0CE
:1002A000016821F0010101604FF00001016041602F
:1002B0008160C16001614FF021014161E2498842E2
:1002C00004D14FF03D01E14A91607EE0DE491831F2
:1002D000884204D14FF47461DC4A916075E0DA49D8
:1002E0003031884204D14FF47411D84A91606CE0E7
:1002F000D5494831884204D14FF07461D34A9160A6
:1003000063E0D1496031884203D1D149CF4AD160FD
:100310005BE0CD497831884203D1CE49CB4AD160E8
:1003200053E0C9499031884203D1CB49C74AD160D3
:100330004BE0C549A831884204D14FF03D51C34A32
:10034000D16042E0C549884204D14FF03D01C44A22
:1003500011603AE0C1491831884204D14FF4746108
:10036000BF4A116031E0BD493031884204D14FF4B9
:100370007411BB4A116028E0B8494831884204D161
:100380004FF07461B64A11601FE0B4496031884291
:1003900003D1AF49B34A116017E0B04978318842C0
:1003A00003D1AC49AF4A11600FE0AC4990318842AB
:1003B00003D1A949AB4A116007E0A849A831884296
:1003C00003D14FF03D51A74A1160704710B54FF06F
:1003D00000020268A44B02EA0302CC680B6843EAFD
:1003E00004034C6943EA04038C6943EA0403CC69BF
:1003F00043EA04030C6A43EA04034C6A43EA040335
:100400008C6A43EA04034C6B43EA04038C6B43EAB3
:10041000040343EA02020260426922F00702D1E9C2
:100420000B3443EA040343EA020242610B6943606E
:100430004B6883608B68C36010BD4FF000010160A2
:1004400041608160C160016141618161C16101629E
:1004500041628162C162016341638163704721B17E
:10046000026842F00102026003E0026822F0010229
:100470000260704721B1026842F40042026003E06A
:10048000026822F400420260704721B1026842F023
:100490002002026003E0026822F02002026070473E
:1004A000416070470146486880B2704722B10368D6
:1004B00043F40023036003E0036823F40023036094
:1004C0000161704721B1026842F48022026003E0BA
:1004D000026822F48022026070470AB1016100E0E4
:1004E000C160704701464FF000000A6812F4002F07
:1004F00002D04FF0010001E04FF0000070470146CC
:100500004FF000000A6812F0010F02D04FF0010016
:1005100001E04FF00000704701464FF000004A69CB
:1005200002F03800704730B503460A464FF000002D
:1005300004464A4DAB4201D2444900E04B4912F017
:10054000005F01D04C6800E00C68494D04EA0504E6
:10055000144202D04FF0010001E04FF0000030BD26
:1005600002463E4B9A4201D2384800E03F4811F023
:10057000005F04D03E4B01EA0303C36003E03C4B41
:1005800001EA03038360704710B511F0800F09D0B2
:1005900022B1436943F08003436103E0436923F0E0
:1005A0008003436180290DD032B1036801F01E043D
:1005B00043EA0403036005E0036801F01E0423EA34
:1005C0000403036010BD70B502464FF000000446FE
:1005D0000546224EB24201D21C4B00E0234B254E71
:1005E000314207D04FF01E0606EAD124166806EA0B
:1005F000040502E0566906F0800511F0005F01D0A5
:100600005C6800E01C681A4E04EA06040C4203D041
:1006100015B14FF0010001E04FF0000070BD02463F
:100620000E4B9A4201D2094800E0104811F0005FD9
:1006300004D00F4B01EA0303C36003E00C4B01EA53
:1006400003038360704700001060024000600240B6
:100650003D000020400F002000003D2010640240BB
:10066000086402400C6402403F801CF000640240B9
:100670007D0F7D0F3C0F3C0F10B50446A14884420E
:1006800008D10121084600F06EFD0021012000F094
:100690006AFD5EE09C48844208D10121022000F0FE
:1006A00062FD0021022000F05EFD52E09748844286
:1006B00008D10121042000F056FD0021042000F0A3
:1006C00052FD46E09248844208D10121082000F002
:1006D0004AFD0021082000F046FD3AE08D488442A2
:1006E00008D10121102000F03EFD0021102000F073
:1006F0003AFD2EE08848844208D10121202000F0F4
:1007000032FD0021202000F02EFD22E083488442AB
:1007100008D10121402000F026FD0021402000F0FA
:1007200022FD16E07E48844208D10121802000F09D
:100730001AFD0021802000F016FD0AE0794884426D
:1007400007D10121801500F00EFD0021A01500F059
:100750000AFD10BDF0B50A464FF000010B460C46ED
:1007600000BF59E04FF0010505FA01F3156805EAED
:1007700003049C424ED105684FEA41074FF003063F
:1007800006FA07F625EA0605056015794FEA4106DF
:1007900005FA06F5066845EA060505601579012D96
:1007A00002D01579022D22D185684FEA41074FF01A
:1007B000030606FA07F625EA0605856055794FEA2D
:1007C000410605FA06F5866845EA0605856045682E
:1007D0004FF0010606FA01F625EA06054560456870
:1007E000967906FA01F6B6B245EA06054560C5688F
:1007F0004FEA41074FF0030606FA07F625EA060519
:10080000C560D5794FEA410605FA06F5C66845EA9E
:100810000605C56001F101011029A3D3F0BD4FF613
:10082000FF7101604FF00001017141718171C1716F
:1008300070474FF4803242EA0102C261C161C26175
:10084000C269C269704702464FF0000013690B424B
:1008500002D04FF0010001E04FF000007047014668
:10086000086980B2704702464FF0000053690B429E
:1008700002D04FF0010001E04FF000007047014648
:10088000486980B2704701837047418370470AB15D
:10089000018300E04183704741617047426982EA09
:1008A000010242617047F0B54FF000031C464FEA69
:1008B00041754FEAD56502FA05F34FEAE10600F10A
:1008C000200555F826504FEA41764FEAD6674FF09B
:1008D0000F0606FA07F625EA06054FEAE10700F1DA
:1008E000200646F827504FEAE10600F1200555F8AA
:1008F000265045EA03044FEAE10600F1200545F8D9
:100900002640F0BD00000240000402400008024002
:10091000000C024000100240001402400018024087
:10092000001C02400020024010B50446FA488442F0
:1009300009D10121480500F078FC00214FF4001096
:1009400000F073FC18E0F548844209D101218805C4
:1009500000F06BFC00214FF4800000F066FC0BE01F
:10096000EF48844208D10121C80500F05EFC002157
:100970004FF4000000F059FC10BD2DE9FF4704467C
:100980000D464FF00006B1464FF00407DFF89483A0
:10099000A6884FF6C07006EA0006684600F005FB20
:1009A000DDF80880E048B8FBF0F01FFA80F946EA6D
:1009B0000906A68020884FF6FE7100EA010020801B
:1009C0004FF00006D949286888420FD828684FEAB6
:1009D0004000B8FBF0F087B2042F01DA4FF00407B3
:1009E00046EA070609F10100208429E0E888A0F51D
:1009F0003F41FF3906D1286800EB4000B8FBF0F01A
:100A000087B209E0286800EBC00101EB0010B8FBD9
:100A1000F0F087B247F480473805000D01D147F068
:100A2000010747F4004040EA06064FF4967009FBC0
:100A300000F04FF47A7190FBF1F000F10100208496
:100A4000A683208840F00100208026884FF6F530EC
:100A500006EA0006A888698940EA010040EA06061D
:100A60002680A889298940EA01002081BDE8FF8706
:100A700041F2883101604FF0000181804BF6FF7137
:100A8000C1804FF00001018141814FF4804181819B
:100A9000704721B1028842F00102028005E002881D
:100AA0004FF6FE7302EA03020280704721B102880A
:100AB00042F48072028005E002884FF6FF6302EA8A
:100AC00003020280704721B1028842F40072028062
:100AD00005E002884FF6FF5302EA030202807047E6
:100AE00012B141F0010101E001F0FE010182704705
:100AF00021B1028842F48062028005E002884FF64C
:100B0000FF3302EA0302028070470A464FF00001F9
:100B100081894FF6017301EA030102F0FE0343EA03
:100B200001018181704721B1828942F001028281F5
:100B300005E082894FF6FE7302EA03028281704764
:100B400021B1028842F04002028005E002884FF69F
:100B5000BF7302EA03020280704721B1028842F4A7
:100B60000042028003E00288C2F30E020280704756
:100B700021B9028842F08002028005E002884FF627
:100B80007F7302EA030202807047B1F5804F06D0FE
:100B9000828B4BF6FF7302EA0302828303E0828BAF
:100BA00042F4804282837047B1F5006F04D102881D
:100BB00042F40062028005E002884FF2FF7302EA0D
:100BC000030202807047B1F5005F04D1028842F44D
:100BD0000052028005E002884DF6FF7302EA03022C
:100BE0000280704721B1028842F01002028005E0C5
:100BF00002884FF6EF7302EA030202807047018217
:100C000070470146088AC0B2704721B1028842F499
:100C10008052028005E002884EF6FF7302EA03026A
:100C200002807047B1F5006F04D1028842F400627F
:100C3000028005E002884FF2FF7302EA030202809D
:100C4000704721B1028842F02002028005E002884C
:100C50004FF6DF7302EA0302028070470146088BF9
:100C60004FEA2020704721B1828842F400628280DE
:100C700005E082884FF2FF7302EA03028280704728
:100C800021B1828842F48052828005E082884EF64B
:100C9000FF7302EA03028280704702464FF00003AE
:100CA00013460B441888704710B522B1838843EA75
:100CB0000103838006E083886FEA0104A4B203EA9B
:100CC0000403838010BD70B502464FF00004254632
:100CD00023461846958A138B4FEA034345EA0306D9
:100CE00026F07F4404EA01068E4202D14FF0010053
:100CF00001E04FF0000070BD10B501464FF000005C
:100D0000034602468B8A0A8B4FEA024243EA0204F8
:100D100024F07F4010BD0000005400400058004007
:100D2000005C004000127A0040420F00A0860100E3
:100D300030B503464FF00000044602461A464FEA1B
:100D4000117421F07F4114B102F1140203E04FEA63
:100D5000114102F1180215680D4202D04FF0010056
:100D600001E04FF0000030BD4FF0000221F07F4263
:100D70006FEA02038382704730B502464FF00000ED
:100D80000346948801F0E06504EA154321F07F41B1
:100D9000948A0C4203D013B14FF0010001E04FF0F0
:100DA000000030BD4FF0000221F07F426FEA0203E5
:100DB00083827047F748006840F00100F5490860F9
:100DC0004FF00000F4490860F2480068F34900EA77
:100DD0000100F0490860F24801F104010860ED48A3
:100DE000006820F48020EB4908604FF00000ED49D6
:100DF000086070474FF00001EB4A1170114608700F
:100E0000704710B501464FF00002134610464FEAF6
:100E10006112012A02D1DF4C236806E0022A02D1C6
:100E2000E24C236801E0E24C236801F01F024FF01E
:100E3000010404FA02F41C4202D04FF0010001E068
:100E40004FF0000010BD70B54FF000042546264657
:100E500000BF3120FFF7D5FF064604F10104B4F5C9
:100E6000A06F01D0002EF4D03120FFF7CAFF10B1DF
:100E70004FF0010501E04FF00005284670BD014626
:100E80004FF00000C34A106820F0F80040EAC100AB
:100E900010607047C749086070474FF00001C34AAF
:100EA00011701170012802D004280AD104E04FF01B
:100EB0000101BE4A117005E04FF00501BB4A1170F7
:100EC00000E000BF00BF7047BB490860704770B5C5
:100ED000049C41EA82154FF00106C6EB530645EA31
:100EE000064545EA000545EA0465B44E356070BD27
:100EF000B049086670474FEA801242EA0172B04B6F
:100F00001A607047AB4988667047AA49C864704741
:100F100002464FF00000A04B186820F0EC6042EA57
:100F2000010343EA00009C4B1860704702464FF0F3
:100F30000000994B186820F0784042EA010343EA28
:100F40000000954B1860704701464FF00000924A30
:100F5000106820F0030040EA0100106070478E48DE
:100F6000006800F00C00704701464FF000008A4A0C
:100F7000106820F0F00040EA010010607047014660
:100F80004FF00000844A106820F4E05040EA01006D
:100F90001060704701464FF000007F4A106820F44F
:100FA000604040EAC10010607047F0B54FF00001AA
:100FB0000A460C464FF002050E464FF00203764FEC
:100FC0003F6807F00C0121B1042905D0082932D16E
:100FD00005E07C4F076031E07B4F07602EE0774FE4
:100FE0003F68C7F38056754F3F6807F03F035EB117
:100FF000754FB7FBF3F7DFF8C4C1DCF800C0CCF3E2
:10100000881C07FB0CF40AE06E4FB7FBF3F7DFF820
:10101000ACC1DCF800C0CCF3881C07FB0CF4674FB4
:101020003F68C7F3014707F101074FEA4705B4FBE3
:10103000F5F7076002E0634F076000BF00BF564F3F
:101040003F6807F0F0014FEA1111604F7A5C0768C2
:1010500027FA02F74760504F3F6807F4E0514FEA24
:1010600091215A4F7A5C476827FA02F787604A4F06
:101070003F6807F460414FEA5131544F7A5C47684A
:1010800027FA02F7C760F0BD4FF0000100F440728C
:10109000B2F5407F0AD1404A116821F4F8114C4A58
:1010A00000EA020242EA01013B4A11603F4A12682B
:1010B000C0F30B0342EA03023C4B1A6070474549F8
:1010C00008607047444908607047444908607047A9
:1010D00031B1434A126842EA0002414B1A6005E00E
:1010E0003F4A126822EA00023D4B1A60704731B154
:1010F0003C4A126842EA00023A4B1A6005E0394A5B
:10110000126822EA0002374B1A60704731B1364A42
:10111000126842EA0002344B1A6005E0324A126853
:1011200022EA0002304B1A60704731B12F4A126830
:1011300042EA00022D4B1A6005E02C4A126822EAAE
:1011400000022A4B1A60704731B1294A126842EAFC
:101150000002274B1A6005E0254A126822EA0002C5
:10116000234B1A60704731B1224A126842EA0002EA
:10117000204B1A6005E01F4A126822EA00021D4B4C
:101180001A607047D1B31C4A126842EA00021A4B37
:101190001A603AE00038024008380240FFFFF6FECD
:1011A000103000240C3802400238024070380240EF
:1011B0007438024000004742800E47420438024023
:1011C000843802400024F40040787D0100000020B3
:1011D000FFFCFF0F3C0E4742400E47425C01474276
:1011E000303802403438024038380240403802403B
:1011F000443802401038024014380240FFE7544A95
:10120000126822EA0002524B1A60704731B1514A0B
:10121000126842EA00024F4B1A6005E04D4A12681C
:1012200022EA00024B4B1A60704731B14A4A1268F9
:1012300042EA0002484B1A6005E0474A126822EA77
:101240000002454B1A60704731B1444A126842EAC5
:101250000002424B1A6005E0404A126822EA00028E
:101260003E4B1A60704731B13D4A126842EA0002B3
:101270003B4B1A6005E03A4A126822EA0002384BFA
:101280001A60704731B1374A126842EA0002354BA2
:101290001A6005E0334A126822EA0002314B1A60F4
:1012A000704731B1304A126842EA00022E4B1A6090
:1012B00005E02D4A126822EA00022B4B1A607047A3
:1012C00031B12A4A126842EA0002284B1A6005E04E
:1012D000264A126822EA0002244B1A60704731B194
:1012E000234A126842EA0002214B1A6005E0204AB4
:1012F000126822EA00021E4B1A60704731B11D4A83
:10130000127842EA00021B4B1A7008E0194A127860
:101310006FEA0003DBB202EA0302164B1A70704751
:101320001548006840F08070134908607047014616
:101330004FF00000114A12680A4202D04FF001003B
:1013400001E04FF0000070470D4908707047000041
:101350001438024018380240203802402438024035
:101360005038024054380240583802406038024039
:10137000643802400D380240743802400C38024094
:101380000E38024010B50446F048844208D10121CD
:101390008014FFF759FF0021A014FFF755FF16E056
:1013A000EB48844208D101210014FFF73EFF0021E1
:1013B0002014FFF73AFF0AE0E648844207D10121F2
:1013C000C013FFF732FF0021E013FFF72EFF10BD1F
:1013D00010B54FF00002028802F441520B884C888D
:1013E00043EA04038C8843EA0403CC8843EA0403F9
:1013F0000C8943EA04034C8943EA04038C8943EAD9
:101400000403CC8943EA040343EA02020280838B8B
:101410004FF2FF7403EA040383830B8A038210BD37
:101420002DE9F0414FF000054FF002034FF00004AA
:101430004FF001074FF000021646B0F81CC04FF203
:1014400040080CEA080CA0F81CC04FF0020CA0F8F1
:1014500020C0858BD1F808C0BCF1020F01D100BFBC
:101460004BE0B1F804C0BCF1000F02D14FF001070E
:1014700001E04FF00207DFF8E0C2DCF800C01CF426
:10148000000F09D1DFF8D0C2DCF800C04CF4000C2A
:10149000DFF8C482C8F800C0B04EB1F806C0BCF591
:1014A000007F0ED14FEA162C0CEB8C0C4FEA4C0C43
:1014B000D1F80880BCFBF8FC0CF1050C1FFA8CF28B
:1014C0000FE04FEA471CB6FBFCFC0CEB8C0C4FEA20
:1014D0004C0CD1F80880BCFBF8FC0CF1050C1FFA91
:1014E0008CF24FF00A0CB2FBFCF202F00104A2EB0A
:1014F000040CCCF34F034FEA0424022B01DBFF2B37
:1015000003DD4FF002034FF00004B1F806C04CEACF
:10151000040C4CEA030CA0F820C0B1F804C0B1F8E8
:101520000C804CEA080CB1F802804CEA080CB1F8C7
:1015300000804CEA080C4CF4006C4CEA05058583ED
:10154000BDE8F0814FF00001018041808180C180C1
:10155000018141818181C1814FF007010182704782
:101560004FF00001018041808180C1804FF0020175
:1015700081604FF000018181704721B1028842F003
:101580004002028005E002884FF6BF7302EA0302C0
:101590000280704721B1828B42F48062828305E031
:1015A000828B4FF6FF3302EA030282837047028880
:1015B0004FF2FF7302EA03020280028842EA01024C
:1015C00002807047B1F5804F04D1028842F4804216
:1015D000028005E002884BF6FF7302EA03020280F4
:1015E0007047A1F57E42FF3A04D0028842F480722F
:1015F000028005E002884FF6FF6302EA03020280E0
:10160000704721B1828842F00402828005E082881E
:101610004FF6FB7302EA03028280704721B1828891
:1016200042F01002828005E082884FF6EF7302EAF2
:101630000302828070470146888970478181704724
:1016400021B1028842F40052028005E002884DF682
:10165000FF7302EA030202807047018841F480515F
:101660000180704702464FF00000012901D0108B25
:1016700000E0908A70470146088A704710B522B191
:10168000838843EA0103838006E083886FEA0104CC
:10169000A4B203EA0403838010BD70B54FF00004C8
:1016A00023464FEA21144FF0010505FA04F5ABB2C9
:1016B00022B1858845EA0305858006E085886FEAC2
:1016C0000306B6B205EA0605858070BD02464FF0F6
:1016D000000013890B4202D04FF0010001E04FF0EF
:1016E000000070476FEA010202817047F0B50246C0
:1016F0004FF0000004460346054601F00F074FF087
:10170000010606FA07F6B4B24FEA21134FF00106BC
:1017100006FA03F6B3B2968806EA0305168926424E
:1017200003D015B14FF0010001E04FF00000F0BD13
:1017300010B54FF0000201F00F044FF0010303FA5F
:1017400004F39AB26FEA0203038110BD0030014036
:1017500000380040003C0040083802400044AC0023
:1017600010B501218803FFF76FFD00214FF4804081
:10177000FFF76AFD10BD20490860704730B54FF093
:1017800000024FEA81734FEA13744FF00F0303FA1C
:1017900004F21A4B4FEAA10453F8243023EA02035F
:1017A000164C4FEAA10544F8253023464FEAA10420
:1017B00053F824304FEA81744FEA147400FA04F4A9
:1017C00043EA04030D4C4FEAA10544F8253030BD2F
:1017D0000B49086070470B49086070474FF00000E4
:1017E0000949096811F4807F02D04FF0010001E03F
:1017F0004FF00000704700000038014008380140F9
:10180000DC00274200042742203801400648804778
:1018100006480047FEE7FEE7FEE7FEE7FEE7FEE7D5
:10182000FEE7FEE7FEE7FEE7DB180008850100089B
:101830004FF000010846674A126842F48032654B57
:101840001A6000BF634A126802F4003001F101011E
:1018500010B9B1F5A06FF5D15E4A126812F4003FDD
:1018600002D04FF0010001E04FF00000012833D119
:10187000594A1268584B1A601A46126842F40042DC
:101880001A601A46126842F4A0521A60534AA3F131
:1018900004031A604F4A126842F080724D4B1A607E
:1018A00000BF4C4A126812F0007FFAD040F2037277
:1018B0004B4B1A60484A126822F00302464B1A60EA
:1018C0001A46126842F002021A6000BF424A1268C9
:1018D00002F00C02082AF9D1704710B53D480068A3
:1018E00040F001003B4908604FF000003A490860B1
:1018F000384800683B4900EA0100364908603A4828
:1019000001F1040108603348006820F48020314967
:1019100008604FF0000035490860FFF789FF4FF07D
:1019200000603349086010BD70B54FF000000246FA
:101930004FF0020304464FF00201274D2D6805F0D9
:101940000C0020B1042806D0082831D107E0294D29
:10195000294E356030E0294D274E35602CE0284D6A
:101960002D68C5F38054264D2D6805F03F014CB11C
:10197000224DB5FBF1F5224E3668C6F3881605FBFD
:1019800006F208E01B4DB5FBF1F51D4E3668C6F3B7
:10199000881605FB06F21A4D2D68C5F3014505F1C1
:1019A00001054FEA4503B2FBF3F5134E356003E042
:1019B000104D114E356000BF00BF074D2D68C5F3B7
:1019C0000315104E705D0C4D2D6825FA00F50A4E7A
:1019D000356070BD0038024008380240193C4005AF
:1019E000003C0240FFFFF6FE103000240C3802409D
:1019F00008ED00E00024F4001000002040787D0194
:101A000004380240140000204FF00001014601E0BC
:101A1000A1F101010029FBD1704710B50121480651
:101A2000FFF7A1FB00214FF00070FFF79CFB10BDFA
:101A30004FF0010101604FF0000141608160C16021
:101A400001614FF4804141614FF000018161C1614A
:101A50004FF4006101624FF0000141628162C16296
:101A6000016341638163C1634FF0400101644FF042
:101A7000200141644FF000018164C164016541654A
:101A80008165C16501664FF0800141664FF000013C
:101A90008166C166016741678167C1674FF08061F8
:101AA000C0F880104FF00071C0F884104FF00001B2
:101AB000C0F888104FF40011C0F88C104FF00001EE
:101AC000C0F89010C0F89410C0F89810C0F89C109E
:101AD000C0F8A0104FF00071C0F8A4104FF480318E
:101AE000C0F8A8104FF48001C0F8AC104FF40051BA
:101AF000C0F8B0104FF00001C0F8B410C0F8B81032
:101B000070472DE9FF4704468A464FF000084546D6
:101B1000A946F74E2F46F748056925F01C0568468B
:101B2000FFF743FA019EF448864205D3F348864204
:101B300002D245F0080511E0F048864205D3EC4892
:101B4000864202D245F00C0508E0E948864203D3FC
:101B5000EB48864200D201E045F00405E548056106
:101B6000E848FFF751FF2068B0B1E748874203D14A
:101B7000002004B0BDE8F0874FF00007E24887423C
:101B800001D10020F5E74FF000074FF4006020621C
:101B90004FF48040606103E06FF07F40FFF734FF57
:101BA000D4480568D94805EA0005D4E9010140EAAE
:101BB0000100E16840EA0100216940EA0100616931
:101BC00040EA0100A16940EA0100E16940EA010040
:101BD000216A40EA0100616A40EA0100A16A40EA24
:101BE0000100E16A40EA0100216B40EA0100616BFB
:101BF00040EA010040EA0505BE480560D4E90E014F
:101C000040EA0100216C40EA0100616C40EA0100F9
:101C1000A16C40EA0100E16C40EA0100216D40EA5C
:101C20000100616D40EA0100B2494860A06D886022
:101C3000E06DC860084685694FF6417005EA000509
:101C4000D4E9181040EA0140A16E40EA0100E16EBB
:101C500040EA0100216F40EA0100616F40EA0100A3
:101C600040EA0505A3488561D4E91E0140EA010068
:101C7000A049C861A6488569A64805EA0005D4E9D7
:101C8000200140EA0100D4F8881040EA0100D4F8AD
:101C90008C1040EA0100D4F8901040EA0100D4F81A
:101CA000941040EA0100D4F8981040EA0100D4F8FA
:101CB0009C1040EA0100D4F8A01040EA010040EA7C
:101CC000050593488561D4E9290140EA0100D4F86B
:101CD000AC1040EA0100D4F8B01040EA0100D4F89A
:101CE000B41040EA8100D4F8B81040EA010040F492
:101CF0000000874908600846006840F080000860DE
:101D00004FF0010035E730B18149896941F00201A6
:101D10007F4A916105E07E49896921F002017C4A90
:101D20009161704730B17A49896941F40051784A2C
:101D3000916105E07649896921F40051744A916105
:101D4000704730B16B49096841F00401694A11607C
:101D500005E06849096821F00401664A116070478E
:101D60006B48806940F4801069498861704730B1E0
:101D70006049096841F008015E4A116005E05D496B
:101D8000096821F008015B4A1160704700B5012025
:101D9000FFF7EDFFFFF7E4FF0120FFF7D2FF01207F
:101DA000FFF7C0FF0120FFF7AEFF00BD4FF00000BE
:101DB0005049896911F0010F02D04FF0010001E094
:101DC0004FF0000070474B48806940F001004949DE
:101DD0008861704730B14749896941F00101454A3E
:101DE000916105E04349896921F00101414A91610E
:101DF000704701464FF000003E4A926B0A4202D003
:101E00004FF0010001E04FF00000704701464FF035
:101E10000000384A926B0A4202D04FF0010001E004
:101E20004FF00000704731B1324AD26B22EA000213
:101E3000304BDA6305E02F4AD26B42EA00022D4BA9
:101E4000DA63704710B50B794C7943EA0422294BC9
:101E500003441A64CB784FEA03638C7843EA044363
:101E60004C7843EA04230C7843EA0402214B0344F0
:101E70005A6410BD02461F4B1344186C4FEA1023DE
:101E80004B7108711B4B1344586C4FEA1063CB70B5
:101E90004FEA10438B704FEA10234B700870704765
:101EA00041B1144A0244126C42F00042114B034407
:101EB0001A6407E00F4A0244126C22F000420D4BF4
:101EC00003441A647047082908D00A4A0244126C75
:101ED00042F08042074B03441A6407E0054A02447B
:101EE000126C22F08042034B03441A6470470000D6
:101EF0000087930300800240002D3101C00E1602BE
:101F000000E1F505FFFF0F00FFFF04000F8120FF38
:101F100000900240233FDEF8FA4A0244126C22F09D
:101F20007C52F84B03441A64F64A0244126C42EAAB
:101F30000102F44B03441A6470471EB54FF00001D0
:101F40000A46009201920292EF4A12681268C2F3A6
:101F50000D42A2F104010091EC4A12689268012A34
:101F600005D9EA4A126812689268019203E0E64ACB
:101F7000126892680192E44A12680292E24A126878
:101F8000D268E14B1A609DE81C0080E81C001EBD71
:101F90001EB54FF00002009201920292114672E0CB
:101FA00001F10101D84A1268126812F4007F15D0BD
:101FB000D54A1268126812F4807F0FD1D24A126893
:101FC000D24B1B681A604FF00102D04B1B689A601D
:101FD000CD4A1268D268CC4B1A6054E0CA4A1268E3
:101FE000126812F4807F13D1C74A1268126812F483
:101FF000007F0DD1C54A1268926802F10102C34BFD
:102000001B689A60C04A1268D268BF4B1A603AE0F7
:10201000BD4A1268BD4B1B685A60BC4A1268926880
:1020200002F10102B94B1B689A60B84A12689268C3
:10203000012A04D1B44A1268B44B1B681A60B24A30
:1020400012681268C2F30D42A2F104020092AF4A74
:1020500012689268012A05D9AC4A1268126892681F
:10206000019203E0A84A126892680192A64A126897
:102070000292A54A1268D268A34B1A609DE81C0020
:1020800080E81C001EBDA04A1268126812F0004FC2
:1020900001D1052984D39DE81C0080E81C0000BF05
:1020A000F0E770B502464FF000031D461C46984805
:1020B0000068006810F0004F01D0002070BD944807
:1020C000016840F2F450824209DD92FBF0F392FB8A
:1020D000F0F600FB162020B103F1010301E04FF000
:1020E0000103012B1AD18A480068006840F0405073
:1020F000874E36683060C2F30C00854E36687060DB
:1021000083480068006840F00040814E36683060C7
:102110007F480068C0687E4E30602CE04FF00004BD
:1021200025E03CB97A480068006840F08050784E5D
:102130003668306040F2F4504860A3F10100A042DC
:102140000ED1086840F000500860A3F10100C0EB18
:10215000C01000EB4000A2EB8005C5F30C00486006
:10216000086840F000400860C96804F101049C421E
:10217000D7D3674801606748406910F0040F06D064
:102180004FF00400634E70614FF00000706001205A
:1021900094E770B50C4613464FF000015A4D286085
:1021A00000BF1BE000EB41124FF00045156044F208
:1021B000F4555560C1EBC11505EB450504EB8505EC
:1021C0009560A3F101058D4205D900EB411505F19C
:1021D0002005D56000E0D06001F101019942E1D312
:1021E0004C4DE8604C4D494E356070BD4648006826
:1021F000006810F0004F15D143480068006810F4E3
:10220000807F0FD0404800684049096848603F48D7
:102210000068806800F101003C49096888604FF05F
:102220000100704738480068006810F0004F20D166
:1022300035480068006810F4007F1AD03248006802
:10224000006810F4807F14D12F4800682F49096876
:1022500008604FF000002D49096848604FF0010008
:102260002A490968886028480068C06826490860CB
:102270001EE025480068006810F0004F18D1224881
:102280000068006810F4007F12D11F4800680068E1
:1022900010F4807F0CD11D480068806800F10100B7
:1022A0001A490968886018480068C06816490860BB
:1022B0000020B6E730B50C4613464FF00001144D30
:1022C000286000BF18E000EB41124FF48015156044
:1022D000C1EBC11505EB450504EB85059560A3F140
:1022E00001058D4205D900EB411505F12005D560AA
:1022F00000E0D06001F101019942E4D3054D28616D
:1023000030BD000000800240280000202C0000208A
:102310002400002000900240E43F002002464FF0DD
:10232000000013680B4202D04FF0010001E04FF0B3
:102330000000704701460868C0F3C3007047016899
:1023400041F000410160704721B1026842F08042D3
:10235000026003E0026822F0804202607047026877
:1023600042EA010202607047026842EA010202602A
:10237000704721B1026822F00062026003E0026847
:1023800042F000620260704721B1026842F480129C
:10239000026003E0026822F480120260704721B1FB
:1023A000026822F08062026003E0026842F080620C
:1023B0000260704710B541EA0244436843EA0403EF
:1023C000436010BD02464FF0000013680B4202D07C
:1023D0004FF0010001E04FF00000704702464FF05F
:1023E000000013690B4202D04FF0010001E04FF0F2
:1023F00000007047016841F00041016070470146EC
:102400000868C0F30D40704721B1426822F00042D5
:10241000426003E0426842F0004242607047024678
:1024200019B15068C0F30C4070475068C0F30C00FD
:10243000FAE700B502464FF00003106810F0004FB5
:102440000BD1106810F4004F07D1106810F4807F92
:1024500003D01046FFF7D3FF0346184600BD30B146
:10246000FD49096841F08001FB4A116005E0FA4925
:10247000096821F08001F84A11607047F648006849
:1024800040F00100F449086070474FF00000F24945
:10249000096811F0010F02D04FF0010001E04FF088
:1024A0000000704701464FF00000EB4A52690A42B3
:1024B00002D04FF0010001E04FF000007047E64904
:1024C0004861704731B1E44AD26942EA0002E24B06
:1024D000DA6105E0E04AD26922EA0002DE4BDA6105
:1024E000704701464FF00000DB4A52690A4202D0B1
:1024F0004FF0010001E04FF000007047D6494861FD
:102500007047D548406900F001007047D2484069E3
:1025100000F0400070474FF00000CF49896911F486
:10252000801F02D04FF0010001E04FF00000704723
:1025300001464FF00000C84A126A0A4202D04FF02A
:10254000010001E04FF000007047C348006AC0F38B
:102550004A407047C048006A80B27047BE48806CED
:102560007047BD48C06C7047BB48006D7047BA48A3
:10257000406D70474FF00000B749486070474FF01A
:102580000000B54988607047B3494862704710B58C
:1025900003460C464FF000010A46B048016901F0BD
:1025A0001C014FF4784000EAC32040EA01014FF4D7
:1025B000F86000EA841040EA010121F0020141F0D4
:1025C0000101A648016100BF02F10102A3480169AF
:1025D00011F0010F02D0A2488242F5D3A0488242F6
:1025E00001D1002010BD9D48406980B2FAE730B5A6
:1025F00003460C4615464FF000010A46974801690C
:1026000001F01C014FF4784000EAC32040EA0101C8
:102610004FF4F86000EA841040EA010141F0020141
:1026200041F001018D484561016100BF02F10102E5
:102630008A48016911F0010F02D089488242F5D31E
:102640008748824201D1002030BD0120FCE770B5EF
:1026500006460D464FF0000421463046FFF797FF2F
:10266000044615B144F4804403E04BF6FF7004EADD
:102670000004224600213046FFF7B9FF08B10120CF
:1026800070BD0020FCE77548C06A40F00040734907
:10269000C862704701464FF0000000BF05E051F8E6
:1026A00020206E4B9A6200F101000828F7D3704792
:1026B00030B16A49C96A41F40071684AD16205E0E3
:1026C0006649C96A21F40071644AD16270470146C3
:1026D0004FF00000614AD26A0A4202D04FF0010076
:1026E00001E04FF00000704730B15C49C96A41F029
:1026F00004015A4AD16205E05849C96A21F004012F
:10270000564AD162704730B15449C96A41F002015A
:10271000524AD16205E05149C96A21F002014F4A8B
:10272000D162704730B14D49C96A41F001014B4A4D
:10273000D16205E04949C96A21F00101474AD162E5
:1027400070474848006840F030004449C1F8000133
:1027500070474448006820F020004049C1F800015B
:102760000846D0F8000140F01000C1F800017047A1
:1027700038B13C49096841F00801384AC2F80011F3
:1027800006E03849096821F00801344AC2F800110E
:10279000704738B13349096841F004012F4AC2F843
:1027A000001106E02F49096821F004012B4AC2F804
:1027B0000011704738B12B49096821F00201274AFE
:1027C000C2F8001106E02749096841F00201234AD6
:1027D000C2F8001170472348006840F001001F490B
:1027E000C1F80001704710F0805F12D020F08050D7
:1027F00039B11D4A126822EA0002184BC3F80C21B5
:1028000017E0194A126842EA0002144BC3F80C217F
:102810000FE039B1154A126822EA00020F4BC3F8E3
:10282000102106E0114A126842EA00020B4BC3F87D
:102830001021704701464FF0000011F0805F1AD060
:10284000084A121D12680A4212D0074A12680A4248
:102850000ED14FF001001CE00090024000800240C9
:10286000FFFF0400008102400C8102401081024001
:102870004FF000000DE0094A12680A4207D0074AEB
:10288000121D12680A4202D14FF0010001E04FF020
:10289000000070470146024808587047088102400E
:1028A0000080024030B500BF00BF00BF00BF00BFC6
:1028B00000BF00BF00BF0388D34C246803EB0401B2
:1028C000884216D00B79A3B9D04B1B68994210D01F
:1028D000CF4B1B688B4201D1CD4B18600B88038016
:1028E000C94B1B68A0EB03030C88C74D2D682C4413
:1028F00063804388C44C246803EB0402824212D0F4
:10290000137983B9C24B1B68834201D1C04B1A6053
:1029100003881380BC4B1B68A2EB03030488BA4DE9
:102920002D682C44638030BD00BF00BFB94921F041
:102930000301B54A1160114608684FF42051018027
:102940004FF00001418001711146096801F52051E5
:10295000AE4A11604FF00101126811714FF420511D
:10296000AA4A12681180A94A126851804FF00101E9
:10297000A94A1170A4490968A54A1160704770B549
:10298000054605B970BD00BF00BF00BF00BF9E482F
:102990000068854203D39D480068854200D3F1E773
:1029A000A5F1080400BF00BF4FF000002071984857
:1029B0000068844201D2964804602046FFF772FF07
:1029C00000BFDFE72DE9F04106460A4602F10300A9
:1029D00020F0030082B20C2A01DA4FF00C02B2F5AB
:1029E000205F02DD0020BDE8F08100BF00BF864807
:1029F0000068864203D385480068864201D330468A
:102A0000F1E7A6F1080480480068A4EB000085B255
:102A10002088A0EB0500A0F1080087B200BF00BF2E
:102A2000BA4201DD0020DEE7BA4201D13046DAE7E2
:102A30002088DFF8D4C1DCF800C000EB0C01087975
:102A400080BB088805F1080C94441FFA8CF3DFF86A
:102A5000C0C1DCF800C08C4508D1DFF8ACC1DCF89F
:102A600000C09C44DFF8A881C8F800C0DFF898C116
:102A7000DCF800C00CEB03014FF0000C81F804C03F
:102A800008804D802380B1F800C0BCF5205F08D0DD
:102A9000B1F800C0DFF87081D8F80080C444ACF809
:102AA000023024E0FFE702F11400B8421FD805F11C
:102AB0000800104483B25448006800EB03015448F6
:102AC0000068814201D2524801604FF00000087155
:102AD000208808804D8023800888B0F5205F06D0CC
:102AE0000888DFF824C1DCF800C060444380304629
:102AF00079E770B502460AB9002070BD02F1030003
:102B000020F0030082B20C2A01DA4FF00C02B2F579
:102B1000205F01DD0020F0E73D4800683A4E36684E
:102B2000A0EB060083B258E03748006800EB0301D1
:102B3000087900284ED10E8803F10800301A90421F
:102B400048D30E8803F10800361A02F114008642B9
:102B50001BD303F10800104485B22B48006800EB3A
:102B600005044FF0000020710888208063800D80EC
:102B70004FF0010008712088B0F5205F08D0208850
:102B8000214E36683044458002E04FF00100087164
:102B90001F480068814214D107E01D480068008882
:102BA000194E366830441A4E306019480068007972
:102BB00028B117480068154E3668B042EDD100BF05
:102BC00000BF00BF00BF00BF00BF00BF00BF01F1DA
:102BD000080092E70C480068C35AC2F5205098429A
:102BE000A2DC002089E770B504460D4604FB05F120
:102BF00088B2FFF77EFF064626B104FB05F130469A
:102C000008F019FF304670BD340000203800002065
:102C10003C000020F33F00204000002010B54FF0A2
:102C2000000002E000F1010398B20928FADB244B0E
:102C300023F003014FF000001CE04FF00003214C93
:102C400044F820301A460DE01E4B53F820300B603C
:102C50001C4B43F820101C4B33F81030194402F180
:102C600001039AB2194B33F810309342ECDC00F1B7
:102C7000010398B20928E0DB10BD024600BF092A13
:102C800001DB0020704700BF0E4850F8221031B120
:102C90000C4B086843F8220000BF00BF00BF084685
:102CA000F0E701B9704700BF00BF0A46054B53F873
:102CB00020301360034B43F8202000BFF2E70000F0
:102CC0002B6800200468002066BD000878BD00085D
:102CD00011B94FF0000200E00A68C260704711B9F4
:102CE0004FF0000200E00A68826070472DE9F04171
:102CF00007460D4628687968884201D1012000E026
:102D0000002020BB724806680CE030687968884271
:102D100007D1D6F80C800121304600F0F2FF46467C
:102D200000E0F668002EF0D16A4804680DE05CB15E
:102D3000206848B120687968884205D115B94FF0FC
:102D4000000000E028682060E468002CEFD115B98D
:102D50004FF0000000E028687860BDE8F0812DE9C0
:102D6000F04106460F4614461D4639463046FFF7E9
:102D7000BDFF21463046FFF7B2FF29463046FFF738
:102D8000A7FFBDE8F0812DE9F04704460D46164641
:102D90001F46DDE909A9DDF820804FF000006060E2
:102DA000A060E06084F82D002062C4F81C804A48CE
:102DB000007884F830004848007800F10100464966
:102DC0000870C4F810903B46324629462046FFF76B
:102DD000C6FF2046D04710B10020BDE8F0873F482D
:102DE000006820603D4804602046F6E73C490860E2
:102DF000704700B5024602B900BD384800689042ED
:102E000003D13649106808600FE03449086806E0CD
:102E10000168914202D11168016002E00068002857
:102E2000F6D100BF00B9E7E700BF2D480068904227
:102E300002D10020FFF7DAFF00BFDDE710B5024640
:102E40000AB9002010BD9078A0F13000C3B2234829
:102E5000016810E091F8300098420BD1107891F899
:102E60002E40A04206D154782F20405C844201D1EC
:102E70000846E7E709680029ECD10020E2E710B531
:102E8000044694F82D0010F0010F0DD114F82D0F09
:102E900040F00100207014F82D0910F0200F03D02D
:102EA000211D204605F062F810BD90F82D1011F09C
:102EB000010F05D090F82D1021F0010180F82D10A0
:102EC0007047014691F82D0000F0010070470000A6
:102ED00094000020900000204400002048000020C2
:102EE0004C0000202DE9F041044624B900BF00BF8A
:102EF0000020BDE8F08100BF00BF4FF0000628E0D1
:102F000000BF00BFE089A0F101001FFA80F8A4F81B
:102F10000E80B8F1000F19D12768257B032D04D14D
:102F200021460820FFF7BDFE0BE0012D01D0022D48
:102F300004D121460720FFF7B4FE02E02046FFF748
:102F40001EFD06F10100C6B23C4601E04FF0000450
:102F500000BF002CD4D13046CBE72DE9F05F83468B
:102F60000F4690464FF00006BBF1000F09D0BBF1B1
:102F7000010F0AD0BBF1020F0BD0BBF1030F0DD133
:102F80000BE006F1140086B200BF06F1140086B211
:102F900000BF06F10E0086B205E004E000BF00BFEE
:102FA0000020BDE8F09F00BFB8F1000F73D0B8F16A
:102FB000010F6DD0B8F1020F6BD0B8F1030F69D1DA
:102FC0000820FFF75AFE04460CB90020E9E784F810
:102FD0000C804FF00000206006F11000204400F14A
:102FE000030020F00300606000BF00BF278106F1EE
:102FF000030020F00300C0F58C60B84201DD3846C4
:1030000005E006F1030020F00300C0F58C6060814C
:1030100000BF00BF00BF00BF4FF00100E081A2462B
:103020006089A7EB00092EE00820FFF726FE054681
:1030300025B92046FFF756FF0020B2E785F80C803F
:103040004FF0000068732860CAF8005000BF00BF4E
:10305000A5F808901FFA89F0B0F58C6F02DA1FFA14
:1030600089F001E04FF48C60688105F11000686020
:1030700000BF00BF00BF00BF4FF00100E8816889BA
:10308000A9EB0009AA46B9F1000FCDDC39E002E056
:1030900022E022E031E006F1130121F00302F91CE5
:1030A00021F00301114488B2FFF723FD04460CB957
:1030B000002076E704F11000304400F1030020F016
:1030C00003006060278167814FF00000206084F872
:1030D0000C8000BF00BF14E000BF0720FFF7CDFD4C
:1030E00004460CB900205CE74FF0000060602781C7
:1030F0006781206084F80C8003E000BF00BF0020DF
:103100004FE700BF4FF00100E0814FF00000607317
:10311000204646E72DE9F04106460F4600BF00BFB6
:1031200000BF00BF3089B84201DCBDE8F0813089C2
:10313000A7EB00083D4634460BE06089A5EB000094
:1031400085B200BF00BF208940442081246800BFB1
:1031500000BF6089A842F0DB207B60B96089A8428B
:1031600009D06068001B284481B22046FFF72AFC82
:10317000044600BF00BF658160892081206810B1CE
:103180002068FFF7AFFE4FF00000206000BFCCE7E3
:1031900070B5024600BF00BF01B10AB9002070BD82
:1031A000002909DAC1F1000084B200BF5089A042B1
:1031B00001DA0120F3E700E08CB2137B55680BB114
:1031C000032B0BD15068A0EB0100506002F11000FE
:1031D0005668864216D255600120E0E7022B01D0E6
:1031E000012B0BD1002907DA5089A04204DB50687B
:1031F000A0EB0100506005E00120D0E700BF00BF58
:103200000120CCE75089084450811089084410817E
:103210004FF00000C3E701464FF0000003E000F16B
:103220000102D0B209680029F9D1704718B1C189EB
:1032300001F10101C181704710B5024600BF02B122
:1032400001B910BD00BF104604E003890C89234476
:10325000038100680368002BF7D100BF00BF00BFE7
:1032600000BF03890C8923440381016000BFE8E7A4
:1032700030B505460C4621462846FFF7DDFF2046BF
:10328000FFF7D4FF30BD70B504464FF00106256846
:1032900085B100BF00BF20896189A0EB01002881B2
:1032A0004FF000002060608920812846FFF71AFE59
:1032B000064600BF00BF00BF002E01DD002070BD2C
:1032C0002846FCE72DE9F04105460C464FF0000684
:1032D000374600BF25B11CB128892189884203DA0D
:1032E0006FF00900BDE8F08100BF00BF00BF00BF64
:1032F0006889801B6189C91B884205DB6089A0EB56
:1033000007001FFA80F804E06889A0EB06001FFAA6
:1033100080F86268D1196A689019424608F072FB19
:1033200006EB080086B207EB080087B200BF00BFBB
:103330006889B04202D14FF000062D6800BF00BF7F
:103340006089B84202DC4FF00007246854B16089FC
:103350002189884206D100BF206810B16FF00800B3
:10336000C0E700BF55B168892989884206D100BFEE
:10337000286810B16FF00800B4E700BF002CB5D189
:103380000020AFE72DE9F05F8046894616461D46CE
:103390004FF0000B00BFB8F1000F02D10020BDE8D4
:1033A000F09F00BF00BFB9F1000F01D10020F6E788
:1033B00000BF4FF0000AB8F1000F02D0B9F1000FC2
:1033C00001D10020EBE7444624E03DB16089A842EA
:1033D00004DC6089A5EB000085B21AE06089A0EBEF
:1033E000050087B2B74200DD37466268511909EB24
:1033F0000A003A4608F006FB0BEB07001FFA80FBB9
:103400000AEB07001FFA80FAA6EB070086B24FF01E
:10341000000524680EB1002CD7D15846BFE72DE92E
:10342000F04704460E469146C8464FF0000A00BFDA
:1034300014B90020BDE8F08700BF00BF0EB900201E
:10344000F8E700BF1CB116B12089484502DA6FF0D9
:103450000900EFE7254615E000BF00BF4746688931
:10346000B84200DA6F8906EB0A013A46686808F04C
:10347000C9FAA8EB07001FFA80F80AEB07001FFA49
:1034800080FA2D68B8F1000FE6D100BF00BF002020
:10349000D0E72DE9F04104460E46206810B92046D9
:1034A000BDE8F081218900223046FFF756FD054630
:1034B0000DB92046F4E721462846FFF703FF0746EB
:1034C00000BF00BF2046FFF70DFD2846E8E70000DB
:1034D0002DE9F04705468A464FF000086F683889A5
:1034E00003F04EFC00F0FF094646644804681AE009
:1034F000207C484515D1606998B107F10C032A4634
:103500002146D4E905C0E04758B14FF000054FF01F
:10351000010836B1E068F06058480068E06057483C
:1035200004602646E468B8F1000F01D1002CDFD119
:103530004046BDE8F087024611B94FF0000000E0B8
:103540000868106000207047024611B94FF0000073
:1035500000E0086850600020704741618261704758
:103560002DE9FE4F04460E4691464FF014013046B9
:10357000FFF70EFE78B1002211460120FFF7EDFCA7
:1035800005461DB94FF0FF30BDE8FE8F3146284695
:10359000FFF76EFE0BE035466FF013012846FFF78C
:1035A000F7FD20B100BF00BF4FF0FF30ECE7484609
:1035B00003F0ACFC070007D1B54202D02846FFF764
:1035C00091FC6FF00300DFE70CB1206810B907F140
:1035D000040800E0A046207CA17ACDE90107009113
:1035E000E37A4A464146284603F079FD8246B542D1
:1035F00002D02846FFF776FC5046C5E770B5044672
:103600000D4604F1040229462046FFF7A9FF70BDCC
:1036100070B5054619480068A84205D117480068EA
:10362000C068164908600CE01448046807E0E068C8
:1036300020B1E068A84201D1E868E060E468002CAD
:10364000F5D129460020FFF72CFB70BD70B505466B
:103650004FF00000FFF711FB044664B11C21204627
:1036600008F0E9F925744FF0FF00E07203480068A4
:10367000E06002480460204670BD00005000002059
:1036800070B504464FF000054CB1606818B1606831
:10369000FFF728FC054621460420FFF702FB2846D9
:1036A00070BD70B504464FF0000506E02668204660
:1036B000FFF7E6FF2844C5B23446002CF6D1284671
:1036C00070BD10B50446207CB8B1207C0A2814D007
:1036D000207C012811D0E06F28B1E06FFFF702FCD9
:1036E0004FF00000E067606FFFF7DBFFA06FFFF7B0
:1036F000D8FF4FF000006067A06710BD2DE9FC47C0
:103700004FF0000AFE48006800F10100FC49086023
:103710005646FC4804683BE100BF00BF00BF00BF45
:1037200000BF00BF4FF00005A846207C022807D14B
:1037300094F84A00062803D105F10100C5B274E0EF
:1037400094F84A000C2803D105F10100C5B26CE0E1
:1037500094F89C00002820DD54F8980F00F1010037
:10376000206020792168A4F19804A0F10100E64AC4
:10377000105C814259D34FF00000C4F8980094F8CF
:103780009C00072805D294F89C0000F1010084F801
:103790009C00204602F064FC47E0B4F936000028A3
:1037A00004DBE08E00F1010000B2E086A06FE0B320
:1037B000B4F93600B4F94810884236DB207C022880
:1037C0000ED034F8460F34F9021C00EBE1002179E9
:1037D000CE4A515C00FA01F000B26080A4F14604C8
:1037E0004FF00000E086B4F85200B4F85C10884254
:1037F00002DAB4F8520001E0B4F85C0081464FEA06
:103800006900A4F85400B4F85400218F884206DA05
:10381000208F4FEA40404FEA1040A4F85400208F18
:10382000A4F85200204602F059FB207C062808D15B
:10383000B349206B0968081A282802D905F101004C
:10384000C5B2208910F0080F37D0207C042802D0A0
:10385000207C072831D1AE49D4F8940008444FF4B5
:10386000FA71B0FBF1F0A64A216B1268511A884236
:1038700007D205F10100C5B208F1010000F0FF0810
:103880001BE094F89D0042F29F425043D4F89410FC
:1038900001EBC0004FF4FA71B0FBF1F0984A216BD4
:1038A0001268511A884208D2204602F0AAFB94F806
:1038B0009D0000F1010084F89D00207C032808D1C0
:1038C0008F49206B0968081A282802D905F10100E0
:1038D000C5B2207C092808D18949206B0968081ADB
:1038E000F02802D905F10100C5B265B32046FFF703
:1038F000E8FE26B100BF00BFE068F06004E000BF52
:1039000000BF8049E068086000BFD4F8900028B18B
:103910006FF00401D4F890206069904700BFB8F1BF
:10392000000F09D0208C218BCDE90010231D2246E9
:10393000616AA06D02F075FAE76821460220FFF780
:10394000B0F93C4624E014F8340F00F10100207077
:1039500020786178A4F13404884217DB4FF000002E
:1039600084F8340000BFD4F88C0030B12146D4F87C
:103970008C2060699047824601E04FF0000A00BF4A
:10398000BAF1000F02D1204602F057F92646E4684A
:10399000002C7FF4C1AE26465E48046825E000BFD7
:1039A00000BF4FF000055649206B0968A1EB0000ED
:1039B000F02802D905F10100C5B2A5B12046FFF7F4
:1039C00080FE26B100BF00BFE068F06004E000BFE9
:1039D00000BF5049E0680860E76821460220FFF711
:1039E00060F93C4601E02646E468002CD7D1BDE8EA
:1039F000FC8770B505460C4600BF2868A04203D17D
:103A00002868C068286017E04349286808600EE00D
:103A100041480068C068A04204D13F49E068096895
:103A2000C86008E03C480068C0683B4908603A4804
:103A300000680028ECD100BF4FF00000E06000BF3C
:103A40002046FFF73EFE207C0A2810D0207C01286B
:103A50000DD094F8220010F0010F08D094F8220045
:103A600040F0020084F82200204602F0E6F8207CB4
:103A7000012803D000BF00BF00BF00BF4FF000000F
:103A8000207400BF00BF70BD70B50546287C0828B3
:103A900075D2DFE800F0044854606A7F7F754FF00C
:103AA000000400BF1D480068A84205D11B480068FB
:103AB000C0681A49086018E018480068164908608C
:103AC0000EE015480068C068A84204D11249E868B1
:103AD0000968C86008E010480068C0680E490860BE
:103AE0000D4800680028ECD100BF4FF00000E860EE
:103AF00000BF29464FF00200FFF7D3F810E00000A6
:103B0000880000209400002097BD00088ABD0008AE
:103B1000B84C0A00980000209C0000208C00002077
:103B20004FF000053AE04FF000042946F948FFF74E
:103B300060FF29460320FFF7B4F825462EE04FF03A
:103B400000042946F448FFF754FF29460220FFF7F6
:103B5000A8F8254622E00121284601F0A1FF0446ED
:103B600014B94FF00500287418E00121284601F02F
:103B700097FF044614B94FF0050028740EE009E0E1
:103B80000121284601F08CFF044614B94FF00900CA
:103B9000287403E04FF00004254600BF00BF1DB1AC
:103BA00014B9284602F049F8204670BD10B5014608
:103BB0000B8D486A00EB0302088F40F2B454CB6AC5
:103BC000A04201DD204600E0088F1844101A04D4FA
:103BD000088D4885C86A101A10BDCB6A486AC01A99
:103BE000002803DD4FF00000488504E04B6AC86AF6
:103BF000A0EB030048850020EEE770B504460E46B2
:103C000000BF00BF208D30442085208D40F66831F4
:103C1000884201DD084620852046FFF7C7FF05469C
:103C200040F2DA2085420ADB00BF94F8220040F01F
:103C3000020084F82200204601F0FFFF00BF70BDA3
:103C40002DE9F04107460D4614461E463CB1218938
:103C50002846FFF7D2FF2046FFF744F905E026B9D2
:103C60002846FFF711FFBDE8F0810020FBE770B5A3
:103C7000A948046832E0E06FC8B100BFD4F88400FE
:103C800040B100232146D4F88460E26F6069B047F8
:103C9000054606E0002321461846E26FFFF7D0FFF5
:103CA000054600BF15B94FF00000E06700BF94F86B
:103CB000220010F0010F10D000BF94F8220040F055
:103CC000020084F82200204601F0B7FF00BF94F8FC
:103CD000220020F0030084F82200E468002CCAD1FE
:103CE00070BD10B5FFF7C3FF8C48007800F10100EC
:103CF000C0B28A49087010F0010F01D0FFF7FEFC36
:103D000010BD2DE9FF5F04460E46207C0A2808D12D
:103D100021468348FFF76DFE21460220FEF7C1FFD2
:103D200037E0A76DD4F8248014B94FF0000000E00C
:103D300020680290201D00D100E060680390B4F874
:103D400018A0B4F82090D4F89050D4F814B02146BC
:103D50007148FFF74EFEA06F10B1A06FFFF7A1FCF6
:103D6000606F10B1606FFFF79CFC21460220FEF7E8
:103D700098FF00BF1DB16FF004015846A84700BF6F
:103D80003EB103AB02AA41463846CDE900A902F094
:103D900048F8BDE8FF9F00BF62480088401C80B221
:103DA000604A1080B0F5004F02DB4FF48050108065
:103DB0005948016806E0088B5A4A1288904200D19F
:103DC000EAE7C9680029F6D15548016806E0088B82
:103DD000544A1288904200D1DEE7C9680029F6D122
:103DE0004C48016806E0088B4E4A1288904200D188
:103DF000D2E7C9680029F6D14A48008870472DE902
:103E0000F04107460D46164600BF387C18B16FF0EA
:103E10000C00BDE8F08100BF16B9FFF7BCFF0646F5
:103E20003C48046810E0208BB0420CD144B12068BB
:103E300030B12DB1286818B120682968884202D1B4
:103E40006FF00A00E5E7E468002CECD13248046822
:103E500010E0208BB0420CD144B1206830B12DB1BC
:103E6000286818B120682968884202D16FF00A00DA
:103E7000CFE7E468002CECD12B48046810E0208BDD
:103E8000B0420CD144B1206830B12DB1286818B1CE
:103E900020682968884202D16FF00A00B9E7E46817
:103EA000002CECD11E4804680AE0208BB04206D1F9
:103EB00020682968884202D16FF00A00A9E7E46807
:103EC000002CF2D11DB1286808B1286838603E8303
:103ED00000BF15480068F8601348076000BF002065
:103EE00097E703466FF00400704770B504460E462E
:103EF00000BF207C08B1002070BD00BF207C0128DD
:103F000001D12046F8E70320FEF7B7FE05466DB95C
:103F10000020F1E79000002094000020A000002085
:103F200098000020800000208C00002060696861FB
:103F3000208B28834FF0010028742089288128894C
:103F400040F002002881E07AE872A07AA87214B9E1
:103F50004FF0000000E02068286000BFD6480068ED
:103F6000A04205D1D4480068C068D349086018E071
:103F7000D1480068D14908600EE0D0480068C068A8
:103F8000A04204D1CD49E0680968C86008E0CB4888
:103F90000068C068C9490860C84800680028ECD1BA
:103FA00000BF4FF00000E06000BF21464FF002006C
:103FB000FEF777FEC248E86100BFC2480068E860CB
:103FC000C048056000BF284696E72DE9F041054648
:103FD0000E46304602F09AFF04465CB1A08C48B110
:103FE000A08CA0F1280087B2BD4201DA284600E08B
:103FF000384605462846BDE8F081B3480068B34915
:1040000009680844B04908600846006870472DE90F
:10401000FC4704460E469046994600BF207C18B1E6
:104020006FF00C00BDE8FC8700BF16B1306860601F
:1040300002E06FF00800F5E7A4F82080208B10B9AB
:10404000FFF7A9FE2083FFF7D8FF05464FF00000D9
:104050006062A565A5F10100E064A06640F66830E5
:1040600020856085606AE06240F66830A4F85C00F4
:104070004FF406702087208F3146FFF7A6FF208778
:104080004FF00100A4F85200208F00EB80004FEAAF
:1040900040404FEA1040A4F854004FF00200207452
:1040A000C4F8889000BF84480068A04205D18248C7
:1040B0000068C0688049086018E07F4800687F4950
:1040C00008600EE07D480068C068A04204D17B49CA
:1040D000E0680968C86008E078480068C068774907
:1040E0000860764800680028ECD100BF4FF000005F
:1040F000E06000BF00BF76480068E060744804607C
:1041000000BF4FF001004FF000014FF002030A46DC
:10411000CDE90010204601F0BAFA074617B920464B
:1041200001F08BFD38467DE7417470472DE9F04181
:1041300006464FF07F084FF000073D46644804688C
:1041400014E0607CB04210DC607C40450DDC5F49CF
:10415000206B0968081AB84207D35C49206B0968CC
:10416000A1EB0007254694F81180E468002CE8D103
:104170001DB101212846FFF7C4FDBDE8F08170B5EF
:104180004FF000063546534804680CE04F49206B59
:104190000968081AB04205D34C49206B0968A1EBA5
:1041A00000062546E468002CF0D11DB10121284607
:1041B000FFF7A7FD70BD70B506464FF00200FEF791
:1041C0005CFD04467CB9FFF7DAFF0220FEF755FDDF
:1041D00004463CB93046FFF7A9FF0220FEF74DFD2B
:1041E000044600BF00BF002C47D0A021204607F0A6
:1041F00022FC4FF0400004F1180404F8070C40F6CC
:104200006830A4F856004FF00000A4F8580040F6BB
:104210006830208260824FF0000004F80E0C4FF0EE
:10422000FF0004F80D0C4FF4067020844FF00600D8
:1042300020864FF00000A0854FF00600E0854FF08B
:10424000FF30E0834FF001006087FFF7D6FE0546A0
:10425000E5642564656325651C480068A0614FF02E
:1042600000002077AFF22760E0661B48E0674FF060
:10427000000084F88500A4F11804204670BD10B534
:104280004020FFF798FF10BD41617047C0F88410CF
:104290007047C0F880107047C0F890107047C16137
:1042A0007047C0F88C1080F83520704701460B48E5
:1042B00050F82100704700008C0000209C00002076
:1042C000E33E0008900000208400002088000020C9
:1042D000940000209800002000DD6D0054000020B4
:1042E0002DE9FC5F04464FF000000190FC48007887
:1042F00010F0100F77D0B4F85C00616E00EB01098C
:10430000F849206E0968401A15D4F649206E0968EC
:10431000884204D1F449606E0968401A0BD4F2490E
:10432000606E096888421DD1F0480068C089B4F801
:104330005C10884216DDED480068C089A4F85C0076
:10434000E84800682066E84800686066B4F85C00E9
:10435000002807DD94F89C00002803DD4FF00000E2
:1043600084F89C00E049E06C0968081A002848DCE1
:104370004FF00000A4F86C00DD48008890BBB4F852
:104380005C10606E0844484535D1B4F93600002809
:1043900031DBD549E06C096888422CD14FF001002F
:1043A000019094F8500000F1010094F850108842F8
:1043B00005DD94F8500000F1010084F8500094F8F5
:1043C0005000032810DDB4F85200218F084480B259
:1043D000B4F8521088420EDDB4F85200218F084420
:1043E000A4F8520007E04CE194F85000032802D1F1
:1043F000204601F0BDFD0198002801D184F850004D
:10440000BCE0E06C00F10100B7490968081A7DD4EE
:10441000B549A06D0968081A002877DC94F82200D5
:1044200010F0040F08D014F8220F20F004002070C0
:10443000608E2086A4F122044FF0000004F13404C1
:10444000A075608AB4F9101000EBE10000B2A08200
:10445000A549A0690968A1EB00002087608F218F22
:10446000084460874FF0000020779F480068A061F3
:1044700014F8240CA4F13404042825DBB4F8520009
:10448000B4F8541088420FDAB4F85200218F08446F
:1044900080B2B4F85210884216DDB4F85200218F71
:1044A0000844A4F852000FE034F8381F4943628BE7
:1044B00091FBF2F1114488B2618BA4F1380481427E
:1044C00001DAA4F8520000BF2AE0A56FA06F0068CF
:1044D000A06700BF6868FEF79EFE00BFB4F86C00DE
:1044E00060B12969888902F04BFC10F0010F05D0FA
:1044F000B4F86C00A0F10100A4F86C006868FEF745
:104500008AFE34F8701FA1EB000000E032E020804A
:104510002846FFF7B5F834F8700908B100BF00BFAE
:10452000A06FC8B1A16F0969486802F02FFC8346EB
:10453000A16F0969888902F023FC10F0030F01D0F4
:10454000012000E00020A16F898908445844664991
:104550000968401A0028B8DDA06F18B94FF0FF3085
:10456000E08602E04FF00000E0864FF0000084F8A3
:10457000340003E04FF00000A4F86C0028E0656F01
:10458000606F0068606700BF6868FEF744FE00BFA8
:10459000B4F86C0060B12969888902F0F1FB10F071
:1045A000010F05D0B4F86C00A0F10100A4F86C0074
:1045B0006868FEF730FE34F8701FA1EB0000208021
:1045C0002846FFF75DF834F8700908B100BF00BF56
:1045D000606FF0B1616F0969486802F0D7FB8346EC
:1045E000616F0969888902F0CBFB10F0030F01D0DD
:1045F000012000E00020616F8989084458443A494D
:104600000968081A05D43849A06D0968081A0028F5
:10461000B5DDE06BA8B33449206C0968401A30D589
:104620003449E06B0968A1EB00000FFA80F8B4F997
:104630004400A8EBE0000FFA80F8B4F844004044CE
:1046400000B2A4F84400B8F1000F03DAC8F100008A
:104650000FFA80F804F13C04B4F90A00A8EBA000BA
:104660000FFA80F86089404400B260816089B4F933
:10467000081000EBE10000B2A0814FF0000044F808
:104680003C091B48008800287EDD1648616A0068E6
:1046900000F10100081A63D41248616A0068144AE4
:1046A00012881044401E081A002859DC0D49606A1F
:1046B0000968A0EB01071048466800BF00BF00BFB3
:1046C00000BF40684089B8422CDA00BF00BF0A48EA
:1046D00040680089A0EB07001FFA80FA17E000008D
:1046E000B4000020AC000020B0000020A400002096
:1046F000B6000020880000204CD000207089A7EB75
:104700000007A6F808A04FF0000070813668708995
:10471000B842F3DB784201B23046FEF739FD50B1C2
:1047200000BF08E0FE494868794209B2FEF730FD53
:1047300008B100BF00BFFA497068886008468189E7
:10474000F84A606A1268A0EB0200A1EB0000F4498D
:104750008881F449606A0860F149096948600FE09E
:10476000F049606A0968081A0AD500BF94F8220067
:1047700040F0020084F82200204601F05EFA00BFFB
:10478000E849606A096800E0C1E0081A7DD4218D1B
:10479000606A0844401EE3490968081A002874DC6E
:1047A000E049606A0968884270D1DD4909698889F1
:1047B00002F0E6FA10F0030F02D04FF0010001E022
:1047C0004FF00000D64989890844D7490880208DD8
:1047D0000988884249DAD2490969888902F0D0FA01
:1047E00010F0010F18D04FF6C07002F0C1FACC499A
:1047F0000969898900EA010BC9490969888902F0B8
:10480000BFFA00F03E00009002F0B2FA4BEA000B53
:10481000C3480069A0F80CB0208DC149888109699E
:10482000888902F0ADFA10F0020F05D0BC488089EB
:10483000A0F10100BA498881B94A91895068FEF710
:1048400069FCB7490969888902F09AFA10F0030FE8
:1048500002D04FF0010001E04FF00000B04989891B
:104860000844B149088000BF00BFAE480068AE49A7
:1048700009880844606200BF00BF208DAA490988EA
:10488000A0EB01002085204601E03CE037E0FFF787
:104890008DF9A34840680089002807DDA0484068DA
:1048A000A24908604FF000009D4948609C49096991
:1048B000888902F065FA10F0010F05D09C48007855
:1048C00040F020009A49087000BF94F8220010F0D0
:1048D000010F0DD014F8220F20F001002070207875
:1048E00040F0020004F82209204601F0A6F905E094
:1048F00094F8220040F0010084F8220020E02046D5
:1049000001F002F91CE0204601F0FEF818E08549AC
:10491000606A0968081A08D4218D606A0844401E3C
:1049200080490968081A00280ADD00BF94F82200AF
:1049300040F0020084F82200204601F07EF900BF1A
:10494000BDE8FC9F2DE9F04780467A48006800F1F9
:10495000140578490968888902F012FA0521B1EB3B
:10496000203F4DDA73490968888902F009FA4FF04F
:104970000501C1EB20304FEA80404FEA10464FF06E
:1049800000043BE015F80490B9F1000F06D0B9F12E
:10499000010F05D0B9F1020F25D105E0BDE8F08780
:1049A00004F1010084B228E0601C285C042802D1D4
:1049B000201DB04200DDF1E704F10300295C04F1A1
:1049C0000200285C41EA002740F2B450874200DC34
:1049D00017B940F2B45000E03846A8F8380004F1A6
:1049E000040084B209E0601C285C00B9D6E704F139
:1049F0000100285C204484B200BF00BFB442C1DB88
:104A000000BFCBE72DE9FC4104464FF00007B84654
:104A10004948007810F0040F2ED0207C022807D1DE
:104A20004649A06D0968884211D14FF001070EE098
:104A30003C49606A0968081A09D4218D606A0844F3
:104A400038490968081A002801DC4FF001078FB1C6
:104A500000BF00BF3648007840F0080034490870B5
:104A600094F8220020F0010084F822006FF0050085
:104A7000BDE8FC810020FBE72F48007810F0020F12
:104A800012D0207C02280FD0207C03280CD000BF3D
:104A900094F8220040F0020084F82200204601F041
:104AA000CCF800BF0020E3E72548006820634FF002
:104AB000000084F89D002046FFF744FF207C801E04
:104AC000082874D2DFE800F004B3FAF9F8F7F6F535
:104AD0001948007810F0100F6AD01748007810F0CD
:104AE000020F65D0A16F0969486802F04FF9401CB8
:104AF0001249096888427ED1B4F86E0000F10100C5
:104B0000A4F86E000748006800F101006062606A66
:104B1000E0620A480068E06406480068C08911E065
:104B20004CD00020AC000020B6000020BC000020CB
:104B3000B8000020A4000020B4000020B000002035
:104B400088000020A4F85C00F9480068A0F101008A
:104B500020664FF004002074208F04F10401FFF759
:104B600034FA2087208F00EB80004FEA40404FEA64
:104B70001040A4F85400B4F85200012803D1208F4B
:104B80004FEA400000E0208FA4F8520000BF00BFB1
:104B9000B4F87000A0F10100A4F87000A56F2868B7
:104BA000A067A06F28B94FF0FF30E08606E000E272
:104BB00021E04FF00000E08684F84A002846FEF726
:104BC0005FFD00BFD4F8880038B100222146D4F838
:104BD000883060699847804601E04FF0000800BFC8
:104BE00000BF94F8220040F0020084F82200204622
:104BF00001F023F81AE0CF48007810F0100F15D01C
:104C0000CD4800680088CC4909684988CDE9001082
:104C1000C7480068C94A12888118C94803680C331C
:104C200002681032C748006801F0FBF8C2E1C148D1
:104C3000007810F0100F71D0E06C00F10100C14954
:104C40000968081A52D4BF49A06D0968081A0028DB
:104C50004CDC4FF00400207400BF00BF00BFE069CF
:104C600030B100222146E36960699847804601E03F
:104C70004FF0000800BFB8F1000F06D00121204618
:104C8000FFF73FF86FF00400F2E6B4F852602046F8
:104C9000FFF726FBB4F86C0028B1B4F86C00A0F163
:104CA0000100A4F86C00012E09D1208F4FEA4000CA
:104CB00006E06AE111E140E0C6E056E03EE0208F08
:104CC000A4F85200A048007810F0200F0DD000BFCB
:104CD00094F8220040F0020084F82200204600F000
:104CE000ACFF00BF4FF00700207425E09248006839
:104CF0000088914909684988CDE900108C4800680E
:104D00008E4A128881188E4803680C33026810326C
:104D10008C48006801F085F80EE0FFE785480078D0
:104D200010F0020F08D0606A401E8149096888426D
:104D300002D1204601F0F2F83CE100BF2046FFF727
:104D4000CFFA8148007810F0200F0DD000BF94F802
:104D5000220040F0020084F82200204600F06DFF9F
:104D600000BF4FF00700207424E12046FFF7B8FA97
:104D70007548007810F0200F58D06E48007810F079
:104D8000100F44D06F49A06D096888423FD100BF21
:104D900094F8220040F0020084F82200204600F03F
:104DA0004CFF00BF2046FEF78CFC00BF6748006840
:104DB000A04205D165480068C0686449086018E0F1
:104DC00062480068624908600EE061480068C06897
:104DD000A04204D15E49E0680968C86008E05C4808
:104DE0000068C0685A490860594800680028ECD13A
:104DF00000BF4FF00000E06000BF4FF00A002074D9
:104E000000BF54480068E060524804601BE000BFE7
:104E100094F8220040F0020084F82200204600F0BE
:104E20000CFF00BF4FF0080020740CE041480078F0
:104E300010F0100F07D04349A06D0968884202D1D5
:104E40004FF006002074B5E02046FFF749FA3E48CF
:104E5000007810F0200F3FD000BF94F8220040F0FF
:104E6000020084F82200204600F0E7FE00BF204642
:104E7000FEF727FC00BF35480068A04205D1334843
:104E80000068C0683149086018E03048006830495F
:104E900008600EE02E480068C068A04204D12C498A
:104EA000E0680968C86008E029480068C0682849C7
:104EB0000860274800680028ECD100BF4FF00000D0
:104EC000E06000BF4FF00A00207400BF2148006876
:104ED000E0602048046000BF6CE02046FFF700FA65
:104EE0001448007810F0100F4ED01649A06D0968D4
:104EF000884249D12046FEF7E4FB00BF1348006812
:104F0000A04205D111480068C068104908602DE032
:104F10000E4800680E49086023E00D480068C0682C
:104F2000A04219D10A49E0680968C8601DE0000084
:104F3000AC000020B4000020A4000020B600002037
:104F4000A8000020B0000020B8000020940000203D
:104F50009C00002098000020FD480068C068FC49C3
:104F60000860FB4800680028D7D100BF4FF0000060
:104F7000E06000BF4FF00A00207400BFF5480068F1
:104F8000E060F448046000BF14E02046FFF7A8F991
:104F9000F148007810F0100F0AD0F049A06D0968B0
:104FA000884205D1EE48007840F01000EC490870C6
:104FB00000E000BF00BF00205AE57CB50546E6488A
:104FC000007810F0100F17D0E64800680088E54917
:104FD00009684988CDE90010E3480068E34A12886F
:104FE0008118E34803680C3302681032DB4800681C
:104FF000401C00F016FF6AE0D748007810F0020F5E
:1050000065D0687CFFF7D7F8044614B94FF0FF303D
:105010007CBDD7480068103000D102E0D448006859
:1050200000692060288B2083D14800680C3000D1B3
:1050300002E0CF480068C0686060CA480068008825
:1050400020844FF003002074C748006800F101007D
:105050006062606AE062C3480068C089A4F85C00CE
:10506000B4F85C00A4F85400BF480068A0F1010047
:10507000206668696061E869E061288940F29911F9
:1050800000EA0100208100BFBA480068E060B9482A
:10509000046000BF2046FFF755FC208F211DFEF75E
:1050A00094FF20870120002112230A46CDE9001039
:1050B000204600F0ECFA06462EB100212046FEF70D
:1050C00020FE3046A4E7204600F0B7FDA0E7002010
:1050D0009EE71CB50446A048007810F0040F01D0EC
:1050E00000201CBD9C48007810F0020F24D09E497F
:1050F000606A0968081A27D4218D606A08449A49B1
:105100000968081A00281FDC96480068008895493D
:1051100009684988CDE9001093480068934A1288CD
:105120008118934803680C33026810328B4800687A
:1051300000F077FE0020D4E78748007810F0010FD8
:1051400002D08D480068206388480088002809DD67
:1051500094F8220040F0020084F82200204600F07B
:105160006CFDBEE70020BCE72DE9FC5F06468A46E1
:105170007F49706808600968088801F001FEC0F383
:105180000320716801EB800076490860784909685E
:10519000088801F0F5FDC0F303208000C0F1000B8A
:1051A00059463046FDF7F4FF10B93089142804D26F
:1051B0003046FDF797FEBDE8FC9F51466C480068FD
:1051C000103002F02FF870B94FF0704001F0DEFDA2
:1051D00067490968096900EA010B4FF0604001F076
:1051E000D5FD834503D13046FDF77CFEE3E75D49FD
:1051F0000968888901F0C4FD4FEA20394FEA890027
:10520000C0F100013046FDF7C3FF18B13046FDF78D
:1052100069FED0E753490968088801F0B1FD51499A
:10522000096808804F490968488801F0A9FD4D497F
:10523000096848804B490968486801F0A7FD494959
:10524000096848604849086046490968886801F06B
:105250009DFD4449096888604049086041490968E2
:10526000C88901F08DFD3F490968C8813D49096839
:10527000888901F085FD00F03F00374908703089CA
:10528000097811F0030F02D04FF0010101E04FF057
:1052900000010844354908804FF00007354804688C
:1052A0002CE000BF00BF00BF00BF00BF00BF208CCC
:1052B0002C490968098888421ED1208B2949096830
:1052C0004988884218D12A4960680968C9688842B3
:1052D00012D1274920680968096988420CD100BFAA
:1052E00000BF37B1E068F86022480068E0602148FC
:1052F000046000BF00BF03E02746E468002CD0D163
:1053000000BF002C63D11348046838E000BF00BF21
:10531000208C14490968098888422FD1208B1149B3
:1053200009684988884229D1114960680968C968B3
:10533000884223D10E4920680968096988421DD135
:105340002046FFF7C6FE3046FDF7CCFD33E70000F0
:105350009C00002098000020B4000020B000002035
:10536000B8000020A4000020AC000020B6000020FF
:10537000A80000209400002088000020E468002C91
:10538000C4D12746924805681FE03DB1286828B17E
:105390009049286809680969884214D1288B8E4988
:1053A0000968498888420ED137B1E868F8608848B2
:1053B0000068E860864805602846FFF7FEFD304635
:1053C000FDF790FDF7E62F46ED68002DDDD1002CAE
:1053D00077D04FF00000814908603089888170687B
:1053E0008860084646607C48006808614FF000000D
:1053F0007B4908607B490870E06FF8B100BFD4F8C2
:10540000840040B100232146D4F884C0E26F606973
:10541000E047804606E0002321461846E26FFEF78B
:105420000FFC804600BFB8F1000F03D14FF0000021
:10543000E06703E03046FDF755FDBCE66A480460CE
:105440002046FFF7DFFA804618F1050017D06548BF
:10545000007810F0080F13D000BFD4F8900028B1E6
:105460006FF00501D4F890206069904700BF214695
:105470005E48FEF7BEFA21460220FDF712FC72E0FC
:105480005848007810F0100F08D021465748FEF712
:10549000B0FA21460220FDF704FC64E04FF000085A
:1054A000B4F86C00002810DD00BFD4F8800048B1CB
:1054B000B4F86C202146D4F8803060699847804663
:1054C00002E060E04FF0000800BF4548006848B3C4
:1054D0004748007810F0080F07D041480068407B2B
:1054E00040F001003E490968487300BFD4F88400C9
:1054F00048B100233A49D4F884C060690A6821465B
:10550000E047804607E000233548214602681846F8
:10551000FEF796FB804600BFB8F1000F02D030487E
:105520000068E0672F48007810F0200F14D000BF0B
:10553000D4F8840040B100231A462146D4F884C030
:105540006069E047804606E000231A462146184677
:10555000FEF776FB804600BF4FF00000224908604E
:10556000204600F06AFB4FF000001F4908601B480E
:10557000406848B319494868FDF7B4FC4FF0000093
:105580001649486020E014490968888901F0F8FB51
:1055900010F0040F15D11048006800880E49096802
:1055A0004988CDE9001013480068134A1288811811
:1055B000084803680C33026810321048006800F095
:1055C00030FC3046FDF78EFC00BF00BF00BFF2E5A7
:1055D00090000020A8000020A40000204CD0002053
:1055E000BC000020B8000020C00000209400002073
:1055F000B4000020AC000020B6000020B000002065
:105600002DE9F04705460F46164698467C68288BDC
:1056100001F0AEFB2080288C01F0AAFB6080C4F86A
:105620000480686A01F094FAA0604FF6C07001F03F
:105630009FFBA18900EA0109102001F099FB49EACA
:105640000009A4F80C90688D01F092FBE0814FF006
:1056500000006082A08901F093FB00F03F01B14699
:10566000F01706EB90708010401D41EA00301FFAE1
:1056700080FA504601F07CFBA0814FF000002082B0
:10568000698D686A0844E8622046BDE8F0872DE924
:10569000FF4F87B005469A4600BF099848B915984C
:1056A00038B91AF0030F04D16FF009000BB0BDE850
:1056B000F08F00BF00BF099820B9089810B16FF0B3
:1056C0000900F3E700BFB5F86E100998814208DAC7
:1056D00095F8220040F0800085F822004FF0FF305E
:1056E000E4E70998049008980290159810F0010FCB
:1056F00001D0042100E00021159810F0020F02D023
:105700004FF00C0001E04FF0000001EB0009A86E23
:105710000590B5F87080B8F1040F03DA4FF6FC700D
:10572000804508DD95F8220040F0800085F82200D1
:105730004FF0FF30BAE7B8F1000F01D000BF01E031
:1057400000BF00BF4FF000042746264620460390C6
:10575000CCE0288FA0EB09010498814203DA288F5E
:10576000A0EB090000E0049880B203904FF0040021
:10577000FDF783FA044604B980E14FF00000206091
:1057800060600FB9274602E000BF00BF34602646C4
:10579000149810F0010F1FD00398484481B20022E2
:1057A0001046FDF7DAFB606000B967E100BF00BF9B
:1057B0006068FDF730FD40441FFA80F8089838B162
:1057C0006168496801EB0900DDE9021206F01AF987
:1057D00060684068A0602EE0002249461046FDF750
:1057E000BCFB606000B949E16068FDF714FD40440E
:1057F0001FFA80F8049800281DDD01220320039978
:10580000FDF7ABFB069030B96068FDF76BFB4FF01E
:105810000000606032E108F101001FFA80F806998B
:10582000029848600298A06060680699FDF704FD40
:105830004FF000000690B8F1040F03DC4FF6FC7047
:10584000804500DD1AE10398A08114216068FDF70E
:105850009FFC00B112E1606840682061288B01F074
:1058600087FA21690880288C01F082FA2169488032
:10587000059801F06DF9216948604FF00000216939
:1058800048824FF6C07001F073FA2169898900EAF5
:10589000010B504601F06CFA4BEA000B2069A0F8AE
:1058A0000CB01598A0732169888901F069FA00F09D
:1058B0003F01CB464FEAE97009EB90708010401D24
:1058C00041EA003080B2019001F052FA21698881EA
:1058D000DDE90310A0EB010080B204900399059864
:1058E00008440590DDE9020108440290002F3FF4CE
:1058F00030AF049800283FF72CAF686F10B94FF015
:10590000000605E06E6F00E0366830680028FBD1C5
:10591000002E74D03169888901F032FA10F0030F3B
:1059200001D0012000E00020B189401867D0316922
:10593000888901F025FA10F0030F60D11AF0030FE7
:1059400002D0BAF1010F5AD1B089B9890844298F20
:10595000884254DCB07BB97B884250D131694868B9
:1059600001F014FAB18900EB010B3969486801F0C4
:105970000DFA834543D109F1140251427868FDF7CD
:1059800007FC10B100BF00BF78E07868408980B99B
:10599000D7F804B07868006878604FF00000CBF862
:1059A0000000A8F101001FFA80F85846FDF79AFAA6
:1059B00000BF1AF0010F0BD000BF00BF012001F0A3
:1059C000D7F93169898940EA0100316988810BE0A2
:1059D00000BF00BF79687068FDF72EFCB089B989F7
:1059E0000844B08138683060BC4202D13446B08986
:1059F000039039460420FDF754F904E0FFE70EB99F
:105A00006F6700E037601AF0020F02D11AF0010F41
:105A100004D0099800F1010080B209901AF0010F3A
:105A200005D095F8220040F0200085F8220055F8B6
:105A3000681F099808442860E9880998A1EB0000CC
:105A4000E880A5F808802889A5F1680508B100BF9D
:105A500000BF8CB1039800280EDD206960B1149856
:105A600010F0020F08D1082001F082F9216989891C
:105A700040EA010021698881002017E695F822009C
:105A800040F0800085F8220017B13846FDF709FE86
:105A9000B5F8700008B100BF00BF4FF0FF3005E659
:105AA0007CB505460C464FF000004FF0010123463F
:105AB0000246CDE9001001462846FFF7E8FD7CBD0F
:105AC0002DE9FC4104460F4615461E46207C04285D
:105AD00008D0207C072805D0207C022802D0207C1A
