:020000040800F2
:10000000686D01205198000891230008932300088F
:10001000972300089B2300089F230008000000008E
:1000200000000000000000000000000063980008CD
:10003000A32300080000000067980008A52300081B
:100040006B9800086B9800086B9800086B98000884
:100050006B9800086B9800086B9800086B98000874
:100060006B9800086B9800086B9800086B98000864
:100070006B980008AD2300086B980008B5230008B2
:100080006B9800086B9800086B9800086B98000844
:100090006B9800086B9800086B9800086B98000834
:1000A0006B9800086B9800086B9800086B98000824
:1000B0006B9800086B9800086B9800086B98000814
:1000C0006B9800086B9800086B9800086B98000804
:1000D0006B9800086B9800086B9800086B980008F4
:1000E0006B9800086B9800086B9800086B980008E4
:1000F0006B9800086B9800086B9800086B980008D4
:100100006B9800086B9800086B9800086B980008C3
:100110006B9800086B9800086B9800086B980008B3
:100120006B9800086B9800086B9800086B980008A3
:100130006B9800086B9800086B9800086B98000893
:100140006B9800086B9800086B9800086B98000883
:100150006B9800086B9800086B9800086B98000873
:100160006B9800086B9800086B9800086B98000863
:100170006B9800086B9800086B9800086B98000853
:100180006B980008DFF80CD010F038FC00480047EE
:1001900099010008686D01204FF47A7001F0ACF904
:1001A0004FF47A7001F0A8F900F0E4FC4FF47A7093
:1001B00001F0A2F900F0ECFC4FF47A7001F09CF928
:1001C00001F008F801F022F801F066F94CF2503025
:1001D00001F092F94CF2503001F08EF901F05CF927
:1001E0004CF2503001F088F94CF2503001F084F9B3
:1001F00001F052F902F0E2F842F2107001F07CF9DD
:1002000000F0EEFF01F009F801F046F94B4801F06B
:1002100073F900F0DFFF00F0F9FF01F03DF942F261
:10022000107001F069F900F09FF805F009FC01F089
:1002300029FB4FF47A7001F05FF907F0F2F94FF4FF
:100240007A7001F059F903F0BCFE4FF47A7001F0B6
:1002500053F901F021F942F2107001F04DF942F228
:10026000107001F049F942F2107001F045F905F003
:1002700050FC01F011F942F2107001F03DF93048E4
:1002800000783049087057E000F004F902F033FBC1
:1002900001F0ACFB04F010F82B480068012805DBE6
:1002A0004FF000002849086002F0FAF8274800687B
:1002B000022805DB4FF002002449086002F0FAF83A
:1002C00023480068052805DB4FF00000204908603E
:1002D00002F0F1F81F4800680A2805DB4FF0000023
:1002E0001C49086002F0EDF81B480068142805DB83
:1002F0004FF000001849086002F0FBF8174800684A
:10030000322805DB4FF000001449086002F0F5F8D0
:1003100013480068642805DB4FF0000010490860AE
:1003200002F0FDF80F480068C82805DB4FF0000018
:100330000C49086002F0F7F8A6E70000A08601006B
:10034000DC020020D10200204403002048030020EA
:100350004C030020500300205403002058030020C9
:100360005C0300206003002010B54FF00400F84942
:1003700008704FF00000F74908704FF00F00F64981
:1003800008704FF01D00F54908704FF00100F44966
:1003900008604FF00B00F34908704FF00100F2497C
:1003A0000870F249088000F0AFFFF1490870084674
:1003B0000078ED49087006F0DBF906F0F1FA06F076
:1003C00019FE10F091FB10BD10B542F2107001F053
:1003D00093F803F094FC01F085F842F2107001F0FC
:1003E0008BF802F07CFA01F07DF842F2107001F017
:1003F00083F802F04DF842F2107001F07DF810BD64
:1004000010B505F047FC10BD10B5DA480068DA49B0
:100410000968884202DD00F037FF01E000F03BFF91
:10042000D4484068D4490968884202DD00F03AFFA8
:1004300001E000F03DFFCF488068CF49096888425D
:1004400002DD00F03BFF01E000F03EFFC948C0685C
:10045000C9490968884202DD00F03CFF01E000F074
:100460003FFFC4480069C4490968884202DD00F0C2
:100470003DFF01E000F041FFBF48006800F10100CE
:10048000BD490860084600680A2802DB4FF00000FA
:10049000086010BD10B5B948006801280ED1B848F1
:1004A0000068A0F10100B64908600846006803F042
:1004B0004DFD4FF00000B149086011E0AF48006801
:1004C00002280DD1AE48006800F10100AC49086077
:1004D0000846006803F03AFD4FF00000A7490860A5
:1004E000FFF792FF10BD10B500F0FCFF10BDA5484E
:1004F000006830B9A448007820F00300A2490870D1
:1005000029E0A048006801280BD19F48007820F01E
:1005100003009D4908700846007840F0010008700B
:1005200019E09848006802280BD19748007820F01D
:100530000300954908700846007840F002000870F2
:1005400009E090480068032805D18F48007820F022
:1005500003008D4908708D48006830B98A480078DA
:1005600020F00C00884908701EE0884800680228C6
:100570000BD18548007820F00C00834908700846AC
:10058000007840F0040008700EE080480068012800
:100590000AD17D48007820F00C007B49087008469D
:1005A000007840F0080008707948006830B9764853
:1005B000007820F010007449087005E07248007857
:1005C00040F01000704908707248006830B96E48F9
:1005D000007820F020006C49087005E06A48007837
:1005E00040F02000684908706B48006830B96648E0
:1005F000007820F0C000644908702EE0664800686A
:1006000001280BD16048007820F0C0005E490870D6
:100610000846007840F0400008701EE05E48006820
:1006200002280BD15848007820F0C00056490870C5
:100630000846007840F0800008700EE056480068D8
:1006400003280AD15048007820F0C0004E490870B5
:100650000846007840F0C0000870704710B500F000
:10066000FFFE002808DD00F009FF002804DD4FF040
:1006700000004949086021E000F0F2FE40B900F0B6
:10068000FDFE002804DD4FF001004349086015E03D
:1006900000F0E6FE002807DD00F0F0FE20B94FF084
:1006A00002003D49086009E000F0DAFE30B900F0D0
:1006B000E5FE18B94FF003003749086010BD10B5CA
:1006C00000F0A3FE002804DD4FF000003049086070
:1006D00003E04FF001002E49086000F0A4FE00285E
:1006E00004DD4FF000002B49086003E04FF00100EB
:1006F0002849086010BD2DE9F04100F04CFE074686
:1007000000F058FE054600F071FE064657B915B9CF
:100710004FF0010410E016B94FF002040CE04FF066
:10072000030409E015B94FF0040405E016B94FF0D1
:10073000040401E04FF000042046BDE8F0810D4ABA
:1007400042F82010704701460A4850F821007047CF
:10075000F1020020F2020020F3020020F402002047
:10076000D4020020D0020020D1020020D2020020BA
:10077000DC020020BC060020CC0200209C040020EB
:1007800008040020E0020020F00200203C040020C9
:10079000E4020020E8020020EC02002000B5EE4850
:1007A0000068A0B90A210020FFF7C9FF002101203D
:1007B000FFF7C5FF00210220FFF7C1FF0021032042
:1007C000FFF7BDFF00210420FFF7B9FF87E0E248F3
:1007D0000068002818DDE0480068032814DC0021C8
:1007E0000846FFF7ACFF0A210120FFF7A8FF002110
:1007F0000220FFF7A4FF00210320FFF7A0FF002144
:100800000420FFF79CFF6AE0D3480068032818DD46
:10081000D1480068062814DC00210846FFF78FFF46
:1008200000210120FFF78BFF0A210220FFF787FF3D
:1008300000210320FFF783FF00210420FFF77FFF43
:100840004DE0C5480068062818DDC348006809283F
:1008500014DC00210846FFF772FF00210120FFF79A
:100860006EFF00210220FFF76AFF0A210320FFF735
:1008700066FF00210420FFF762FF30E0B648006801
:10088000092818DDB44800680C2814DC002108464B
:10089000FFF755FF00210120FFF751FF0021022043
:1008A000FFF74DFF00210320FFF749FF0A21042035
:1008B000FFF745FF13E000210846FFF740FF002146
:1008C0000120FFF73CFF00210220FFF738FF002145
:1008D0000320FFF734FF00210420FFF730FF9F487B
:1008E000006848BB0020FFF72EFF18B90121002047
:1008F000FFF725FF0120FFF726FF18B9002101208F
:10090000FFF71DFF0220FFF71EFF18B9002102208C
:10091000FFF715FF0320FFF716FF18B9002103208A
:10092000FFF70DFF0420FFF70EFF002803D1002181
:100930000420FFF704FFC4E08848006800282DDD8C
:1009400086480068032829DC0020FFF7FCFE18B960
:1009500000210846FFF7F3FE0120FFF7F4FE18B967
:1009600001210846FFF7EBFE0220FFF7ECFE18B965
:1009700000210220FFF7E3FE0320FFF7E4FE18B991
:1009800000210320FFF7DBFE0420FFF7DCFE002838
:10099000D1D100210420FFF7D2FE92E06F48006819
:1009A00003282DDD6D480068062829DC0020FFF7AC
:1009B000CAFE18B900210846FFF7C1FE0120FFF763
:1009C000C2FE18B900210120FFF7B9FE0220FFF78F
:1009D000BAFE18B901210220FFF7B1FE0320FFF78C
:1009E000B2FE18B900210320FFF7A9FE0420FFF78B
:1009F000AAFE002865D100210420FFF7A0FE60E0D8
:100A00005648006806282CDD54480068092828DC70
:100A10000020FFF798FE18B900210846FFF78FFE67
:100A20000120FFF790FE18B900210120FFF787FE93
:100A30000220FFF788FE18B900210220FFF77FFE91
:100A40000320FFF780FE18B901210320FFF777FE8E
:100A50000420FFF778FEA0BB00210420FFF76FFE03
:100A60002FE03E48006809282BDD3C4800680C2830
:100A700027DC0020FFF767FE18B900210846FFF7C2
:100A80005EFE0120FFF75FFE18B900210120FFF78D
:100A900056FE0220FFF757FE18B900210220FFF78B
:100AA0004EFE0320FFF74FFE18B900210320FFF789
:100AB00046FE0420FFF747FE18B901210420FFF786
:100AC0003EFE00BD10B500F0E7FC2548006800F1CF
:100AD00001002349086008460068142806D14FF039
:100AE000010020490860FFF78BFC08E01C48006803
:100AF000B0F57A7F03DD4FF47A7019490860FFF78B
:100B00004DFEFFF7F8FD18490860FFF7D8FDFFF725
:100B1000A5FDFFF7ECFC10BD704710B50446402C56
:100B200002DD4FF0FF3010BD10490C7004F08CFF57
:100B300005F079F80020F6E710B50446B4F5803FDB
:100B400002DD4FF0FF3010BD09490C8004F07CFF3E
:100B500005F059F80020F6E70804002060040020A2
:100B6000D4020020D8020020E0020020D1020020A0
:100B7000D202002010B501217F2007F0FFFF0121E4
:100B8000880308F037F80121880508F024F810BD23
:100B90001CB54FF0040000904FF001008DF80400E8
:100BA0004FF000008DF806004FF003008DF80500AF
:100BB0004FF000008DF807006946FE4807F020FB63
:100BC0004FF4806000904FF001008DF804004FF06A
:100BD00000008DF806004FF003008DF805004FF07F
:100BE00000008DF807006946F34807F009FB04226E
:100BF0000121F04807F0ADFB04220021ED4807F089
:100C0000A8FB4FF0020000908DF804008DF805005D
:100C10004FF001008DF806004FF000008DF807003E
:100C20006946E44807F0ECFA4FF00100009069468D
:100C3000E04807F0E5FA4FF4007000904FF0020032
:100C40008DF804008DF805004FF000008DF80600C7
:100C50008DF807006946D94807F0D2FA0522092124
:100C6000D64807F076FB4FF0400000904FF00200AE
:100C70008DF804008DF805004FF000008DF8060097
:100C80008DF807006946CD4807F0BAFA052206211B
:100C9000CA4807F05EFB4FF4805000904FF002000E
:100CA0008DF804008DF805004FF000008DF8060067
:100CB0008DF807006946C24807F0A2FA05220C2108
:100CC000BF4807F046FB4FF4005000904FF0020081
:100CD0008DF804008DF805004FF000008DF8060037
:100CE0008DF807006946B64807F08AFA05220D21FB
:100CF000B34807F02EFB4FF4004000904FF0020085
:100D00008DF804008DF805004FF000008DF8060006
:100D10008DF807006946AA4807F072FA05220F21EC
:100D2000A74807F016FB4FF0800000904FF002003C
:100D30008DF804008DF805004FF000008DF80600D6
:100D40008DF8070069469D4807F05AFA06220721E8
:100D50009A4807F0FEFA4FF0100000904FF00200A2
:100D60008DF804008DF805004FF000008DF80600A6
:100D70008DF807006946934807F042FA06220421DD
:100D8000904807F0E6FA4FF4806000904FF00200C0
:100D90008DF804008DF805004FF000008DF8060076
:100DA0008DF807006946854807F02AFA06220A21CD
:100DB000824807F0CEFA4FF4805000904FF00200C6
:100DC0008DF804008DF805004FF000008DF8060046
:100DD0008DF807006946794807F012FA06220C21BF
:100DE000764807F0B6FA4FF4005000904FF001003B
:100DF0008DF804004FF000008DF806004FF003005E
:100E00008DF805004FF000008DF8070069466A482C
:100E100007F0F6F94FF4804000904FF001008DF894
:100E200004004FF000008DF806004FF003008DF82D
:100E300005004FF000008DF8070069465E4807F096
:100E4000DFF94FF4004000904FF001008DF80400EE
:100E50004FF000008DF806004FF003008DF80500FC
:100E60004FF000008DF807006946534807F0C8F9B5
:100E70004FF4004000904FF001008DF804004FF057
:100E800000008DF806004FF003008DF805004FF0CC
:100E900000008DF807006946464807F0B1F94FF0A9
:100EA000010000908DF804004FF000008DF806005E
:100EB0004FF003008DF805004FF000008DF807009B
:100EC0006946414807F09CF94FF0020000904FF04E
:100ED00001008DF804004FF000008DF806004FF07F
:100EE00003008DF805004FF000008DF807006946FB
:100EF000354807F085F94FF0800000904FF0010071
:100F00008DF804004FF000008DF806004FF003004C
:100F10008DF805004FF000008DF80700694626485F
:100F200007F06EF94FF4807000904FF001008DF8DB
:100F300004004FF000008DF806004FF003008DF81C
:100F400005004FF000008DF8070069461A4807F0C9
:100F500057F94FF4006000904FF000008DF8040046
:100F60004FF003008DF805004FF001008DF80700E9
:100F70006946124807F044F94FF0020000904FF024
:100F800000008DF804004FF003008DF805004FF0CD
:100F900001008DF8070069460C4807F031F94FF061
:100FA000010000904FF000008DF804004FF00300A6
:100FB0000EE0000000140240001002400008024051
:100FC000000402400000024000180240000C0240F1
:100FD0008DF805004FF001008DF807006946FB48C9
:100FE00007F00EF94FF0040000904FF000008DF86C
:100FF00004004FF003008DF805004FF001008DF85C
:1010000007006946F14807F0FBF84FF400600090D4
:101010004FF000008DF804004FF003008DF805003C
:101020004FF001008DF807006946E94807F0E8F83D
:101030004FF4007000904FF000008DF804004FF066
:1010400003008DF805004FF001008DF80700694698
:10105000DF4807F0D5F84FF4006000904FF0000033
:101060008DF804004FF003008DF805004FF00100EB
:101070008DF807006946D74807F0C2F84FF4805052
:1010800000904FF000008DF804004FF003008DF841
:1010900005004FF001008DF807006946CD4807F0C4
:1010A000AFF84FF4005000904FF000008DF80400AE
:1010B0004FF003008DF805004FF001008DF8070098
:1010C0006946C44807F09CF84FF0100000904FF0BC
:1010D00000008DF804004FF003008DF805004FF07C
:1010E00001008DF807006946B84807F089F84FF00D
:1010F000080000904FF000008DF804004FF003004E
:101100008DF805004FF001008DF807006946AF48E3
:1011100007F076F84FF4804000904FF000008DF813
:1011200004004FF003008DF805004FF001008DF82A
:1011300007006946A74807F063F84FF020000090C9
:101140004FF000008DF804004FF003008DF805000B
:101150004FF001008DF8070069469F4807F050F8EE
:101160004FF0080000904FF000008DF804004FF0A1
:1011700003008DF805004FF001008DF80700694667
:10118000954807F03DF84FF0040000904FF0010043
:101190008DF804004FF000008DF806004FF00300BA
:1011A0008DF805004FF000008DF80700694688486B
:1011B00007F026F81CBD704710B50421854807F0DC
:1011C000A8F8C0F10100C4B222460421814807F00A
:1011D000B4F810BD10B504217E4807F0ACF810BD7E
:1011E00010B504217B4807F0A4F810BD10B54FF4EA
:1011F0008061774807F08DF8C0F10100C4B2224643
:101200004FF48061724807F098F810BD10B54FF4A4
:1012100080616F4807F08FF810BD10B54FF4806102
:101220006B4807F086F810BD10B50446002C05DDAC
:101230004FF40051664807F07CF804E04FF4005189
:10124000634807F078F810BD10B50446002C05DDA2
:101250004FF480415E4807F06CF804E04FF48041A1
:101260005B4807F068F810BD10B50446002C05DD9A
:101270004FF40041564807F05CF804E04FF4004199
:10128000534807F058F810BD10B54FF400415148CD
:1012900007F051F810BD10B54FF400414D4807F06C
:1012A00048F810BD10B501214C4807F044F810BDB6
:1012B00010B50121494807F03CF810BD10B50221D6
:1012C000464807F038F810BD10B50221434807F032
:1012D00030F810BD10B580213D4807F02CF810BD46
:1012E00010B580213A4807F024F810BD10B54FF42E
:1012F0008071374807F01FF810BD10B54FF48071AA
:10130000334807F016F810BD70B54FF000054FF4E4
:101310000061334806F0EDFF044605EB0400C5B25A
:101320004FF00201294806F0E4FF044605EB4400B3
:10133000C5B24FF00101254806F0DBFF044605EB7E
:101340008400C5B24FF00401204806F0D2FF0446E5
:1013500005EBC400C5B2284670BD70B54FF40061FE
:101360001B4806F0C6FF054615B94FF0000401E022
:101370004FF00104204670BD70B54FF40071144861
:1013800006F0B7FF054615B94FF0000401E04FF035
:101390000104204670BD70B54FF400610D4806F0A1
:1013A000A8FF054615B94FF0000401E04FF0010415
:1013B000204670BD70B54FF48051064806F099FF85
:1013C00005467DB94FF000040EE00000000C02401D
:1013D00000100240001402400000024000180240C9
:1013E000000802404FF00104204670BD70B54FF474
:1013F00000513D4806F07DFF054615B94FF0000449
:1014000001E04FF00104204670BD70B5102137484F
:1014100006F06FFF054615B94FF0000401E04FF0EC
:101420000104204670BD70B50821304806F061FF08
:10143000054615B94FF0000401E04FF001042046C5
:1014400070BD70B54FF48041274806F052FF054645
:1014500015B94FF0000401E04FF00104204670BDC3
:1014600070B52021224806F044FF054615B94FF01B
:10147000000401E04FF00104204670BD70B5082162
:101480001B4806F036FF054615B94FF0000401E091
:101490004FF00104204670BD10B50421154806F038
:1014A00038FFC0F10100C4B222460421114806F001
:1014B00044FF10BD10B57E2007F0F9F908B107F020
:1014C00085FC08F07BF90121C80207F084FB4FF48A
:1014D000C07008F07EF9502008F086F97F2008F0EF
:1014E0009AF910BD7047000000140240000C024041
:1014F000000002400010024001464FF0000209E0E7
:101500004FF0000002E000BF00F101001428FADBF8
:1015100002F101028A42F3D3704710B5014601F08F
:10152000F00201F00F034FEA221202EB820403EBF8
:101530004404E0B210BD30B501464FF00A0491FBFF
:10154000F4F4E2B24FF00A0491FBF4F504FB151435
:10155000E3B203EB0214E0B230BD01464FF00A00E3
:1015600011B94FF001000AE04FF0010205E000EB75
:1015700080034FEA430002F101028A42F7DB704721
:1015800001464FF0100011B94FF0010008E04FF094
:10159000010203E04FEA001002F101028A42F9DB86
:1015A000704710B54FF0000307E000F101008842DA
:1015B00001DB4FF0000003F101039342F5DB10BDA6
:1015C00000F10100884201DB4FF0000070472DE977
:1015D000F04104460F461646069D4FF000010846AE
:1015E0002AE014F801C0BCF1000F06D14FF000084A
:1015F00000FB05FC06F80C8022E04FF0000209E039
:1016000014F801C000FB056808F802C001F10101EF
:1016100002F1010214F801C0BCF1200F01DDAA4261
:10162000EEDB3AB14FF0000C00FB056808F802C091
:1016300000F1010001F10101984201DAB942D0DB69
:1016400000BFBDE8F08170B503460C464FF00001C5
:101650000D46084612E05E5CA64205D025B95E5CE8
:10166000165400F1010007E05E5CA64204D14FF081
:101670000006165405F1010501F101015E5C16B189
:10168000B1F5806FE7DB4FF00006165470BD70B502
:1016900003460C464FF000010D46084613E05E5C21
:1016A000A64206D0012D04D15E5C165400F1010063
:1016B00007E05E5CA64204D14FF00006165405F127
:1016C000010501F101015E5C16B1B1F5806FE6DB49
:1016D0004FF00006165470BD2DE9F04107464FF05B
:1016E000000838460EF007FF0646022E40DD387827
:1016F00030283DD17878782802D07878582837D1AA
:101700004FF0000530E007F10200445D302C0CDBA7
:10171000392C0ADCA4F13004A6F10301A1EB050089
:10172000FFF72EFF04FB00881CE0412C0CDB462C4D
:101730000ADCA4F13704A6F10301A1EB0500FFF7D1
:101740001FFF04FB00880DE0612C0BDB662C09DC1D
:10175000A4F15704A6F10301A1EB0500FFF710FF68
:1017600004FB008805F10105B01EA842CBDC1AE09D
:101770004FF0000515E07C5D302C0CDB392C0ADCC9
:10178000A4F13004A6F10101A1EB0500FFF7E5FE8D
:1017900004FB008803E03A4800683949086005F115
:1017A0000105B542E7DB4046BDE8F0812DE9F04791
:1017B0000646894615469A46BAF1000F26D12846B4
:1017C000FFF7CBFE99FBF0F100FB11974FF00004FF
:1017D00016E0691E081BFFF7C0FE97FBF0F000F053
:1017E000FF08A5F10101A1EB0400FFF7B6FE97FB8E
:1017F000F0F100FB117708F13000305504F10104DD
:10180000AC42E6DB4FF00000705527E086F800A000
:10181000681EFFF7A2FE99FBF0F100FB11974FF055
:10182000010416E0691E081BFFF797FE97FBF0F016
:1018300000F0FF08A5F10101A1EB0400FFF78DFE08
:1018400097FBF0F100FB117708F13000305504F1FF
:101850000104AC42E6DB4FF0000070550020BDE80B
:10186000F08701460A784FEA02624B7842EA034267
:101870008B7842EA0322CB7842EA030070470000EB
:10188000C802002010B542F21070FFF735FE4FF08D
:101890005E00FD4908704FF0450048704FF0A2000F
:1018A00088704FF0A800C8704FF0650008714FF0C5
:1018B000640048714FF0C000F44908704FF0A80070
:1018C00048704FF0650088704FF06400C8704FF0AA
:1018D000C000EF4908704FF0A80048704FF0650055
:1018E00088704FF00100C8704FF0FF00E9490870A0
:1018F000487088704FF00000C8704FF0C000E64993
:1019000008704FF0A80048704FF0650088704FF0E5
:101910008F00C870FFF7F8FCE049087008460078AF
:10192000DF490870DC480078D8490870DA48407808
:101930004870D94880788870D748C078D8490978E5
:101940000844D249C8700846C07810B94FF0FF006B
:10195000C870CE484078CC49C870CC4880780871AF
:10196000CA48C0784871C9480078CE490870C7484D
:1019700040784870C548807888704FF0FF00C87084
:10198000C948CA4908604FF00100C949086042F2DD
:101990001070FFF7B1FD00F0E8FC42F21070FFF7A5
:1019A000ABFD00BF00F01CFF42F21070FFF7A4FD7A
:1019B00003F076F903F052FF002010BD10B5BD48CA
:1019C0000068012810D1BC48BC490268B7480068CB
:1019D00003F077FAB9480168B448006801F0A2F84A
:1019E0004FF00000B3490860002010BD10B5FFF7AC
:1019F000E5FF10BD70471CB5B1480068002803DD45
:101A0000AF480089C4B201E04FF0FF04AD4801784F
:101A1000AD480068C0B2CDE90001AC480378224669
:101A2000A649A248006803F0E9F9A44801689F4864
:101A3000006801F00EF800201CBD10B5FFF7DBFFB9
:101A400010BD02464FEA116010704FEA114050700D
:101A50004FEA11209070D1704FF00000704701469E
:101A60000A784FEA02624B7842EA03428B7842EAF4
:101A70000322CB7842EA030070472DE9F041044687
:101A80000D4616461F46802C03DA4FF0FF30BDE8A6
:101A9000F081F72D02DD4FF0FF30F8E7FF2E02DD79
:101AA0004FF0FF30F3E7FF2F02DD4FF0FF30EEE79E
:101AB0007648047045708670C7707748047045702A
:101AC0008670C7704FF47A70FFF716FD03F0BCFF05
:101AD0004FF47A70FFF710FD03F0BBFF4FF47A70FC
:101AE000FFF70AFD4FF47A70FFF706FD7848FFF71D
:101AF00003FD7748FFF700FD0020C8E730B5014639
:101B00004FEA1162C1F30743C1F30724CDB2802A23
:101B100002DA4FF0FF3030BDF72A02DD4FF0FF3020
:101B2000F9E7FF2B02DD4FF0FF30F4E7FF2C02DD79
:101B30004FF0FF30EFE7FF2D02DD4FF0FF30EAE717
:101B40005248027043708470C5700020E3E72DE9AD
:101B5000F041A2B05F48076807F1090898F8020051
:101B60005D490978884204D04FF0FF3022B0BDE8CB
:101B7000F0815848006803F0FCF8044655480068B6
:101B8000B0F81350E1784FEA0162A17842EA0142CD
:101B9000617842EA0121227841EA02000CF0FAFF62
:101BA0002190A5F10406324604F1040101A80EF0CB
:101BB0007DFC01A9219805F07EFD0020D6E770B5D7
:101BC0000546002D02DA4FF0020401E04FF0010457
:101BD00022463A493548006803F082FA37480168DE
:101BE0003248006800F035FF002070BD2DE9F0415B
:101BF0003848006803F0BDF8044625786678284820
:101C00000078854207D1012E05D105F004FA074678
:101C10003846FFF7D4FF0020BDE8F0812DE9F84FEA
:101C200004464FEA1467C4F30748C4F30729E5B232
:101C3000802F03DA4FF0FF30BDE8F88FB8F1F70FCF
:101C400002DD4FF0FF30F7E7B9F1FF0F02DD4FF093
:101C5000FF30F1E75A2D02DD4FF0FF30ECE70B4883
:101C600090F800A090F801B0807800901A480078B1
:101C70000B2833D10548C07809490978A0EB010049
:101C8000A0F18E00C6B244E0F8020020FE0200205F
:101C9000020300200603002028030020DC020020AD
:101CA000D10200202C030020D006002018030020C1
:101CB00020030020200400201C0400201C0300201E
:101CC000447C0020F102002008040020F0020020E3
:101CD000A086010010030020D0020020FE480078FA
:101CE000022809D1FD48C078FD490978A0EB010020
:101CF000A0F10200C6B20CE0F7480078082808D12D
:101D0000F648C078F6490978A0EB0100A0F15C0024
:101D1000C6B2574508D1D84506D10098814503D1B0
:101D2000B54201D1012087E7EE48077080F80180B5
:101D300080F80290E84800780B2804D105F18E0065
:101D4000E849C87010E0E4480078022804D105F1A1
:101D50000200E449C87007E0DF480078082803D192
:101D600005F15C00DF49C87003F06EFE002063E7F8
:101D700070B5DD48066806F10904A078012807D18E
:101D8000E078012805D165682846FFF747FF00E0A5
:101D900000BF002070BD10B5D1480378CE4802784E
:101DA000D2480168D048006802F0E8FF0446642C7D
:101DB00002DA204602F0CAF8002010BD70B50546D0
:101DC0000E46C9480560C9480660C748006802F069
:101DD00086FF10B14FF0FF3070BDC348006802F0BD
:101DE000BEFF0446012C0BD0022C06D0A4F50C50EB
:101DF000113808D010280CD108E0FFF7CCFF09E01B
:101E0000FFF7B6FF06E0FFF7F1FE03E0FFF79FFEE6
:101E100000E000BF00BF0020DEE710B5B449B548C0
:101E2000006803F08CF9B2480168B248006800F01D
:101E300010FE002010BD2DE9F743C2B00D46144638
:101E400042F221360DF58479D9F80080414601A887
:101E5000FFF7F7FD9DF804008DF808009DF80500D8
:101E60008DF809009DF806008DF80A009DF807001E
:101E70008DF80B00621C294603A80EF017FB04F135
:101E8000050702AB32469A499A480097006803F06A
:101E9000A9F9974801689748006800F0DAFD00202A
:101EA00045B0BDE8F0832DE9F04780460F468E48E7
:101EB000C0F800808D480760B7F5806F03DA4FF0F7
:101EC000FF30BDE8F0878848006802F008FF10B1D5
:101ED0004FF0FF30F5E78448006802F040FF81468C
:101EE0008148006802F033FF06467F48006802F030
:101EF00032FF0546B9F1040F42D17B48006802F079
:101F000038FF04467C48006801280FDA4FF00A00C9
:101F10007949086008460671457160780881207823
:101F2000887104F1020002F001F929E06078724939
:101F3000098988420FDA4FF00A006F4908600846A5
:101F400006714571607808812078887104F102007B
:101F500002F0ECF814E060786749098988420FD1F3
:101F600065480079B0420BD163484079A84207D157
:101F70004FF00A006049086004F1020002F0D6F850
:101F800000209EE70020704702464FF00000704797
:101F900002464FF00000704770B504460D462B46D0
:101FA000224653495348006803F027F85048016817
:101FB0005048006800F093FD002070BD70B50446E5
:101FC0000D462B4622464A494A48006803F044F829
:101FD000474801684748006800F081FD002070BD57
:101FE0002DE9F04106460F463F4806603F4807602E
:101FF0003D48006802F073FE18B14FF0FF30BDE8B5
:10200000F0813948006802F0AAFE0446032C15D17D
:102010003548006802F09FFE054631480078854249
:102020000CDA3648006800F10100344908600846BF
:102030000068802802DD4FF0800008600020DEE7A5
:1020400010B503F066FD27480078802803DA4FF0CA
:10205000C0002449087023484078F72803DD4FF07A
:10206000A800204908701F488078FF2803DD4FF042
:1020700065001C4988701B48C078022803DA4FF0BD
:1020800064001849C870002010BD7CB54FF00405ED
:1020900042F232341A4800684FEA10208DF80400EA
:1020A00017480068C0B28DF80500164800684FEA6E
:1020B00010208DF8060013480068C0B28DF80700A4
:1020C00001AB22460A490B480095006803F08AF8E4
:1020D00007480168074817E0D0020020FE020020F0
:1020E000D102002028030020100300201403002048
:1020F0001C03002018030020447C0020280400203A
:102100003403002038030020006800F02EFD00207A
:102110007CBD2DE9F04106460F46144620464FEAA5
:10212000E47104EB91714FEAA1054FEAE47104EB0D
:1021300091714FEAA101A4EB8101002901DD05F1B4
:1021400001052A463946304603F001FCBDE8F0811E
:102150002DE9F04106460F462548066025480760F0
:102160002348006802F0BBFD18B14FF0FF30BDE816
:10217000F0811F48006802F0F2FD80461C480068AC
:1021800002F0F7FD0446A8F50C5031382ED14FF07F
:102190000100194908606178207801EB0020174997
:1021A0000860E178A07801EB002015490860084636
:1021B000006808B903F0B0FB114800684FEA8025B9
:1021C0004FF4806204F104012846FFF7A2FFFFF7F5
:1021D0005CFF0B48006809490968884206D142F251
:1021E0001070FFF789F9281D03F00FFC0020BEE7EF
:1021F00010030020140300203003002034030020CB
:102200003803002000B5AFB001214FF0606006F048
:10221000B5FC07F024FC08F053F900BF08F057F9AB
:102220000128FBD0684607F025FC4FF00100009024
:102230004FF0000007904FF400700A904FF000003C
:102240000B900E9011901390149015904FF48060A5
:1022500009904FF0000020904FF0007021904FF453
:10226000001023904FF00000259026904FF00400BE
:1022700028904FF0007029904FF480302A904FF44E
:1022800080002B904FF400502C904FF480402E9003
:102290004FF00101684607F056FC394908602FB03D
:1022A00000BD1CB50121672006F068FC01218803F0
:1022B00006F0A0FC4FF4807000904FF003008DF802
:1022C00005004FF002008DF804004FF000008DF87B
:1022D00006008DF8070069462A4805F091FF0120A5
:1022E00006F0CCFF4FF0860000906946254805F0C7
:1022F00087FF0B220121234806F02BF80B22022135
:10230000204806F026F80B2207211E4806F021F887
:102310004FF03200009069461B4805F071FF0B2218
:102320000121194806F015F80B220421164806F081
:1023300010F80B220521144806F00BF84FF4D0409A
:1023400000906946114805F05BFF0B2211460F48CB
:1023500005F0FFFF0B220D210C4805F0FAFF0B22C0
:102360000E210A4805F0F5FF1CBD10B5FFF799FFD7
:10237000FFF748FF10BD10B507F071FB10BD00005E
:102380003C03002000000240000802400018024008
:10239000704700BFFEE700BFFEE700BFFEE700BFDB
:1023A000FEE7704710B500F042F810BD10B501F01F
:1023B00080FC10BD10B501F024FB10BD7FB50420DA
:1023C00005F03BFA684606F046FB4FF064020198C0
:1023D000B0FBF2F1B1F1807F00D327E021F07F4024
:1023E000A0F101004FF0E02250614FF0FF304FF0BC
:1023F0000F0200280ADA4FEA02734FEA13654A4BCC
:1024000000F00F04A4F104041D5505E04FEA027327
:102410004FEA1364454B1C5400BF4FF000004FF0CF
:10242000E02290614FF00700106100BF7FBD40487F
:10243000006800F101003E4908603E48006800F174
:1024400001003C4908603C48006800F101003A493D
:1024500008603A48006800F10100384908603848CF
:10246000006800F10100364908603648006800F154
:102470000100344908603448006800F10100324925
:1024800008603248006800F1010030490860704778
:102490006FF007004FF0E021086170477047704708
:1024A00010B504F0A7FA04F087FB02F035F8FEF748
:1024B0001AF810BD704710B5FFF79CFA00F033FA18
:1024C00010BD10B5FEF7FEFA02F02BF920480068A7
:1024D000002803DDFEF770FEFEF788FE03F0B9FA70
:1024E00004F020FB04F0B5FD04F0FBFB05F0CAF896
:1024F00010BD10B502F04AF910BD10B514480068BF
:10250000012803DAFEF758FEFEF770FEFFF795FA92
:1025100002F0ACF903F00FFC04F095FF10BD10B50C
:10252000FEF7FAFA10BD704718ED00E000E400E095
:1025300044030020480300204C03002050030020E7
:1025400054030020580300205C0300206003002097
:10255000447C002010B50BF0EAFFFE4908604DF600
:102560001952FD49FB4800680BF0BEFE10BD2DE975
:10257000F04106460F4614469846069D61896068FC
:10258000FFF7E6FD204608F0CFFCBDE8F08110B56E
:102590000BF0CDFFF14908604DF61852EE49EF48B7
:1025A00000680BF0A1FE0022AFF23D01EB4800688D
:1025B0000BF09CFF10BD10B50BF0B9FFE8490860A7
:1025C0004CF69F72E449E64800680BF08DFE10BDA2
:1025D0002DE9F04106460F4614469846069D61894E
:1025E0006068FFF7FDFC204608F09EFCBDE8F08126
:1025F00010B50BF09CFFDB4908604CF6A072D64981
:10260000D84800680BF070FE0022AFF23B01D548BD
:1026100000680BF06BFF10BD10B50BF088FFD249BE
:1026200008604CF6B732CC49CF4800680BF05CFE2E
:1026300010BD2DE9F04106460F4614469846069D0A
:1026400061896068FFF7A0FC204608F06DFCBDE8DA
:10265000F08110B50BF06BFFC44908604CF6B8323E
:10266000BD49C24800680BF03FFE0022AFF23D01B9
:10267000BE4800680BF03AFF10BD10B50BF057FFD5
:10268000BB4908604CF2CF72B349B94800680BF0FF
:102690002BFE10BD2DE9F04106460F461446984624
:1026A000069D61896068FFF7FEFB204608F03CFC50
:1026B000BDE8F08110B50BF03AFFAE4908604CF26E
:1026C000D072A549AB4800680BF00EFE0022AFF2B5
:1026D0003B01A84800680BF009FF10BD10B50BF0D6
:1026E00026FFA54908604CF2E7329B49A2480068E2
:1026F0000BF0FAFD10BD2DE9F04106460F461446D9
:102700009846069D61896068FFF758FB204608F0EF
:102710000BFCBDE8F08110B50BF009FF974908608C
:102720004CF2E8328C49954800680BF0DDFD002240
:10273000AFF23D01914800680BF0D8FE10BD2DE9C5
:10274000F04106460F4614469846069D618960682A
:1027500003F081FB204608F0E7FBBDE8F08110B5EF
:102760000BF0E5FE8649086043F660327A498448FA
:1027700000680BF0B9FD0022AFF23D01804800680F
:102780000BF0B4FE10BD2DE9F04180460D46144615
:102790001E46069F43F66232314628460BF066FE1F
:1027A000214628460BF057FE28460BF08FFE2046A8
:1027B00008F0BAFBBDE8F08110B50BF0B8FE714926
:1027C000086043F6623264496E4800680BF08CFD85
:1027D0000022AFF24D016B4800680BF087FE10BD80
:1027E00000B587B008F0C2F808F03AFA66490978EF
:1027F0000A066549497842EA01426349897842EA12
:102800000121614AD27841EA02000CF0C3F9069036
:102810005E4909780A065D49497842EA01425B4906
:10282000897842EA0121594AD27841EA02000CF043
:10283000B1F90590564909780A065549497842EA9E
:1028400001425349897842EA0121514AD27841EA4A
:1028500002000CF09FF904904FF0FF300CF09AF951
:102860004C490860484909780A064749497842EACC
:1028700001424549897842EA012141F0FF000CF00C
:1028800089F94549086045484549002204ABCDE92E
:102890000021029005AA06A9424808F096FA41488C
:1028A00008F0C6FA3F4808F00CFBFFF785FFFFF77A
:1028B00056FFFFF730FFFFF711FFFFF7FBFEFFF7B3
:1028C000DCFEFFF7C6FEFFF7A7FEFFF791FEFFF75E
:1028D00072FEFFF75CFEFFF73DFE07B000BD10B5CE
:1028E000304808F0A8FAFFF746FD10BD10B52D4896
:1028F0000DF09BFD10BD10B507F09AFC08B1FFF775
:10290000F5FF10BD10B52848006800F10100264908
:10291000086008460068642804DD4FF00000086085
:102920000CF0F3FF10BD10B5FFF7ECFF10BD1CB5A8
:102930004FF020008DF800004FF021008DF80100CD
:102940004FF022008DF802004FF023008DF80300B5
:102950002CE000009C0300204E4401089803002056
:1029600094030020900300208C03002088030020A3
:1029700084030020800300207C03002078030020D3
:102980007403002070030020FE02002006030020D4
:1029900002030020680300206C03002031020108BC
:1029A00059040108D00B0020640300204FF02400DC
:1029B0008DF804004FF025008DF805004FF026003B
:1029C0008DF806004FF027008DF8070043F66232BD
:1029D0007749784800680BF049FD03220821002060
:1029E00008F0DDFA044684B108226946204608F062
:1029F00038FD21466F4800680BF02DFD6D480068DA
:102A00000BF064FD204608F08FFA1CBD70B5064639
:102A10000C4643F661326649674800680BF026FDB4
:102A20000322A1B2002008F0BAFA054685B1A2B28D
:102A30003146284608F015FD29465F4800680BF02E
:102A40000AFD5D4800680BF041FD284608F06CFA6D
:102A500070BD70B506460C464CF2E83254495748F2
:102A600000680BF003FD0322A1B2002008F097FAE2
:102A7000054685B1A2B23146284608F0F2FC294647
:102A80004E4800680BF0E7FC4C4800680BF01EFD58
:102A9000284608F049FA70BD70B506460C464CF25F
:102AA000D0724349464800680BF0E0FC0322A1B213
:102AB000002008F074FA054685B1A2B231462846D6
:102AC00008F0CFFC29463E4800680BF0C4FC3C48A7
:102AD00000680BF0FBFC284608F026FA70BD70B5C4
:102AE00006460C464CF6B8323149364800680BF0C1
:102AF000BDFC0322A1B2002008F051FA054685B1C1
:102B0000A2B23146284608F0ACFC29462D480068A0
:102B10000BF0A1FC2B4800680BF0D8FC284608F00D
:102B200003FA70BD70B506460C464CF6A0722049FB
:102B3000254800680BF09AFC0322A1B2002008F09F
:102B40002EFA054685B1A2B23146284608F089FC26
:102B500029461D4800680BF07EFC1B4800680BF0FE
:102B6000B5FC284608F0E0F970BD70B506460C4685
:102B70004DF618520E49154800680BF077FC0322F9
:102B8000A1B2002008F00BFA054685B1A2B2314689
:102B9000284608F066FC29460C4800680BF05BFCF0
:102BA0000A4800680BF092FC284608F0BDF970BD99
:102BB0006C03002070030020740300207C030020BD
:102BC000840300208C030020940300209C03002039
:102BD0001FB54FF00000ADF804004BF6FF70ADF8E4
:102BE00006004FF0A000ADF808004FF48060ADF88B
:102BF0000A004FF48040ADF80C00F84800904FF008
:102C00000101F74805F09BFC6946F54805F00BFC0F
:102C10001FBD2DE9F04104460D464FEA1427E6B2E8
:102C20004FF00000EF490860EF49086010E0ED4800
:102C3000006800F10100EB49086008460068B0F543
:102C40007A2F05DD4FF00100E7490860BDE8F0810B
:102C50004FF40031E24805F0C1FD0028E7D1012121
:102C6000DF4805F079FC4FF00000DE490860DE49DE
:102C700008600FE0DB48006800F10100D9490860F6
:102C800008460068B0F57A2F04DD4FF00200D649FF
:102C90000860DBE7D549D24805F06BFD0028E9D094
:102CA0000022A021CE4805F071FC4FF00000CD4974
:102CB0000860CD4908600FE0CA48006800F10100D3
:102CC000C849086008460068B0F57A2F04DD4FF067
:102CD0000300C5490860B9E7C549C14805F049FD89
:102CE0000028E9D03946BE4805F0DFFC4FF000006F
:102CF000BC490860BC4908600FE0BA48006800F1B0
:102D00000100B849086008460068B0F57A2F04DD74
:102D10004FF00400B449086098E7B649B04805F0A0
:102D20005DFD0028E9D03146AD4805F0BEFC4FF00E
:102D30000000AC490860AC4908600FE0A948006891
:102D400000F10100A749086008460068B0F57A2F35
:102D500004DD4FF00500A449086077E7A549A048C5
:102D600005F03CFD0028E9D029469D4805F09DFC72
:102D70004FF000009B4908609B4908600FE09948AC
:102D8000006800F101009749086008460068B0F546
:102D90007A2F04DD4FF006009349086056E7954905
:102DA0008F4805F01BFD0028E9D04FF000008D4949
:102DB00008608D4908600FE08A48006800F1010052
:102DC0008849086008460068B0F57A2F04DD4FF0A6
:102DD00007008549086039E78549891E804805F064
:102DE000C8FC0028E8D001217D4805F0C2FB00BFE7
:102DF0002CE72DE9F04104464FEA1426E5B24FF0E6
:102E00000000784908607849086012E07548006859
:102E100000F101007349086008460068B0F57A2F98
:102E200007DD4FF00800704908604FF0FF00BDE873
:102E3000F0814FF400316A4805F0D0FC0028E5D15C
:102E40000121674805F088FB4FF0000065490860E4
:102E50006549086011E06348006800F101006149BC
:102E6000086008460068B0F57A2F06DD4FF00900CB
:102E70005D4908604FF0FF00D9E75C49584805F00C
:102E800078FC0028E7D00022A021554805F07EFB01
:102E90004FF00000534908605349086011E0514861
:102EA000006800F101004F49086008460068B0F56D
:102EB0007A2F06DD4FF00A004B4908604FF0FF0003
:102EC000B5E74B49464805F054FC0028E7D03146A9
:102ED000434805F0EAFB4FF00000424908604249D0
:102EE000086011E03F48006800F101003D490860BA
:102EF00008460068B0F57A2F06DD4FF00B003A491E
:102F000008604FF0FF0092E73A49354805F066FC4B
:102F10000028E7D02946324805F0C7FB4FF00000F3
:102F2000304908603049086011E02E48006800F11F
:102F300001002C49086008460068B0F57A2F06DDCC
:102F40004FF00B00284908604FF0FF006FE7294958
:102F5000234805F043FC0028E7D00121204805F074
:102F6000FBFA4FF000001F4908601F49086011E09C
:102F70001C48006800F101001A4908600846006812
:102F8000B0F57A2F06DD4FF00C00174908604FF0BE
:102F9000FF004CE71549124805F0EBFB0028E7D08D
:102FA0000122A0210E4805F0F1FA4FF000000D4972
:102FB00008600D4908601FE00A48006800F1010040
:102FC0000849086008460068B0F57A2F14DD4FF014
:102FD0000D00054908604FF0FF0028E7A0860100BA
:102FE00000580040A0030020A403002001000300BB
:102FF0008200070004000010FD49FE4805F0EEFBCA
:103000000028D9D00021FB4805F0C8FAFA4800880A
:103010004FF00101F74805F0ACFA4FF00000F74916
:103020000860F749086011E0F448006800F1010009
:10303000F249086008460068B0F57A2F06DD4FF0C7
:103040000E00EF4908604FF0FF00F0E6E8493E311E
:10305000E84805F0C3FB0028E6D0E64805F027FB6A
:1030600007464FF00000E5490860E549086011E0B7
:10307000E248006800F10100E04908600846006885
:10308000B0F57A2F06DD4FF00F00DD4908604FF0F4
:10309000FF00CCE6D748008810F4007FE8D101217A
:1030A000D44805F07BFA3846C1E62DE9F0470546DD
:1030B0000F4616464FEA45504FEA10484FEA182A85
:1030C00008F0FF09202E01DD4FF020064FF0000030
:1030D000CA490860CA49086010E0C848006800F1A1
:1030E0000100C649086008460068B0F57A2F05DD82
:1030F0004FF01000C2490860BDE8F0874FF400317E
:10310000BC4805F06BFB0028E7D10121B94805F068
:1031100023FA4FF00000B9490860B94908600FE090
:10312000B648006800F10100B4490860084600682C
:10313000B0F57A2F04DD4FF01100B1490860DBE7EC
:10314000B049AC4805F015FB0028E9D00022A021C9
:10315000A84805F01BFA4FF00000A8490860A849EC
:1031600008600FE0A548006800F10100A34908606D
:1031700008460068B0F57A2F04DD4FF01200A04930
:103180000860B9E7A0499B4805F0F3FA0028E9D0A8
:103190005146984805F089FA4FF0000097490860B9
:1031A000974908600FE09548006800F101009349D5
:1031B000086008460068B0F57A2F04DD4FF0130070
:1031C0008F49086098E78A49891C8A4805F006FB00
:1031D0000028E8D04946874805F067FA4FF000001C
:1031E00086490860864908600FE08448006800F15D
:1031F00001008249086008460068B0F57A2F04DDB6
:103200004FF014007E49086076E77949891C7948B7
:1032100005F0E4FA0028E8D04FF0000423E0395D1F
:10322000744805F042FA4FF0000074490860744990
:1032300008600FE07148006800F101006F49086004
:1032400008460068B0F57A2F04DD4FF015006C4990
:10325000086051E76649891C664805F0BFFA0028F6
:10326000E8D004F10104B442D9DB4FF00000634917
:103270000860634908600FE06048006800F10100E1
:103280005E49086008460068B0F57A2F04DD4FF00B
:1032900016005B4908602FE75B49891E554805F019
:1032A00068FA0028E8D00121524805F062F900BF11
:1032B00022E72DE9F04705460F4616464FEA4550EE
:1032C0004FEA10484FEA182A08F0FF09202E01DDC6
:1032D0004FF020064FF00000484908604849086058
:1032E00010E04648006800F10100444908600846C3
:1032F0000068B0F57A2F05DD4FF0170040490860EF
:10330000BDE8F0874FF400313A4805F067FA00282D
:10331000E7D10121374805F01FF94FF00000374988
:103320000860374908600FE03448006800F1010088
:103330003249086008460068B0F57A2F04DD4FF086
:1033400018002F490860DBE72E492A4805F011FADA
:103350000028E9D00022A021264805F017F94FF0F7
:10336000000026490860264908600FE023480068ED
:1033700000F101002149086008460068B0F57A2F85
:1033800004DD4FF019001E490860B9E71E491948CD
:1033900005F0EFF90028E9D05146164805F085F907
:1033A0004FF0000015490860154908600FE0134808
:1033B000006800F101001149086008460068B0F596
:1033C0007A2F04DD4FF01A000D49086098E708498C
:1033D000891C084805F002FA0028E8D0494605484B
:1033E00005F063F94FF000000449086004490DE05E
:1033F000020000100058004018580040A0030020B0
:10340000A4030020010003008200070008600FE011
:10341000E648006800F10100E449086008460068D9
:10342000B0F57A2F04DD4FF01B00E149086067E733
:10343000E049E14805F0D2F90028E9D04FF0000456
:1034400092E00121DC4805F087F84FF00000D749F1
:103450000860D74908600FE0D448006800F1010017
:10346000D249086008460068B0F57A2F04DD4FF0B5
:103470001C00CF49086043E7D049CF4805F079F9EF
:103480000028E9D00122A021CB4805F07FF84FF0B9
:103490000000C6490860C64908600FE0C3480068DC
:1034A00000F10100C149086008460068B0F57A2FB4
:1034B00004DD4FF01D00BE49086021E7BD49891EAB
:1034C000BD4805F08BF90028E8D00021BA4805F086
:1034D00065F8BB4800884FF00101B74805F049F88E
:1034E0004FF00000B1490860B14908600FE0AF48F3
:1034F000006800F10100AD49086008460068B0F5B9
:103500007A2F04DD4FF01E00A9490860F8E6A949AA
:103510003C31A94805F062F90028E8D0A64805F03A
:10352000C6F838554FF00000A0490860A04908606F
:103530000FE09E48006800F101009C4908600846C1
:103540000068B0F57A2F04DD4FF01F00984908603D
:10355000D6E69948008810F4007FEAD10121964808
:1035600005F01CF804F10104B442FFF66AAF00BF95
:10357000C6E61FB54FF00000ADF804004BF6FF7033
:10358000ADF806004FF08800ADF808004FF48060F9
:10359000ADF80A004FF48040ADF80C008948009067
:1035A0004FF00101844804F0CAFF6946824804F0E4
:1035B0003AFF1FBD2DE9F04781460C464F2C02DD36
:1035C0004FF04F0403E0002C01DA4FF000044FF0FD
:1035D0000A0094FBF0F0C7B24FF00A0094FBF0F140
:1035E00000FB114000F0FF08B9F1010F04D147F0D2
:1035F000B00548F0A0060BE0B9F1020F04D147F086
:10360000300548F0200603E047F0E00548F0D0061A
:103610004FF00000654908606549086010E06348A4
:10362000006800F101006149086008460068B0F5D3
:103630007A2F05DD4FF065005D490860BDE8F08731
:103640004FF400315C4805F0C9F80028E7D10121AA
:10365000594804F081FF4FF0000054490860544974
:1036600008600FE05148006800F101004F49086010
:1036700008460068B0F57A2F04DD4FF066004C492B
:103680000860DBE74D494C4805F073F80028E9D0A5
:1036900000228821484804F079FF4FF00000434998
:1036A0000860434908600FE04048006800F10100ED
:1036B0003E49086008460068B0F57A2F04DD4FF0F7
:1036C00067003B490860B9E73F493B4805F051F8BE
:1036D0000028E9D02946384804F0E7FF4FF0000001
:1036E00032490860324908600FE03048006800F154
:1036F00001002E49086008460068B0F57A2F04DD05
:103700004FF068002A49086098E72A492A4805F0DE
:1037100065F80028E9D03146274804F0C6FF4FF08D
:10372000000022490860224908600FE01F48006835
:1037300000F101001D49086008460068B0F57A2FC5
:1037400004DD4FF069001A49086077E719491A4803
:1037500005F044F80028E9D04FF000001349086054
:10376000134908600FE01148006800F101000F499B
:10377000086008460068B0F57A2F04DD4FF06A0053
:103780000B4908605AE71049891E0B4804F0F1FF05
:103790000028E8D00121084804F0EBFE00BF4DE707
:1037A000704701464FF0000070477047A0030020AB
:1037B000A403002004000010005800400100030092
:1037C00018580040A0860100820007001FB50120A4
:1037D00005F0D1F90121880305F0FDF9F84805F05D
:1037E00027FB4AF6444002904FF00000ADF802007B
:1037F000ADF80400ADF80C004FF40070ADF8000017
:103800004FF00000ADF806006946ED4805F05EFB9C
:103810000121EB4805F014FC1FBD10B50021E8485C
:1038200005F00EFC0021E74804F009F9002202210E
:10383000E34805F079FC10BD10B50121E04805F022
:10384000FFFB0121DF4804F0FAF801220221DC48E5
:1038500005F06AFC10BD00B591B00121480505F0E6
:103860008DF90021D74804F0EAF8D64804F008F8AA
:103870000022D549D34804F009F90121D14804F0C8
:1038800011F94FF000000290D0480390D048049006
:103890004FF0400005904FF4806006904FF000001C
:1038A00007904FF4806008904FF4006009904FF447
:1038B00000500A904FF480700B904FF400300C9041
:1038C0004FF004000D904FF003000E904FF00000F9
:1038D0000F90109002A9BB4804F068F80122102153
:1038E000B84804F041F901220821B64804F03CF937
:1038F0004FF00F008DF804004FF000008DF8050028
:103900008DF806004FF001008DF8070001A803F0C4
:1039100039FF0121AB4804F092F801220221A848A6
:1039200005F002FC11B000BD70B5A64804F0CAF85D
:1039300008B9A54D00E0A64DA6480068A64909684B
:1039400001EB80264FF00801A2480068FDF738FE21
:10395000A04908604FF0000406E036F8140005EBBB
:103960008401488004F10104B4F5007FF5DB70BDEB
:1039700070B5944804F0A6F808B9934D00E0944D52
:10398000964800689649096801EB80264FF00004CC
:1039900007E036F814004FEA440125F8110004F15D
:1039A0000104B4F5007FF4DB8E480068A0F5806068
:1039B0008C49086008460068002802DA4FF00000D1
:1039C00008608948006800F58060874908600846FB
:1039D0000068B0F5005F02DD4FF4005008607F49D9
:1039E00009687F4A126802EB81204FF480610CF075
:1039F00076FD082179480068FDF7E2FD7749086007
:103A000070BD10B5794800687849086078496D48FC
:103A100004F0C9F8012811D175496A4804F0EFF89B
:103A20007248006871490860FFF7A2FFFFF77CFF4A
:103A30004FF001006F49086001F0BFF86E4961481E
:103A400004F0B1F8012807D16B495E4804F0D7F8BB
:103A5000664800686549086010BD1FB50121C803AC
:103A600005F0B9F8654805F0E3F94AF644400290DC
:103A70004FF00000ADF80200ADF80400ADF80C0006
:103A80004FF48070ADF800004FF00000ADF8060074
:103A900069465A4805F01AFA0121584805F0D0FA4B
:103AA0001FBD10B50021554805F0CAFA0021454850
:103AB000303803F0C4FF00220121504805F034FBE8
:103AC00010BD10B501214D4805F0BAFA01213D485D
:103AD000303803F0B4FF01221146484805F024FBBA
:103AE00010BD00B591B00121480505F047F800214F
:103AF0003448303803F0A3FF3248303803F0C0FEBA
:103B000000223F492F48303803F0C0FF01212D48E3
:103B1000303803F0C7FF4FF000000290394803909F
:103B2000394804904FF0000005904FF480600690F3
:103B30004FF0000007904FF4806008904FF4006051
:103B400009904FF400500A904FF480700B904FF49E
:103B500000300C904FF004000D904FF003000E90D9
:103B60004FF000000F90109002A9284803F01EFFAC
:103B700001221021254803F0F7FF012208212348E4
:103B800003F0F2FF4FF00D008DF804004FF001003C
:103B90008DF805004FF000008DF806004FF0010091
:103BA0008DF8070001A803F0EDFD0121174803F08F
:103BB00046FF01221146114805F0B6FA11B000BDCA
:103BC0000038004070600240041400200C380040AF
:103BD000040C0020D8030020D0030020B8030020EC
:103BE000B0030020CC030020C8030020C80200203E
:103BF00020800020A803002010400020003C00404E
:103C0000042400200C3C0040041C002040600240C2
:103C100070B5C24803F056FF08B9C14D00E0C14D70
:103C2000C1480068C149096801EB80264FF00201D4
:103C3000BD480068FDF7C4FCBB4908604FF00004B4
:103C400006E005EB8400408826F8140004F1010426
:103C5000B4F5007FF5DB4FF00100B549086070BD99
:103C600070B5AE4803F02EFF08B9AD4D00E0AD4D84
:103C7000B0480068B049096801EB80264FF00201A6
:103C8000AC480068FDF79CFCAA4908604FF00004AE
:103C900007E04FEA440035F8100026F8140004F15C
:103CA0000104B4F5007FF4DB4FF00100A349086084
:103CB00070BD10B5A2480068A1490860A1499748A5
:103CC00003F071FF01280BD19E49944803F097FF40
:103CD000FFF7C6FFFFF79CFF994800689849086006
:103CE00099498E4803F05FFF012807D196498B4818
:103CF00003F085FF924800689149086010BD10B537
:103D0000FFF78BFDFFF7CDFE10BD4FF0000001E087
:103D100000F101000528FBDB704770B506460D4633
:103D20002846FDF7A1FA0120FDF78EFA0020FDF7E5
:103D30007BFAFFF7EAFF4FF000041EE046FA04F0BA
:103D400010F0010F06D10020FDF76EFA0020FDF7FC
:103D50006BFA05E00020FDF767FA0120FDF764FA31
:103D60000020FDF771FAFFF7D0FF0120FDF76CFA94
:103D7000FFF7CBFF04F10100C4B2082CDEDBFFF734
:103D8000C4FF0120FDF770FAFFF7BFFF70BD10B54B
:103D900000211620FFF7C1FF01216020FFF7BDFFC2
:103DA00001212020FFF7B9FF01218320FFF7B5FF94
:103DB00010BD10B500211620FFF7AFFF01218020B4
:103DC000FFF7ABFF10BD10B500211620FFF7A5FFD0
:103DD00001218320FFF7A1FF10BD10B500211420A1
:103DE000FFF79BFF01210F20FFF797FF01218120A3
:103DF000FFF793FF0121C220FFF78FFF0121E3208E
:103E0000FFF78BFF0121C120FFF787FF0121FF2072
:103E1000FFF783FF0121C020FFF77FFF0121F02082
:103E2000FFF77BFF10BD704710B5FFF7B0FFFFF73E
:103E3000D4FF10BD10B504464CB900211420FFF783
:103E40006CFF01210020FFF768FF002010BD3D2C12
:103E50000ADA00211420FFF760FF0121601CC0B2C4
:103E6000FFF75BFF0020F1E7642C09DC0021142040
:103E7000FFF753FF01216F20FFF74FFF0020E5E719
:103E80004FF0FF30E2E770B504460D46102C01DD1F
:103E90004FF01004062D01DD4FF00605204604EB1F
:103EA000D0714FEA6104284605EBD0714FEA6105F5
:103EB00004F00F004FF0400141EA800005F00301DB
:103EC00040EA01064FF000014FF01400FFF725FF14
:103ED00001213046FFF721FF002070BD10B50446D8
:103EE0004FF000014FF01400FFF717FF2D2C01DDFC
:103EF0004FF02D044FEA44004FF0030190FBF1F026
:103F0000C4B24FF001014FF0C000FFF706FF44F0CC
:103F1000E0000121FFF701FF002010BD40600240DA
:103F200004240020041C0020F0030020EC030020E7
:103F300000040020E4030020E0030020F803002038
:103F4000C8020020008020100040101010B5044668
:103F5000F84804600068002804DA4FF00000F549D2
:103F6000086007E0F3480068282803DD4FF02800C8
:103F7000F0490860EF480068EF490968C1F10001A5
:103F80000844EE49086008460068002803DA4FF04C
:103F90000000086007E0E9480068282803DD4FF0CA
:103FA0002800E6490860E5480068C0B2FFF742FF14
:103FB00001F04AFD002010BD4FF00000E04908600C
:103FC000704710B54FF0000407E04FF00000DD49E6
:103FD0000855DD49085504F10104B4F5005FF4DB30
:103FE000D848DA490860D848D94908604FF000003D
:103FF000D84908604FF00400D74908604FF480505A
:10400000D64908604FF00000D54908604FF4805051
:10401000D4490860D44908604FF00000D3490860D3
:104020004FF00400D2490860D248D34908604FF0ED
:104030000000D24908604FF00100D14908604FF0FC
:104040000000D04908604FF00100CF490860CF4818
:10405000CF4908604FF00000CE4908604FF00100E2
:10406000CD4908604FF00000CC4908604FF00100D6
:10407000CB4908604FF00000CA4908604FF00A00C1
:10408000AC49086008460068AC4908604FF0000081
:10409000C5490860C5490860A8490860FFF7C4FE23
:1040A0004FF47A70FDF728FA1A20FFF717FF4FF444
:1040B0007A70FDF721FAFFF789FBFFF7CCFB4FF48D
:1040C0007A70FDF719FAFFF7C8FCFFF70AFD4FF405
:1040D0007A70FDF711FAFFF76FFF42F21070FDF7EB
:1040E0000BFA42F21070FDF707FA01F012FD42F2EE
:1040F0001070FDF701FA42F21070FDF7FDF98D48DE
:104100000068FFF723FF4FF00000A9490860A949A4
:104110000860A949086010BD10B5FFF78DFBFFF7D7
:10412000D0FC4FF001008649086010BD10B5044670
:104130008948006887490968884208D0082185486D
:104140000068FDF73DFA84490968884207D10522D5
:10415000082180480068FDF724FA7F4908607E49FD
:1041600009687A4A126802EB81204FF48062214686
:104170000CF09CF9082178480068FDF721FA76498F
:1041800008604FF000008D49086010BD70B505460D
:104190004FF0000414E088480068285C88490855FE
:1041A0008548006800F101008349086008460068FE
:1041B000B0F55C7F02DB4FF00000086004F1010401
:1041C000B4F5806FE7DB7E48FFF7B0FF002070BDDD
:1041D00010B574480068002800DD10BD79480068FB
:1041E000002867D077480068012863D176480068C6
:1041F000642803D17548FFF7C9FF5BE07248006887
:10420000C82803D17248FFF7C1FF53E06E48006829
:10421000B0F5FA7F03D16F48FFF7B8FF4AE06A486C
:104220000068B0F5487F03D16B48FFF7AFFF41E06E
:1042300065480068B0F57A7F03D16848FFF7A6FFAC
:1042400038E061480068B0F5FA6F03D16448FFF7C1
:104250009DFF2FE05C480068A0F59851883903D194
:104260006048FFF793FF25E057480068B0F5FA5F14
:1042700003D15D48FFF78AFF1CE053480068A0F5B2
:104280001C51103903D15948FFF780FF12E04E4806
:104290000068A0F56851983903D15548FFF776FFBB
:1042A00008E049480068A0F59C41203902D15148F6
:1042B000FFF76CFF00BF90E710B54F48006800287B
:1042C00011DD4FF000004C4908603C48006800F1E7
:1042D00001003A4908604948006800F10100474977
:1042E0000860FFF775FF3548006808280ADD334885
:1042F0000068102806DA4FF40051144800680CF0EA
:10430000EEF807E02D480068802803DD4FF08000BC
:104310002A49086039480068082871DD3748006874
:1043200010286DDA4FF40051094800680CF0D7F8F6
:104330006EE065E0080400205404002060040020C2
:1043400050040020442C0020444C0020B0030020E6
:10435000D0030020B8030020B4030020C0030020D5
:10436000C4030020C8030020CC030020D803002091
:10437000D4030020446C0020E0030020E803002068
:10438000E4030020F8030020FC0300204474002014
:10439000EC030020F4030020F003002000040020C0
:1043A00004040020447C0020580400205C04002009
:1043B00034040020480400206C040020BC030020CA
:1043C000907C00206404002068040020181201087A
:1043D0008A150108FC1801086E1C0108E01F01087D
:1043E00052230108C4260108362A0108A82D010815
:1043F0001A3101088C340108A8030020DC030020D6
:10440000FC480068802803DD4FF08000F94908600F
:1044100010BD2DE9F0470221F7480068FDF7D0F8FC
:104420000746F648006800EB872A4FF00008C146AF
:1044300044460AE03AF91450454501DDA84602E039
:104440004D4500DAA94604F10104B4F5007FF1DB23
:10445000A8EB0900EA49EB4A126841F822004FF044
:104460000201E9480068FDF7ABF80746E748006835
:1044700000EB872A4FF00008C14644460AE03AF9AB
:104480001450454501DDA84602E04D4500DAA94635
:1044900004F10104B4F5007FF1DBA8EB0900DC496D
:1044A000D84A126841F82200D648006800F101009D
:1044B000D44908600846006808282BDB4FF000004C
:1044C00008600646044605E0CD4850F8240006443E
:1044D00004F10104082CF7DB30464FEAE67106EBE5
:1044E00051714FEAE101CB4A11604FF000063446AA
:1044F00005E0C74850F82400064404F10104082CE4
:10450000F7DB30464FEAE67106EB51714FEAE10105
:10451000C14A1160BDE8F08710B5FFF77AFF10BD02
:104520002DE9F04703461F46884601EBD8794FEA4C
:10453000690C4FF0000425464FF0080620460BE0BA
:1045400037F9102012F13C0F05DB04EB020808F1EB
:104550003C0405F1010530446045F1DB94FBF5F8BE
:10456000DFF8B892DFF8B8A2DAF800A049F82A809C
:10457000BDE8F0872DE9F04703461F46884601EB6A
:10458000D8794FEA690C4FF0000425464FF0080631
:1045900020460BE037F9102012F1140F05DB04EB75
:1045A000020808F1140405F1010530446045F1DB0F
:1045B00094FBF5F8DFF86C92DFF864A2DAF800A05B
:1045C00049F82A80BDE8F08770B59748006801284F
:1045D00033D19648006801282FD14FF0000092494E
:1045E00008604FF0020184480068FCF7E9FF904939
:1045F00008600968814A126802EB81204FF48061EB
:10460000FFF7B8FF4FF00000884908604FF0020143
:104610007D480068FCF7D4FF8649086009687B4A3A
:10462000126802EB81204FF48061FFF779FF7C482C
:10463000006800F101007A4908607948006808289C
:104640006EDB4FF00000764908600546044605E041
:10465000744850F82400054404F10104082CF7DBE9
:104660004FEAE57105EB51714FEAE10101EB810180
:104670004FEA4101704A11604FF000052C4605E0F9
:10468000664850F82400054404F10104082CF7DBC7
:1046900028464FEAE57105EB51714FEAE101674A9F
:1046A00011606548006864280ADA104600680A2824
:1046B00006DA4FF0000062490860624908602FE0A6
:1046C0005D480068142804DA4FF001005D49086075
:1046D00026E05A480068022804DA4FF002005949DF
:1046E00008601DE0544800685449096890FBF1F0E7
:1046F0005349086008460068C82804DD4FF00200EE
:10470000504908600CE04E4800680A2804DA4FF06F
:1047100001004C49086003E04FF00000494908607F
:1047200070BD10B548480068A0F101004649086016
:1047300008460068002804DA4FF000000860FFF720
:104740003BFC42480068002801DDFFF73DFF404880
:104750000068A0F102003E49086008460068002891
:1047600002DA4FF0000008603A480078C0F14000DB
:1047700037490968884204DA4FF00000364908607A
:1047800003E04FF001003449086010BD704710B5D8
:1047900032480068002806DD30480068A0F10100BA
:1047A0002E49086003E04FF000002D4908602D48B5
:1047B00000682B49096888420ADD2A480068A0F190
:1047C00001002849086028480068FFF7BFFB0FE098
:1047D0002448006822490968884209DA21480068AB
:1047E00000F101001F4908601F480068FFF7AEFB99
:1047F000002010BDDC030020E4030020E0030020C3
:10480000042C0020AC030020F0030020EC03002067
:10481000242C00207004002074040020707C0020F0
:1048200034040020507C0020F80300200004002005
:10483000E8030020F40300202C04002030040020B2
:10484000380400203C040020447C0020D8020020D2
:1048500028040020D1020020240400205804002055
:104860005C040020540400200804002010B5FFF769
:104870008EFF10BD10B50446E9490968E94A12687F
:1048800002EB81204FF4806221460BF00FFE0821DD
:10489000E3480068FCF794FEE14908604FF000002F
:1048A000E149086010BD30B50346E048046801F5F1
:1048B0008060844232DB4FF0000214E09C5CDC48F4
:1048C000DC4D2D684455DB48006800F10100D94CEF
:1048D000206020460068B0F5005F02DB4FF000006A
:1048E000206002F101028A42E8DBD0480068A0EBB8
:1048F0000100CE4C2060D04800680844CE4C2060B7
:1049000020460068B0F5005F02DD4FF400502060E3
:104910004FF00000C94C2060084630BD4FF0FF301A
:10492000FBE702464FF0FF3070470246C44800687C
:10493000002802DD4FF0FF30704732B94FF0000021
:10494000C04B1860C04B1860F6E7012A4BD11046E7
:10495000BC4B1860642902D1BC48016041E0C82901
:1049600002D1BA4801603CE0B1F5FA7F02D1B74804
:10497000016036E0B1F5487F02D1B448016030E013
:10498000B1F57A7F02D1B14801602AE0B1F5FA6F42
:1049900002D1AE48016024E0A1F59850883802D1D8
:1049A000AA4801601DE0B1F5FA5F02D1A748016095
:1049B00017E0A1F51C50103802D1A448016010E0A6
:1049C000A1F56850983802D1A048016009E0A1F52E
:1049D0009C40203802D19D48016002E06FF0010048
:1049E000AAE70020A8E74FF0FF30A5E710B59848E8
:1049F0000068012818D197480068012814D14FF0A9
:104A00000000944908604FF0020193480068FCF7E9
:104A1000D7FD924908600968914A126802EB81202B
:104A20004FF48061FDF7B8FA8E480068012818D16C
:104A30008D480068012814D14FF000008A490860B1
:104A40004FF0020189480068FCF7BAFD8849086008
:104A50000968884A126802EB81204FF48061FDF7F3
:104A6000ADFA10BD4FF0010083490860834800682B
:104A700083490860704710B582480068012815D145
:104A80007D480068002810DD4FF47A70FCF734FD93
:104A90007B4801680020FEF78DFD4FF47A70FCF72B
:104AA0002BFD4FF000007449086010BD7648006887
:104AB00040B94FF04F00724908604FF00A00724948
:104AC00008606CE070480068012808D16B480068F5
:104AD0006B4908604FF00B006B4908605FE06A4863
:104AE00000680A2815D14FF47A70FCF705FD644878
:104AF00001680020FEF75EFD4FF47A70FCF7FCFCC5
:104B00004FF000005C4908604FF014005E490860F7
:104B100045E05D4800680B2811D14FF47A70FCF72E
:104B2000EBFC574801680020FEF744FD4FF47A7013
:104B3000FCF7E2FC4FF01500534908602FE05248A3
:104B4000006814280BD14FF000004B490860FCF7B7
:104B500078FC20BB4FF001004B4908601FE04A4839
:104B6000006815281BD144480068002810DD4FF468
:104B70007A70FCF7C1FC424801680020FEF71AFD7C
:104B80004FF47A70FCF7B8FC4FF000003A49086027
:104B9000FCF757FC18B14FF000003B49086000BF1C
:104BA00083E7002804DD4FF00101364A116003E07D
:104BB0004FF00001334A116070473448006800F13B
:104BC00001003249086032480068012801D13149AA
:104BD0000860002070470146642901DC3C2902DAA4
:104BE0004FF0FF307047552902DD4FF0550103E0CB
:104BF000492901DA4FF0490111480068012803DB17
:104C00000F488079092803D1A1F14F00224A106092
:104C10004FF01000214A10604FF00000E2E7000062
:104C2000D4030020D0030020DC030020C8030020B0
:104C3000442C0020C0030020CC030020BC03002033
:104C4000447C0020640400206C04002068040020E0
:104C5000FC030020F8030020E4030020E803002008
:104C6000E00300200404002000040020F0030020E2
:104C7000F4030020EC03002044040020080400207A
:104C8000400400204C040020480400201C040020A4
:104C900024040020200400205C040020580400208C
:104CA00010B5FE480078FE498870FE480078C8704C
:104CB000FD4800880880FD48FCF7D1FEF8494860AF
:104CC0004FF0FF00FA498870C8704FF6FF700880F7
:104CD000F848FCF7C4FEF6494860002010BD70B5E6
:104CE00005462C4620787E2802D04FF0FF3070BD5C
:104CF000E078EA490978884205D0E078FF2802D0B8
:104D00004FF0FF30F3E72079E6490978884205D073
:104D10002079FF2802D04FF0FF30E8E7E348FCF7A6
:104D20009EFED4F8051088420FD0D4F80500401C30
:104D30000BD0DE48FCF793FE40F0FF01D4F80500ED
:104D4000814202D04FF0FF30D1E70020CFE701468B
:104D50000A46D07A704701460A46107B70470146E2
:104D60000A46B2F81100704701460A46B2F813002D
:104D7000704701460A4602F1150070472DE9F041DF
:104D800004468C46274607F115052E460B2A08D106
:104D9000A3F1010006F1050818F800100846BDE867
:104DA000F081FF20FBE717B585B00446BB480078CB
:104DB000BB498870BB480078C870BB480088088031
:104DC000BA48FCF74CFEB64948604FF07E008DF8BB
:104DD00000000698CDF801000798CDF805000846B8
:104DE0000168CDF809104068CDF80D004FF01102B0
:104DF000694620460BF05AFB08B010BD2DE9F04F74
:104E000087B005460F4690469946DDE910AB2E4621
:104E1000A7480168009140680246019002A8FFF788
:104E2000C2FF112202A930460BF040FB4FF00100F7
:104E3000A6F811004FF00700A6F8130006F11504BC
:104E400084F8008084F8019084F802A084F803B00C
:104E500099480078207199480078607198480078E6
:104E6000A071B6F8130000F1150038604FF0000093
:104E700007B0BDE8F08F30B503460C4619464FF039
:104E80000400A1F8130001F115052A60B1F8130020
:104E900000F1150020604FF0000030BD30B5034632
:104EA0000C4619464FF00100A1F8130001F1150559
:104EB0002A70B1F8130000F1150020604FF00000D7
:104EC00030BD2DE9F04188B004460E461746254610
:104ED00077480168019140680246029003A8FFF7F5
:104EE00062FF112203A928460BF0E0FA4FF00300FD
:104EF000A5F811004FF00400A5F8130005F11508FE
:104F0000C8F80070B5F8130000F1150030604FF0DC
:104F1000000008B0BDE8F08130B503460C461946E4
:104F20004FF00200A1F8130001F115056A70B1F805
:104F3000130000F1150020604FF0000030BD2DE996
:104F4000F04387B004460E46174698462546584813
:104F50000168009140680246019002A8FFF723FF14
:104F6000112202A928460BF0A1FA4FF00600A5F87D
:104F700011004FF48060A5F8130005F115094246B1
:104F8000394648460BF092FAB5F8130000F11500C7
:104F900030604FF0000007B0BDE8F0832DE9F0432A
:104FA00087B004460E461746984625464048016895
:104FB000009140680246019002A8FFF7F4FE11221A
:104FC00002A928460BF072FA4FF00500A5F811006F
:104FD0004FF48060A5F8130005F1150942463946E3
:104FE00048460BF063FAB5F8130000F11500306085
:104FF0004FF0000007B0BDE8F0832DE9F04387B023
:1050000004460E46174698462546294801680091F1
:1050100040680246019002A8FFF7C5FE112202A9CE
:1050200028460BF043FA42F20130A5F811004FF484
:105030008060A5F8130005F1150942463946484637
:105040000BF034FAB5F8130000F1150030604FF0A2
:10505000000007B0BDE8F0832DE9F04387B00446B7
:105060000E4617469846254611480168009140684B
:105070000246019002A8FFF796FE112202A92846D7
:105080000BF014FA42F20230A5F811004FF48060E0
:10509000A5F8130005F11509424613E0D0020020DF
:1050A00078040020D1020020D2020020FE0200205D
:1050B000800400202C030020F2020020F3020020D4
:1050C000F4020020394648460BF0F0F9B5F8130019
:1050D00000F1150030604FF0000007B0BDE8F0832C
:1050E0002DE9F04188B004460E461746254654483F
:1050F0000168019140680246029003A8FFF753FE41
:10510000112203A928460BF0D1F942F21230A5F87A
:1051100011004FF00200A5F8130005F115084948E9
:10512000007888F8000088F80170B5F8130000F1E5
:10513000150030604FF0000008B0BDE8F0812DE9A7
:10514000F04188B0054688462F463D4801680191E8
:1051500040680246029003A8FFF725FE112203A92A
:1051600038460BF0A3F942F21330A7F811004FF0C4
:105170002500A7F81300B7F8130000F11500C8F8D0
:10518000000007F115042F48007820704FF001004F
:1051900060702D480068A0702C480068E0702C48B2
:1051A000006820714FF0000616E02A4850F83600DB
:1051B0004FF0640190FBF1F0C1B204F1050000F87A
:1051C0001610244800EBC6004068C1B204F1060086
:1051D00000F8161006F10106102EE6DB002008B0DC
:1051E000BDE8F0812DE9F04788B004460E46174629
:1051F0009846DDF8409025461148016801914068C5
:105200000246029003A8FFF7CEFD112203A928460B
:105210000BF04CF9A5F81170A5F8139005F1150ADB
:105220004A46414650460BF041F9B5F8130000F1EB
:10523000150030604FF0000008B0BDE8F0870000B6
:1052400080040020D1020020AC050020B005002021
:10525000B4050020E892002010B50C2005F06BFC8E
:10526000044624B14FF0000020606060A06020463A
:1052700010BD70B504460E46254615B1284605F00A
:10528000A0FB70BD70B505460C464FF000012846E6
:1052900007F01CF80021284607F01DF800212846D9
:1052A00007F016F80021284607F018F8204605F008
:1052B00088FB284606F00AFC70BD2DE9F041064641
:1052C0000C46B6F86E006168884202D2B6F86E509D
:1052D00001E0606885B200232A463046216808F064
:1052E00011FC074637B92068284420606068A0EBAD
:1052F00005006060BDE8F0812DE9F04104460E46EE
:105300001746254615B90020BDE8F0814FF0000092
:10531000287229463046FFF7D0FF0020F4E770B529
:1053200004460D461CB9284606F0D0FB03E0214692
:105330002846FFF7C2FF002070BD70B505460C4639
:105340001646FC49FC480BF0D9FBFB4820600BF0EB
:10535000D2F8606021462846FFF7AFFF70BD2DE907
:10536000F05F81460C4616469A46DDF828B04FF0AD
:10537000000548460BF0BFF80746A8463BE02078FA
:1053800099F80010884232D13A46214648460BF03F
:10539000C8F860BB3C443D4420783D2827D104F147
:1053A000010405F101050EE02078307006F10106D8
:1053B00004F1010405F1010508F1010808F10100FB
:1053C000584500DB0AE02078262807D0207828B14D
:1053D00020780A2802D020780D28E5D100BF4FF0B0
:1053E00000003070CAF800802846BDE8F09F05F143
:1053F000010504F10104207828B120780A2802D0A0
:1054000020780D28BBD14FF0FF30EEE770B5054690
:105410000C461646C949C8480BF070FBC6482060C8
:105420000BF069F8606021462846FFF746FF70BD23
:1054300070B5ACB004460E4615464FF00000019022
:105440004FF080000BAB0CAA29460090BCA0FFF7E0
:1054500086FF002806DC2A4631462046FFF7D6FFA5
:105460002CB070BD60680A90202001AB02AA2946CA
:105470000090B6A0FFF773FF0322B6A102A80BF0BD
:1054800050F820B90CA9DDE90A02FCF7D4FC2A4641
:1054900031462046FFF751FF0CA90A9802F00BF99C
:1054A00000BFDDE770B505460C461646AA49A2487E
:1054B0000BF024FBA04820600BF01DF86060214633
:1054C0002846FFF7FAFE70BDF8B505460C461646AD
:1054D000A24800780090A2480378A2480278A24926
:1054E00095480BF00BFB944820600BF004F86060CB
:1054F00021462846FFF7E1FEF8BD70B505460C468B
:1055000016469A498C480BF0F9FA8B4820600AF04D
:10551000F2FF606021462846FFF7CFFE70BD70B5F0
:1055200005460C461646924983480BF0E7FA824836
:1055300020600AF0E0FF606021462846FFF7BDFECC
:1055400070BD70B505460C4616468A497A480BF080
:10555000D5FA794820600AF0CEFF606021462846DF
:10556000FFF7ABFE70BD70B505460C461646824986
:1055700071480BF0C3FA704820600AF0BCFF60600D
:1055800021462846FFF799FE70BD70B594B00546D8
:105590000E4614464FF0200003AB0CAA21460090A3
:1055A00076A0FFF7DCFE00281FDD202002AB04AA56
:1055B0002146009074A0FFF7D2FE042275A10CA82A
:1055C0000AF0AFFF58B9062274A104A80AF0A9FF97
:1055D00028B9224631462846FFF7C5FF0AE0224691
:1055E00031462846FFF7ADFF04E022463146284603
:1055F000FFF7A7FF14B070BD2DE9F043A1B0064638
:105600000F4614469846B146B8F1000F00D17CB958
:1056100034B12189384606F012FB204605F084FC9F
:1056200049463846FFF72EFE002021B0BDE8F08342
:105630002189384606F003FB258900BF802201A896
:1056400061680AF033FF204605F06EFC002D02DC95
:105650004FF0FF30E9E7294601A800F085FF5148E7
:1056600000685049086006224FA101A80AF066FFB1
:1056700028B901AA49463846FFF751FF46E01222F1
:105680004BA101A80AF05AFF28B901AA4946384699
:10569000FFF77BFF3AE014224AA101A80AF04EFF6F
:1056A00028B901AA49463846FFF739FF2EE01422EF
:1056B0004AA101A80AF042FF28B901AA4946384682
:1056C000FFF71BFF22E00F224AA101A80AF036FFD4
:1056D00028B901AA49463846FFF7F6FE16E00F2220
:1056E00048A101A80AF02AFF28B901AA494638466C
:1056F000FFF7D8FE0AE00F2246A101A80AF01EFF1C
:1057000020B901AA49463846FFF792FE4946384675
:10571000FFF7B8FD002088E72DE9F04106460D4669
:105720001746FFF799FD04461CB94FF0FF30BDE85E
:10573000F08177E0B442010890840020194201080A
:1057400066696C656E616D6500000000616C6C5F80
:10575000646576006F6E0000343F0108F20200209D
:10576000F1020020D1020020AA3D0108B53C010849
:10577000FE3701087D3A0108103C01087573657217
:105780006E616D650000000070617373776F726405
:1057900000000000726F6F740000000062656968AD
:1057A00061690000C8020020474554202F200000F6
:1057B000474554202F6C6F67696E5F7375626D6922
:1057C000743F0000474554202F6C6F675F6572720D
:1057D0005F7375626D69743F000000004745542097
:1057E0002F6672616D655F696E6465782E68746D91
:1057F00000000000474554202F6672616D65312E10
:1058000068746D00474554202F6672616D65322EB5
:1058100068746D00474554202F7570646174655F2E
:1058200066773F004FF00000206060602146284608
:1058300006F04CFD2C49284606F04AFD2B49284627
:1058400006F04CFD0A222A49284606F04CFD29495B
:10585000284606F040FD0020BDE8F08170B506F056
:1058600030FD05464FF050022349284606F0E9FA7C
:10587000044600BF4FF0FF01284606F058FB0546DE
:105880002946284606F022FD1C49284606F029FD37
:1058900070BDF8B505460C461646194800780090CC
:1058A0001848037818480278184919480BF026F967
:1058B000174820600AF01FFE606021462846FFF767
:1058C000FCFCF8BD70B505460C461646114910485B
:1058D0000BF014F90E4820600AF00DFE60602146BE
:1058E0002846FFF7EAFC70BDF9550008735200081E
:1058F0001F530008F95200084E44010819570008C8
:10590000F2020020F1020020D1020020CE3901086D
:1059100090840020B13E010810B502F0DBF9F320BD
:1059200002F0F4FB0221282002F01CFA082805D01E
:1059300003E04148006840490860FAE710BD10B52F
:1059400002F0C8F910BD10B502F0D0F910BD2DE974
:10595000F04104460E4617464FF0000511E056F898
:105960002510364AA01802F0A5FA082805D003E051
:105970003148006830490860FAE704F1040405F191
:105980000105BD42EBDBBDE8F0812DE9F0410546A4
:105990000E46174602F09EF9F32002F0B7FB0221F3
:1059A000282002F0DFF9082805D003E0224800682B
:1059B00021490860FAE74FF000040FE0315D1F4A0B
:1059C0002A44101902F0C2FA082805D003E01A4848
:1059D000006819490860FAE704F10104BC42EDDBF4
:1059E00002F084F9BDE8F08110B503464FF00000E5
:1059F00005E0124C1C44245C0C5400F10100904260
:105A0000F7DB10BD01460868704710B50446FAF789
:105A1000DBFCFBF767FDFBF73FFD4FF47A70FBF70C
:105A20006BFDFBF739FD4FF47A70FBF765FD2046FF
:105A30000BF05FF810BD0000880400200000020891
:105A400010B5FDF7C5F810BD4FF0010052490860D0
:105A5000704710B550480068012859D14F48006878
:105A6000002855D14C4908604FF023004C4908707C
:105A70004C48007848704B48417849488170494803
:105A800081784748C1704748C17845480171464808
:105A900000784349487144484178414881714248FF
:105AA00081783F48C1714048C1783D4801723F4804
:105AB00000783B4948723D484178394881723B48FB
:105AC00081783748C1723948C17835480173384800
:105AD00000883349C8813748006808743648007820
