:020000040000FA
:1000000058640120157C0000DD1D0000DF1D00008C
:10001000E31D0000E71D0000EB1D000000000000D4
:10002000000000000000000000000000277C00002D
:10003000EF1D0000000000002B7C0000F11D0000FF
:100040002F7C00002F7C00002F7C00002F7C000004
:100050002F7C00002F7C00002F7C00002F7C0000F4
:100060002F7C00002F7C00002F7C00002F7C0000E4
:100070002F7C0000F91D00002F7C0000011E0000F5
:100080002F7C00002F7C00002F7C00002F7C0000C4
:100090002F7C00002F7C00002F7C00002F7C0000B4
:1000A0002F7C00002F7C00002F7C00002F7C0000A4
:1000B0002F7C00002F7C00002F7C00002F7C000094
:1000C0002F7C00002F7C00002F7C00002F7C000084
:1000D0002F7C00002F7C00002F7C00002F7C000074
:1000E0002F7C00002F7C00002F7C00002F7C000064
:1000F0002F7C00002F7C00002F7C00002F7C000054
:100100002F7C00002F7C00002F7C00002F7C000043
:100110002F7C00002F7C00002F7C00002F7C000033
:100120002F7C00002F7C00002F7C00002F7C000023
:100130002F7C00002F7C00002F7C00002F7C000013
:100140002F7C00002F7C00002F7C00002F7C000003
:100150002F7C00002F7C00002F7C00002F7C0000F3
:100160002F7C00002F7C00002F7C00002F7C0000E3
:100170002F7C00002F7C00002F7C00002F7C0000D3
:100180002F7C0000DFF80CD00EF090FB00480047F9
:1001900099010000586401204FF47A7001F094F83E
:1001A0004FF47A7001F090F800F082FC4FF47A700E
:1001B00001F08AF800F08AFC4FF47A7001F084F8BC
:1001C00000F02BFF00F045FF01F063F84F4801F00D
:1001D0007BF84E4801F078F801F05BF84B4801F0ED
:1001E00073F84A4801F070F801F053F801F00CFE82
:1001F000474801F069F800F016FF00F031FF01F008
:1002000048F8434801F060F800F007FF00F021FFD4
:1002100001F03FF842F2107001F056F800F08EF84D
:1002200004F03CFC01F0D0F94FF47A7001F04CF886
:1002300003F076FA01F02DF842F2107001F044F864
:1002400042F2107001F040F842F2107001F03CF8F8
:1002500004F089FC01F01DF842F2107001F034F84E
:100260002C4800782C4908704FE000F0CCF802F0E0
:1002700012F801F045FA03F09CFB284800680128B9
:1002800004DB00202549086001F017FE24480068BF
:10029000022804DB02202249086001F018FE2148F0
:1002A0000068052804DB00201E49086001F010FEEC
:1002B0001D4800680A2804DB00201B49086001F083
:1002C0000DFE1A480068142804DB00201749086056
:1002D00001F01AFE16480068322804DB0020144999
:1002E000086001F015FE13480068642804DB002054
:1002F0001049086001F01EFE0F480068C82804DBA2
:1003000000200D49086001F019FEAEE720A10700AA
:10031000A086010010000020050000206C000020D5
:100320007000002074000020780000207C00002075
:1003300080000020840000208800002010B50120EB
:10034000FE490870FE4908600B20FE490870012034
:10035000FD490870FD49088000F0F9FEFC4908706D
:1003600008460078F849087005F0E4F905F0DAFA73
:1003700005F0CEFD10BD10B504F0B6FC10BD10B5F3
:10038000F4480068F4490968884202DD00F09FFEE5
:1003900001E000F0A3FEEF484068EF490968884299
:1003A00002DD00F0A2FE01E000F0A5FEE948806851
:1003B000E9490968884202DD00F0A3FE01E000F08F
:1003C000A6FEE448C068E4490968884202DD00F0FE
:1003D000A4FE01E000F0A7FEDE480069DE490968DE
:1003E000884202DD00F0A5FE01E000F0A9FEDA4837
:1003F0000068401CD8490860084600680A2801DBEC
:100400000020086010BD10B5D448006801280CD148
:10041000D3480068401ED24908600846006803F0CF
:100420004BF90020CD4908600FE0CC480068022855
:100430000BD1CB480068401CC949086008460068D9
:1004400003F03AF90020C5490860FFF798FF10BD96
:100450007047C448006830B9C348007820F00300F2
:10046000C149087029E0BF48006801280BD1BE4887
:10047000007820F00300BC4908700846007840F07E
:100480000100087019E0B748006802280BD1B6488F
:10049000007820F00300B44908700846007840F066
:1004A0000200087009E0AF480068032805D1AE4893
:1004B000007820F00300AC490870AC48006830B9FF
:1004C000A948007820F00C00A74908701EE0A74852
:1004D000006802280BD1A448007820F00C00A24943
:1004E00008700846007840F0040008700EE09F484D
:1004F000006801280AD19C48007820F00C009A4935
:1005000008700846007840F00800087098480068B5
:1005100030B99548007820F010009349087005E044
:100520009148007840F010008F49087091480068A9
:1005300030B98D48007820F020008B49087005E024
:100540008948007840F02000874908708A48006890
:1005500030B98548007820F0C000834908702EE04B
:100560008548006801280BD17F48007820F0C00042
:100570007D4908700846007840F0400008701EE091
:100580007D48006802280BD17748007820F0C00031
:10059000754908700846007840F0800008700EE049
:1005A0007548006803280AD16F48007820F0C00021
:1005B0006D4908700846007840F0C0000870704728
:1005C00010B500F04EFE002807DD00F056FE0028B2
:1005D00003DD0020684908601EE000F042FE38B9E3
:1005E00000F04BFE002803DD01206349086013E0A2
:1005F00000F037FE002806DD00F03FFE18B90220AB
:100600005D49086008E000F02CFE28B900F035FED6
:1006100010B903205849086010BD10B500F0FCFD6A
:10062000002803DD00205249086002E00120504903
:10063000086000F0FDFD002803DD00204D49086042
:1006400002E001204B49086010BD2DE9F04100F0A7
:10065000BCFD074600F0C6FD054600F0D0FD06468D
:100660003FB90DB901240BE00EB9022408E00324C0
:1006700006E00DB9042403E00EB9042400E00024D0
:100680002046BDE8F081334A42F820107047014609
:10069000304850F82100704700B531480068A0B9D3
:1006A0000A210020FFF7EFFF00210120FFF7EBFFF9
:1006B00000210220FFF7E7FF00210320FFF7E3FFFF
:1006C00000210420FFF7DFFFA9E02548006800288B
:1006D00018DD23480068032814DC00210846FFF7D2
:1006E000D2FF0A210120FFF7CEFF00210220FFF7F1
:1006F000CAFF00210320FFF7C6FF00210420FFF7F7
:10070000C2FF8CE01648006803283ADD14480068F0
:10071000062836DC00210846FFF7B5FF002101203E
:10072000FFF7B1FF0A210220FFF7ADFF00210320F0
:10073000FFF7A9FF0021042020E000002500002091
:100740000800002004000020050000200600002012
:1007500010000020B004002028000020B802002073
:100760002401002014000020240000205801002053
:10077000180000201C00002020000020FFF783FF4D
:100780004DE0C4480068062818DDC2480068092802
:1007900014DC00210846FFF776FF00210120FFF757
:1007A00072FF00210220FFF76EFF0A210320FFF7EE
:1007B0006AFF00210420FFF766FF30E0B5480068BB
:1007C000092818DDB34800680C2814DC002108460D
:1007D000FFF759FF00210120FFF755FF00210220FC
:1007E000FFF751FF00210320FFF74DFF0A210420EE
:1007F000FFF749FF13E000210846FFF744FF0021FF
:100800000120FFF740FF00210220FFF73CFF0021FD
:100810000320FFF738FF00210420FFF734FF9E4834
:10082000006848BB0020FFF732FF18B90121002003
:10083000FFF729FF0120FFF72AFF18B90021012047
:10084000FFF721FF0220FFF722FF18B90021022045
:10085000FFF719FF0320FFF71AFF18B90021032043
:10086000FFF711FF0420FFF712FF002803D100213A
:100870000420FFF708FFC4E08748006800282DDD4A
:1008800085480068032829DC0020FFF700FF18B91D
:1008900000210846FFF7F7FE0120FFF7F8FE18B920
:1008A00001210846FFF7EFFE0220FFF7F0FE18B91E
:1008B00000210220FFF7E7FE0320FFF7E8FE18B94A
:1008C00000210320FFF7DFFE0420FFF7E0FE0028F1
:1008D000D1D100210420FFF7D6FE92E06E480068D7
:1008E00003282DDD6C480068062829DC0020FFF76E
:1008F000CEFE18B900210846FFF7C5FE0120FFF71C
:10090000C6FE18B900210120FFF7BDFE0220FFF747
:10091000BEFE18B901210220FFF7B5FE0320FFF744
:10092000B6FE18B900210320FFF7ADFE0420FFF743
:10093000AEFE002865D100210420FFF7A4FE60E090
:100940005548006806282CDD53480068092828DC33
:100950000020FFF79CFE18B900210846FFF793FE20
:100960000120FFF794FE18B900210120FFF78BFE4C
:100970000220FFF78CFE18B900210220FFF783FE4A
:100980000320FFF784FE18B901210320FFF77BFE47
:100990000420FFF77CFEA0BB00210420FFF773FEBC
:1009A0002FE03D48006809282BDD3B4800680C28F3
:1009B00027DC0020FFF76BFE18B900210846FFF77F
:1009C00062FE0120FFF763FE18B900210120FFF746
:1009D0005AFE0220FFF75BFE18B900210220FFF744
:1009E00052FE0320FFF753FE18B900210320FFF742
:1009F0004AFE0420FFF74BFE18B901210420FFF73F
:100A000042FE00BD10B500F044FC24480068401CC4
:100A10002249086008460068142805D101202049B1
:100A20000860FFF7A8FC08E01C480068B0F57A7F72
:100A300003DD4FF47A7019490860FFF72DFEFFF7C8
:100A400004FE18490860FFF7E8FDFFF7B9FDFFF75E
:100A500000FD10BD704710B50446402C02DD4FF07C
:100A6000FF3010BD10490C7004F01CF804F005F9BB
:100A70000020F6E710B50446B4F5803F02DD4FF0E4
:100A8000FF3010BD09490C8004F00CF804F0E5F8C3
:100A90000020F6E7240100207C010020080000204F
:100AA0000C0000201400002005000020060000209B
:100AB00010B501217F2006F045FB0121880306F0D7
:100AC00085FB0121880506F070FB10BD1CB50420D4
:100AD000009001208DF8040000208DF8060003200E
:100AE0008DF8050000208DF807006946FE4805F0E6
:100AF000CFFE4FF48060009001208DF804000020AC
:100B00008DF8060003208DF8050000208DF8070001
:100B10006946F64805F0BCFE04220121F24805F0C2
:100B200042FF04220021F04805F03DFF0220009022
:100B30008DF804008DF8050001208DF806000020D6
:100B40008DF807006946E84805F0A2FE01200090F4
:100B50006946E54805F09CFE4FF4007000900220C5
:100B60008DF804008DF8050000208DF806008DF842
:100B700007006946DE4805F08BFE05220921DC48A6
:100B800005F011FF4020009002208DF804008DF840
:100B9000050000208DF806008DF807006946D4484E
:100BA00005F076FE05220621D14805F0FCFE4FF443
:100BB0008050009002208DF804008DF80500002080
:100BC0008DF806008DF807006946CA4805F060FEFA
:100BD00005220C21C74805F0E6FE4FF400500090B6
:100BE00002208DF804008DF8050000208DF8060025
:100BF0008DF807006946BF4805F04AFE05220D2121
:100C0000BC4805F0D0FE4FF40040009002208DF863
:100C100004008DF8050000208DF806008DF807000F
:100C20006946B44805F034FE05220F21B14805F0AD
:100C3000BAFE8020009002208DF804008DF8050097
:100C400000208DF806008DF807006946A84805F0D9
:100C50001FFE06220721A64805F0A5FE10200090E1
:100C600002208DF804008DF8050000208DF80600A4
:100C70008DF807006946A04805F00AFE0622042107
:100C80009D4805F090FE4FF48060009002208DF8A2
:100C900004008DF8050000208DF806008DF807008F
:100CA0006946934805F0F4FD06220A21904805F0B4
:100CB0007AFE4FF48050009002208DF804008DF8E9
:100CC000050000208DF806008DF807006946884869
:100CD00005F0DEFD06220C21854805F064FE4FF488
:100CE0000050009001208DF8040000208DF80600CF
:100CF00003208DF8050000208DF8070069467B4829
:100D000005F0C6FD4FF48040009001208DF80400EE
:100D100000208DF8060003208DF8050000208DF8D6
:100D200007006946714805F0B3FD4FF4004000909C
:100D300001208DF8040000208DF8060003208DF8B6
:100D4000050000208DF807006946684805F0A0FD01
:100D50004FF40040009001208DF8040000208DF831
:100D6000060003208DF8050000208DF80700694675
:100D70005D4805F08DFD012000908DF804000020F5
:100D80008DF8060003208DF8050000208DF807007F
:100D900069465A4805F07CFD0220009001208DF83C
:100DA000040000208DF8060003208DF805000020C7
:100DB0008DF807006946514805F06AFD80200090D3
:100DC00001208DF8040000208DF8060003208DF826
:100DD000050000208DF807006946444805F058FDDD
:100DE0004FF48070009001208DF8040000208DF8F1
:100DF000060003208DF8050000208DF807006946E5
:100E00003A4805F045FD4FF40060009000208DF851
:100E1000040003208DF8050001208DF807006946C5
:100E2000334805F035FD0220009000208DF80400C5
:100E300003208DF8050001208DF807006946304831
:100E400005F026FD0120009000208DF8040003200D
:100E50008DF8050001208DF807006946284805F047
:100E600017FD0420009000208DF8040003208DF869
:100E7000050001208DF807006946214805F008FDAE
:100E80004FF40060009000208DF8040003208DF8DE
:100E9000050001208DF807006946144805F0F8FCAC
:100EA0004FF40070009000208DF8040003208DF8AE
:100EB000050001208DF8070069460C4805F0E8FCA4
:100EC0004FF40060009000208DF8040003208DF89E
:100ED000050001208DF807006946034805F0D8FC9D
:100EE0004FF4805000900DE00014024000100240CA
:100EF00000080240000402400000024000180240C6
:100F0000000C024000208DF8040003208DF805003D
:100F100001208DF807006946E54805F0B9FC4FF45B
:100F20000050009000208DF8040003208DF805008B
:100F300001208DF807006946DD4805F0A9FC102066
:100F4000009000208DF8040003208DF8050001209A
:100F50008DF807006946D74805F09AFC08200090F4
:100F600000208DF8040003208DF8050001208DF885
:100F700007006946CF4805F08BFC4FF48040009095
:100F800000208DF8040003208DF8050001208DF865
:100F900007006946C64805F07BFC20200090002031
:100FA0008DF8040003208DF8050001208DF807005E
:100FB0006946C14805F06CFC0820009000208DF8BF
:100FC000040003208DF8050001208DF80700694614
:100FD000B94805F05DFC0420009001208DF8040064
:100FE00000208DF8060003208DF8050000208DF804
:100FF00007006946B14805F04BFC1CBD704710B5B1
:101000000421AB4805F0B3FCC0F10100C4B2224694
:101010000421A74805F0BCFC10BD10B50421A4486C
:1010200005F0B4FC10BD10B50421A14805F0ACFCDE
:1010300010BD10B54FF48061A04805F098FCC0F1D8
:101040000100C4B222464FF480619C4805F0A0FC28
:1010500010BD10B54FF48061984805F097FC10BDA5
:1010600010B54FF48061954805F08EFC10BD10B5A9
:101070000446002C05DD4FF40051904805F084FC37
:1010800004E04FF400518D4805F080FC10BD10B510
:101090000446002C05DD4FF48041884805F074FCBF
:1010A00004E04FF48041854805F070FC10BD10B598
:1010B0000446002C05DD4FF40041804805F064FC37
:1010C00004E04FF400417D4805F060FC10BD10B510
:1010D0004FF40041764805F059FC10BD10B54FF4AF
:1010E0000041734805F050FC10BD10B50121744853
:1010F00005F04CFC10BD10B50121714805F044FC11
:1011000010BD10B502216E4805F040FC10BD10B5B1
:1011100002216B4805F038FC10BD10B580216748EE
:1011200005F034FC10BD10B58021644805F02CFC9E
:1011300010BD10B54FF48071604805F027FC10BD5C
:1011400010B54FF480715D4805F01EFC10BD70B500
:1011500000254FF400615B4805F0FCFB04462819AC
:10116000C5B20221534805F0F5FB044605EB4400E7
:10117000C5B201214F4805F0EDFB044605EB8400A4
:10118000C5B204214B4805F0E5FB044605EBC4005D
:10119000C5B2284670BD70B54FF40061474805F0F0
:1011A000D9FB05460DB9002400E00124204670BD9E
:1011B00070B54FF40071414805F0CCFB05460DB900
:1011C000002400E00124204670BD70B54FF400619A
:1011D000374805F0BFFB05460DB9002400E00124A7
:1011E000204670BD70B54FF48051314805F0B2FB18
:1011F00005460DB9002400E00124204670BD70B5FD
:101200004FF400512A4805F0A5FB05460DB900240E
:1012100000E00124204670BD70B51021254805F07E
:1012200099FB05460DB9002400E00124204670BD5D
:1012300070B508211F4805F08DFB05460DB9002447
:1012400000E00124204670BD70B54FF4804118487D
:1012500005F080FB05460DB9002400E0012420467E
:1012600070BD70B52021144805F074FB05460DB91A
:10127000002400E00124204670BD70B508210E480E
:1012800005F068FB05460DB9002400E00124204666
:1012900070BD10B50421094805F069FBC0F10100DB
:1012A000C4B222460421054805F072FB10BD0000BF
:1012B00000140240000C02400000024000100240F6
:1012C00000180240000802400146002206E000200B
:1012D00001E000BF401C1428FBDB521C8A42F6D3FD
:1012E000704710B5014601F0F00201F00F03121132
:1012F00002EB820403EB4404E0B210BD30B50146BA
:101300000A2491FBF4F4E2B20A2491FBF4F504FB05
:101310001514E3B203EB0214E0B230BD01460A201B
:1013200009B9012007E0012203E000EB8003580027
:10133000521C8A42F9DB70470146102009B901208E
:1013400005E0012201E00001521C8A42FBDB7047EC
:1013500010B5002304E0401C884200DB00205B1C29
:101360009342F8DB10BD401C884200DB0020704730
:101370002DE9F04104460F461646069D0021002047
:1013800025E014F801C0BCF1000F06D14FF00008B1
:1013900000FB05FC06F80C801DE0002207E014F8B5
:1013A00001C000FB056808F802C0491C521C14F873
:1013B00001C0BCF1200F01DDAA42F0DB32B14FF0D9
:1013C000000C00FB056808F802C0401C491C98424C
:1013D00001DAB942D5DB00BFBDE8F08170B5034644
:1013E0000C460021002500200EE05E5CA64204D0E1
:1013F0001DB95E5C1654401C05E05E5CA64202D13D
:10140000002616546D1C491C5E5C16B1B1F5806F48
:10141000EBDB0026165470BD70B503460C46002168
:10142000002500200FE05E5CA64205D0012D03D10F
:101430005E5C1654401C05E05E5CA64202D10026AC
:1014400016546D1C491C5E5C16B1B1F5806FEADB69
:101450000026165470BD2DE9F04107464FF00008F4
:1014600038460CF09FFF0646022E34DD38783028CF
:1014700031D17878782802D0787858282BD1002577
:1014800025E0B81C445D302C09DB392C07DC303CEE
:10149000F11E481BFFF750FF04FB008816E0412CAB
:1014A00009DB462C07DC373CF11E481BFFF744FFE5
:1014B00004FB00880AE0612C08DB662C06DC573C44
:1014C000F11E481BFFF738FF04FB00886D1CB01E9F
:1014D000A842D6DC15E0002511E07C5D302C09DB4C
:1014E000392C07DC303C711E481BFFF717FF04FB4B
:1014F000008803E033480068324908606D1CB5423B
:10150000EBDB4046BDE8F0812DE9F0470646894611
:1015100015469A46BAF1000F21D12846FFF7FEFE84
:1015200099FBF0F100FB1197002413E0691E081BE2
:10153000FFF7F4FE97FBF0F000F0FF08691E081BB0
:10154000FFF7ECFE97FBF0F100FB117708F130009C
:101550003055641CAC42E9DB0020705522E086F86F
:1015600000A0681EFFF7DAFE99FBF0F100FB11976F
:10157000012413E0691E081BFFF7D0FE97FBF0F073
:1015800000F0FF08691E081BFFF7C8FE97FBF0F18B
:1015900000FB117708F130003055641CAC42E9DBE8
:1015A000002070550020BDE8F08701460A78120639
:1015B0004B7842EA03428B7842EA0322CB7842EA34
:1015C000030070470000002010B542F21070FFF7D2
:1015D0007BFE5E20FE49087045204870A22088707E
:1015E000A820C8706520087164204871C020F9499E
:1015F0000870A8204870652088706420C870C020DA
:10160000F5490870A8204870652088700120C870CE
:10161000FF20F2490870487088700020C870C02010
:10162000EF490870A8204870652088708F20C87026
:10163000FFF78DFDEB49087008460078EA4908700D
:10164000E7480078E3490870E54840784870E44886
:1016500080788870E248C078E34909780844DD4919
:10166000C8700846C07808B9FF20C870D9484078CB
:10167000D749C870D74880780871D648C078487173
:10168000D4480078D9490870D24840784870D14889
:1016900080788870FF20C870D548D649086001203E
:1016A000D549086042F21070FFF70EFE00F087FB8C
:1016B00042F21070FFF708FE00BF00F06CFD42F22E
:1016C0001070FFF701FE02F013FE03F09BF90020FB
:1016D00010BD10B5C948006801280FD1C848C949D4
:1016E0000268C448006802F0FDFEC6480168C148AF
:1016F000006800F0D9FE0020C0490860002010BD3D
:1017000010B5FFF7E6FF10BD70471CB5BE48006876
:10171000002802DDBC48047A00E0FF24BB480178C1
:10172000BB480078CDE90001BA4803782246B549A4
:10173000B048006802F086FEB2480168AD48006813
:1017400000F049FE00201CBD10B5FFF7DEFF10BD04
:1017500001460A7812064B7842EA03428B7842EA45
:101760000322CB7842EA030070472DE9F04104469A
:101770000D4616461F46802C03DA4FF0FF30BDE8B9
:10178000F081F72D02DD4FF0FF30F8E7FF2E02DD8C
:101790004FF0FF30F3E7FF2F02DD4FF0FF30EEE7B1
:1017A0008C48047045708670C7708D480470457011
:1017B0008670C7704FF47A70FFF786FD03F072F9F8
:1017C0004FF47A70FFF780FD03F070F94FF47A70F0
:1017D000FFF77AFD4FF47A70FFF776FD8E48FFF73A
:1017E00073FD8D48FFF770FD0020C8E730B5014656
:1017F0000A0EC1F30743C1F30724CDB2802A02DAEF
:101800004FF0FF3030BDF72A02DD4FF0FF30F9E72F
:10181000FF2B02DD4FF0FF30F4E7FF2C02DD4FF02D
:10182000FF30EFE7FF2D02DD4FF0FF30EAE76948B8
:10183000027043708470C5700020E3E770B5054600
:10184000002D01DA022400E0012422466D49694896
:10185000006802F030FF6B4801686648006800F0DD
:10186000BAFD002070BD2DE9F0416C48006802F01F
:10187000A7FD0446257866785B480078854207D145
:10188000012E05D104F052FB07463846FFF7D6FF7C
:101890000020BDE8F0812DE9F84F0446270EC4F37F
:1018A0000748C4F30729E5B2802F03DA4FF0FF3071
:1018B000BDE8F88FB8F1F70F02DD4FF0FF30F7E722
:1018C000B9F1FF0F02DD4FF0FF30F1E75A2D02DDD5
:1018D0004FF0FF30ECE73F4890F800A090F801B0DF
:1018E000807800904E4800780B2807D13948C0789E
:1018F0003D490978401A8E38C6B216E0484800784B
:10190000022807D13348C07837490978401A801E29
:10191000C6B20AE042480078082806D12D48C078AF
:1019200031490978401A5C38C6B2574508D1D845C4
:1019300006D10098814503D1B54201D10120B7E716
:101940002748077080F8018080F8029034480078BA
:101950000B2804D105F18E002149C8700FE03048F2
:101960000078022803D1A81C1D49C87007E02C4844
:101970000078082803D105F15C001949C87003F00C
:1019800091F8002094E770B52448066806F1090430
:10199000A078012807D1E078012805D1656828469C
:1019A000FFF779FF00E000BF002070BD10B50E48C2
:1019B00003781B4802781B4801681848006802F049
:1019C00004FD0446642C02DA204601F075FE2BE08B
:1019D0002C00002032000020360000203A000020B9
:1019E0005C000020100000200500002060000020A6
:1019F000C40400204C000020540000203C010020C2
:101A00003801002050000020F87900202500002037
:101A10002401002024000020A086010044000020B2
:101A20000400002048000020002010BD70B50546CD
:101A30000E468C4805608C4806608A48006802F0B3
:101A400075FC10B14FF0FF3070BD8648006802F0A1
:101A5000ADFC0446012C09D0022C04D0A4F50C5096
:101A6000113848B905E0FFF7A1FF06E0FFF78BFF4B
:101A700003E0FFF7F8FE00E000BF00BF0020E3E74F
:101A800010B57A497A48006802F050FE774801683C
:101A90007748006800F09FFC002010BD2DE9F0475A
:101AA00080460F466F48C0F800806F480760B7F562
:101AB000806F03DA4FF0FF30BDE8F08769480068B7
:101AC00002F034FC10B14FF0FF30F5E765480068D4
:101AD00002F06CFC81466348006802F05FFC064639
:101AE0006048006802F05EFC0546B9F1040F3CD185
:101AF0005C48006802F064FC04465E480068012807
:101B00000DDA0A205B490860084606714571607865
:101B1000088120788871A01C01F0A1FE25E0607882
:101B20005449098988420DDA0A205249086008465A
:101B3000067145716078088120788871A01C01F0D9
:101B40008EFE12E060784B49098988420DD14948E0
:101B50000079B04209D147484079A84205D10A200E
:101B600044490860A01C01F07AFE0020A4E7002090
:101B7000704702460020704702460020704770B54B
:101B800004460D462B46224638493948006802F083
:101B900038FD364801683648006800F062FC0020D5
:101BA00070BD70B504460D462B4622462F4930487D
:101BB000006802F053FD2D4801682D48006800F0D0
:101BC00050FC002070BD2DE9F04106460F46254827
:101BD0000660254807602348006802F0A7FB18B19B
:101BE0004FF0FF30BDE8F0811E48006802F0DEFBD8
:101BF0000446032C13D11B48006802F0D3FB0546B2
:101C00001D48007885420ADA1C480068401C1B49C0
:101C1000086008460068482801DD48200860002068
:101C2000E0E710B502F09FFF15480078802802DA3F
:101C3000C0201349087012484078F72802DDA82018
:101C40000F4908700E488078FF2802DD65200C4996
:101C500088700B48C078022802DA64200849C870EE
:101C6000002010BD4400002048000020500000204B
:101C70004C000020F87900200500002044010020DD
:101C80005C00002000B5AFB001214FF0606005F0AE
:101C900059FA06F0CFF806F08EFD00BF06F092FD6F
:101CA0000128FBD0684606F0D0F801200090002003
:101CB00007904FF400700A9000200B900E90119046
:101CC00013901490159020904FF000702190001107
:101CD000239000202590269004202890C00529906C
:101CE00040122A9080012B9040122C9040002E90A0
:101CF0000121684606F002F9344908602FB000BDA2
:101D00001CB50121672005F01DFA0121880305F0AB
:101D10005DFA4FF48070009003208DF805000220DA
:101D20008DF8040000208DF806008DF80700694644
:101D3000274804F0ADFD012005F023FD862000902A
:101D40006946234804F0A4FD0B220121204804F039
:101D50002AFE0B2202211E4804F025FE0B22072139
:101D60001B4804F020FE322000906946194804F018
:101D70008FFD0B220121174804F015FE0B220421D0
:101D8000144804F010FE0B220521124804F00BFE4B
:101D90004FF4D040009069460F4804F079FD0B22C3
:101DA00011460D4804F0FFFD0B220D210A4804F0F6
:101DB000FAFD0B220E21084804F0F5FD1CBD10B5FC
:101DC000FFF79EFFFFF75EFF10BD000064000020DC
:101DD000000002400008024000180240704700BFA7
:101DE000FEE700BFFEE700BFFEE700BFFEE770476B
:101DF00010B500F037F810BD10B501F02DFB10BD87
:101E000010B501F0E3F910BD7FB5042004F0E0FA4D
:101E1000684605F002F964220198B0FBF2F1B1F1D5
:101E2000807F00D31DE021F07F40401E4FF0E02274
:101E3000506150170F22002807DA13071D0E404B80
:101E400000F00F04241F1D5503E013071C0E3D4B2B
:101E50001C5400BF00204FF0E02290610720106169
:101E600000BF7FBD38480068401C374908603748CC
:101E70000068401C3549086035480068401C3449FA
:101E8000086034480068401C3249086032480068E5
:101E9000401C3149086031480068401C2F490860E7
:101EA0002F480068401C2E4908602E480068401CDE
:101EB0002C49086070477047704710B503F05BFD10
:101EC00003F01CFE01F097FEFEF7C2FA10BD70474A
:101ED00010B5FFF719FC00F0F4F910BD10B5FEF7CE
:101EE00091FD01F073FF20480068002803DDFFF733
:101EF00086F8FFF79EF802F0D9FD03F0BFFD04F06D
:101F000031F803F087FE10BD10B501F08EFF10BD53
:101F100010B515480068012803DAFFF770F8FFF7DD
:101F200088F8FFF711FC01F0B0FF02F02DFF04F07C
:101F3000DFF910BD10B5FEF78DFD10BD7047000034
:101F400018ED00E000E400E06C00002070000020CC
:101F500074000020780000207C0000208000002019
:101F60008400002088000020F879002010B50AF0D5
:101F700007FBFE4908604CF69F72FD49FB4800686C
:101F80000AF0E5F910BD2DE9F04106460F4614466A
:101F90009846069D61896068FFF715FE204607F0A8
:101FA000F9F8BDE8F08110B50AF0EAFAF1490860E5
:101FB0004CF6A072EE49EF4800680AF0C8F900221A
:101FC000AFF23D01EB4800680AF0B9FA10BD10B558
:101FD0000AF0D6FAE84908604CF6B732E449E64818
:101FE00000680AF0B4F910BD2DE9F04106460F462D
:101FF00014469846069D61896068FFF7BAFD204641
:1020000007F0C8F8BDE8F08110B50AF0B9FADB496D
:1020100008604CF6B832D649D84800680AF097F9FB
:102020000022AFF23B01D54800680AF088FA10BDE3
:1020300010B50AF0A5FAD24908604CF2CF72CC492B
:10204000CF4800680AF083F910BD2DE9F04106463B
:102050000F4614469846069D61896068FFF71EFD8D
:10206000204607F097F8BDE8F08110B50AF088FA2D
:10207000C44908604CF2D072BD49C24800680AF0F9
:1020800066F90022AFF23D01BE4800680AF057FA37
:1020900010BD10B50AF074FABB4908604CF2E73283
:1020A000B349B94800680AF052F910BD2DE9F04172
:1020B00006460F4614469846069D61896068FFF7FC
:1020C000B5FC204607F066F8BDE8F08110B50AF0CF
:1020D00057FAAE4908604CF2E832A549AB480068AF
:1020E0000AF035F90022AFF23B01A84800680AF077
:1020F00026FA10BD2DE9F04106460F4614469846D3
:10210000069D6189606802F0BCFE204607F042F837
:10211000BDE8F08110B50AF033FA9D49086043F636
:10212000603293499A4800680AF011F90022AFF230
:102130003B01974800680AF002FA10BD2DE9F04112
:1021400080460D4614461E46069F43F662323146CF
:1021500028460AF0B7F9214628460AF0A9F9284688
:102160000AF0DFF9204607F015F8BDE8F08110B558
:102170000AF006FA8749086043F662327C498548CE
:1021800000680AF0E4F80022AFF24F0181480068CD
:102190000AF0D5F910BD00B587B006F03DFD06F098
:1021A000A3FE7D4909780A067B49497842EA014243
:1021B0007949897842EA0121774AD27841EA0200D6
:1021C0000AF0D0FC0690754909780A0673494978E7
:1021D00042EA01427149897842EA01216F4AD27884
:1021E00041EA02000AF0BEFC05906D4909780A0632
:1021F0006B49497842EA01426949897842EA0121FA
:10220000674AD27841EA02000AF0ACFC04904FF031
:10221000FF300AF0A7FC634908605F4909780A06A5
:102220005D49497842EA01425B49897842EA0121E5
:1022300041F0FF000AF096FC5B4908605B485C498E
:10224000002204ABCDE90021029005AA06A9594855
:1022500006F0F5FE574806F023FF564806F068FFE3
:10226000FFF785FFFFF756FFFFF730FFFFF711FF7E
:10227000FFF7FBFEFFF7DCFEFFF7C6FEFFF7A7FE4A
:10228000FFF791FEFFF772FE07B000BD10B5494899
:102290000CF026F810BD10B506F05EF908B1FFF796
:1022A000F5FF10BD10B544480068401C4249086065
:1022B00008460068642803DD002008600BF0C9FAB6
:1022C00010BD10B5FFF7EEFF10BD1CB520208DF836
:1022D000000021208DF8010022208DF8020023202B
:1022E0008DF8030024208DF8040025208DF80500CA
:1022F00026208DF8060027208DF8070043F662326D
:102300002949244800680AF0DDF80322082100204A
:1023100006F077FF044684B108226946204607F09C
:10232000AFF921461B4800680AF0C2F81948006856
:102330000AF0F7F8204606F02DFF1CBD70B50646E2
:102340000C4643F661321849114800680AF0BAF8A1
:10235000A1B20322002006F054FF054675B3A2B2D5
:102360003146284607F08CF9294628E0B8000020BD
:10237000DE160100B4000020B0000020AC000020F8
:10238000A8000020A4000020A00000209C00002045
:102390009800002094000020320000203A00002025
:1023A000360000208C000020900000200FE100008B
:1023B0000DE30000C4090020BC0000200AE04C48E6
:1023C00000680AF075F84A4800680AF0AAF828463A
:1023D00006F0E0FE70BD70B506460C464CF2E832E1
:1023E0004449454800680AF06DF8A1B20322002074
:1023F00006F007FF054685B1A2B23146284607F030
:102400003FF929463C4800680AF052F83A4800680B
:102410000AF087F8284606F0BDFE70BD70B5064686
:102420000C464CF2D0723349344800680AF04AF83E
:10243000A1B20322002006F0E4FE054685B1A2B257
:102440003146284607F01CF929462C4800680AF056
:102450002FF82A4800680AF064F8284606F09AFE29
:1024600070BD70B506460C464CF6B832214924487A
:1024700000680AF027F8A1B20322002006F0C1FE8E
:10248000054685B1A2B23146284607F0F9F829463B
:102490001B4800680AF00CF8194800680AF041F877
:1024A000284606F077FE70BD70B506460C464CF621
:1024B000A0721049134800680AF004F8A1B2032280
:1024C000002006F09EFE054685B1A2B231462846A0
:1024D00007F0D6F829460B48006809F0E9FF0948DB
:1024E00000680AF01EF8284606F054FE70BD000091
:1024F0009800002090000020A0000020A8000020EC
:10250000B0000020B80000201FB50020ADF8040086
:102510004BF6FF70ADF80600A020ADF808004FF4B0
:102520008060ADF80A000001ADF80C00FA48009098
:102530000121FA4804F011FB6946F84804F091FAC9
:102540001FBD2DE9F04104460D46270AE6B20020E2
:10255000F3490860F34908600EE0F1480068401C48
:10256000EF49086008460068B0F57A2F04DD0120C5
:10257000EC490860BDE8F0814FF40031E74804F011
:1025800012FC0028E9D10121E44804F0F2FA00200D
:10259000E3490860E34908600DE0E1480068401C39
:1025A000DF49086008460068B0F57A2F03DD022095
:1025B000DC490860DEE7DC49D84804F0D2FB00289B
:1025C000EBD00022A021D54804F0EBFA0020D4493A
:1025D0000860D44908600DE0D1480068401CD0492B
:1025E000086008460068B0F57A2F03DD0320CD4966
:1025F0000860BFE7CD49C94804F0B3FB0028EBD021
:102600003946C64804F051FB0020C5490860C54959
:1026100008600DE0C2480068401CC14908600846D7
:102620000068B0F57A2F03DD0420BE490860A1E7F9
:10263000BF49BA4804F0B7FB0028EBD03146B74891
:1026400004F033FB0020B6490860B64908600DE08D
:10265000B3480068401CB249086008460068B0F5FD
:102660007A2F03DD0520AF49086083E7B049AB4806
:1026700004F099FB0028EBD02946A84804F015FB8C
:102680000020A7490860A74908600DE0A448006839
:10269000401CA349086008460068B0F57A2F03DDA6
:1026A0000620A049086065E7A1499C4804F07BFB2F
:1026B0000028EBD000209A4908609A4908600DE094
:1026C00097480068401C9649086008460068B0F5C5
:1026D0007A2F03DD0720934908604BE79349891E51
:1026E0008E4804F03EFB0028EAD001218B4804F01C
:1026F0004CFA00BF3EE72DE9F0410446260AE5B258
:10270000002087490860874908600FE08448006816
:10271000401C8349086008460068B0F57A2F05DD43
:10272000082080490860FF20BDE8F0814FF40031A7
:102730007A4804F038FB0028E8D10121774804F0FA
:1027400018FA002076490860764908600EE074485F
:102750000068401C7249086008460068B0F57A2F8E
:1027600004DD09206F490860FF20DDE76E496B48F2
:1027700004F0F7FA0028EAD00022A021674804F00C
:1027800010FA002066490860664908600EE0644857
:102790000068401C6249086008460068B0F57A2F5E
:1027A00004DD0A205F490860FF20BDE75F495B4800
:1027B00004F0D7FA0028EAD03146584804F075FAF8
:1027C000002057490860574908600EE054480068E7
:1027D000401C5349086008460068B0F57A2F04DDB4
:1027E0000B2050490860FF209EE751494B4804F0F8
:1027F000DAFA0028EAD02946484804F056FA0020C0
:1028000047490860474908600EE045480068401C99
:102810004349086008460068B0F57A2F04DD0B20B4
:1028200040490860FF207FE741493C4804F0BBFA7B
:102830000028EAD00121394804F09BF900203849EA
:102840000860384908600EE035480068401C34498B
:10285000086008460068B0F57A2F04DD0C20314985
:102860000860FF2060E730492C4804F07AFA00281D
:10287000EAD00122A021294804F093F90020284938
:102880000860284908600EE025480068401C24497B
:10289000086008460068B0F57A2F04DD0D20214954
:1028A0000860FF2040E72249891E1C4804F07BFA9B
:1028B0000028E9D00021194804F07BF917481830A6
:1028C00000880121154804F060F9002014490860CF
:1028D000144908600EE012480068401C1049086066
:1028E00008460068B0F57A2F04DD0E200D49086017
:1028F000FF2019E70E493C31084804F054FA00283B
:10290000E9D0064804F0D3F90746002004490860DE
:10291000044908601DE00000A08601000058004046
:10292000C0000020C4000020010003008200070056
:1029300004000010FC480068401CFB490860084681
:102940000068B0F57A2F04DD0F20F8490860FF20F9
:10295000EAE6F748008800F400700028EAD1012177
:10296000F34804F026F93846DEE62DE9F04706463E
:102970000F4615464FF6FF7000EA46184FEA182A30
:1029800008F0FF09202D00DD20250020E649086021
:10299000E64908600EE0E4480068401CE24908602F
:1029A00008460068B0F57A2F04DD1020DF49086082
:1029B000BDE8F0874FF40031DD4804F0F4F9002859
:1029C000E9D10121DA4804F0D4F80020D6490860A2
:1029D000D64908600DE0D4480068401CD249086020
:1029E00008460068B0F57A2F03DD1120CF49086052
:1029F000DEE7D049CE4804F0B4F90028EBD000223D
:102A0000A021CB4804F0CDF80020C7490860C74991
:102A100008600DE0C4480068401CC34908600846CF
:102A20000068B0F57A2F03DD1220C0490860BFE7C7
:102A3000C149BF4804F095F90028EBD05146BC4885
:102A400004F033F90020B8490860B84908600DE087
:102A5000B5480068401CB449086008460068B0F5F5
:102A60007A2F03DD1320B1490860A1E7B349B048CC
:102A700004F099F90028EBD04946AD4804F015F967
:102A80000020A9490860A94908600DE0A64800682F
:102A9000401CA549086008460068B0F57A2F03DDA0
:102AA0001420A249086083E7A449A14804F07BF9F7
:102AB0000028EBD000241EE0395D9D4804F0F5F8B5
:102AC000002099490860994908600DE0964800681F
:102AD000401C9549086008460068B0F57A2F03DD70
:102AE00015209249086063E79449914804F05BF926
:102AF0000028EBD0641CAC42DEDB00208A49086071
:102B00008A4908600DE088480068401C86490860D2
:102B100008460068B0F57A2F03DD16208349086067
:102B200046E78549891E824804F01BF90028EAD04F
:102B300001217F4804F029F800BF39E72DE9F0476B
:102B400006460F4615464FF6FF7000EA46184FEA54
:102B5000182A08F0FF09202D00DD202500207249E9
:102B60000860724908600EE06F480068401C6E49BA
:102B7000086008460068B0F57A2F04DD17206B491D
:102B80000860BDE8F0874FF40031694804F00BF9A4
:102B90000028E9D10121664803F0EBFF00206249DB
:102BA0000860624908600DE05F480068401C5E49AB
:102BB000086008460068B0F57A2F03DD18205B49ED
:102BC0000860DEE75B495A4804F0CBF80028EBD0F8
:102BD0000022A021564803F0E4FF0020524908607B
:102BE000524908600DE050480068401C4E4908609A
:102BF00008460068B0F57A2F03DD19204B490860BC
:102C0000BFE74D494A4804F0ACF80028EBD05146E4
:102C1000474804F04AF800204349086043490860E7
:102C20000DE041480068401C3F49086008460068C4
:102C3000B0F57A2F03DD1A203C490860A1E73F492F
:102C40003B4804F0B0F80028EBD04946384804F07F
:102C50002CF8002034490860344908600DE03248FF
:102C60000068401C3049086008460068B0F57A2FBB
:102C700003DD1B202D49086083E730492C4804F010
:102C800092F80028EBD0002491E00121284803F0BD
:102C900070FF002024490860244908600DE02248A4
:102CA0000068401C2049086008460068B0F57A2F8B
:102CB00003DD1C201D49086063E71E491C4804F021
:102CC00050F80028EBD00122A021194803F069FF39
:102CD000002015490860154908600DE01248006899
:102CE000401C1149086008460068B0F57A2F03DDE2
:102CF0001D200E49086044E71049891E0C4804F065
:102D000052F80028EAD00021094803F052FF084891
:102D1000183000880121064803F037FF00200249DF
:102D200008600249086019E0C0000020C4000020CB
:102D3000005800400100030082000700040000105A
:102D40009F480068401C9E49086008460068B0F52E
:102D50007A2F03DD1E209B49086012E79A499B48A1
:102D600004F021F80028EBD0984803F0A0FF385574
:102D7000002093490860934908600DE0904800687E
:102D8000401C8F49086008460068B0F57A2F03DDC3
:102D90001F208C490860F4E68C48008800F400701D
:102DA0000028EBD10121894803F003FF641CAC42E9
:102DB000FFF66BAF00BFE4E61FB50020ADF80400DE
:102DC0004BF6FF70ADF806008820ADF808004FF410
:102DD0008060ADF80A000001ADF80C007C4800905E
:102DE00001217A4803F0B9FE6946784803F039FEBC
:102DF0001FBD2DE9F04781460C464F2C01DD4F24C5
:102E000002E0002C00DA00240A2094FBF0F0C7B2A4
:102E10000A2094FBF0F100FB114000F0FF08B9F12B
:102E2000010F04D147F0B00548F0A0060BE0B9F15E
:102E3000020F04D147F0300548F0200603E047F0C8
:102E4000E00548F0D00600205D4908605D49086053
:102E50000EE05B480068401C59490860084600685D
:102E6000B0F57A2F04DD652056490860BDE8F0878B
:102E70004FF40031554803F096FF0028E9D10121B5
:102E8000524803F076FE00204D4908604D49086025
:102E90000DE04B480068401C49490860084600683E
:102EA000B0F57A2F03DD662046490860DEE7494920
:102EB000464803F056FF0028EBD000228821434803
:102EC00003F06FFE00203E4908603E4908600DE0B7
:102ED0003B480068401C3A49086008460068B0F565
:102EE0007A2F03DD672037490860BFE73A49374842
:102EF00003F037FF0028EBD02946344803F0D5FE15
:102F000000202F4908602F4908600DE02C48006818
:102F1000401C2B49086008460068B0F57A2F03DD95
:102F2000682028490860A1E727493C39274803F071
:102F30003AFF0028EAD03146244803F0B6FE0020CC
:102F40001F4908601F4908600DE01D480068401CCB
:102F50001B49086008460068B0F57A2F03DD692038
:102F60001849086082E718493C39184803F01BFFEC
:102F70000028EAD0002012490860124908600DE0DC
:102F80000F480068401C0E49086008460068B0F50C
:102F90007A2F03DD6A200B49086067E70E49891E16
:102FA0000A4803F0DEFE0028EAD00121074803F0BA
:102FB000ECFD00BF5AE7704701460020704770479C
:102FC000C0000020C4000020400000100058004055
:102FD000A086010001000300820007001FB5012147
:102FE000880304F0E2F8F94804F0EAF94AF64440AC
:102FF00002900020ADF80200ADF80400ADF80C001E
:103000004FF40070ADF800000020ADF806006946EE
:10301000EE4804F019FA0121EC4804F0C4FA1FBD8F
:1030200010B50021E94804F0BEFA0021E84803F099
:10303000C9FA00220221E54804F020FB10BD10B5BA
:103040000121E24804F0AFFA0121E14803F0BAFAA5
:1030500001220221DD4804F011FB10BD00B591B042
:103060000121480504F06EF80021D94803F0AAFABE
:10307000D74803F0CBF90022D649D54803F0C9FA66
:103080000121D34803F0D1FA00200290CF480C3040
:103090000390D14804904020059000010690002044
:1030A00007904FF4806008904000099080000A90DB
:1030B00040110B9040020C9004200D9003200E90C4
:1030C00000200F90109002A9C14803F041FA01229C
:1030D0001021BF4803F003FB01220821BC4803F084
:1030E000FEFA0F208DF8040000208DF805008DF801
:1030F000060001208DF8070001A803F01CF901214A
:10310000B34803F05FFA01220221B04804F0B6FA96
:1031100011B000BD70B5AE4803F097FA08B9AD4DD7
:1031200000E0AD4DAD480068AD49096801EB80266F
:103130000821AA480068FEF716F9A849086000248B
:1031400005E036F8140005EB84014880641CB4F5F2
:10315000007FF6DB70BD70B59D4803F076FA08B9C4
:103160009C4D00E09C4D9F4800689F49096801EB19
:10317000802608219B480068FEF7F5F89949086009
:10318000002405E036F81400610025F81100641CE5
:10319000B4F5007FF6DB95480068A0F580609349A0
:1031A000086008460068002801DA0020086090489E
:1031B000006800F580608E49086008460068B0F538
:1031C000005F02DD4FF40050086070BD10B5894803
:1031D00000688849086088497D4803F09DFA012805
:1031E00010D185497A4803F0C1FA824800688149C4
:1031F0000860FFF7B0FFFFF78DFF01207F490860EF
:1032000001F021F87E49724803F086FA012807D1BF
:103210007B496F4803F0AAFA764800687549086050
:1032200010BD1FB50121C80303F0BFFF754804F0AE
:10323000C7F84AF6444002900020ADF80200ADF80D
:103240000400ADF80C004FF48070ADF800000020D1
:10325000ADF8060069466B4804F0F6F801216948AC
:1032600004F0A1F91FBD10B50021664804F09BF9D8
:1032700000215748303803F0A5F9002201216148A8
:1032800004F0FCF910BD10B501215E4804F08BF983
:1032900001214F48303803F095F901221146594871
:1032A00004F0ECF910BD00B591B00121480503F020
:1032B00049FF00214648303803F084F9444830384B
:1032C00003F0A4F8002250494148303803F0A1F936
:1032D00001213F48303803F0A8F900200290494806
:1032E0000C30039049480490002005904FF4806012
:1032F0000690002007904FF48060089040000990ED
:1033000080000A9040110B9040020C9004200D9018
:1033100003200E9000200F90109002A92C48303806
:1033200003F016F9012210212948303803F0D7F9AB
:10333000012208212648303803F0D1F90D208DF8FC
:10334000040001208DF8050000208DF80600012002
:103350008DF8070001A802F0EEFF01211C4830386B
:1033600003F030F901221146264804F087F911B024
:1033700000BD70B51648303803F067F908B9224D22
:1033800000E0224D224800682249096801EB8026AE
:1033900002211F480068FDF7E6FF1D490860002470
:1033A00005E005EB8400408826F81400641CB4F5A1
:1033B000007FF6DB01201849086070BD70B5044835
:1033C000303803F042F948BB0F4D29E00038004087
:1033D00070600240F8110020F8090020F40000207D
:1033E000EC000020D4000020CC000020E8000020E9
:1033F000E40000200000002020800020C800002001
:1034000010400020003C0040F8210020F819002066
:103410000C010020080100201C010020FFE79E4D48
:103420009E4800689E49096801EB802602219B485E
:103430000068FDF798FF99490860002405E06000E6
:1034400035F8100026F81400641CB4F5007FF6DB94
:1034500001209449086070BD10B5934800689249F6
:1034600008609249924803F057F901280BD18F491F
:103470008F4803F07BF9FFF7A1FFFFF77AFF8A4837
:103480000068894908608B49894803F045F901289B
:1034900007D18849864803F069F983480068824962
:1034A000086010BD002000E0401C0528FCDB7047D0
:1034B00070B506460D462846FDF7F9FD0120FDF7DB
:1034C000E6FD0020FDF7D3FDFFF7ECFF00241DE033
:1034D00046FA04F000F0010030B90020FDF7C7FD06
:1034E0000020FDF7C4FD05E00020FDF7C0FD012030
:1034F000FDF7BDFD0020FDF7CAFDFFF7D3FF01205A
:10350000FDF7C5FDFFF7CEFF601CC4B2082CDFDB62
:10351000FFF7C8FF0120FDF7CAFDFFF7C3FF70BD2D
:1035200010B500211620FFF7C3FF01216020FFF72F
:10353000BFFF01212020FFF7BBFF01218320FFF700
:10354000B7FF10BD10B500211620FFF7B1FF012114
:103550008020FFF7ADFF10BD10B500211620FFF74A
:10356000A7FF01218320FFF7A3FF10BD10B50021A5
:103570001420FFF79DFF01210F20FFF799FF012184
:103580008120FFF795FF0121C220FFF791FF012164
:10359000E320FFF78DFF0121C120FFF789FF012103
:1035A000FF20FFF785FF0121C020FFF781FF0121E8
:1035B000F020FFF77DFF10BD704710B5FFF7B0FF9B
:1035C000FFF7D4FF10BD10B504464CB900211420FC
:1035D000FFF76EFF01210020FFF76AFF002010BDFA
:1035E0003D2C0ADA00211420FFF762FF611CC8B2EB
:1035F0000121FFF75DFF0020F1E7642C09DC0021C9
:103600001420FFF755FF01216F20FFF751FF002025
:10361000E5E74FF0FF30E2E770B504460D46102CA9
:1036200000DD1024062D00DD0625204604EBD071B8
:10363000C1F34704284605EBD071C1F3470504F0F8
:103640000F00402141EA800005F0030140EA010635
:1036500000211420FFF72CFF01213046FFF728FF3F
:10366000002070BD10B5044600211420FFF720FF94
:103670002D2C00DD2D246000032190FBF1F0C4B25D
:103680000121C020FFF714FF44F0E0000121FFF703
:103690000FFF002010BD0000F819002000010020DD
:1036A000FC000020140100200000002000802010F9
:1036B000406002400040101010B50446F748046016
:1036C0000068002803DA0020F449086006E0F348A7
:1036D0000068282802DD2820F0490860EF480068CB
:1036E000EF49096849420844EE4908600846006805
:1036F000002802DA0020086006E0EA48006828286E
:1037000002DD2820E7490860E6490878FFF75BFFFB
:1037100001F0C8F9002010BD0020E349086070479F
:1037200010B5002405E00020E0490855E04908559F
:10373000641CB4F5005FF6DBDC48DE490860DC4859
:10374000DD4908600020DD4908600420DC4908608C
:103750008002DC4908600020DB4908604FF480509B
:10376000DA490860DA4908600020DA490860042074
:10377000D9490860D948DA4908600020D949086069
:103780000120D94908600020D84908600120D849A3
:103790000860D848D84908600020D849086001204E
:1037A000D74908600020D74908600120D649086041
:1037B0000020D64908600A20B84908600846006819
:1037C000B84908600020D2490860D2490860B5496C
:1037D0000860FFF7F2FE4FF47A70FDF775FD1A20CE
:1037E000FFF740FF4FF47A70FDF76EFDFFF7F6FB31
:1037F000FFF734FC4FF47A70FDF766FDFFF711FD1B
:10380000FFF751FD4FF47A70FDF75EFDFFF784FF7F
:1038100042F21070FDF758FD42F21070FDF754FDB2
:1038200001F0A1F942F21070FDF74EFD42F2107066
:10383000FDF74AFD99480068FFF73EFF0020B649B2
:103840000860B6490860B649086010BD10B5FFF7BA
:10385000F6FBFFF718FD01209349086010BD10B575
:10386000044697490968934A126802EB81204FF495
:10387000806221460AF072FD082191480068FDF738
:1038800072FD8F4908600020A649086010BD70B520
:103890000546002411E0A2480068285CA2490855AA
:1038A0009F480068401C9E49086008460068B0F5C3
:1038B0005C7F01DB00200860641CB4F5806FEADBEC
:1038C0009948FFF7CCFF002070BD10B58F48006805
:1038D000002800DD10BD95480068002867D0934897
:1038E0000068012863D192480068642803D1914898
:1038F000FFF7CDFF5BE08E480068C82803D18E48F3
:10390000FFF7C5FF53E08A480068B0F5FA7F03D19E
:103910008A48FFF7BCFF4AE085480068B0F5487F59
:1039200003D18748FFF7B3FF41E081480068B0F555
:103930007A7F03D18348FFF7AAFF38E07C4800680C
:10394000B0F5FA6F03D18048FFF7A1FF2FE0784868
:10395000006841F28831884203D17C48FFF797FF25
:1039600025E073480068B0F5FA5F03D17848FFF7A7
:103970008EFF1CE06E48006842F21071884203D14D
:103980007448FFF784FF12E06948006843F6982105
:10399000884203D17048FFF77AFF08E06448006866
:1039A00044F62061884202D16C48FFF770FF00BFE7
:1039B00090E710B56A48006800280EDD00206849CD
:1039C000086058480068401C56490860654800680F
:1039D000401C64490860FFF778FF524800680828D7
:1039E0000ADD50480068102806DA4FF400513148CB
:1039F00000680AF0CCFC06E04A480068802802DD36
:103A00008020484908605748006808280ADD554862
:103A10000068102806DA4FF40051274800680AF0C1
:103A2000B6FC06E04F480068802802DD80204D4942
:103A3000086010BD2DE9F04702212B480068FDF712
:103A400092FC07462648006800EB872A4FF00008E2
:103A5000C146002409E03AF91450454501DDA84665
:103A600002E04D4500DAA946641CB4F5007FF2DBA4
:103A7000A8EB09003C493D4A126841F822000221A6
:103A80001F480068FDF76FFC07461B48006800EB05
:103A9000872A4FF00008C146002473E0240100206B
:103AA000700100207C0100206C010020F82900201A
:103AB000F8490020CC000020EC000020D4000020B9
:103AC000D0000020DC000020E0000020E400002006
:103AD000E8000020F4000020F0000020F869002039
:103AE000FC0000200401002000010020140100203F
:103AF00018010020F87100200801002010010020AA
:103B00000C0100201C01002020010020F879002079
:103B10007401002078010020500100206401002081
:103B200088010020D8000020447A00208001002075
:103B300084010020C0F0000032F40000A4F700006F
:103B400016FB000088FE0000FA0101006C05010070
:103B5000DE080100500C0100C20F01003413010007
:103B6000C8000020F8000020447E002094010020BE
:103B70003AF91450454501DDA84602E04D4500DA0A
:103B8000A946641CB4F5007FF2DBA8EB0900F749F5
:103B9000F74A126841F82200F5480068401CF449D1
:103BA000086008460068082823DB0020086000261B
:103BB000002404E0EF4850F824000644641C082C5C
:103BC000F8DB3046F11706EB5171C910EA4A116073
:103BD0000026002404E0E54850F824000644641C54
:103BE000082CF8DB3046F11706EB5171C910E34A97
:103BF0001160BDE8F08710B5FFF71CFF10BD2DE97F
:103C0000F04703461F46884601EBD8794FEA690C16
:103C100000240025082600200AE037F9102012F1C0
:103C20003C0F04DB04EB020808F13C046D1C30443B
:103C30006045F2DB94FBF5F8DFF84493DFF844A32A
:103C4000DAF800A049F82A80BDE8F0872DE9F047AE
:103C500003461F46884601EBD8794FEA690C0024D9
:103C60000025082600200AE037F9102012F1140F71
:103C700004DB04EB020808F114046D1C30446045B9
:103C8000F2DB94FBF5F8DFF80093DFF8F8A2DAF83E
:103C900000A049F82A80BDE8F08770B5BB480068ED
:103CA00001282ED1BA48006801282AD10020B7493E
:103CB00008600221B7480068FDF755FBB649086067
:103CC0000968B64A126802EB81204FF48061FFF761
:103CD000BDFF0020AE4908600221B1480068FDF731
:103CE00042FBB04908600968AF4A126802EB8120C4
:103CF0004FF48061FFF783FFA2480068401CA14990
:103D00000860A048006808285FDB00209D49086023
:103D10000025002404E09C4850F824000544641C5D
:103D2000082CF8DBE91705EB5171C91001EB810193
:103D300049009E4A11600025002404E0904850F894
:103D400024000544641C082CF8DB2846E91705EB21
:103D50005171C910964A116094480068642809DAC4
:103D6000104600680A2805DA002092490860924946
:103D700008602AE08D480068142803DA01208E4983
:103D8000086022E08A480068022803DA02208A4993
:103D900008601AE0854800688549096890FBF1F0E1
:103DA0008449086008460068C82803DD022082496B
:103DB00008600AE07F4800680A2803DA01207E498B
:103DC000086002E000207C49086070BD10B57B48A7
:103DD0000068401E7949086008460068002803DA38
:103DE00000200860FFF798FC75480068002801DD96
:103DF000FFF753FF73480068001F724908600846C8
:103E00000068002801DA002008606F480078C0F1DF
:103E100040006C490968884203DA00206B49086059
:103E200002E001206949086010BD704710B568487C
:103E30000068002805DD66480068401E6449086087
:103E400002E000206349086063480068614909682E
:103E5000884209DD60480068401E5F4908605F488D
:103E60000068FFF729FC0EE05B48006859490968C3
:103E7000884208DA58480068401C5749086057488B
:103E80000068FFF719FC002010BD10B5FFF7CEFF4A
:103E900010BD10B5044652490968524A126802EB37
:103EA00081204FF4806221460AF058FA08214C48DC
:103EB0000068FDF758FA4A49086000204A4908603E
:103EC00010BD30B503464948046801F5806084425E
:103ED0002CDB002211E09C5C4548464D2D68445582
:103EE00044480068401C434C206020460068B0F500
:103EF000005F01DB00202060521C8A42EBDB3B4864
:103F00000068401A394C20603B48006808443A4C2D
:103F1000206020460068B0F5005F02DD4FF40050DD
:103F200020600020354C2060084630BD4FF0FF3047
:103F3000FBE702464FF0FF30704702461F4800681B
:103F4000002802DD4FF0FF3070472AB900202C4BCB
:103F500018602C4B1860F7E7012A6ED10120284B1E
:103F60001860642952D12848016092E0647E0020E4
:103F700094010020447E00208C010020900100204C
:103F8000247A002050010020047A0020140100202F
:103F90001C0100200001002004010020FC00002082
:103FA0000C01002010010020080100204801002021
:103FB0004C0100205401002058010020F879002015
:103FC0000C000020440100200500002040010020DA
:103FD00074010020780100207001002024010020DD
:103FE000F0000020EC000020F8000020E400002099
:103FF000F8290020DC000020E8000020D800002084
:10400000800100208801002084010020C82902D1FD
:10401000A14801603DE0B1F5FA7F02D19E48016000
:1040200037E0B1F5487F02D19B48016031E0B1F53E
:104030007A7F03D1984801602BE02CE0B1F5FA6F4C
:1040400002D19548016024E041F28830814202D1DA
:10405000914801601DE0B1F5FA5F02D18E48016020
:1040600017E042F21070814202D18B48016010E0EB
:1040700043F69820814202D18748016009E044F666
:104080002060814202D18448016002E06FF00100AB
:104090005AE7002058E74FF0FF3055E710B57F484A
:1040A0000068012816D17E480068012812D100203E
:1040B0007B49086002217B480068FDF754F97A4982
:1040C00008600968794A126802EB81204FF4806128
:1040D000FDF755FD76480068012816D1754800683F
:1040E000012812D10020734908600221724800683B
:1040F000FDF739F9714908600968714A126802EBE5
:1041000081204FF48061FDF74CFD10BD01206D4909
:1041100008606D4800686D490860704710B56C48CC
:104120000068012814D16748006800280FDD4FF4AB
:104130007A70FDF7C9F8654801680020FEF759FE5E
:104140004FF47A70FDF7C0F800205E49086010BD9A
:104150006048006830B94F205C4908600A205D491A
:10416000086064E05B480068012807D15648006891
:10417000564908600B205749086058E055480068C8
:104180000A2813D14FF47A70FDF79EF84F48016862
:104190000020FEF72EFE4FF47A70FDF795F8002010
:1041A0004849086014204B49086040E049480068CD
:1041B0000B2810D14FF47A70FDF786F84348016858
:1041C0000020FEF716FE4FF47A70FDF77DF81520FB
:1041D000404908602BE03F480068142809D10020BE
:1041E00038490860FDF730F808BB012039490860FC
:1041F0001DE038480068152819D1324800680028A9
:104200000FDD4FF47A70FDF75FF830480168002049
:10421000FEF7EFFD4FF47A70FDF756F800202949BC
:104220000860FDF711F810B100202A49086000BFAE
:104230008DE7002803DD0121254A116002E00021FD
:10424000234A1160704724480068401C22490860D6
:1042500022480068012801D12149086000207047E8
:104260000146642901DC3C2902DA4FF0FF30704737
:10427000552901DD552102E0492900DA4921194873
:104280000068012803DAA1F14F00174A10601020DE
:10429000164A10600020EAE784010020180100207F
:1042A000140100200001002004010020FC00002077
:1042B000200100201C0100200C0100201001002022
:1042C0000801002060010020240100205C01002082
:1042D0006801002064010020380100204001002016
:1042E0003C010020F87900207801002074010020B2
:1042F00010B5FE480078FE498870FE480078C87006
:10430000FD4800880880FD48FDF722FAF84948601A
:10431000FF20FB498870C8704FF6FF700880F9488D
:10432000FDF716FAF6494860002010BD70B5054645
:104330002C4620787E2802D04FF0FF3070BDE07808
:10434000EA490978884205D0E078FF2802D04FF08A
:10435000FF30F3E72079E7490978884205D02079D2
:10436000FF2802D04FF0FF30E8E7E448FDF7F0F90E
:10437000D4F8051088420FD0D4F80500401C58B17D
:10438000DE48FDF7E5F940F0FF01D4F80500814271
:1043900002D04FF0FF30D1E70020CFE701460A46B8
:1043A000D07A704701460A46107B704701460A469C
:1043B000B2F81100704701460A46B2F81300704780
:1043C00001460A4602F1150070472DE9F041044606
:1043D0008C46274607F115052E460B2A07D1581E95
:1043E00006F1050818F800100846BDE8F081FF2026
:1043F000FBE717B585B00446BC480078BC49887017
:10440000BC480078C870BC4800880880BB48FDF7ED
:104410009FF9B74948607E208DF800000698CDF8D6
:1044200001000798CDF8050008460168CDF809108D
:104430004068CDF80D0011226946204609F08EFF34
:1044400008B010BD2DE9F04F87B004460F469046E6
:104450009946DDE910AB2546A948016800914068FE
:104460000246019002A8FFF7C4FF112202A92846C4
:1044700009F074FF0120A5F811000420A5F813002D
:1044800005F1150686F8008086F8019086F802A0EE
:1044900086F803B0B5F8130015303860002007B077
:1044A000BDE8F08F30B503460C4619460420A1F84C
:1044B000130001F115052A60B1F8130015302060D2
:1044C000002030BD30B503460C4619460120A1F846
:1044D000130001F115052A70B1F8130015302060A2
:1044E000002030BD2DE9F04188B004460E46174645
:1044F000254683480168019140680246029003A85E
:10450000FFF777FF112203A9284609F027FF0320B0
:10451000A5F811000420A5F8130005F11508C8F846
:104520000070B5F8130015303060002008B0BDE809
:10453000F08130B503460C4619460220A1F813005D
:1045400001F115056A70B1F81300153020600020E4
:1045500030BD2DE9F04387B004460E461746984615
:10456000254667480168009140680246019002A80C
:10457000FFF73FFF112202A9284609F0EFFE0620AF
:10458000A5F811004FF48060A5F8130005F1150996
:1045900042463946484609F0E1FEB5F813001530A9
:1045A0003060002007B0BDE8F0832DE9F04387B00C
:1045B00004460E4617469846254651480168009124
:1045C00040680246019002A8FFF713FF112202A9DA
:1045D000284609F0C3FE0520A5F811004FF48060BD
:1045E000A5F8130005F1150942463946484609F079
:1045F000B5FEB5F8130015303060002007B0BDE8F7
:10460000F0832DE9F04387B004460E4617469846DE
:1046100025463B480168009140680246019002A887
:10462000FFF7E7FE112202A9284609F097FE42F2A1
:104630000130A5F811004FF48060A5F8130005F1D2
:10464000150942463946484609F088FEB5F8130078
:1046500015303060002007B0BDE8F0832DE9F0434D
:1046600087B004460E4617469846254624480168FA
:10467000009140680246019002A8FFF7BAFE11229D
:1046800002A9284609F06AFE42F20230A5F811009C
:104690004FF48060A5F8130005F11509424639462C
:1046A000484609F05BFEB5F8130015303060002075
:1046B00007B0BDE8F0832DE9F04188B004460E460E
:1046C000174625460E48016801914068024602904F
:1046D00003A8FFF78EFE112203A9284609F03EFE2B
:1046E00042F21230A5F8110002200DE00400002073
:1046F0009801002005000020060000203200002064
:10470000A001002060000020A5F8130005F11508A5
:104710002B48007888F8000088F80170B5F813007D
:1047200015303060002008B0BDE8F0812DE9F0417F
:1047300088B0054688462F462248016801914068A6
:104740000246029003A8FFF754FE112203A938463F
:1047500009F004FE42F2133027F8110F252078806B
:104760007888113F1530C8F8000007F11504144887
:10477000007820700120607013480078A070134802
:104780000078E070124800782071002611E011488E
:1047900050F83600642190FBF1F0C1B2601D00F8C2
:1047A00016100C4800EBC6000179A01D00F8161089
:1047B000761C102EEBDB002008B0BDE8F081000075
:1047C00005000020A0010020C8030020CC03002029
:1047D000D0030020DC8B002010B50C2004F0F6FA8A
:1047E00004461CB1002020606060A060204610BD1F
:1047F00010B50446204604F037FA10BD70B50446E3
:104800000E46254615B1284604F02EFA70BD70B547
:1048100005460C460021284605F01CFE00212846CE
:1048200005F01DFE0021284605F016FE0021284651
:1048300005F018FE204604F017FA284605F02EFA77
:1048400070BD2DE9F04106460C46B6F86E00616871
:10485000884202D2B6F86E5001E0A08885B20023EB
:104860002A463046216807F0B3F907462FB9206879
:10487000284420606068401B6060BDE8F0812DE93D
:10488000F04104460E461746254615B90020BDE8FE
:10489000F0810020287229463046FFF7D2FF002021
:1048A000F5E770B504460D461CB9284605F0F6F943
:1048B00003E021462846FFF7C4FF002070BD2DE924
:1048C000F043A1B006460F46144698463546B8F167
:1048D000000F00D17CB934B12189384605F08BFA3C
:1048E000204604F057FC29463846FFF790FF002089
:1048F00021B0BDE8F0832189384605F07CFAB4F890
:10490000089000BF802201A8616809F027FD4A488D
:10491000006849490860052248A101A809F064FD22
:10492000002842D1112247A101A809F05DFD00280D
:104930003BD0082248A101A809F056FD60B94948BA
:10494000286009F02FFD6860204604F023FC29460A
:104950003846FFF776FF28E0082243A101A809F0B6
:1049600043FD60B94348286009F01CFD686020469B
:1049700004F010FC29463846FFF763FF15E04FF4BA
:1049800080613D4809F003FD3CA23D493A480AF0E8
:1049900005F83948286009F005FD6860204604F0F4
:1049A000F9FB29463846FFF74CFF29463846FFF702
:1049B0002EFF00209CE72DE9F04106460D461746E4
:1049C000FFF70AFF04461CB94FF0FF30BDE8F08145
:1049D0000020206060602146284605F03BFD294903
:1049E000284605F039FD2849284605F03BFD0A22F6
:1049F0002649284605F03BFD2549284605F02FFDB0
:104A00000020E3E770B505F020FD0546502221495E
:104A1000284605F0F0FA044600BFFF21284605F0BD
:104A200060FB05462946284605F014FD1A4928462C
:104A300005F01BFD70BD000000000020474554201C
:104A40002F000000474554202F72657365746D6315
:104A5000752E636769000000474554202F4141418E
:104A600000000000A8010020474554202F42424288
:104A70000000000028020020847E002061626300A4
:104A800038170100BF480000FD470000A3480000A0
:104A90007F480000DE160100B749000010B5FDF7A1
:104AA00033FD10BD012051490860704710B54F48D3
:104AB0000068012856D14E480068002852D14B4961
:104AC000086023204B4908704B48007848704A48DA
:104AD000417848488170484881784648C1704648C6
:104AE000C1784448017145480078424948714348BB
:104AF000417840488171414881783E48C1713F48C2
:104B0000C1783C4801723E4800783A4948723C48B6
:104B10004178384881723A4881783648C1723848BD
:104B2000C17834480173374800883249C881364813
:104B300000780874354800784874344841782D4826
:104B40008174324881782B48C1743048C178294833
:104B50000175172201460820FDF707FF4FF47A7010
:104B6000FCF7B2FB10BD10B5172222490820FDF753
:104B7000E5FF4FF47A70FCF7A7FB1E480078232866
:104B800032D11C4840791D4908701A488079487014
:104B90001848C07988701748007AC8701548407A5C
:104BA000174908701348807A48701248C07A887094
:104BB0001048007BC8700F48407B154908700D48AD
:104BC000C089104908800B48007C0F4908600948DB
:104BD000407C0E4908700748807C48700548C07CBE
:104BE00088700448007DC87010BD0000A802002035
:104BF0006001002084820020320000203600002066
:104C00003A00002006000020240100205C00002063
:104C10000500002070B50446204609F0C3FB054698
:104C200029462046FDF78AFB70BD10B54FF4807110
:104C3000F94809F0ACFBF948006820B9F8A1F6483A
:104C400009F0ACFE05E0F548F8A10268F24809F069
:104C5000A5FEF148FFF7DEFF10BD10B54FF48071DF
:104C6000ED4809F094FBF6480288F6A1EA4809F0FD
:104C700095FEE948FFF7CEFF10BD10B54FF48071E7
:104C8000E54809F084FBF3480278F3A1E24809F013
:104C900085FEE148FFF7BEFF10BD10B54FF48071EF
:104CA000DD4809F074FBF1480278F1A1DA4809F017
:104CB00075FED948FFF7AEFF10BD1CB54FF48071EB
:104CC000D54809F064FBEF48C078EE498978CDE912
:104CD0000010EC4843780278EBA1CF4809F05EFE63
:104CE000CD48FFF797FF1CBD00B599B06422ED4990
:104CF000684609F033FB6846FFF78CFFFFF7DDFFDE
:104D0000FFF7CBFFFFF7B9FFFFF7A7FFFFF78DFF17
:104D100019B000BDF8B504460D4616464FF4807133
:104D2000BD4809F034FB2B462246DFA1BA48009665
:104D300009F034FEB848FFF76DFFF8BDF8B504463A
:104D40000D4616464FF48071B34809F020FB2B4600
:104D50002246E2A1B048009609F020FEAE48FFF7D7
:104D600059FFF8BD70B504460D464FF48071AA484E
:104D700009F00DFB2B462246E3A1A74809F00EFEE1
:104D8000A548FFF747FF70BD70B5E84800680028E8
:104D900024DDE7480068002808DD00F05BFD0446DC
:104DA00000F055FD05462146FFF7DCFFE1480068AD
:104DB000002807DDE0480268E0480168E048006834
:104DC000FFF7BCFFDF480068002807DDDE48026807
:104DD000DE480168DE480068FFF79CFF70BD10B533
:104DE0004FF480718C4809F0D2FADA48DAA10268EF
:104DF000894809F0D3FD8848FFF70CFF10BD10B5B6
:104E00004FF48071844809F0C2FAD8480368D84842
:104E1000D8A10268804809F0C1FD7F48FFF7FAFE7B
:104E200010BD10B54FF480717B4809F0B0FADB4833
:104E3000DBA10268784809F0B1FD7748FFF7EAFE88
:104E400010BD10B54FF48071734809F0A0FAD9482D
:104E5000D9A10268704809F0A1FD6F48FFF7DAFE9A
:104E600010BD10B54FF480716B4809F090FAD64828
:104E70000278D6A1684809F091FD6748FFF7CAFE9D
:104E800010BDF0B5C3B004460D464FF4807103A8C1
:104E900009F07DFA1020034603AA29460090204617
:104EA000FCF766FACDA103A809F083FA002833D1F4
:104EB000CBA107A809F07DFA70BB0BA8FCF7CBFAD1
:104EC000C0B28DF808000FA8FCF7C5FAC0B28DF883
:104ED000090013A8FCF7BFFAC0B28DF80A0017A8A2
:104EE000FCF7B9FAC0B28DF80B004FF480714A4854
:104EF00009F04DFABCA1484809F050FD4648FFF7BB
:104F000089FE9DF80B309DF80A209DF809109DF848
:104F10000800FCF72AFC70E2B8A103A809F049FADE
:104F200038B9AFA107A809F044FA10B9FFF7C5FED8
:104F300063E2B2A103A809F03CFA38B9B1A107A80D
:104F400009F037FA10B9FFF7A8FE56E2A3A103A8AB
:104F500009F02FFA60B9ADA107A809F02AFA38B90B
:104F60000BA8FCF778FA06463046FBF774FD44E2DE
:104F7000A2A103A809F01DFA38B9A4A107A809F055
:104F800018FA10B9FFF779FE37E294A103A809F0E7
:104F900010FA60B99FA107A809F00BFA38B90BA85D
:104FA000FCF759FA06463046FBF764FD25E293A16B
:104FB00003A809F0FEF938B996A107A809F0F9F994
:104FC00010B9FFF74AFE18E284A103A809F0F1F92D
:104FD00060B992A107A809F0ECF938B90BA8FCF761
:104FE0003AFA06463046FEF767FB06E283A103A8BD
:104FF00009F0DFF968B98BA107A809F0DAF940B91F
:1050000089A10BA809F0D5F920B901204849086009
:10501000F3E116E10CE100009B820020C4000020B7
:10502000493243204F4B2120200A000049324320BF
:105030004572726F723A20256420200A0000000039
:1050400006000020547261696E2049643A2025648C
:1050500020200A0005000020446576696365204928
:10506000643A20256420200A00000000040000208B
:1050700044657669636520547970653A202564201B
:10508000200A0000320000204C6F63616C20495000
:105090003A2025642E25642E25642E256420200ABE
:1050A00000000000801801004E6F697365312064B4
:1050B000423A20256420200A4E6F697365322064CD
:1050C000423A20256420200A4E6F697365206442AD
:1050D0003A2025642020200A0A00000053616D70E8
:1050E0006C65563A20256420200A53616D706C650A
:1050F000493A2025642020200A53616D706C655266
:105100003A202564200A0A004164632056616C75C8
:1051100065313A20256420200A4164632056616C81
:105120007565323A20256420200A0A000C00002010
:10513000AC020020B0020020540100204C010020ED
:1051400048010020B40200207803002074030020EE
:105150007003002068010020456D65546573744636
:105160006C61673A20256420200A00001C000020A2
:105170001800002044433234563153746174653A48
:1051800020256420200A444332345632537461741B
:10519000653A20256420200A0A00000058010020FA
:1051A000537065616B657253746174653A20256450
:1051B00020200A0014000020416D70537461746552
:1051C0003A20256420200A00100000204164647207
:1051D0006573733A20256420200A0000736574000B
:1051E0006C6F63616C6970004F6B2C20706C656133
:1051F000736520776169742E2E2E0A0072656164D2
:1052000000000000646576747970650064657669F5
:1052100064000000747261696E696400766F6C7579
:105220006D65000061646300737461727400000056
:10523000D3A10BA809F0BDF8002801D1D24908601C
:10524000DBE0AFF2480103A809F0B3F838B9CFA109
:1052500007A809F0AEF810B9FFF703FECDE0AFF2F2
:10526000640103A809F0A5F838B9CAA107A809F094
:10527000A0F810B9FFF7E5FDBFE0AFF2800103A889
:1052800009F097F8B8B9C6A107A809F092F890B943
:10529000AFF26C010BA809F08CF818B90120C249D3
:1052A0000860AAE0B6A10BA809F083F80028C7D1CE
:1052B000BD490860A1E0AFF2BC0103A809F079F88C
:1052C00038B9BAA107A809F074F810B9FFF7A9FD19
:1052D00093E0AFF2D80103A809F06BF838B9B7A191
:1052E00007A809F066F810B9FFF789FD85E0AFF26D
:1052F000F40103A809F05DF8B8B9B2A107A809F054
:1053000058F890B9AFF2E0010BA809F052F818B9BB
:105310000120AE49086070E099A10BA809F049F896
:1053200000286AD1A949086067E0AFF2501103A8CC
:1053300009F03FF860B9A6A107A809F03AF838B912
:105340000BA8FCF788F806463046FEF772FF54E0DB
:10535000AFF2581103A809F02CF838B99CA107A89E
:1053600009F027F810B9FFF73AFD46E0AFF248110F
:1053700003A809F01EF868B997A107A809F019F861
:1053800040B90BA8FCF767F8074639460120FEF73D
:10539000D4FD32E07AA103A809F00BF848B98EA138
:1053A00007A809F006F820B900210846FEF7C5FD58
:1053B00023E0AFF28C1103A808F0FBFF38B988A1F5
:1053C00007A808F0F6FF10B900F0B0FD15E06CA1D9
:1053D00003A808F0EEFF20B981A107A808F0E9FFB3
:1053E00058B14FF48071814808F0D1FF80A17F4807
:1053F00009F0D4FA7D48FFF70DFC43B0F0BD10B5BD
:1054000004464FF48071794808F0C1FF22467DA11F
:10541000764809F0C3FA7548FFF7FCFB10BD10B5DC
:1054200004464FF48071714808F0B1FF22467AA11A
:105430006E4809F0B3FA6D48FFF7ECFB10BD70B58C
:1054400004460D464FF48071684808F0A0FF2246DC
:1054500077A1664809F0A2FA6448FFF7DBFB2A4609
:105460007AA1624809F09AFA6048FFF7D3FB70BD51
:1054700010B54FF480715D4808F089FF7A487BA130
:1054800002685A4809F08AFA5848FFF7C3FB10BD72
:1054900010B54FF48071554808F079FF002403E0FF
:1054A000232052490855641C6F4800684FF4C871A6
:1054B00090FBF1F0A042F3DC4C48FFF7ABFB5BA0A4
:1054C000FFF7A8FB10BD10B54FF48071474808F0F6
:1054D0005EFF6DA1454809F061FA4448FFF79AFB69
:1054E0006E486FA10268414809F058FA3F48FFF73B
:1054F00091FB704870A102683C4809F04FFA3B48A4
:10550000FFF788FB714872A10268384809F046FA33
:105510003648FFF77FFB744874A10268334809F0EE
:105520003DFA3248FFF776FB00240EE0724800EBAC
:10553000C4004368704850F8342070A12B4809F02B
:105540002DFA2A48FFF766FB641C102CEEDB73482B
:1055500073A10268254809F021FA2448FFF75AFB95
:105560004DA1224809F01AFA2048FFF753FB4AA13F
:105570001E4809F013FA1D48FFF74CFB10BD000050
:1055800073746F7000000000AC02002061646472EC
:1055900000000000616D70737461746500000000AC
:1055A00073616D706C650000B002002073706561FE
:1055B0006B6572737461746500000000646332345B
:1055C000760000006E6F697365000000B402002071
:1055D000656D65746573740073696E7465737400CA
:1055E00073656C6674657374000000009B82002014
:1055F000496E76616C696420436F6D6D616E6420E5
:10560000210A00004D79204E6F6973652064423A8B
:1056100020256420200A00004D79204E6F697365B3
:1056200020286E6577293A20256420200A00000092
:1056300053656E736F7231204E6F69736520286EEB
:105640006577293A20256420200A000053656E738F
:105650006F7232204E6F69736520286E6577293A24
:1056600020256420200A00008C0100204175646917
:105670006F496E70757453616D706C65563A202574
:105680006420200A0000000053656C665465737442
:10569000205265706F72743A20200A00B80300200F
:1056A000314B2056436F756E743A20256420200AD2
:1056B00000000000C0030020314B2049436F756E8D
:1056C000743A20256420200A00000000C80300204E
:1056D000416D706C696669636174696F6E3A20250B
:1056E0006420200A00000000CC030020534E523AF0
:1056F00020256420200A0000DC8B002046726571A2
:1057000075656E637920526573706F6E73653A20AC
:10571000256420202020256420200A00D0030020BA
:105720004F757470757420506F7765723A202564D8
:1057300020200A0000B59BB00121754801F002FD50
:105740000121880201F042FD4FF080600290714813
:10575000039071480490002005904FF480700690EB
:10576000002007904FF4806008904000099080006E
:105770000A9040110B9040020C9000200D900120E7
:105780000E9000200F90109002A9644800F0E0FEF7
:105790000121624800F016FF0820009003208DF8D8
:1057A000040000208DF8070069465D4801F070F89C
:1057B0001020009003208DF8040000208DF80700D1
:1057C0006946574801F064F8002011904FF44030CA
:1057D0001290002013904FF47060149011A802F002
:1057E00021F80020159001208DF858008DF85900FF
:1057F000002017901890199002208DF8680015A9C4
:1058000044484C3801F0DFFF01231A460921414882
:105810004C3802F05EF8012302220E213D484C383C
:1058200002F057F801213B484C3802F0FDF8012105
:1058300038484C3802F0EDF8012136484C3802F077
:1058400008F834484C3802F0A0F81BB000BD3248CC
:105850000088704730484088704770B500230024A6
:10586000082500210AE02C4E36F81120B2F5006F11
:1058700003DB9E18A6F50063641C2944FF29F2DDB2
:1058800093FBF4F070BDF0B500230024082500213F
:105890000BE0214F4E1C37F81620B2F5006F03DBEA
:1058A0009E18A6F50063641C2944FF29F1DD93FBD3
:1058B000F4F0F0BD70B500234FF4805402250022AF
:1058C0000AE0154E36F81210994201DD0B4602E04F
:1058D000A14200DA0C462A44FF2AF2DD181B70BDF3
:1058E000F0B500234FF48054022500220BE00A4F4C
:1058F000561C37F81610994201DD0B4602E0A14212
:1059000000DA0C462A44FF2AF1DD181BF0BD000026
:10591000200040004C2201409C8300201064024083
:105920000014024010B50020614908606149086018
:10593000614908606149086061490860614908601F
:1059400061490860FBF727FC20B9604800685F499F
:10595000086003E05D4800685C490860FBF728FCCC
:1059600020B95A4800685949086003E05748006860
:105970005649086010BD10B5FBF70DFC68BB4E48DA
:10598000006828B94C480068401C4B49086027E073
:1059900049480068022805DA47480068401C464923
:1059A00008601DE044480068022808D142480068A9
:1059B000401C4149086001203E49086010E03E4813
:1059C0000068642805DA3C480068401C3A490860D1
:1059D00006E001203949086002E0002036490860ED
:1059E000FBF7E6FB68BB3748006828B93548006814
:1059F000401C3449086027E032480068022805DA74
:105A000030480068401C2F4908601DE02D480068A0
:105A1000022808D12B480068401C2A490860012050
:105A20002749086010E027480068642805DA2548FF
:105A30000068401C2349086006E0012022490860F4
:105A400002E000201F4908601A480068002806DDAF
:105A50000020184908600120154908600DE0184829
:105A60000068002806DD0020154908600220104962
:105A7000086002E000200E49086010BD0F48006871
:105A8000002806DD00200D49086001200849086053
:105A90000DE00D480068002806DD00200A49086076
:105AA00002200349086002E00020014908607047B5
:105AB000B8020020BC020020C0020020C402002066
:105AC000C8020020CC020020D002002000000020EC
:105AD000704710B502460021002309E0CD4C54F870
