:020000040000FA
:10000000D8870120E53A0000B9390000BB3900006B
:10001000BF390000C3390000C739000000000000EC
:10002000000000000000000000000000F73A00009F
:10003000CF39000000000000FB3A0000D139000079
:10004000FF3A0000FF3A0000FF3A0000FF3A0000CC
:10005000FF3A0000FF3A0000FF3A0000FF3A0000BC
:10006000FF3A0000FF3A0000FF3A0000FF3A0000AC
:10007000FF3A0000D9390000FF3A0000E1390000E2
:10008000FF3A0000FF3A0000FF3A0000FF3A00008C
:10009000FF3A0000FF3A0000FF3A0000FF3A00007C
:1000A000FF3A0000FF3A0000FF3A0000FF3A00006C
:1000B000FF3A0000FF3A0000FF3A0000FF3A00005C
:1000C000FF3A0000FF3A0000FF3A0000FF3A00004C
:1000D000FF3A0000FF3A0000FF3A0000FF3A00003C
:1000E000FF3A0000FF3A0000FF3A0000FF3A00002C
:1000F000FF3A0000FF3A0000FF3A0000FF3A00001C
:10010000FF3A0000FF3A0000FF3A0000FF3A00000B
:10011000FF3A0000FF3A0000FF3A0000FF3A0000FB
:10012000FF3A0000FF3A0000FF3A0000FF3A0000EB
:10013000FF3A0000FF3A0000FF3A0000FF3A0000DB
:10014000FF3A0000FF3A0000FF3A0000FF3A0000CB
:10015000FF3A0000FF3A0000FF3A0000FF3A0000BB
:10016000FF3A0000FF3A0000FF3A0000FF3A0000AB
:10017000FF3A0000FF3A0000FF3A0000FF3A00009B
:10018000FF3A000000F002F800F072F80AA090E8D0
:10019000000C82448344AAF10107DA4501D100F042
:1001A00067F8AFF2090EBAE80F0013F0010F18BF9D
:1001B000FB1A43F0010318475807010078070100B4
:1001C0000A444FF0000C10F8013B13F0070408BF7D
:1001D00010F8014B1D1108BF10F8015B641E05D01B
:1001E00010F8016B641E01F8016BF9D113F0080FD0
:1001F0001EBF10F8014BAD1C0C1B09D16D1E58BF62
:1002000001F801CBFAD505E014F8016B01F8016B98
:100210006D1EF9D59142D6D370470000002300240B
:1002200000250026103A28BF78C1FBD8520728BF06
:1002300030C148BF0B60704764290DF021867829D2
:100240000DF05A8673290EF0BA81002070471FB551
:100250009DE803000EF0F4F80EF090FA0400002080
:1002600000210EF0FFFA401C60601FBD10B510BDEC
:100270000EF05FFA1146FFF7EAFF00F019F80EF0F2
:100280008FFA03B4FFF7F2FF03BC0EF0BDFA0000D3
:10029000EFF30980704780F309887047EFF3088017
:1002A000704780F30888704740BA7047C0BA7047FB
:1002B00000205449086054490860544908600DF012
:1002C0005AFA4FF47A7002F01BFD00F0F1FB4FF484
:1002D0007A7002F015FD00F0FDFB03F0E5FA00F086
:1002E000DFF800F0DDF800F051FD00F069FD00F0EE
:1002F000D7F800F0D5F800F06FFA03F0C9F902F072
:100300007FFE4FF47A7002F0FBFC00F0C9F800F0B9
:10031000C7F803F055FA4FF47A7002F0F1FC00F0E0
:10032000BFF800F0BDF80CF087FD6AE000F064FA59
:1003300002F0C7FB4FF47A71334800F0E7F818B1C8
:1003400000F0AEF800F00EFD0CF066FD0120304923
:10035000087041F288312D4800F0D8F810B1012022
:100360000BF011FD4CF25031264800F0CFF808B1E7
:1003700000F039FE0DF00CFB26480068642804DB11
:1003800000202449086003F0E7FA23480068C828E1
:1003900004DB02202049086003F0DFFA1F480068F0
:1003A000B0F5FA7F04DB00201C49086003F0D6FAA0
:1003B0001B480068B0F57A7F04DB0020184908600C
:1003C00003F0D2FA1748006841F28831884202DB14
:1003D0000020144908601448006842F210718842F5
:1003E00004DB00201049086003F0CCFA0F480068D5
:1003F00044F62061884204DB00200C49086003F0C9
:10040000C5FA93E714000020100000200C00002023
:100410004F03002050020020540200205802002008
:100420005C020020600200206402002068020020BC
:1004300004E0002200F8012B4A1E91B20029F8DCEA
:10044000704703E000F8011B531E9AB2002AF9DC42
:10045000704705E011F8013B00F8013B531E9AB2CA
:10046000002AF7DC704700001CB501208DF804005D
:1004700000208DF8060003208DF8050000208DF87F
:10048000070004200090694632480AF0EDFB042181
:1004900030480AF065FC04212E480AF063FC1CBDBC
:1004A00010B504212B480AF04EFCC0F10100C4B283
:1004B0002246042127480AF057FC10BD2648007840
:1004C00048B1002025490860012025490880002006
:1004D0002149087006E0214800682149098808443C
:1004E0001E4908601F480078401C1E4908700846D5
:1004F00000781D490978884207DB002019490870F7
:100500001A480078401C1949087070470246E1B14A
:10051000124B10681B6898420CD91068C0F1FF306C
:100520000E4B1B68184488420FD30C4800681060BB
:1005300001207047094B10681B68181A884204D3C1
:100540000648006810600120F3E70020F1E7034946
:100550000868704700100240200000201C000020A6
:100560001800002021000020560300200900002070
:1005700010B50446012C01DB112C00DD10BD601EFE
:100580008D4901EB40004078C0F3001020B180217C
:100590008A480AF0E5FB03E0802188480AF0E2FB84
:1005A000601E854901EB40004078C0F3C00028B1CF
:1005B0004FF4807181480AF0D3FB04E04FF480715E
:1005C0007E480AF0CFFB601E7B4901EB400040787B
:1005D000C0F3800028B14FF4007178480AF0C0FBE6
:1005E00004E04FF4007175480AF0BCFB601E7249CC
:1005F00001EB4000407800F0010028B14FF4806129
:100600006E480AF0ADFB04E04FF480616B480AF0DD
:10061000A9FB601E684901EB40004078C0F3400030
:1006200028B14FF4006166480AF09CFB04E04FF4E7
:10063000006163480AF094FB00BF9FE710B54FF4D8
:1006400080615F480AF08EFB4FF400415B480AF07E
:1006500089FB10BD1CB501208DF8040000208DF829
:10066000060003208DF8050000208DF807004FF6E6
:1006700080700090694651480AF0F6FA4FF44060E5
:10068000009069464E480AF0EFFAFFF7D7FF0CF0EA
:1006900093FB4FF400614A480AF064FB1CBD2DE94E
:1006A000F0410026002747490978481EC11700EB92
:1006B0005171C910A0EBC101C1F1070201219140A4
:1006C000CEB240490978481EC11700EB5171C1F301
:1006D000C70700243DE02046E21704EB5272D21017
:1006E000D200D21D2146E31704EB5373DB10A4EBB9
:1006F000C303D21AD5B2344800EB4500C05D304088
:1007000028B14FF480412D480AF02AFB04E04FF451
:1007100080412A480AF026FB2C4800EB4500C05DCA
:10072000304028B14FF4805124480AF019FB04E00E
:100730004FF4805121480AF015FB4FF480612048A6
:100740000AF00EFB4FF480611D480AF00BFB601CA1
:10075000C4B2902CBFDB4FF4006119480AF002FBD1
:100760001B48008802F0CCFA4FF4004113480AF00D
:10077000F7FA4FF4004111480AF0F4FA11480078F2
:10078000FFF7F6FE0F480078401C0E490870084637
:100790000078102801DD012008700A490878C11787
:1007A00000EB11710911A0EB0111012902D1012007
:1007B00008490870BDE8F08190E800000010024090
:1007C000000402402800002074050020540400208A
:1007D000580300200800002010B5012025490860BA
:1007E0000A202549087003F040F9244908700120C7
:1007F0002349088010BD7047704700B51D48006848
:10080000401C1C49086008460068142807D10020D5
:10081000086001201B490860FFF7EDFF08E015485C
:100820000068B0F57A7F03DD4FF47A7011490860F3
:1008300000BD704710B50446402C02DD4FF0FF307C
:1008400010BD0E490C7002F027FF00F012FB0020D3
:10085000F6E710B50446B4F5803F02DD4FF0FF30F7
:1008600010BD07490C8002F017FF00F0F2FA0020DB
:10087000F6E70000300000202C0000202D000020B2
:100880002E0000203400002010B504467248046099
:100890000068002803DA00206F49086006E06E480F
:1008A0000068282802DD28206B4908606A4908781A
:1008B00001F009FF02F0F0FE002010BD10B5002489
:1008C00005E000206549085565490855641C012C60
:1008D000F7DB6248634908606148634908600020AB
:1008E00062490860624908606249086062490860BC
:1008F000624863490860002062490860022062493A
:10090000086062486249086000206249086002206D
:100910006149086000206149086001206049086061
:100920000020604908600A204B49086001F0C5FEBC
:100930004FF47A7002F0E4F901F058FC01F078FC11
:100940004FF47A7002F0DCF901F03FFD01F05FFD39
:100950004FF47A7002F0D4F942F2107002F0D0F93C
:1009600042F2107002F0CCF902F02AFF42F210704D
:1009700002F0C6F942F2107002F0C2F9364800687F
:10098000FFF782FF10BD48480068002807DD0020FF
:100990004549086045480068401C44490860434890
:1009A0000068032808DD41480068092804DA2D485A
:1009B00000680021017006E03C480068802802DDE4
:1009C00080203A490860704736480068401E354923
:1009D000086008460068002801DA002008607047B7
:1009E00010B50446224800681E4909680844217869
:1009F000017001211E48006802F0D1F91C4908600D
:100A000000202A49086010BD10B504461A48006845
:100A100015490968084421780170012116480068C9
:100A200002F0BDF914490860002010BD10B51C4843
:100A3000006801280ED11948006801280AD1002059
:100A4000164908604FF480610F48006802F0A7F96A
:100A50000C49086010BD000088000020380000200C
:100A60004C0000203C0000205000002044000020EA
:100A7000400000205800002054000020B40700204F
:100A8000600000206800002064000020B4170020EF
:100A90006C0000207400002070000020780000200E
:100AA0007C00002080000020D001002048000020B1
:100AB00010B501217F200AF031FD012188030AF0E1
:100AC00071FD012108460AF06DFD012188050AF03B
:100AD00058FD10BD1CB50420009001208DF80400C5
:100AE00000208DF8060003208DF8050000208DF809
:100AF00007006946CC480AF0B7F8082000900120AA
:100B00008DF8040000208DF8060003208DF8050004
:100B100000208DF807006946C3480AF0A5F80422B2
:100B20000121C1480AF02BF904220021BE480AF035
:100B300026F9022000908DF804008DF805000120B0
:100B40008DF8060000208DF807006946B6480AF0C7
:100B50008BF8012000906946B3480AF085F84FF4FD
:100B60000070009002208DF804008DF80500002030
:100B70008DF806008DF807006946AC480AF074F855
:100B800005220921A9480AF0FAF840200090022025
:100B90008DF804008DF8050000208DF806008DF812
:100BA00007006946A1480AF05FF8052206219F4820
:100BB0000AF0E5F84FF48050009002208DF8040010
:100BC0008DF8050000208DF806008DF807006946B5
:100BD00097480AF049F805220C2195480AF0CFF809
:100BE0004FF40050009002208DF804008DF80500AD
:100BF00000208DF806008DF8070069468C480AF041
:100C000033F805220D218A480AF0B9F84FF4004064
:100C1000009002208DF804008DF8050000208DF86A
:100C200006008DF80700694681480AF01DF8052284
:100C30000F217F480AF0A3F88020009002208DF851
:100C400004008DF8050000208DF806008DF80700DF
:100C5000694676480AF008F80622072173480AF028
:100C60008EF81020009002208DF804008DF8050009
:100C700000208DF806008DF8070069466D4809F0E0
:100C8000F3FF062204216B480AF079F84FF48060E4
:100C9000009002208DF804008DF8050000208DF8EA
:100CA00006008DF807006946604809F0DDFF06225E
:100CB0000A215E480AF063F84FF480500090022049
:100CC0008DF804008DF8050000208DF806008DF8E1
:100CD00007006946554809F0C7FF06220C21534812
:100CE0000AF04DF84FF40050009001208DF80400F8
:100CF00000208DF8060003208DF8050000208DF8F7
:100D0000070069464C4809F0AFFF4FF4804000905F
:100D100001208DF8040000208DF8060003208DF8D6
:100D2000050000208DF807006946434809F09CFF44
:100D30001020009001208DF8040000208DF806009E
:100D400003208DF8050000208DF8070069463A4819
:100D500009F08AFFFFF788FB02F046FEFFF77AFCF6
:100D60001CBD704710B504212F4809F0ECFFC0F1FD
:100D70000100C4B2224604212B4809F0F5FF10BD42
:100D800010B50421284809F0EDFF10BD10B504216D
:100D9000254809F0E5FF10BD10B50821224809F0EB
:100DA000D2FFC0F10100C4B2224608211E4809F05A
:100DB000DBFF10BD10B508211B4809F0D3FF10BDA3
:100DC00010B50821184809F0CBFF10BD10B5044636
:100DD000002C05DD4FF40051174809F0C1FF04E075
:100DE0004FF40051144809F0BDFF10BD10B5044682
:100DF000002C05DD4FF480410F4809F0B1FF04E0FD
:100E00004FF480410C4809F0ADFF10BD10B5044609
:100E1000002C04DD1021084809F0A2FF03E0102196
:100E2000054809F09FFF10BD001402400008024071
:100E300000040240000002400010024070B5044669
:100E400020460DF05AF905462946204601F076FE67
:100E500070BD10B54FF48071E5480DF043FAE548D8
:100E60000288E5A1E2480CF0A7FFE148FFF7E6FFA2
:100E700010BD10B54FF48071DD480DF033FAE24833
:100E80000278E2A1DA480CF097FFD948FFF7D6FFC5
:100E900010BD10B54FF48071D5480DF023FAE0482D
:100EA0000278E0A1D2480CF087FFD148FFF7C6FFD7
:100EB00010BD1CB54FF48071CD480DF013FADE481B
:100EC000C078DD498978CDE90010DB4843780278A5
:100ED000DAA1C7480CF070FFC548FFF7AFFF1CBD93
:100EE00000B59BB06C22DC4968460DF0C1F968463C
:100EF000FFF7A4FFFFF7DDFFFFF7CBFFFFF7B9FF19
:100F0000FFF7A7FF1BB000BD00B58DB04FF4807197
:100F1000B7480DF0E7F9D1484079D0490979CF4A6F
:100F2000D278CE4B9B78CDE90832CDE90A10CB4878
:100F300041780078CA4AD278C94B9B78CDE904320F
:100F4000CDE90601C6484078C5490A78C549C9783F
:100F5000C44B9B78CDE90031CDE90220C1484378EC
:100F60000278C149A2480CF027FFA148FFF766FFAD
:100F70000DB000BD30B5B7B0C822BC4905A80DF012
:100F800077F90425142168460DF0CEF9002419E004
:100F9000681EA0420AD1B648025DB6A168460CF0B0
:100FA0000BFF694605A80DF012F909E0B048025D93
:100FB000B1A168460CF000FF694605A80DF007F9DD
:100FC000601CC4B2AC42E3DB05A8FFF737FFFFF7B4
:100FD00070FFFFF799FFFFF75CFFFFF74AFFFFF78E
:100FE00038FF37B030BD30B5C3B0C8229F49C831D3
:100FF00011A80DF03DF92C22A0A106A80DF038F99A
:101000000425142101A80DF08FF9002419E0681EB1
:10101000A0420AD19648025D96A101A80CF0CCFE30
:1010200001A911A80DF0D3F809E09148025D92A141
:1010300001A80CF0C1FE01A911A80DF0C8F8601CB0
:10104000C4B2AC42E3DB11A8FFF7F8FEFFF731FFB3
:10105000FFF75AFFFFF71DFFFFF70BFFFFF7F9FE42
:1010600006A8FFF7EBFE43B030BDF0B5C3B00446B1
:101070000D464FF4807103A80DF056F91020034679
:1010800003AA29460090204601F08EFE86A103A8FF
:101090000DF072F9002833D184A107A80DF06CF986
:1010A00070BB0BA801F0F3FEC0B28DF808000FA8CA
:1010B00001F0EDFEC0B28DF8090013A801F0E7FEC3
:1010C000C0B28DF80A0017A801F0E1FEC0B28DF899
:1010D0000B004FF4807146480DF004F975A14448A7
:1010E0000CF06AFE4248FFF7A9FE9DF80B309DF810
:1010F0000A209DF809109DF8080002F018F875E024
:1011000071A103A80DF038F938B968A107A80DF04E
:1011100033F910B9FFF7CDFE68E06BA103A80DF01D
:101120002BF938B96AA107A80DF026F910B9FFF715
:10113000B0FE5BE05CA103A80DF01EF960B966A1EA
:1011400007A80DF019F938B90BA801F0A0FE064662
:101150003046FFF76FFB49E05BA103A80DF00CF9E7
:1011600038B95DA107A80DF007F910B9FFF781FEA6
:101170003CE04DA103A80DF0FFF860B958A107A805
:101180000DF0FAF838B90BA801F081FE064630469A
:10119000FFF75FFB2AE04CA103A80DF0EDF838B98A
:1011A0004FA107A80DF0E8F810B9FFF752FE1DE0B7
:1011B0003DA103A80DF0E0F860B94BA107A80DF020
:1011C000DBF838B90BA801F062FE06463046FFF79F
:1011D0005BFB0BE04FF4807105480DF083F844A1F0
:1011E00003480CF0E9FD0248FFF728FE43B0F0BDCC
:1011F000B42700202E000020547261696E204964DB
:101200003A20256420200A002D00002044657669DC
:1012100063652049643A20256420200A000000000C
:101220002C00002044657669636520547970653A26
:1012300020256420200A00000E0200200A4C6F6363
:10124000616C2049503A2025642E25642E25642E99
:10125000256420200A00000070010100080200201F
:101260001602002012020020DC010100B4E8000098
:10127000FCF700002564000025642E00706C656199
:10128000736520646F776E6C6F6164206170706C41
:1012900069636174696F6E2070726F6772616D65EA
:1012A000206E6F7721210A00736574006C6F636193
:1012B0006C6970004F6B2C20706C656173652077D2
:1012C0006169742E2E2E0A007265616400000000B0
:1012D0006465767479706500646576696400000001
:1012E000747261696E696400766F6C756D6500007B
:1012F000496E76616C696420436F6D6D616E642028
:10130000210A000000B5AFB001214FF060600AF083
:1013100005F902F005FD03F0C4F900BF03F0C8F9B8
:101320000128FBD0684602F006FD01200090002055
:1013300007904FF400700A9000200B900E901190CF
:1013400013901490159020904FF000702190001190
:10135000239000202590269004202890C0052990F5
:1013600040122A9080012B9040122C9040002E9029
:101370000121684602F038FD344908602FB000BDF5
:101380001CB5012167200AF0C9F8012188030AF081
:1013900009F94FF48070009003208DF805000220B9
:1013A0008DF8040000208DF806008DF807006946CE
:1013B000274809F059FC01200AF0CFFB8620009055
:1013C0006946234809F050FC0B220121204809F00E
:1013D000D6FC0B2202211E4809F0D1FC0B2207216A
:1013E0001B4809F0CCFC322000906946194809F0EE
:1013F0003BFC0B220121174809F0C1FC0B22042100
:10140000144809F0BCFC0B220521124809F0B7FC76
:101410004FF4D040009069460F4809F025FC0B229C
:1014200011460D4809F0ABFC0B220D210A4809F0CA
:10143000A6FC0B220E21084809F0A1FC1CBD10B52A
:10144000FFF79EFFFFF75EFF10BD0000A400002025
:1014500000000240000802400018024010B50C20B5
:1014600003F02AFC04461CB1002020606060A060EC
:10147000204610BD10B50446204603F06BFB10BD9E
:1014800070B504460E46254615B1284603F062FBAA
:1014900070BD70B505460C460021284604F050FF8B
:1014A0000021284604F051FF0021284604F04AFF9D
:1014B0000021284604F04CFF204603F04BFB284651
:1014C00004F062FB70BD2DE9F04106460C46B6F80B
:1014D0006E006168884202D2B6F86E5001E0A088C2
:1014E00085B200232A463046216806F0E7FA07460F
:1014F0002FB92068284420606068401B6060BDE808
:10150000F0812DE9F04104460E461746254615B9EF
:101510000020BDE8F0810020287229463046FFF700
:10152000D2FF0020F5E770B504460D461CB92846E9
:1015300004F02AFB03E021462846FFF7C4FF002001
:1015400070BD2DE9F04107460C4615461E46666003
:10155000256021463846FFF7B6FFBDE8F08110B59B
:10156000034602E05C54491C521C1478002CF9D14B
:10157000084610BD2DE9F05F81460C4616469A4696
:10158000DDF828B00025A84648460CF0B6FD074611
:101590002EE0207899F80010884227D13A4621465B
:1015A00048460CF07EFD08BB3C443D4420783D2875
:1015B0001CD1641C6D1C0BE020783070761C641C00
:1015C0006D1C08F1010808F10100584500D305E041
:1015D0002078262802D020780028EDD100BF0020F6
:1015E0003070CAF800802846BDE8F09F6D1C641C6E
:1015F00020780028CDD100BFF6E770B59AB0064636
:10160000282110A80CF090FE282106A80CF08CFED2
:10161000FDA2FEA110A80CF0CFFB0425142101A807
:101620000CF082FE002419E0681EA0420AD1F8489E
:10163000025DF8A101A80CF0BFFB01A910A80CF0F5
:10164000C6FD09E0F248025DF3A101A80CF0B4FB6D
:1016500001A910A80CF0BBFD601CC4B2AC42E3DBD6
:10166000EE4BEF4AEFA106A80CF0A6FBEF48FF22D5
:101670000169EF48406806ABCDE90130CDE90321AF
:1016800010A80090EB480378EB480278EB4930460D
:101690000CF092FB1AB070BD2DE9FF4FADF6DC0DDA
:1016A00082461646CDF8D8A8DDF8E80800B99EB9FC
:1016B0003EB13189DDF8E00804F013FB304603F059
:1016C000DFFCDDF8D818DDF8E008FFF7E2FE0020C7
:1016D0000DF6EC0DBDE8F08F3189DDF8E00804F07F
:1016E00000FB378900BF7089B0F5806F02DB40F2E4
:1016F000FF3901E0B6F80A904FF480610DF59B6068
:101700000CF012FE4A460DF59B6071680CF06BFD03
:1017100000200DF59B6101F80900304603F0B0FC94
:10172000C7480068C649086006220DF59B61C5A040
:101730000CF002FDA0B9C54A002136A8FFF70FFF43
:101740000446C34A214636A8FFF709FF0446A3B260
:1017500036AADDF8D818DDF8E008FFF7F2FECBE294
:101760000E220DF59B61BBA00CF0E6FCA0B9B74AB8
:10177000002136A8FFF7F3FE0446BA4A214636A8F0
:10178000FFF7EDFE0446A3B236AADDF8D818DDF85F
:10179000E008FFF7D6FEAFE211220DF59B61B2A083
:1017A0000CF0CAFCB8B9A94A002136A8FFF7D7FE49
:1017B0000446B248FFF721FFB04A214636A8FFF79A
:1017C000CEFE0446A3B236AADDF8D818DDF8E0084C
:1017D000FFF7B7FE90E20D220DF59B61A8A00CF07B
:1017E000ABFCA0B9994A002136A8FFF7B8FE044621
:1017F000A74A214636A8FFF7B2FE0446A3B236AA8E
:10180000DDF8D818DDF8E008FFF79BFE74E211223E
:101810000DF59B619FA00CF08FFCA0B98B4A0021B5
:1018200036A8FFF79CFE04469F4A214636A8FFF7DC
:1018300096FE0446A3B236AADDF8D818DDF8E00813
:10184000FFF77FFE58E212220DF59B6197A00CF086
:1018500073FCA0B97D4A002136A8FFF780FE04463C
:10186000974A214636A8FFF77AFE0446A3B236AA65
:10187000DDF8D818DDF8E008FFF763FE3CE20B2244
:101880000DF59B618FA00CF057FC002865D14FF03F
:101890000B08642000900DF59B6000EB080103AB82
:1018A0001DAA8BA0FFF766FE070041D008EB0705D5
:1018B000642000900DF59B60411902AB04AA87A03B
:1018C000FFF758FE0746039805281CD186A11DA8DE
:1018D000039A0CF0E6FBB0B90298A0B95B4A00216C
:1018E00036A8FFF73CFE0446814A214636A8FFF79A
:1018F00036FE0446A3B236AADDF8D818DDF8E008B3
:10190000FFF71FFE28E0514A002136A8FFF727FE07
:101910000446784A214636A8FFF721FE0446A3B2C2
:1019200036AADDF8D818DDF8E008FFF70AFE13E064
:10193000464A002136A8FFF712FE04466D4A2146AA
:1019400036A8FFF70CFE0446A3B236AADDF8D81875
:10195000DDF8E008FFF7F5FDCEE10D220DF59B6106
:1019600065A00CF0E9FBA0B9384A002136A8FFF7C2
:10197000F6FD04463B4A214636A8FFF7F0FD044633
:10198000A3B236AADDF8D818DDF8E008FFF7D9FDD4
:10199000B2E10F220DF59B615BA00CF0CDFB00289E
:1019A000DAD10F2535950F90359D802000900DF5EB
:1019B0009B60411934AB14AA57A0FFF7DBFD070069
:1019C00001D101200F903D440A2000900DF59B604D
:1019D000411934AB11AA52A0FFF7CCFD070001D189
:1019E00001200F903D4411A80CF04EFBC0B28DF8C1
:1019F00040000A2000900DF59B60411934AB11AAFC
:101A000048A0FFF7B7FD8FE05600000025730000E7
:101A1000FCF700002564000025642E000CF800008F
:101A200000F8000025732C2025730000B001002071
:101A3000C40100202D0000202C000020D402010051
:101A400000000020474554202F20000044EA0000F9
:101A500071EA0000474554202F6C6F67696E2E684D
:101A6000746D000049EE0000474554202F72756EDA
:101A70005F696E666F2E68746D000000B42C0020E4
:101A8000474554202F6C6566742E68746D00000005
:101A9000C7EB0000474554202F6D6F64655F736589
:101AA0006C2E68746D000000CBEF00004745542099
:101AB0002F7570646174655F73772E68746D0000B4
:101AC0006AF20000474554202F6C6F67696E3F0033
:101AD000757365726E616D650000000070617373EF
:101AE000776F72640000000061646D696E00000031
:101AF00007EB0000C0EC0000474554202F6C6F67D7
:101B00005F6572723F000000474554202F75706476
:101B10006174655F73773F0073775F66696C65001A
:101B20006970310069703200070001D101200F9007
:101B30003D4411A80CF0A8FAC0B28DF841000A206B
:101B400000900DF59B60411934AB11AAA6A0FFF7D8
:101B500011FD070001D101200F903D4411A80CF0A8
:101B600093FAC0B28DF842000A2000900DF59B60F8
:101B7000411934AB11AA9DA0FFF7FCFC070001D16D
:101B800001200F9011A80CF07FFAC0B28DF843002D
:101B90009DF8400040B19DF8410028B19DF84200F9
:101BA00010B19DF8430008B901200F903D44082072
:101BB00000900DF59B60411934AB11AA8CA0FFF782
:101BC000D9FC07464FF0000B57B13498022807D1D3
:101BD00089A111A8349A0CF064FA08B94FF0010BEE
:101BE0000F98A0B1854A002136A8FFF7B8FC04463B
:101BF000834A214636A8FFF7B2FC0446A3B236AAB0
:101C0000DDF8D818DDF8E008FFF79BFC73E00BF077
:101C1000B4FEA0B1794A002136A8FFF7A0FC044623
:101C2000784A214636A8FFF79AFC0446A3B236AAA2
:101C3000DDF8D818DDF8E008FFF783FC5BE010ABB7
:101C400071A214A901200BF0EDFFA0B16B4A002195
:101C500036A8FFF784FC0446694A214636A8FFF7F8
:101C60007EFC0446A3B236AADDF8D818DDF8E008F9
:101C7000FFF767FC3FE010AB63A214A901200CF052
:101C800002F85E4A002136A8FFF769FC04465D4A67
:101C9000214636A8FFF763FC0446A3B236AADDF856
:101CA000D818DDF8E008FFF74CFC14A80CF025FA72
:101CB000801D80B20E900E980CF028F88046109887
:101CC000C8F8000014A80CF018FA88F8040014AA48
:101CD000AFF2C82108F105000CF06EF8BBF1000F5F
:101CE00005D0414640F603200E9A0AF0F2FC404629
:101CF0000CF03BF800BF00BFDDF8D818DDF8E008B5
:101D0000FFF7C7FB0020E3E42DE9F04106460D464E
:101D10001746FFF7A3FB04461CB94FF0FF30BDE8A0
:101D2000F0810020206060602146284604F008FB16
:101D30003749284604F006FB3649284604F008FBDC
:101D40000A223549284604F008FB3449284604F0A5
:101D5000FCFA0020E3E770B504F0EDFA05465022E6
:101D60002F49284604F0BDF8044600BFFF2128464D
:101D700004F02DF905462946284604F0E1FA2949E0
:101D8000284604F0E8FA70BD10B504463CB90BF0E3
:101D900013F80AF05BFA05200BF04AFA1EE0012C5A
:101DA00007D10BF009F80AF051FA02200BF040FAC3
:101DB00014E0022C07D10AF0FFFF0AF047FA0420D2
:101DC0000BF036FA0AE0032C07D10AF0F5FF0AF00F
:101DD0003DFA03200BF02CFA00E010BD00BFFCE739
:101DE000114908707047704769703300697034009A
:101DF000616C6C5F646576006F6E000044EA000001
:101E0000F4ED00002CF600006F63746574000000B0
:101E1000991600008114000027150000031500002A
:101E200018F70000091D0000AC0000201FB50020BD
:101E3000ADF804004BF6FF70ADF80600A020ADF839
:101E400008004FF48060ADF80A000001ADF80C0006
:101E5000E14800900121E14809F06BF86946DF484C
:101E600008F0EBFF1FBD2DE9F04104460D46270A9F
:101E7000E6B200BF4FF40031D84809F080F90028DD
:101E8000F8D10121D54809F060F800BFD449D34802
:101E900009F053F90028F9D00022A021CF4809F019
:101EA0006CF800BFCF49CD4809F047F90028F9D0B8
:101EB0003946CA4809F0E5F800BFCB49C74809F0E0
:101EC0005EF90028F9D03146C44809F0DAF800BFBD
:101ED000C549C24809F053F90028F9D02946BF483E
:101EE00009F0CFF800BFC049BC4809F048F9002804
:101EF000F9D000BFBB49891EB84809F01EF9002877
:101F0000F8D00121B54809F02CF8BDE8F0812DE9A1
:101F1000F0410446260AE5B200BF4FF40031AF4855
:101F200009F02DF90028F8D10121AC4809F00DF88D
:101F300000BFAB49A94809F000F90028F9D00022F8
:101F4000A021A64809F019F800BFA649A34809F046
:101F5000F4F80028F9D03146A04809F092F800BF03
:101F6000A1499E4809F00BF90028F9D029469B4861
:101F700009F087F800BF9C49984809F000F900284B
:101F8000F9D00121954808F0E0FF00BF944993483B
:101F900009F0D3F80028F9D00122A0218F4808F0D9
:101FA000ECFF00BF9049891E8C4809F0E8F8002832
:101FB000F8D00021894808F0E8FF884818300088E8
:101FC0000121864808F0CDFF00BF87493C31834896
:101FD00009F0D5F80028F8D0804809F054F80746F1
:101FE00000BF7E48008800F400700028F9D101216C
:101FF0007A4808F0CAFF3846BDE8F0812DE9F0477D
:1020000006460F4615464FF6FF7000EA46184FEA9F
:10201000182A08F0FF09202D00DD202500BF4FF40D
:1020200000316E4809F0ABF80028F8D101216B4867
:1020300008F08BFF00BF6A49684809F07EF8002865
:10204000F9D00022A021654808F097FF00BF65493C
:10205000624809F072F80028F9D051465F4809F04B
:1020600010F800BF60495D4809F089F80028F9D0F0
:1020700049465A4809F005F800BF5B49574809F03E
:102080007EF80028F9D000240BE0395D534808F0B1
:10209000F8FF00BF5449514809F071F80028F9D001
:1020A000641CAC42F1DB00BF4E49891E4B4809F06D
:1020B00044F80028F8D00121484808F052FFBDE854
:1020C000F0872DE9F04706460F4615464FF6FF709C
:1020D00000EA46184FEA182A08F0FF09202D00DD13
:1020E000202500BF4FF400313C4809F048F8002893
:1020F000F8D10121394808F028FF00BF3849374896
:1021000009F01BF80028F9D00022A021334808F07C
:1021100034FF00BF3349314809F00FF80028F9D0E7
:1021200051462E4808F0ADFF00BF2F492B4809F05B
:1021300026F80028F9D04946284808F0A2FF00BF39
:102140002949264809F01BF80028F9D000243AE074
:102150000121224808F0F9FE00BF21491F4808F07C
:10216000ECFF0028F9D00122A0211C4808F005FF4F
:1021700000BF1D49891E194809F001F80028F8D050
:102180000021164808F001FF14481830008801218A
:10219000124808F0E6FE00BF13493C310F4808F032
:1021A000EEFF0028F8D00D4808F06DFF385500BF4D
:1021B0000A48008800F400700028F9D1012107487E
:1021C00008F0E3FE641CAC42C2DBBDE8F087704758
:1021D0000146002070477047A0860100005800406B
:1021E0000100030082000700040000101FB5012158
:1021F000880309F0C6F9FE4809F0CEFA4AF64440D1
:1022000002900020ADF80200ADF80400ADF80C001B
:102210004FF40070ADF800000020ADF806006946EC
:10222000F34809F0FDFA0121F14809F0A8FB1FBDB0
:1022300000B591B00121480509F070F90021ED4881
:1022400008F04EF9EB4808F06FF80022EA49E94837
:1022500008F06DF90121E74808F075F900200290B7
:10226000E3480C300390E5480490402005900001BD
:102270000690002007904FF480600890400009907D
:1022800080000A9040110B9040020C9004200D90A9
:1022900003200E9000200F90109002A9D54808F05E
:1022A000E5F801221021D34808F0A7F901220821FE
:1022B000D04808F0A2F90F208DF8040000208DF816
:1022C00005008DF8060001208DF8070001A807F031
:1022D000C0FF0121C74808F003F901220221C448C8
:1022E00009F0B8FB11B000BD70B5C24808F03BF969
:1022F00008B9C14D00E0C14DC1480068C149096835
:1023000046180121BE48006800F049FDBC4908603C
:10231000002405E036F8140005EB84014880641CB5
:10232000B4F5007FF6DB70BD70B5B24808F01BF95C
:1023300008B9B14D00E0B14DB3480068B349096830
:1023400046180121B048006800F029FDAE49086038
:10235000002405E036F81400610025F81100641C23
:10236000B4F5007FF6DB70BD10B5A9480068A84938
:102370000860A8499F4808F05DF9012816D1A549D1
:102380009C4808F081F9A2480068A1490860FFF75D
:10239000CBFFFFF7A9FF01209F4908609F48006815
:1023A000401C9E49086001209D4908609D49914854
:1023B00008F040F9012807D19A498E4808F064F9DD
:1023C000934800689249086010BD1FB50121C803F9
:1023D00009F0D7F8944809F0DFF94AF64440029032
:1023E0000020ADF80200ADF80400ADF80C004FF489
:1023F0008070ADF800000020ADF8060069468A48FC
:1024000009F00EFA0121884809F0B9FA1FBD00B59C
:1024100091B00121480509F081F800217548303854
:1024200008F05EF87348303807F07EFF00227F49DD
:102430007048303808F07BF801216E48303808F0D9
:1024400082F80020029078480C300390784804907D
:10245000002005904FF480600690002007904FF414
:10246000806008904000099080000A9040110B9015
:1024700040020C9004200D9003200E9000200F903D
:10248000109002A95B48303807F0F0FF01221021BC
:102490005848303808F0B1F8012208215548303842
:1024A00008F0ABF80D208DF8040001208DF8050030
:1024B00000208DF8060001208DF8070001A807F024
:1024C000C8FE01214B48303808F00AF801221146B5
:1024D000554809F0BFFA11B000BD70B54548303815
:1024E00008F041F808B9514D00E0514D51480068DD
:1024F0005149096801EB802604214E48006800F02C
:102500004EFC4C490860002405E0600035F81000DE
:1025100026F81400641CB4F5007FF6DB70BD10B51E
:102520003B4800683A49086044493248303808F06E
:1025300081F801280DD141492E48303808F0A4F81F
:10254000FFF7CBFF01203E49086031480068304961
:1025500008603C492748303808F06CF8012808D159
:1025600038492448303808F08FF82948006828494D
:10257000086010BD002000E0401C0528FCDB70470F
:1025800070B506460D462846FEF740FC0120FEF7D2
:102590002DFC0020FEF71AFCFFF7ECFF00241DE0E5
:1025A00046FA04F000F0010030B90020FEF70EFCFE
:1025B0000020FEF70BFC05E00020FEF707FC0120E1
:1025C000FEF704FC0020FEF711FCFFF7D3FF01200B
:1025D000FEF70CFCFFF7CEFF601CC4B2082CDFDB5B
:1025E000FFF7C8FF0120FEF711FCFFF7C3FF70BD26
:1025F0000038004070600240B4380020B430002041
:102600005800002050000020440000203C00002022
:102610000000002020800020D00100209C0000202D
:10262000A000002010400020003C0040B4480020E2
:10263000B4400020680000206000002000802010CE
:10264000780000200040101010B500211620FFF780
:1026500097FF01216020FFF793FF01212020FFF762
:102660008FFF01218320FFF78BFF10BD10B50021E4
:102670001420FFF785FF01210F20FFF781FF0121C3
:102680008120FFF77DFF0121C220FFF779FF0121A3
:10269000E320FFF775FF0121C120FFF771FF012142
:1026A000FF20FFF76DFF0121C020FFF769FF012127
:1026B000F020FFF765FF10BD704710B5FFF7C4FFAE
:1026C000FFF7D4FF10BD10B504464CB9002114200B
:1026D000FFF756FF01210020FFF752FF002010BD39
:1026E0003D2C0ADA00211420FFF74AFF611CC8B212
:1026F0000121FFF745FF0020F1E7642C09DC0021F0
:102700001420FFF73DFF01216F20FFF739FF002064
:10271000E5E74FF0FF30E2E770B504460D46102CB8
:1027200000DD1024062D00DD0625204604EBD071C7
:10273000C1F34704284605EBD071C1F3470504F007
:102740000F00402141EA800005F0030140EA010644
:1027500000211420FFF714FF01213046FFF710FF7E
:10276000002070BD10B5044600211420FFF708FFBB
:102770002D2C00DD2D246000032190FBF1F0C4B26C
:102780000121C020FFF7FCFE44F0E0000121FFF72B
:10279000F7FE002010BD000010B505F067FEF949F6
:1027A00008604CF69F72F849F648006805F045FD50
:1027B00010BD2DE9F04106460F4614469846069D89
:1027C0006189606800F0C0FD204602F059FCBDE858
:1027D000F08110B505F04AFEEC4908604CF6A07295
:1027E000E949EA48006805F028FD0022AFF23D0102
:1027F000E648006805F019FE10BD10B505F036FE7C
:10280000E34908604CF6B732DF49E148006805F05B
:1028100014FD10BD2DE9F04106460F4614469846BA
:10282000069D6189606800F089FD204602F028FC61
:10283000BDE8F08110B505F019FED64908604CF6E8
:10284000B832D149D348006805F0F7FC0022AFF256
:102850003B01D048006805F0E8FD10BD10B505F05B
:1028600005FECD4908604CF2CF72C749CA480068DE
:1028700005F0E3FC10BD2DE9F04106460F46144675
:102880009846069D6189606800F0F1FC204602F0E0
:10289000F7FBBDE8F08110B505F0E8FDBF49086021
:1028A0004CF2D072B849BD48006805F0C6FC002261
:1028B000AFF23D01B948006805F0B7FD10BD10B595
:1028C00005F0D4FDB64908604CF2E732AE49B44891
:1028D000006805F0B2FC10BD2DE9F04106460F4638
:1028E00014469846069D6189606800F098FC204671
:1028F00002F0C6FBBDE8F08110B505F0B7FDA949AF
:1029000008604CF2E832A049A648006805F095FC42
:102910000022AFF23B01A348006805F086FD10BD20
:102920002DE9F04106460F4614469846069D6189FA
:102930006068FEF79AFB204602F0A2FBBDE8F0813A
:1029400010B505F093FD9849086043F660328E4952
:102950009548006805F071FC0022AFF23B019248F7
:10296000006805F062FD10BD10B505F07FFD8F49D0
:10297000086043F6633284498C48006805F05DFCCA
:1029800010BD2DE9F04106460F4614469846069DB7
:102990006189606809F038FE204602F071FBBDE8ED
:1029A000F08110B505F062FD8149086043F662329E
:1029B00075497F48006805F040FC0022AFF23D01F8
:1029C0007B48006805F031FD10BD00B587B002F00E
:1029D00099F802F0FFF9774909780A0675494978AC
:1029E00042EA01427349897842EA0121714AD27868
:1029F00041EA020006F02CF806906F4909780A06B1
:102A00006D49497842EA01426B49897842EA0121DD
:102A1000694AD27841EA020006F01AF8059067493F
:102A200009780A066549497842EA0142634989788A
:102A300042EA0121614AD27841EA020006F008F830
:102A400004905C4909780A065A49497842EA0142E9
:102A50005849897842EA012141F0FF0005F0F8FF6A
:102A60005749086057485849002204ABCDE9002176
:102A7000029005AA06A9554802F057FA534802F0F9
:102A800085FA524802F0CAFAFFF78BFFFFF76CFF96
:102A9000FFF756FFFFF730FFFFF711FFFFF7FBFED1
:102AA000FFF7DCFEFFF7C6FEFFF7A7FEFFF791FE7C
:102AB000FFF772FE07B000BD10B5444807F086FB73
:102AC00010BD10B501F0BEFC08B1FFF7F5FF10BD59
:102AD00010B53F480068401C3D4908600846006842
:102AE000642803DD0020086006F029FE10BD10B543
:102AF000FFF7EEFF10BD70B506460C4643F6623296
:102B00002F492A48006805F053FCA1B20322002097
:102B100002F0EDFA054685B1A2B23146284602F030
:102B200025FD29462148006805F038FC1F4800684B
:102B300005F06DFC284602F0A3FA70BD70B506469C
:102B40000C4643F661321E491748006805F030FC18
:102B5000A1B20322002002F0CAFA054685B1A2B252
:102B60003146284602F002FD29460F48006805F06C
:102B700015FC0D48006805F04AFC284602F080FA72
:102B800070BD00000002002018F70000FC010020CA
:102B9000F8010020F4010020F0010020EC010020E9
:102BA000E8010020E4010020E0010020DC01002019
:102BB000D80100200E020020160200201202002080
:102BC000D4010020FB9F0000F9A10000B4500020B8
:102BD0000402002070B506460C464CF2E832434928
:102BE0004348006805F0E4FBA1B20322002002F094
:102BF0007EFA054685B1A2B23146284602F0B6FCFF
:102C000029463B48006805F0C9FB3948006805F0D3
:102C1000FEFB284602F034FA70BD70B506460C463D
:102C20004CF2D07231493348006805F0C1FBA1B2C3
:102C30000322002002F05BFA054685B1A2B23146BC
:102C4000284602F093FC29462A48006805F0A6FBB6
:102C50002848006805F0DBFB284602F011FA70BD39
:102C600070B506460C464CF6B8322049224800683A
:102C700005F09EFBA1B20322002002F038FA0546BF
:102C800085B1A2B23146284602F070FC29461A48A6
:102C9000006805F083FB1848006805F0B8FB28467B
:102CA00002F0EEF970BD70B506460C464CF6A07207
:102CB0000E491248006805F07BFBA1B203220020F8
:102CC00002F015FA054685B1A2B23146284602F057
:102CD0004DFC29460948006805F060FB074800687C
:102CE00005F095FB284602F0CBF970BDD401002019
:102CF000E8010020F0010020F8010020000200207F
:102D00000146002206E0002001E000BF401C14281C
:102D1000FBDB521C8A42F6D3704710B5014601F026
:102D2000F00201F00F03121102EB820403EB4404E2
:102D3000E0B210BD30B501460A2491FBF4F4E2B2D2
:102D40000A2491FBF4F504FB1514E3B203EB02141F
:102D5000E0B230BD01460A2009B9012007E0012296
:102D600003E000EB80035800521C8A42F9DB7047F5
:102D70000146102009B9012005E0012201E000010F
:102D8000521C8A42FBDB704710B5002304E0401C54
:102D9000884200DB00205B1C9342F8DB10BD401C26
:102DA000884200DB002070472DE9F04104460F46C1
:102DB0001646069D0021002025E014F801C0BCF154
:102DC000000F06D14FF0000800FB05FC06F80C8050
:102DD0001DE0002207E014F801C000FB056808F8B8
:102DE00002C0491C521C14F801C0BCF1200F01DDC7
:102DF000AA42F0DB32B14FF0000C00FB056808F886
:102E000002C0401C491C984201DAB942D5DB00BF20
:102E1000BDE8F08170B503460C4600210025002076
:102E20000EE05E5CA64204D01DB95E5C1654401CE8
:102E300005E05E5CA64202D1002616546D1C491CBA
:102E40005E5C16B1B1F5806FEBDB0026165470BDE9
:102E500070B503460C460021002500200FE05E5CA3
:102E6000A64205D0012D03D15E5C1654401C05E03E
:102E70005E5CA64202D1002616546D1C491C5E5CA5
:102E800016B1B1F5806FEADB0026165470BD2DE94E
:102E9000F04107464FF0000838460BF02EF9064681
:102EA000022E34DD3878302831D17878782802D075
:102EB000787858282BD1002525E0B81C445D302CAB
:102EC00009DB392C07DC303CF11E481BFFF750FFB3
:102ED00004FB008816E0412C09DB462C07DC373C5C
:102EE000F11E481BFFF744FF04FB00880AE0612C39
:102EF00008DB662C06DC573CF11E481BFFF738FF49
:102F000004FB00886D1CB01EA842D6DC15E000252D
:102F100011E07C5D302C09DB392C07DC303C711E64
:102F2000481BFFF717FF04FB008803E033480068E5
:102F3000324908606D1CB542EBDB4046BDE8F081CC
:102F40002DE9F0470646894615469A46BAF1000F24
:102F500021D12846FFF7FEFE99FBF0F100FB119707
:102F6000002413E0691E081BFFF7F4FE97FBF0F046
:102F700000F0FF08691E081BFFF7ECFE97FBF0F15D
:102F800000FB117708F130003055641CAC42E9DBDE
:102F90000020705522E086F800A0681EFFF7DAFED8
:102FA00099FBF0F100FB1197012413E0691E081B47
:102FB000FFF7D0FE97FBF0F000F0FF08691E081B3A
:102FC000FFF7C8FE97FBF0F100FB117708F1300026
:102FD0003055641CAC42E9DB002070550020BDE890
:102FE000F08701460A7812064B7842EA03428B7852
:102FF00042EA0322CB7842EA030070470000002037
:1030000010B542F21070FFF77BFEC020DE49087059
:10301000A820487065208870DC4800788D30C87022
:1030200008460078DA490870D74840784870D64892
:10303000807888700120C8705E20D64908704520CD
:103040004870A2208870D0484078C870CE488078F8
:103050000871CD48C0784871FF20CF49087048708A
:1030600088700020C87000F0ABFBCC48CC490860E9
:103070000120CC49086042F21070FFF741FEFEF7D4
:10308000DEF942F21070FFF73BFE00BFFFF79DFC38
:1030900042F21070FFF734FE00F09AF9FEF75BFE83
:1030A000002010BD10B5C048006801280FD1BF48EE
:1030B000BF490268BA48006800F07EFABC4801685F
:1030C000B7480068FFF7EFFD0020B749086000200F
:1030D00010BD10B5FFF7E6FF10BD704710B5B5483D
:1030E0000068002802DDB348847900E0FF24002353
:1030F0002246AF49AA48006800F014FAAC480168BB
:10310000A7480068FFF766FD002010BD10B5FFF767
:10311000E5FF10BD01460A7812064B7842EA0342E9
:103120008B7842EA0322CB7842EA030070472DE90C
:10313000F04104460D4616461F46802C03DA4FF038
:10314000FF30BDE8F081F72C02DD4FF0FF30F8E7EB
:10315000FF2D02DD4FF0FF30F3E7FF2E02DD4FF0D1
:10316000FF30EEE7FF2F02DD4FF0FF30E9E709F017
:1031700053FE8548047045708670C7704FF47A70AE
:10318000FFF7BEFD00F088FA4FF47A70FFF7B8FD44
:1031900000F086FA4FF47A70FFF7B2FD4FF47A70C0
:1031A000FFF7AEFD8448FFF7ABFD8348FFF7A8FDAE
:1031B00000BF8248006800F4E06081490843001DB8
:1031C0007E490860BFF3408F00BF00BFFEE730B507
:1031D00001460A0EC1F30743C1F30724CDB2802A8A
:1031E00002DA4FF0FF3030BDF72A02DD4FF0FF303A
:1031F000F9E7FF2B02DD4FF0FF30F4E7FF2C02DD93
:103200004FF0FF30EFE7FF2D02DD4FF0FF30EAE730
:103210005D48027043708470C5700020E3E770B5AC
:1032200005460C46674805606748046065480068C5
:1032300000F0ECF810B14FF0FF3070BD614800684D
:1032400009F061F90020F8E710B5504803785F48AD
:1032500002785D4801685B48006800F026F9044682
:10326000642C02DA2046FDF70FFB002010BD2DE98B
:10327000F04780460F465348C0F800805248076028
:10328000B7F5806F03DA4FF0FF30BDE8F0874D48A7
:10329000006800F0BBF810B14FF0FF30F5E7494887
:1032A000006800F0F3F881464648006800F0E6F850
:1032B00006464448006800F0E5F80546B9F1040FF9
:1032C00038D14048006800F0EBF8044639480068FF
:1032D00001280BDA0A203749086008460671457153
:1032E0002078C880601CFDF77BFB23E02078314903
:1032F000C98888420BDA0A202E4908600846067100
:1033000045712078C880601CFDF76AFB12E02078C8
:103310002849C98888420DD126480079B04209D190
:1033200024484079A84205D10A2022490860601C3F
:10333000FDF756FB0020A8E700207047024600205A
:1033400070470246002070472DE9F04105460E46C1
:103350001C4805601C4806601A48006800F056F8D2
:1033600018B14FF0FF30BDE8F0811648006800F05A
:103370008DF80446032C05D11248006800F082F84D
:10338000074600BF0020EEE70E0200202D000020BF
:10339000120200200802002016020020E85000203F
:1033A0002802002030020020A00000209C00002005
:1033B0002C02002080000020A08601000CED00E01F
:1033C0000000FA0520020020240200202C0000202A
:1033D00010B5A8480078A8498870A8480078C87037
:1033E000A74800880880A748FFF794FEA2494860D4
:1033F000FF20A5498870C8704FF6FF7008809E486E
:10340000406840F0FF004860002010BD70B50546E0
:103410002C4620787E2802D04FF0FF3070BDE07837
:1034200094490978884205D0E078FF2802D04FF00F
:10343000FF30F3E7207991490978884205D0207957
:10344000FF2802D04FF0FF30E8E78E48FFF762FE1A
:10345000D4F8051088420FD0D4F80500401C58B1AC
:103460008848FFF757FE40F0FF01D4F8050081427D
:1034700002D04FF0FF30D1E70020CFE701460A46E7
:10348000D07A704701460A46107B704701460A46CB
:10349000B2F81100704701460A46B2F813007047AF
:1034A00001460A4602F1150070472DE9F041044635
:1034B0008C46274607F115052E460B2A07D1581EC4
:1034C00006F1050818F800100846BDE8F081FF2055
:1034D000FBE717B585B004466648007866498870F2
:1034E00066480078C8706648008808806548FFF71D
:1034F00011FE614948607E208DF800000698CDF8E5
:1035000001000798CDF8050008460168CDF80910BC
:103510004068CDF80D001122694620460AF063FE8E
:1035200008B010BD2DE9F04387B004460E4617469B
:1035300098462546544903C90A46CDE9000101468B
:1035400002A8FFF7C6FF112202A928460AF04BFE87
:103550000120A5F811000220A5F8130005F11509B6
:1035600089F8007089F80180B5F8130015303060D3
:10357000002007B0BDE8F08330B503460C4619467D
:103580000420A1F8130001F115052A60B1F8130019
:1035900015302060002030BD30B503460C4619467A
:1035A0000120A1F8130001F115052A70B1F81300EC
:1035B00015302060002030BD2DE9F04188B0044670
:1035C0000E4617462546304903C90A46CDE9010192
:1035D000014603A8FFF77DFF112203A928460AF040
:1035E00002FE0320A5F811000420A5F8130005F140
:1035F0001508C8F80070B5F81300153030600020C9
:1036000008B0BDE8F08130B503460C4619460220EB
:10361000A1F8130001F115056A70B1F81300153017
:103620002060002030BD2DE9F04704460F4690464B
:103630001D46264640F20340A6F8130006F1150980
:103640002A46414609F103000AF0CDFD09F10300C5
:1036500000EB050A0D480068CAF800000B48006836
:10366000401C0A490860B6F8130019303860002081
:10367000BDE8F0872C000020380200202D0000203B
:103680002E0000200E0200204002002048020020F0
:1036900010B5FEF7CBFB10BD01207B4908607047D9
:1036A00070B579480068012875D100207649086016
:1036B00076480078764908707448407848707348B6
:1036C000807888700120C8705E207249087045209B
:1036D0004870A22088706D484078C8706B48807828
:1036E00008716A48C0784871A5206B49087067481E
:1036F00000784870654841786748817063488178F0
:103700006548C1706148C1786348017160480078BC
:10371000614948715E4841785F4881715C488178B1
:103720005D48C1715A48C1785B4801725B480078B6
:1037300059494872594841785748817257488178A9
:103740005548C1725548C1785348017351480078B3
:10375000514948734F4841784F4881734D488178AB
:103760004D48C1734B48C1784B48017449480179B1
:10377000494841744748417947488174484800782E
:103780004549C8744748008888825A2088750025B2
:103790000E46002405E012E0305D2844C5B2601CEE
:1037A00084B2172CF8D3C5F155003B49C8751822CF
:1037B0000820FEF723FC4FF47A70FFF7A1FA70BDE2
:1037C00070B5182234490820FEF77BFC4FF47A705C
:1037D000FFF796FA0025304E002404E0305D2844BF
:1037E000C5B2601C84B2182CF8D3552D00D070BD22
:1037F00029480078A52845D12748807D5A2841D1FD
:10380000254840782149087023488078487022482C
:10381000C078887020480079C8701F4840791C49DA
:1038200008701D48807948701B48C07988701A4814
:10383000007AC8701848407A184908701648807A8B
:1038400048701548C07A88701348007BC8701248C9
:10385000407B104908701048807B48700E48C07B40
:1038600088700D48007CC8700B48407C08710A487D
:10387000807C48710848C07C094908600648808AF5
:103880000849088000BFB2E74C0200200E02002069
:103890001202002008020020E85500201602002035
:1038A000880000202E0000207FB5042006F01EFDB9
:1038B000684607F09EFD42F210720198B0FBF2F1EB
:1038C000B1F1807F00D31DE021F07F40401E4FF01A
:1038D000E022506150170F22002807DA13071D0E4F
:1038E0002B4B00F00F04241F1D5503E013071C0E83
:1038F000284B1C5400BF00204FF0E02290610720AD
:10390000106100BF7FBD10B523480068401C2249EC
:10391000086022480068401C204908602048006870
:10392000401C1F4908601F480068401C1D49086072
:103930001D480068401C1C4908601C480068401C69
:103940001A4908601A480068401C19490860FCF7C9
:10395000B5FD10BD704770477047704710B5FFF751
:10396000BCFBFFF7C4F810BD10B5FFF799FE10BD02
:1039700010B510480068012801DAFDF7F3F9FFF7E8
:10398000C5FB10BD10B5FCF754FF10BD704700001B
:1039900018ED00E000E400E0500200205402002096
:1039A000580200205C020020600200206402002017
:1039B0006802002080000020704700BFFEE700BFC3
:1039C000FEE700BFFEE709F027FA00BFFEE77047F9
:1039D00010B5FFF798FF10BD10B5FEF7A0FD10BDA4
:1039E00010B5FEF7C1FC10BD1CB500208DF8040019
:1039F00001208DF8060003208DF8050000208DF8C9
:103A00000700FF2000906946344807F02DF91CBDDF
:103A100070B50646F6B2344606F0C000C02803D1A1
:103A200004F03F00451C1DE004F00F00092803DCF2
:103A30000920B0EB241F04DAFF252E2008F0A4F89B
:103A40000FE004F00F00211101EB810100EB4100B8
:103A5000C5B2012D01DB022D03DD2F2008F094F803
:103A6000FF2500BF00BF284670BDF8B500200090BC
:103A70004FF6FF750024002616E001E0FCF710FD6C
:103A80004FF47A716846FCF741FD0028F6D01348E0
:103A900007F055F90546AC4204D1701CC6B2052E9C
:103AA00002DB02E000262C46E7E700BFE4B2204636
:103AB000FFF7AEFF07463846F8BD10B50848007856
:103AC000012803DB06480078022804DD2F2008F0D7
:103AD0005BF8012010BD0020FCE700000018024048
:103AE0002D0000200948804709480047FEE7FEE70F
:103AF000FEE7FEE7FEE7FEE7FEE7FEE7FEE7FEE79E
:103B000004480549054A064B70470000E53B0000A4
:103B100085010000D86F0120D8870120D8770120C7
:103B2000D87701200CB50020019000906B48006808
:103B300040F480306949086000BF6848006800F4BC
:103B4000003000900198401C0190009818B901982D
:103B5000B0F5A06FF1D16148006800F4003010B1F9
:103B60000120009001E0002000900098012838D149
:103B70005A4808300068594908310860084600680A
:103B800040F4004008600846006840F4A050086017
:103B90005348091F0860081F006840F08070091F23
:103BA000086000BF4D48006800F000700028F9D0A0
:103BB00040F203704B49086048480830006820F024
:103BC00003004649083108600846006840F00200DA
:103BD000086000BF41480830006800F00C00082869
:103BE000F8D10CBD10B53D48006840F001003B49DC
:103BF00008600020394908310860384800683A49AF
:103C00000840364908603948091D0860081F0068E7
:103C100020F48020091F0860002030490C31086022
:103C2000FFF780FF4FF000603149086010BD70B5AC
:103C300000200022022300240221284D08352D688F
:103C400005F00C0020B1042806D0082834D107E084
:103C5000284D294E356033E0284D274E35602FE042
:103C60001E4D2D1D2D68C5F380541C4D2D1D2D6836
:103C700005F03F0154B1214DB5FBF1F5174E361D4E
:103C80003668C6F3881605FB06F209E0194DB5FB48
:103C9000F1F5124E361D3668C6F3881605FB06F29E
:103CA0000E4D2D1D2D68C5F301456D1C6B00B2FB3B
:103CB000F3F5114E356003E00E4D0F4E356000BF39
:103CC00000BF064D08352D68C5F303150C4E705D19
:103CD000094D2D68C540084E356070BD0038024062
:103CE000193C4005003C0240FFFFF6FE1030002466
:103CF00008ED00E00024F4006C02002040787D0113
:103D00007002002001B581B0002000900198009061
:103D100002E00098401E009000980028F9D10CBDE8
:103D200010B50121480607F04EFC00214FF000704D
:103D300007F049FC10BD0121016000214160816054
:103D4000C16001614FF48041416100218161C16125
:103D50004FF400610162002141628162C16201632E
:103D600041638163C16340210164202141640021DA
:103D70008164C164016541658165C1650166802119
:103D8000416600218166C166016741678167C1673D
:103D90004FF08061C0F880104910C0F884100021F5
:103DA000C0F888104FF40011C0F88C100021C0F842
:103DB0009010C0F89410C0F89810C0F89C10C0F88B
:103DC000A0104FF00071C0F8A4104912C0F8A8105C
:103DD0008901C0F8AC104912C0F8B0100021C0F839
:103DE000B410C0F8B81070472DE9F04186B0044611
:103DF00088460027002500200590F74E0090F748E0
:103E0000056925F01C0501A807F0F3FA029EF448A5
:103E1000864205D3F348864202D245F0080511E0F8
:103E2000F048864205D3EC48864202D245F00C05A4
:103E300008E0E948864203D3EB48864200D201E01D
:103E400045F00405E5480561E848FFF75BFF206899
:103E5000B8B1E7490098884203D1002006B0BDE818
:103E6000F08100200090E2490098884201D10020B2
:103E7000F4E7002000904FF400602062C000606111
:103E800003E06FF07F40FFF73DFFD4480568D94855
:103E90000540D4E901010843E1680843216908436A
:103EA00061690843A1690843E1690843216A08433D
:103EB000616A0843A16A0843E16A0843216B084329
:103EC000616B08430543C5480560D4E90E0108430A
:103ED000216C0843616C0843A16C0843E16C084302
:103EE000216D0843616D0843BC494860A06D88603E
:103EF000E06DC860084685694FF641700540B4F82A
:103F00006010606E40EA0140A16E0843E16E084314
:103F1000216F0843616F08430543B0488561D4E9C8
:103F20001E010843AD49C861B3488569B3480540DF
:103F3000D4E920010843D4F888100843D4F88C1041
:103F40000843D4F890100843D4F894100843D4F8E8
:103F500098100843D4F89C100843D4F8A0100843E4
:103F60000543A5488561D4E929010843D4F8AC107C
:103F70000843D4F8B0100843D4F8B41040EA8100E4
:103F8000D4F8B810084340F400009B490860084684
:103F9000006840F08000086001205FE730B196497A
:103FA000896941F00201944A916105E09249896969
:103FB00021F00201904A9161704730B18E498969C0
:103FC00041F400518C4A916105E08B49896921F4E3
:103FD0000051894A9161704730B18049096841F0C8
:103FE00004017E4A116005E07C49096821F0040162
:103FF0007A4A116070478048806940F480107E4999
:104000008861704730B17549096841F00801734A09
:10401000116005E07149096821F008016F4A1160DB
:10402000704700B50120FFF7EDFFFFF7E4FF012027
:10403000FFF7D2FF0120FFF7C0FF0120FFF7AEFF1F
:1040400000BD00206549896901F0010109B1012025
:1040500000E0002070476148806940F001005F493E
:104060008861704730B15D49896941F001015B4A5F
:10407000916105E05949896921F00101574A91612F
:10408000704701460020554A926B0A400AB1012050
:1040900000E00020704701460020504A926B0A4021
:1040A0000AB1012000E00020704729B14B4AD26BD1
:1040B00082434A4BDA6304E0484AD26B0243474BDF
:1040C000DA63704710B50B794C7943EA0422434B0D
:1040D00003441A64CB781B068C7843EA04434C787B
:1040E00043EA04230C7843EA04023C4B03445A6439
:1040F00010BD0246394B1344186C030A4B7108710A
:10410000364B1344586C030ECB70030C8B70030AB0
:104110004B700870704741B1304A0244126C42F053
:1041200000422E4B03441A6407E02C4A0244126CEE
:1041300022F00042294B03441A647047082908D032
:10414000264A0244126C42F08042244B03441A6413
:1041500007E0224A0244126C22F080421F4B0344C3
:104160001A6470471D4A0244126C22F07C521B4BA9
:1041700003441A64194A0244126C0A43174B03445D
:104180001A6470471EB5002100220092019202922B
:104190001B4A12681268C2F30D42111F0091194A9E
:1041A00012689268012A05D9164A12681268926844
:1041B000019203E0124A126892680192104A126852
:1041C00002920F4A1268D2680D4B1A609DE81C00DB
:1041D00080E81C001EBD00000087930300800240A1
:1041E000002D3101C00E160200E1F505FFFF0F00A2
:1041F000FFFF04000F8120FF00900240233FDEF804
:1042000084020020880200200FB500210191029154
:10421000039100916FE00099491C0091F9490968E8
:10422000096801F40071A1B1F6490968096801F44F
:10423000807171B9F3490968F34A1268116001216C
:10424000F14A12689160EF490968C968ED4A116046
:1042500051E0EC490968096801F4807191B9E949B4
:104260000968096801F4007161B9E749096889685A
:10427000491CE54A12689160E2490968C968E14A47
:10428000116038E0DF490968DF4A12685160DE4991
:1042900009688968491CDC4A12689160DA49096832
:1042A0008968012904D1D7490968D74A1268116081
:1042B000D44909680968C1F30D41091F0191D24928
:1042C00009688968012905D9CF4909680968896899
:1042D000029103E0CB49096889680291C9490968DC
:1042E0000391C8490968C968C64A116001A90EC985
:1042F00080E80E000FBDC3490968096801F000415C
:1043000011B90099052986D301A90EC980E80E00CC
:1043100000BFEFE770B50246002300250024BB482C
:104320000068006800F0004008B1002070BDB74888
:10433000016840F2F450824208DD92FBF0F392FBF8
:10434000F0F600FB162010B15B1C00E00123012BEE
:104350001AD1AE480068006840F04050AB4E366855
:104360003060C2F30C00A94E36687060A748006840
:10437000006840F00040A54E36683060A3480068F1
:10438000C068A24E306028E0002422E03CB99F487B
:104390000068006840F080509C4E3668306040F203
:1043A000F4504860581EA0420DD1086840F00050FB
:1043B0000860581EC0EBC01000EB4000A2EB800567
:1043C000C5F30C004860086840F000400860C96808
:1043D000641C9C42DAD38D4801608D48406900F02E
:1043E000040020B104208A4E70610020706001201A
:1043F0009CE770B50C4613460021824D286000BF33
:1044000018E000EB41124FF00045156044F2F455FE
:104410005560C1EBC11505EB450504EB85059560BD
:104420005D1E8D4204D900EB41152035D56000E0BA
:10443000D060491C9942E4D3754DE860754D724EC9
:10444000356070BD6F480068006800F0004098B9A2
:104450006C480068006800F4807068B169480068C2
:10446000694909684860684800688068401C664976
:10447000096888600120704762480068006800F0A1
:104480000040F0B95F480068006800F40070C0B1F7
:104490005C480068006800F4807090B95948006872
:1044A0005949096808600020574909684860012097
:1044B00055490968886053480068C06851490860D8
:1044C0001DE050480068006800F00040B8B94D4851
:1044D0000068006800F4007088B94A480068006805
:1044E00000F4807058B9484800688068401C46490C
:1044F0000968886043480068C06842490860002035
:10450000B9E730B50C4613460021404D286000BF86
:1045100015E000EB41124FF480151560C1EBC11599
:1045200005EB450504EB850595605D1E8D4204D9BC
:1045300000EB41152035D56000E0D060491C994260
:10454000E7D3334D286130BD0246002013680B408D
:104550000BB1012000E00020704701460868C0F35D
:10456000C3007047016841F000410160704721B10C
:10457000026842F08042026003E0026822F080425A
:104580000260704702680A430260704702680A438B
:104590000260704721B1026822F00062026003E00D
:1045A000026842F000620260704721B1026842F482
:1045B0008012026003E0026822F4801202607047F9
:1045C00021B1026822F08062026003E0026842F0DA
:1045D00080620260704710B541EA02444368234399
:1045E000436010BD0246002013680B400BB1012050
:1045F00000E0002070470246002013690B405BB1C9
:1046000001200AE0840200208802002080020020AD
:1046100000900240C892002000207047016841F0DD
:1046200000410160704701460868C0F30D407047C3
:1046300021B1426822F00042426003E0426842F049
:10464000004242607047024619B15068C0F30C4006
:1046500070479088C0F30C00FAE700B502460023CB
:10466000106800F0004058B9106800F4004038B9F4
:10467000106800F4807018B11046FFF7D4FF0346AD
:10468000184600BD30B1F849096841F08001F64A8A
:10469000116005E0F449096821F08001F24A1160D7
:1046A0007047F148006840F00100EF49086070472A
:1046B0000020ED49096801F0010109B1012000E085
:1046C0000020704701460020E74A52690A400AB1BB
:1046D000012000E000207047E3494861704729B19C
:1046E000E14AD2690243E04BDA6104E0DE4AD26972
:1046F0008243DD4BDA61704701460020DA4A526995
:104700000A400AB1012000E000207047D649486104
:104710007047D548406900F001007047D2484069B1
:1047200000F0400070470020CF49896901F48011F2
:1047300009B1012000E00020704701460020CA4A6C
:10474000126A0A400AB1012000E000207047C64802
:10475000006AC0F34A407047C348006A80B270479D
:10476000C148806C7047C048C06C7047BE48006D3F
:104770007047BD48406D70470020BB494860704796
:104780000020B94988607047B7494862704718B53A
:1047900002460B46002100200090B448016901F058
:1047A0001C014FF4784000EAC22001434FF4F86046
:1047B00000EA8310014321F0020141F00101AB48FE
:1047C000016100BF0098401C0090A848016901F0F9
:1047D000010018B1A64C0098A042F3D3A44C009855
:1047E000A04201D1002018BDA048406980B2FAE77C
:1047F00038B503460C460021002000909B48016913
:1048000001F01C014FF4784000EAC32001434FF44B
:10481000F86000EA8410014341F0020141F0010117
:1048200092484261016100BF0098401C00908F488F
:10483000016901F0010018B18D4D0098A842F3D331
:104840008B4D0098A84201D1002038BD0120FCE723
:1048500070B506460D46002400213046FFF797FF4D
:10486000044615B144F4804402E04BF6FF70044066
:10487000224600213046FFF7BBFF08B1012070BD82
:104880000020FCE77948C06A40F000407749C862E0
:1048900070470146002000BF04E051F82020734B10
:1048A0009A62401C0828F8D3704730B16F49C96A32
:1048B00041F400716D4AD16205E06C49C96A21F486
:1048C00000716A4AD162704701460020674AD26A85
:1048D0000A400AB1012000E00020704730B163496E
:1048E000C96A41F00401614AD16205E05F49C96AC1
:1048F00021F004015D4AD162704730B15B49C96A59
:1049000041F00201594AD16205E05849C96A21F0D3
:104910000201564AD162704730B15449C96A41F028
:104920000101524AD16205E05049C96A21F00101F2
:104930004E4AD16270474F48006840F030004B4902
:10494000C1F8000170474B48006820F0200047493B
:10495000C1F800010846D0F8000140F01000C1F88D
:104960000001704738B14349096841F008013F4AE6
:10497000C2F8001106E03F49096821F008013B4AEE
:10498000C2F80011704738B13A49096841F0040192
:10499000364AC2F8001106E03649096821F00401E0
:1049A000324AC2F80011704738B13249096821F023
:1049B00002012E4AC2F8001106E02E49096841F0B2
:1049C00002012A4AC2F8001170472A48006840F0E4
:1049D00001002649C1F80001704700F0805292B1F1
:1049E00020F0805039B1234A0C32126882431F4BA9
:1049F000C3F80C2117E01F4A0C32126802431B4B0C
:104A0000C3F80C210FE039B11A4A10321268824300
:104A1000164BC3F8102106E0164A10321268024302
:104A2000124BC3F8102170470146002001F080525C
:104A30006AB1104A121D12680A4032B10D4A0C3296
:104A400012680A400AB9012017E0002015E0094A5F
:104A5000083212680A407AB1064A0C3212680A40DB
:104A600052B9012009E0000000900240008002409D
:104A7000FFFF04000081024000207047014601480A
:104A8000085870470080024030B500BF00BF00BF2B
:104A900000BF00BF00BF00BF00BF0388C84C246830
:104AA0001919884215D00B799BB9C64B1B689942DE
:104AB0000FD0C54B1B688B4201D1C34B18600B88CC
:104AC0000380BF4B1B88C31A0C88BD4D2D682C4436
:104AD00063804388BA4C24681A19824211D0137932
:104AE0007BB9B94B1B68834201D1B74B1A6003886D
:104AF0001380B34B1B88D31A0488B14D2D682C4406
:104B0000638030BD00BF00BFB04921F00301AC4A53
:104B10001160114608684FF4205101800021418046
:104B200001711146096801F52051A64A1160012161
:104B3000126811714FF42051A24A12681180A14AE3
:104B4000126851800121A24A11709D4909689E4A4C
:104B50001160704770B5054605B970BD00BF00BF54
:104B600000BF00BF96480068854203D3954800689F
:104B7000854200D3F1E7A5F1080400BF00BF002083
:104B8000207191480068844201D28F480460204619
:104B9000FFF77AFF00BFE0E72DE9F04106460A463D
:104BA000D01C20F0030082B20C2A00DA0C22B2F5ED
:104BB000205F02DD0020BDE8F08100BF00BF80481B
:104BC0000068864203D37F480068864201D330469E
:104BD000F1E7A6F108047A480088201A85B22088F7
:104BE000401B083887B200BF00BFBA4201DD002079
:104BF000E1E7BA4201D13046DDE72088DFF8C0C1E5
:104C0000DCF800C000EB0C01087980BB088805F1D6
:104C1000080C94441FFA8CF3DFF8ACC1DCF800C038
:104C20008C4508D1DFF898C1DCF800C09C44DFF85F
:104C30009881C8F800C0DFF888C1DCF800C00CEB30
:104C400003014FF0000C81F804C008804D802380E0
:104C5000B1F800C0BCF5205F08D0B1F800C0DFF8A3
:104C60006081D8F80080C444ACF8023022E0FFE74D
:104C700002F11400B8421DD805F10800104483B2B7
:104C80004F480068C11850480068814201D24E4820
:104C9000016000200871208808804D8023800888EA
:104CA000B0F5205F06D00888DFF814C1DCF800C03A
:104CB0006044438030467EE770B502460AB9002062
:104CC00070BDD01C20F0030082B20C2A00DA0C2246
:104CD000B2F5205F01DD0020F2E73B480088384E46
:104CE0003688801B83B253E035480068C1180879C4
:104CF00000284AD10E8803F10800301A904244D3AC
:104D00000E8803F10800361A02F11400864218D307
:104D100003F10800104485B22948006844190020B6
:104D200020710888208063800D8001200871208810
:104D3000B0F5205F07D02088214E3668304445808A
:104D400001E00120087120480068814214D107E089
:104D50001D48006800881A4E366830441A4E30608C
:104D600019480068007928B117480068154E366860
:104D7000B042EDD100BF00BF00BF00BF00BF00BF09
:104D800000BF00BF01F108009AE70D480068C35A50
:104D9000C2F520509842A7DC002091E770B5044688
:104DA0000D4604FB05F188B2FFF786FF064626B1E3
:104DB00004FB05F1304609F095FA304670BD00005D
:104DC000900200209402002098020020D792002038
:104DD0009C02002010B5002001E0431C98B2092875
:104DE000FBDB224B23F00301002019E00023204CC1
:104DF00044F8203000220CE01D4B53F820300B60AB
:104E00001B4B43F820101B4B33F810301944531C34
:104E10009AB2194B33F810309342EDDC431C98B230
:104E20000928E3DB10BD024600BF092A01DB002090
:104E3000704700BF0E4850F8221031B10C4B086883
:104E400043F8220000BF00BF00BF0846F0E701B9E9
:104E5000704700BF00BF0A46054B53F8203013606F
:104E6000034B43F8202000BFF2E700000FBB0020F7
:104E7000E8BA0020E0F60000F2F6000009B90022CE
:104E800000E00A68C260704709B9002200E00A68C1
:104E9000826070472DE9F04107460D462868796821
:104EA000884201D1012000E0002018BB6F4806684D
:104EB0000CE030687968884207D1D6F80C8001216F
:104EC000304600F090FF464600E0F668002EF0D134
:104ED000674804680CE054B1206840B120687968E4
:104EE000884204D10DB9002000E028682060E46801
:104EF000002CF0D10DB9002000E028687860BDE8F2
:104F0000F0812DE9F04106460F4614461D4639460C
:104F10003046FFF7BFFF21463046FFF7B5FF294671
:104F20003046FFF7ABFFBDE8F0812DE9F0470446BE
:104F30000D4616461F46DDE909A9DDF82080002050
:104F40006060A060E06084F82D002062C4F81C80DE
:104F50004848007884F8300046480078401C4549AD
:104F60000870C4F810903B46324629462046FFF7A9
:104F7000C8FF2046D04710B10020BDE8F0873E486A
:104F8000006820603C4804602046F6E73B49086022
:104F9000704700B5024602B900BD3748006890422C
:104FA00003D13549106808600FE03349086806E00E
:104FB0000168914202D11168016002E00068002896
:104FC000F6D100BF00B9E7E700BF2C480068904267
:104FD00002D10020FFF7DAFF00BFDDE710B502467F
:104FE0000AB9002010BD90783038C3B22248016859
:104FF00010E091F8300098420BD1107891F82E40D3
:10500000A04206D154782F20405C844201D108464A
:10501000E8E709680029ECD10020E3E710B5044671
:1050200094F82D0000F0010068B914F82D0F40F03D
:105030000100207014F82D0900F0200018B1211D86
:10504000204604F0A8FE10BD90F82D1001F00101DB
:1050500029B190F82D1021F0010180F82D10704732
:10506000014691F82D0000F001007047E802002091
:10507000E4020020A8020020A0020020A4020020D8
:105080002DE9F041044624B900BF00BF0020BDE86F
:10509000F08100BF00BF002625E000BF00BFE0890F
:1050A000401E1FFA80F8A4F80E80B8F1000F18D146
:1050B0002768257B032D04D121460820FFF7C7FE72
:1050C0000BE0012D01D0022D04D121460720FFF76E
:1050D000BEFE02E02046FFF73DFD701CC6B23C4616
:1050E00000E0002400BF002CD7D13046CFE72DE9E7
:1050F000F05F83460F4690460026BBF1000F09D0B3
:10510000BBF1010F0AD0BBF1020F0BD0BBF1030FB3
:105110000DD10BE006F1140086B200BF06F11400B9
:1051200086B200BF06F10E0086B205E004E000BFC3
:1051300000BF0020BDE8F09F00BFB8F1000F68D0AD
:10514000B8F1010F74D0B8F1020F72D0B8F1030FAB
:1051500070D10820FFF767FE04460CB90020E9E78C
:1051600084F80C800020206006F110002044C01C50
:1051700020F00300606000BF00BF2781F01C20F01A
:105180000300C0F58C60B84201DD384604E0F01C35
:1051900020F00300C0F58C60608100BF00BF00BF3D
:1051A00000BF0120E081A2466089A7EB00092CE046
:1051B0000820FFF738FE054625B92046FFF760FFB7
:1051C0000020B7E785F80C80002068732860CAF8D3
:1051D000005000BF00BFA5F808901FFA89F0B0F595
:1051E0008C6F02DA1FFA89F001E04FF48C6068815D
:1051F00005F11000686000BF00BF00BF00BF0120C4
:10520000E8816889A9EB0009AA46B9F1000FCFDC53
:1052100035E006F1130121F00302F91C21F003012E
:10522000114488B2FFF748FD044624B9002081E705
:1052300011E011E01FE004F110003044C01C20F028
:1052400003006060278167810020206084F80C8063
:1052500000BF00BF13E000BF0720FFF7E4FD0446D6
:105260000CB9002066E7002060602781678120601C
:1052700084F80C8003E000BF00BF00205AE700BFA5
:105280000120E08100206073204653E72DE9F041C2
:1052900006460F4600BF00BF00BF00BF3089B842BE
:1052A00001DCBDE8F0813089A7EB00083D463446BB
:1052B0000AE06089281A85B200BF00BF20894044F7
:1052C0002081246800BF00BF6089A842F1DB207BF9
:1052D00060B96089A84209D0A088001B284481B227
:1052E0002046FFF759FC044600BF00BF6581608976
:1052F0002081206810B12068FFF7C2FE00202060E6
:1053000000BFCEE770B5024600BF00BF01B10AB9C9
:10531000002070BD002908DA484284B200BF5089DD
:10532000A04201DA0120F4E700E08CB2137B55685B
:105330000BB1032B0AD15068401A506002F11000E3
:105340005668864215D255600120E2E7022B01D053
:10535000012B0AD1002906DA5089A04203DB5068EC
:10536000401A506005E00120D3E700BF00BF0120D4
:10537000CFE75089084450811089084410810020EB
:10538000C7E70146002002E0421CD0B209680029AC
:10539000FAD1704710B1C189491CC181704710B55D
:1053A000024600BF02B101B910BD00BF104604E0C3
:1053B00003890C892344038100680368002BF7D11B
:1053C00000BF00BF00BF00BF03890C8923440381D5
:1053D000016000BFE8E730B505460C462146284687
:1053E000FFF7DDFF2046FFF7D5FF30BD70B504465F
:1053F0000126256875B100BF00BF20896189401A68
:10540000288100202060608920812846FFF738FE2F
:10541000064600BF00BF00BF002E01DD002070BDAA
:105420002846FCE72DE9F04105460C4600260027FA
:1054300000BF25B11CB128892189884203DA6FF0A9
:105440000900BDE8F08100BF00BF00BF00BF688950
:10545000801B6189C91B884204DB6089C01B1FFA5D
:1054600080F803E06889801B1FFA80F86268D11910
:105470006A689019424608F0B6FE06EB080086B24C
:1054800007EB080087B200BF00BF6889B04201D1B6
:1054900000262D6800BF00BF6089B84201DC0027EC
:1054A000246854B160892189884206D100BF2068F0
:1054B00010B16FF00800C4E700BF55B168892989B1
:1054C000884206D100BF286810B16FF00800B8E725
:1054D00000BF002CB9D10020B3E72DE9F05F804672
:1054E000894616461D464FF0000B00BFB8F1000F6D
:1054F00002D10020BDE8F09F00BF00BFB9F1000F4E
:1055000001D10020F6E700BF4FF0000AB8F1000F0C
:1055100002D0B9F1000F01D10020EBE7444620E0B2
:1055200035B16089A84203DC6089281A85B217E08A
:105530006089401B87B2B74200DD37466268511967
:1055400009EB0A003A4608F04EFE0BEB07001FFA83
:1055500080FB0AEB07001FFA80FAF01B86B20025D9
:1055600024680EB1002CDBD15846C3E72DE9F04783
:1055700004460E469146C8464FF0000A00BF14B9D3
:105580000020BDE8F08700BF00BF0EB90020F8E79B
:1055900000BF1CB116B12089484502DA6FF009003E
:1055A000EFE7254615E000BF00BF47466889B842CF
:1055B00000DA6F8906EB0A013A46686808F013FEC4
:1055C000A8EB07001FFA80F80AEB07001FFA80FA21
:1055D0002D68B8F1000FE6D100BF00BF0020D0E772
:1055E0002DE9F04104460E46206810B92046BDE87A
:1055F000F081218900223046FFF779FD05460DB97B
:105600002046F4E721462846FFF70CFF074600BF77
:1056100000BF2046FFF734FD2846E8E72DE9F047B4
:1056200005468A464FF000086F68388903F00FFB83
:1056300000F0FF0900266048046819E0207C484516
:1056400014D1606990B107F10C032A462146D4E9D0
:1056500005C0E04750B100254FF0010836B1E068C1
:10566000F06055480068E060534804602646E468EE
:10567000B8F1000F01D1002CE0D14046BDE8F08721
:10568000024609B9002000E0086810600020704759
:10569000024609B9002000E0086850600020704709
:1056A0004161826170472DE9FE4F04460E469146E6
:1056B00014213046FFF726FE78B100221146012062
:1056C000FFF715FD05461DB94FF0FF30BDE8FE8F11
:1056D00031462846FFF77FFE0BE035466FF0130199
:1056E0002846FFF70FFE20B100BF00BF4FF0FF308C
:1056F000ECE7484603F066FB070007D1B54202D04D
:105700002846FFF7BDFC6FF00300DFE70CB120680F
:1057100010B907F1040800E0A046207CA17ACDE989
:1057200001070091E37A4A464146284603F034FCDB
:105730008246B54202D02846FFF7A2FC5046C5E794
:1057400070B504460D46221D29462046FFF7ABFFE3
:1057500070BD70B5054618480068A84205D11648C6
:105760000068C068144908600CE01348046807E04A
:10577000E06820B1E068A84201D1E868E060E46830
:10578000002CF5D129460020FFF761FB70BD70B5F4
:1057900005460020FFF747FB04465CB11C2120466C
:1057A00008F0C2FD2574FF20E07203480068E06045
:1057B00001480460204670BDAC02002070B504466C
:1057C00000254CB1606818B16068FFF759FC0546C8
:1057D00021460420FFF73BFB284670BD70B5044608
:1057E000002506E026682046FFF7E8FF2844C5B2FA
:1057F0003446002CF6D1284670BD10B50446207CF6
:10580000A8B1207C0A2812D0207C01280FD0E06F9C
:1058100020B1E06FFFF734FC0020E067606FFFF716
:10582000DDFFA06FFFF7DAFF00206067A06710BD03
:105830002DE9FC474FF0000AFB480068401CFA497C
:1058400008600026F948046827E100BF00BF00BFD8
:1058500000BF00BF00BF0025A846207C022806D15B
:1058600094F84A00062802D1681CC5B26AE094F890
:105870004A000C2802D1681CC5B263E094F89C0071
:1058800000281BDD54F8980F401C20602079216807
:10589000983C401EE64A105C814253D30020C4F875
:1058A000980094F89C00072804D294F89C00401CAF
:1058B00084F89C00204602F0A6FB43E0B4F93600D1
:1058C000002803DBE08E401C00B2E086A06FC8B366
:1058D000B4F93600B4F94810884233DB207C022842
:1058E0000CD044346088B4F9001000EBE100A179D9
:1058F000D04A515C884000B2A080443C0020E08641
:10590000B4F85200B4F85C10884202DAB4F85200DD
:1059100001E0B4F85C0081464FEA6900A4F8540045
:10592000B4F85400218F884206DA208F4FF6FF71B9
:1059300001EA4000A4F85400208FA4F85200204649
:1059400002F0B2FA207C062807D1B749206B09681B
:10595000081A282801D9681CC5B2207A00F008006E
:10596000A8B3207C042802D0207C07282FD1B2497C
:10597000D4F8940008444FF4FA71B0FBF1F0AA4A4D
:10598000216B1268511A884206D2681CC5B208F110
:10599000010000F0FF081AE094F89D0042F29F42D7
:1059A0005043D4F8941001EBC0004FF4FA71B0FBEF
:1059B000F1F09D4A216B1268511A884207D22046A5
:1059C00002F0F8FA94F89D00401C84F89D00207CB9
:1059D000032807D19449206B0968081A282801D99F
:1059E000681CC5B2207C092807D18F49206B096843
:1059F000081AF02801D9681CC5B265B32046FFF724
:105A0000FCFE26B100BF00BFE068F06004E000BF0C
:105A100000BF8649E068086000BFD4F8900028B154
:105A20006FF00401D4F890206069904700BFB8F18E
:105A3000000F09D0208C218BCDE90010231D2246B8
:105A4000616AA06D02F0DBF9E76821460220FFF7EA
:105A5000FEF93C4621E014F8340F401C20702078F9
:105A60006178343C884216DB002084F8340000BFA3
:105A7000D4F88C0030B12146D4F88C20606990476E
:105A8000824601E04FF0000A00BFBAF1000F02D1D8
:105A9000204602F0C7F82646E468002C7FF4D5AE15
:105AA00000266648046822E000BF00BF00255E496A
:105AB000206B0968081AF02801D9681CC5B2A5B185
:105AC0002046FFF79AFE26B100BF00BFE068F060F5
:105AD00004E000BF00BF5949E0680860E76821465C
